{
  "_format": "hh-sol-artifact-1",
  "contractName": "FlipRoyaleRewardsClaim",
  "sourceName": "contracts/FlipRoyaleRewardsClaim.sol",
  "abi": [
    {
      "inputs": [
        {
          "internalType": "address",
          "name": "_usdc",
          "type": "address"
        },
        {
          "internalType": "address",
          "name": "_oracle",
          "type": "address"
        }
      ],
      "stateMutability": "nonpayable",
      "type": "constructor"
    },
    {
      "inputs": [],
      "name": "ECDSAInvalidSignature",
      "type": "error"
    },
    {
      "inputs": [
        {
          "internalType": "uint256",
          "name": "length",
          "type": "uint256"
        }
      ],
      "name": "ECDSAInvalidSignatureLength",
      "type": "error"
    },
    {
      "inputs": [
        {
          "internalType": "bytes32",
          "name": "s",
          "type": "bytes32"
        }
      ],
      "name": "ECDSAInvalidSignatureS",
      "type": "error"
    },
    {
      "inputs": [
        {
          "internalType": "address",
          "name": "owner",
          "type": "address"
        }
      ],
      "name": "OwnableInvalidOwner",
      "type": "error"
    },
    {
      "inputs": [
        {
          "internalType": "address",
          "name": "account",
          "type": "address"
        }
      ],
      "name": "OwnableUnauthorizedAccount",
      "type": "error"
    },
    {
      "inputs": [],
      "name": "ReentrancyGuardReentrantCall",
      "type": "error"
    },
    {
      "inputs": [
        {
          "internalType": "address",
          "name": "token",
          "type": "address"
        }
      ],
      "name": "SafeERC20FailedOperation",
      "type": "error"
    },
    {
      "anonymous": false,
      "inputs": [
        {
          "indexed": true,
          "internalType": "address",
          "name": "user",
          "type": "address"
        },
        {
          "indexed": false,
          "internalType": "uint256",
          "name": "amount",
          "type": "uint256"
        },
        {
          "indexed": false,
          "internalType": "uint256",
          "name": "nonce",
          "type": "uint256"
        }
      ],
      "name": "Claimed",
      "type": "event"
    },
    {
      "anonymous": false,
      "inputs": [
        {
          "indexed": true,
          "internalType": "address",
          "name": "from",
          "type": "address"
        },
        {
          "indexed": false,
          "internalType": "uint256",
          "name": "amount",
          "type": "uint256"
        }
      ],
      "name": "FundsDeposited",
      "type": "event"
    },
    {
      "anonymous": false,
      "inputs": [
        {
          "indexed": true,
          "internalType": "address",
          "name": "to",
          "type": "address"
        },
        {
          "indexed": false,
          "internalType": "uint256",
          "name": "amount",
          "type": "uint256"
        }
      ],
      "name": "FundsWithdrawn",
      "type": "event"
    },
    {
      "anonymous": false,
      "inputs": [
        {
          "indexed": true,
          "internalType": "address",
          "name": "oldOracle",
          "type": "address"
        },
        {
          "indexed": true,
          "internalType": "address",
          "name": "newOracle",
          "type": "address"
        }
      ],
      "name": "OracleUpdated",
      "type": "event"
    },
    {
      "anonymous": false,
      "inputs": [
        {
          "indexed": true,
          "internalType": "address",
          "name": "previousOwner",
          "type": "address"
        },
        {
          "indexed": true,
          "internalType": "address",
          "name": "newOwner",
          "type": "address"
        }
      ],
      "name": "OwnershipTransferred",
      "type": "event"
    },
    {
      "inputs": [
        {
          "internalType": "uint256",
          "name": "amount",
          "type": "uint256"
        },
        {
          "internalType": "uint256",
          "name": "nonce",
          "type": "uint256"
        },
        {
          "internalType": "bytes",
          "name": "signature",
          "type": "bytes"
        }
      ],
      "name": "claim",
      "outputs": [],
      "stateMutability": "nonpayable",
      "type": "function"
    },
    {
      "inputs": [
        {
          "internalType": "address",
          "name": "",
          "type": "address"
        }
      ],
      "name": "claimNonces",
      "outputs": [
        {
          "internalType": "uint256",
          "name": "",
          "type": "uint256"
        }
      ],
      "stateMutability": "view",
      "type": "function"
    },
    {
      "inputs": [
        {
          "internalType": "uint256",
          "name": "amount",
          "type": "uint256"
        }
      ],
      "name": "deposit",
      "outputs": [],
      "stateMutability": "nonpayable",
      "type": "function"
    },
    {
      "inputs": [
        {
          "internalType": "uint256",
          "name": "amount",
          "type": "uint256"
        }
      ],
      "name": "emergencyWithdraw",
      "outputs": [],
      "stateMutability": "nonpayable",
      "type": "function"
    },
    {
      "inputs": [],
      "name": "getContractBalance",
      "outputs": [
        {
          "internalType": "uint256",
          "name": "",
          "type": "uint256"
        }
      ],
      "stateMutability": "view",
      "type": "function"
    },
    {
      "inputs": [
        {
          "internalType": "address",
          "name": "user",
          "type": "address"
        }
      ],
      "name": "getNonce",
      "outputs": [
        {
          "internalType": "uint256",
          "name": "",
          "type": "uint256"
        }
      ],
      "stateMutability": "view",
      "type": "function"
    },
    {
      "inputs": [],
      "name": "oracle",
      "outputs": [
        {
          "internalType": "address",
          "name": "",
          "type": "address"
        }
      ],
      "stateMutability": "view",
      "type": "function"
    },
    {
      "inputs": [],
      "name": "owner",
      "outputs": [
        {
          "internalType": "address",
          "name": "",
          "type": "address"
        }
      ],
      "stateMutability": "view",
      "type": "function"
    },
    {
      "inputs": [],
      "name": "renounceOwnership",
      "outputs": [],
      "stateMutability": "nonpayable",
      "type": "function"
    },
    {
      "inputs": [
        {
          "internalType": "address",
          "name": "newOracle",
          "type": "address"
        }
      ],
      "name": "setOracle",
      "outputs": [],
      "stateMutability": "nonpayable",
      "type": "function"
    },
    {
      "inputs": [
        {
          "internalType": "address",
          "name": "",
          "type": "address"
        }
      ],
      "name": "totalClaimed",
      "outputs": [
        {
          "internalType": "uint256",
          "name": "",
          "type": "uint256"
        }
      ],
      "stateMutability": "view",
      "type": "function"
    },
    {
      "inputs": [
        {
          "internalType": "address",
          "name": "newOwner",
          "type": "address"
        }
      ],
      "name": "transferOwnership",
      "outputs": [],
      "stateMutability": "nonpayable",
      "type": "function"
    },
    {
      "inputs": [],
      "name": "usdc",
      "outputs": [
        {
          "internalType": "contract IERC20",
          "name": "",
          "type": "address"
        }
      ],
      "stateMutability": "view",
      "type": "function"
    }
  ],
  "bytecode": "0x60a060405234801561001057600080fd5b50604051610f30380380610f3083398101604081905261002f91610184565b338061005657604051631e4fbdf760e01b8152600060048201526024015b60405180910390fd5b61005f81610118565b50600180556001600160a01b0382166100a95760405162461bcd60e51b815260206004820152600c60248201526b496e76616c6964205553444360a01b604482015260640161004d565b6001600160a01b0381166100f05760405162461bcd60e51b815260206004820152600e60248201526d496e76616c6964206f7261636c6560901b604482015260640161004d565b6001600160a01b03918216608052600280546001600160a01b031916919092161790556101b7565b600080546001600160a01b038381166001600160a01b0319831681178455604051919092169283917f8be0079c531659141344cd1fd0a4f28419497f9722a3daafe3b4186f6b6457e09190a35050565b80516001600160a01b038116811461017f57600080fd5b919050565b6000806040838503121561019757600080fd5b6101a083610168565b91506101ae60208401610168565b90509250929050565b608051610d3b6101f560003960008181610115015281816102390152818161044101528181610558015281816105e4015261071e0152610d3b6000f3fe608060405234801561001057600080fd5b50600436106100cf5760003560e01c80637adbf9731161008c578063b6b55f2511610066578063b6b55f25146101be578063db6c7d3e146101d1578063ef5d9ae8146101f1578063f2fde38b1461021157600080fd5b80637adbf973146101875780637dc0d1d01461019a5780638da5cb5b146101ad57600080fd5b80632d0335ab146100d45780633e413bee146101105780635312ea8e1461014f5780635eddd157146101645780636f9fb98a14610177578063715018a61461017f575b600080fd5b6100fd6100e2366004610b71565b6001600160a01b031660009081526003602052604090205490565b6040519081526020015b60405180910390f35b6101377f000000000000000000000000000000000000000000000000000000000000000081565b6040516001600160a01b039091168152602001610107565b61016261015d366004610ba1565b610224565b005b610162610172366004610bd0565b610299565b6100fd6105cc565b61016261065c565b610162610195366004610b71565b610670565b600254610137906001600160a01b031681565b6000546001600160a01b0316610137565b6101626101cc366004610ba1565b610711565b6100fd6101df366004610b71565b60036020526000908152604090205481565b6100fd6101ff366004610b71565b60046020526000908152604090205481565b61016261021f366004610b71565b610778565b61022c6107b6565b6102606001600160a01b037f00000000000000000000000000000000000000000000000000000000000000001633836107e3565b60405181815233907feaff4b37086828766ad3268786972c0cd24259d4c87a80f9d3963a3c3d999b0d906020015b60405180910390a250565b6102a1610842565b600083116102e75760405162461bcd60e51b815260206004820152600e60248201526d125b9d985b1a5908185b5bdd5b9d60921b60448201526064015b60405180910390fd5b3360009081526003602052604090205482146103355760405162461bcd60e51b815260206004820152600d60248201526c496e76616c6964206e6f6e636560981b60448201526064016102de565b6040516bffffffffffffffffffffffff1933606090811b82166020840152603483018690526054830185905230901b16607482015246608882015260009060a80160405160208183030381529060405280519060200120905060006103c7827f19457468657265756d205369676e6564204d6573736167653a0a3332000000006000908152601c91909152603c902090565b905060006103d5828561086c565b6002549091506001600160a01b038083169116146104295760405162461bcd60e51b8152602060048201526011602482015270496e76616c6964207369676e617475726560781b60448201526064016102de565b6040516370a0823160e01b81523060048201526000907f00000000000000000000000000000000000000000000000000000000000000006001600160a01b0316906370a0823190602401602060405180830381865afa158015610490573d6000803e3d6000fd5b505050506040513d601f19601f820116820180604052508101906104b49190610c94565b9050868110156105065760405162461bcd60e51b815260206004820152601d60248201527f496e73756666696369656e7420636f6e74726163742062616c616e636500000060448201526064016102de565b33600090815260036020526040812080549161052183610cc3565b90915550503360009081526004602052604081208054899290610545908490610cdc565b9091555061057f90506001600160a01b037f00000000000000000000000000000000000000000000000000000000000000001633896107e3565b604080518881526020810188905233917f987d620f307ff6b94d58743cb7a7509f24071586a77759b77c2d4e29f75a2f9a910160405180910390a2505050506105c760018055565b505050565b6040516370a0823160e01b81523060048201526000907f00000000000000000000000000000000000000000000000000000000000000006001600160a01b0316906370a0823190602401602060405180830381865afa158015610633573d6000803e3d6000fd5b505050506040513d601f19601f820116820180604052508101906106579190610c94565b905090565b6106646107b6565b61066e6000610898565b565b6106786107b6565b6001600160a01b0381166106bf5760405162461bcd60e51b815260206004820152600e60248201526d496e76616c6964206f7261636c6560901b60448201526064016102de565b600280546001600160a01b038381166001600160a01b0319831681179093556040519116919082907f078c3b417dadf69374a59793b829c52001247130433427049317bde56607b1b790600090a35050565b6107466001600160a01b037f0000000000000000000000000000000000000000000000000000000000000000163330846108e8565b60405181815233907f543ba50a5eec5e6178218e364b1d0f396157b3c8fa278522c2cb7fd99407d4749060200161028e565b6107806107b6565b6001600160a01b0381166107aa57604051631e4fbdf760e01b8152600060048201526024016102de565b6107b381610898565b50565b6000546001600160a01b0316331461066e5760405163118cdaa760e01b81523360048201526024016102de565b6040516001600160a01b038381166024830152604482018390526105c791859182169063a9059cbb906064015b604051602081830303815290604052915060e01b6020820180516001600160e01b038381831617835250505050610927565b60026001540361086557604051633ee5aeb560e01b815260040160405180910390fd5b6002600155565b60008060008061087c8686610998565b92509250925061088c82826109e5565b50909150505b92915050565b600080546001600160a01b038381166001600160a01b0319831681178455604051919092169283917f8be0079c531659141344cd1fd0a4f28419497f9722a3daafe3b4186f6b6457e09190a35050565b6040516001600160a01b0384811660248301528381166044830152606482018390526109219186918216906323b872dd90608401610810565b50505050565b600080602060008451602086016000885af18061094a576040513d6000823e3d81fd5b50506000513d9150811561096257806001141561096f565b6001600160a01b0384163b155b1561092157604051635274afe760e01b81526001600160a01b03851660048201526024016102de565b600080600083516041036109d25760208401516040850151606086015160001a6109c488828585610aa2565b9550955095505050506109de565b50508151600091506002905b9250925092565b60008260038111156109f9576109f9610cef565b03610a02575050565b6001826003811115610a1657610a16610cef565b03610a345760405163f645eedf60e01b815260040160405180910390fd5b6002826003811115610a4857610a48610cef565b03610a695760405163fce698f760e01b8152600481018290526024016102de565b6003826003811115610a7d57610a7d610cef565b03610a9e576040516335e2f38360e21b8152600481018290526024016102de565b5050565b600080807f7fffffffffffffffffffffffffffffff5d576e7357a4501ddfe92f46681b20a0841115610add5750600091506003905082610b67565b604080516000808252602082018084528a905260ff891692820192909252606081018790526080810186905260019060a0016020604051602081039080840390855afa158015610b31573d6000803e3d6000fd5b5050604051601f1901519150506001600160a01b038116610b5d57506000925060019150829050610b67565b9250600091508190505b9450945094915050565b600060208284031215610b8357600080fd5b81356001600160a01b0381168114610b9a57600080fd5b9392505050565b600060208284031215610bb357600080fd5b5035919050565b634e487b7160e01b600052604160045260246000fd5b600080600060608486031215610be557600080fd5b8335925060208401359150604084013567ffffffffffffffff80821115610c0b57600080fd5b818601915086601f830112610c1f57600080fd5b813581811115610c3157610c31610bba565b604051601f8201601f19908116603f01168101908382118183101715610c5957610c59610bba565b81604052828152896020848701011115610c7257600080fd5b8260208601602083013760006020848301015280955050505050509250925092565b600060208284031215610ca657600080fd5b5051919050565b634e487b7160e01b600052601160045260246000fd5b600060018201610cd557610cd5610cad565b5060010190565b8082018082111561089257610892610cad565b634e487b7160e01b600052602160045260246000fdfea26469706673582212203b68095d8c0708fa44678a760837777796d284a6af605faf8d7410037017b13e64736f6c63430008140033",
  "linkReferences": {},
  "deployedLinkReferences": {}
}