{"contracts/FlipRoyaleArenaV2.sol":{"FlipRoyaleArenaV2":{"abi":[{"inputs":[{"internalType":"address","name":"_usdc","type":"address"},{"internalType":"address","name":"_treasury","type":"address"},{"internalType":"address","name":"_oracle","type":"address"}],"stateMutability":"nonpayable","type":"constructor"},{"inputs":[],"name":"ECDSAInvalidSignature","type":"error"},{"inputs":[{"internalType":"uint256","name":"length","type":"uint256"}],"name":"ECDSAInvalidSignatureLength","type":"error"},{"inputs":[{"internalType":"bytes32","name":"s","type":"bytes32"}],"name":"ECDSAInvalidSignatureS","type":"error"},{"inputs":[],"name":"EnforcedPause","type":"error"},{"inputs":[],"name":"ExpectedPause","type":"error"},{"inputs":[{"internalType":"address","name":"owner","type":"address"}],"name":"OwnableInvalidOwner","type":"error"},{"inputs":[{"internalType":"address","name":"account","type":"address"}],"name":"OwnableUnauthorizedAccount","type":"error"},{"inputs":[],"name":"ReentrancyGuardReentrantCall","type":"error"},{"inputs":[{"internalType":"address","name":"token","type":"address"}],"name":"SafeERC20FailedOperation","type":"error"},{"anonymous":false,"inputs":[{"indexed":true,"internalType":"bytes32","name":"roomId","type":"bytes32"},{"indexed":false,"internalType":"uint256","name":"amount","type":"uint256"}],"name":"EmergencyWithdraw","type":"event"},{"anonymous":false,"inputs":[{"indexed":true,"internalType":"address","name":"oldOracle","type":"address"},{"indexed":true,"internalType":"address","name":"newOracle","type":"address"}],"name":"OracleUpdated","type":"event"},{"anonymous":false,"inputs":[{"indexed":true,"internalType":"address","name":"previousOwner","type":"address"},{"indexed":true,"internalType":"address","name":"newOwner","type":"address"}],"name":"OwnershipTransferred","type":"event"},{"anonymous":false,"inputs":[{"indexed":false,"internalType":"address","name":"account","type":"address"}],"name":"Paused","type":"event"},{"anonymous":false,"inputs":[{"indexed":true,"internalType":"bytes32","name":"roomId","type":"bytes32"},{"indexed":true,"internalType":"address","name":"player","type":"address"},{"indexed":false,"internalType":"uint256","name":"refund","type":"uint256"}],"name":"RoomCancelled","type":"event"},{"anonymous":false,"inputs":[{"indexed":true,"internalType":"bytes32","name":"roomId","type":"bytes32"},{"indexed":true,"internalType":"address","name":"player1","type":"address"},{"indexed":false,"internalType":"uint8","name":"tier","type":"uint8"},{"indexed":false,"internalType":"enum FlipRoyaleArenaV2.GameMode","name":"gameMode","type":"uint8"},{"indexed":false,"internalType":"uint256","name":"stake","type":"uint256"}],"name":"RoomCreated","type":"event"},{"anonymous":false,"inputs":[{"indexed":true,"internalType":"bytes32","name":"roomId","type":"bytes32"}],"name":"RoomDraw","type":"event"},{"anonymous":false,"inputs":[{"indexed":true,"internalType":"bytes32","name":"roomId","type":"bytes32"},{"indexed":true,"internalType":"address","name":"player2","type":"address"}],"name":"RoomJoined","type":"event"},{"anonymous":false,"inputs":[{"indexed":true,"internalType":"bytes32","name":"roomId","type":"bytes32"},{"indexed":true,"internalType":"address","name":"winner","type":"address"},{"indexed":false,"internalType":"uint256","name":"payout","type":"uint256"}],"name":"RoomResolved","type":"event"},{"anonymous":false,"inputs":[{"indexed":true,"internalType":"address","name":"oldTreasury","type":"address"},{"indexed":true,"internalType":"address","name":"newTreasury","type":"address"}],"name":"TreasuryUpdated","type":"event"},{"anonymous":false,"inputs":[{"indexed":false,"internalType":"address","name":"account","type":"address"}],"name":"Unpaused","type":"event"},{"inputs":[],"name":"BRONZE_STAKE","outputs":[{"internalType":"uint256","name":"","type":"uint256"}],"stateMutability":"view","type":"function"},{"inputs":[],"name":"DIAMOND_STAKE","outputs":[{"internalType":"uint256","name":"","type":"uint256"}],"stateMutability":"view","type":"function"},{"inputs":[],"name":"FEE_RATE","outputs":[{"internalType":"uint256","name":"","type":"uint256"}],"stateMutability":"view","type":"function"},{"inputs":[],"name":"GOLD_STAKE","outputs":[{"internalType":"uint256","name":"","type":"uint256"}],"stateMutability":"view","type":"function"},{"inputs":[],"name":"RATE_DENOMINATOR","outputs":[{"internalType":"uint256","name":"","type":"uint256"}],"stateMutability":"view","type":"function"},{"inputs":[],"name":"ROOM_EXPIRY","outputs":[{"internalType":"uint256","name":"","type":"uint256"}],"stateMutability":"view","type":"function"},{"inputs":[],"name":"SILVER_STAKE","outputs":[{"internalType":"uint256","name":"","type":"uint256"}],"stateMutability":"view","type":"function"},{"inputs":[],"name":"WINNER_RATE","outputs":[{"internalType":"uint256","name":"","type":"uint256"}],"stateMutability":"view","type":"function"},{"inputs":[{"internalType":"uint256","name":"","type":"uint256"}],"name":"allRoomIds","outputs":[{"internalType":"bytes32","name":"","type":"bytes32"}],"stateMutability":"view","type":"function"},{"inputs":[{"internalType":"bytes32","name":"roomId","type":"bytes32"}],"name":"cancelRoom","outputs":[],"stateMutability":"nonpayable","type":"function"},{"inputs":[{"internalType":"uint8","name":"tier","type":"uint8"},{"internalType":"enum FlipRoyaleArenaV2.GameMode","name":"gameMode","type":"uint8"}],"name":"createRoom","outputs":[{"internalType":"bytes32","name":"roomId","type":"bytes32"}],"stateMutability":"nonpayable","type":"function"},{"inputs":[],"name":"emergencyWithdrawAll","outputs":[],"stateMutability":"nonpayable","type":"function"},{"inputs":[{"internalType":"bytes32","name":"roomId","type":"bytes32"}],"name":"emergencyWithdrawRoom","outputs":[],"stateMutability":"nonpayable","type":"function"},{"inputs":[],"name":"getAllRoomIds","outputs":[{"internalType":"bytes32[]","name":"","type":"bytes32[]"}],"stateMutability":"view","type":"function"},{"inputs":[],"name":"getContractBalance","outputs":[{"internalType":"uint256","name":"","type":"uint256"}],"stateMutability":"view","type":"function"},{"inputs":[{"internalType":"uint8","name":"gameMode","type":"uint8"}],"name":"getOpenRoomCount","outputs":[{"internalType":"uint256","name":"","type":"uint256"}],"stateMutability":"view","type":"function"},{"inputs":[{"internalType":"uint8","name":"gameMode","type":"uint8"},{"internalType":"uint8","name":"tier","type":"uint8"}],"name":"getOpenRooms","outputs":[{"internalType":"bytes32[]","name":"","type":"bytes32[]"}],"stateMutability":"view","type":"function"},{"inputs":[{"internalType":"uint8","name":"gameMode","type":"uint8"}],"name":"getOpenRoomsByMode","outputs":[{"internalType":"bytes32[]","name":"","type":"bytes32[]"}],"stateMutability":"view","type":"function"},{"inputs":[{"internalType":"uint8","name":"tier","type":"uint8"}],"name":"getStakeForTier","outputs":[{"internalType":"uint256","name":"","type":"uint256"}],"stateMutability":"pure","type":"function"},{"inputs":[{"internalType":"address","name":"user","type":"address"}],"name":"getUserRooms","outputs":[{"internalType":"bytes32[]","name":"","type":"bytes32[]"}],"stateMutability":"view","type":"function"},{"inputs":[{"internalType":"address","name":"user","type":"address"}],"name":"getUserStats","outputs":[{"internalType":"uint256","name":"wins","type":"uint256"},{"internalType":"uint256","name":"losses","type":"uint256"},{"internalType":"uint256","name":"totalWinnings","type":"uint256"},{"internalType":"uint256","name":"roomCount","type":"uint256"}],"stateMutability":"view","type":"function"},{"inputs":[{"internalType":"bytes32","name":"roomId","type":"bytes32"}],"name":"joinRoom","outputs":[],"stateMutability":"nonpayable","type":"function"},{"inputs":[],"name":"oracle","outputs":[{"internalType":"address","name":"","type":"address"}],"stateMutability":"view","type":"function"},{"inputs":[],"name":"owner","outputs":[{"internalType":"address","name":"","type":"address"}],"stateMutability":"view","type":"function"},{"inputs":[],"name":"pause","outputs":[],"stateMutability":"nonpayable","type":"function"},{"inputs":[],"name":"paused","outputs":[{"internalType":"bool","name":"","type":"bool"}],"stateMutability":"view","type":"function"},{"inputs":[],"name":"renounceOwnership","outputs":[],"stateMutability":"nonpayable","type":"function"},{"inputs":[{"internalType":"bytes32","name":"roomId","type":"bytes32"},{"internalType":"address","name":"winner","type":"address"},{"internalType":"bytes32","name":"nonce","type":"bytes32"},{"internalType":"bytes","name":"signature","type":"bytes"}],"name":"resolveRoom","outputs":[],"stateMutability":"nonpayable","type":"function"},{"inputs":[{"internalType":"bytes32","name":"roomId","type":"bytes32"},{"internalType":"bytes32","name":"nonce","type":"bytes32"},{"internalType":"bytes","name":"signature","type":"bytes"}],"name":"resolveRoomDraw","outputs":[],"stateMutability":"nonpayable","type":"function"},{"inputs":[{"internalType":"bytes32","name":"","type":"bytes32"}],"name":"rooms","outputs":[{"internalType":"bytes32","name":"id","type":"bytes32"},{"internalType":"address","name":"player1","type":"address"},{"internalType":"address","name":"player2","type":"address"},{"internalType":"uint256","name":"stake","type":"uint256"},{"internalType":"uint8","name":"tier","type":"uint8"},{"internalType":"enum FlipRoyaleArenaV2.GameMode","name":"gameMode","type":"uint8"},{"internalType":"enum FlipRoyaleArenaV2.RoomStatus","name":"status","type":"uint8"},{"internalType":"address","name":"winner","type":"address"},{"internalType":"uint256","name":"createdAt","type":"uint256"},{"internalType":"uint256","name":"resolvedAt","type":"uint256"}],"stateMutability":"view","type":"function"},{"inputs":[{"internalType":"address","name":"_oracle","type":"address"}],"name":"setOracle","outputs":[],"stateMutability":"nonpayable","type":"function"},{"inputs":[{"internalType":"address","name":"_treasury","type":"address"}],"name":"setTreasury","outputs":[],"stateMutability":"nonpayable","type":"function"},{"inputs":[],"name":"totalRooms","outputs":[{"internalType":"uint256","name":"","type":"uint256"}],"stateMutability":"view","type":"function"},{"inputs":[],"name":"totalVolume","outputs":[{"internalType":"uint256","name":"","type":"uint256"}],"stateMutability":"view","type":"function"},{"inputs":[{"internalType":"address","name":"newOwner","type":"address"}],"name":"transferOwnership","outputs":[],"stateMutability":"nonpayable","type":"function"},{"inputs":[],"name":"treasury","outputs":[{"internalType":"address","name":"","type":"address"}],"stateMutability":"view","type":"function"},{"inputs":[],"name":"unpause","outputs":[],"stateMutability":"nonpayable","type":"function"},{"inputs":[],"name":"usdc","outputs":[{"internalType":"contract IERC20","name":"","type":"address"}],"stateMutability":"view","type":"function"},{"inputs":[{"internalType":"bytes32","name":"","type":"bytes32"}],"name":"usedNonces","outputs":[{"internalType":"bool","name":"","type":"bool"}],"stateMutability":"view","type":"function"},{"inputs":[{"internalType":"address","name":"","type":"address"}],"name":"userLosses","outputs":[{"internalType":"uint256","name":"","type":"uint256"}],"stateMutability":"view","type":"function"},{"inputs":[{"internalType":"address","name":"","type":"address"},{"internalType":"uint256","name":"","type":"uint256"}],"name":"userRooms","outputs":[{"internalType":"bytes32","name":"","type":"bytes32"}],"stateMutability":"view","type":"function"},{"inputs":[{"internalType":"address","name":"","type":"address"}],"name":"userTotalWinnings","outputs":[{"internalType":"uint256","name":"","type":"uint256"}],"stateMutability":"view","type":"function"},{"inputs":[{"internalType":"address","name":"","type":"address"}],"name":"userWins","outputs":[{"internalType":"uint256","name":"","type":"uint256"}],"stateMutability":"view","type":"function"}],"evm":{"bytecode":{"linkReferences":{},"object":"60a06040523480156200001157600080fd5b5060405162002dca38038062002dca8339810160408190526200003491620001fd565b33806200005c57604051631e4fbdf760e01b8152600060048201526024015b60405180910390fd5b620000678162000190565b50600180556001600160a01b038316620000b35760405162461bcd60e51b815260206004820152600c60248201526b496e76616c6964205553444360a01b604482015260640162000053565b6001600160a01b038216620000fe5760405162461bcd60e51b815260206004820152601060248201526f496e76616c696420747265617375727960801b604482015260640162000053565b6001600160a01b038116620001475760405162461bcd60e51b815260206004820152600e60248201526d496e76616c6964206f7261636c6560901b604482015260640162000053565b6001600160a01b0392831660805260028054610100600160a81b0319166101009385169390930292909217909155600380546001600160a01b0319169190921617905562000247565b600080546001600160a01b038381166001600160a01b0319831681178455604051919092169283917f8be0079c531659141344cd1fd0a4f28419497f9722a3daafe3b4186f6b6457e09190a35050565b80516001600160a01b0381168114620001f857600080fd5b919050565b6000806000606084860312156200021357600080fd5b6200021e84620001e0565b92506200022e60208501620001e0565b91506200023e60408501620001e0565b90509250925092565b608051612afe620002cc60003960008181610336015281816107ef0152818161084401528181610bc601528181610c8f01528181610e2f015281816110fe015281816113d00152818161141201528181611503015281816115c6015281816119e201528181611a1a01528181611b7d01528181611c470152611f960152612afe6000f3fe608060405234801561001057600080fd5b50600436106102695760003560e01c80637651313a11610151578063d7fbc2e4116100c3578063e25e916011610087578063e25e916014610602578063ee192d131461060a578063f0f442601461061d578063f2fde38b14610630578063f3d14b1e14610643578063feb617241461064e57600080fd5b8063d7fbc2e41461052c578063dd191719146105bd578063e040d9f3146105c5578063e08fe1e6146105e5578063e1ca6e32146105f857600080fd5b8063857c5a9111610115578063857c5a91146104d05780638da5cb5b146104d957806392776b4f146104ea578063a1fbda63146104fd578063af5537fa14610510578063b01e79611461051957600080fd5b80637651313a146104795780637adbf973146104995780637dc0d1d0146104ac5780637efad8e0146104bf5780638456cb59146104c857600080fd5b80634b29b4c4116101ea5780635f81a57c116101ae5780635f81a57c146104225780636022879d1461042b57806361d027b31461043e5780636f9fb98a14610456578063715018a61461045e578063756d13151461046657600080fd5b80634b29b4c4146103785780634e43603a1461038b57806357864090146103f557806358ea6f3b146104005780635c975abb1461040b57600080fd5b806327b612d11161023157806327b612d11461030c5780632d11c58a1461031f57806330507fd1146103275780633e413bee146103315780633f4ba83a1461037057600080fd5b8063020885d11461026e57806306f423cb1461029457806308857442146102a9578063116d10dd146102c957806321119fd5146102e9575b600080fd5b61028161027c36600461268b565b610671565b6040519081526020015b60405180910390f35b6102a76102a236600461268b565b610692565b005b6102816102b73660046126c0565b600b6020526000908152604090205481565b6102dc6102d73660046126f3565b6108ad565b60405161028b9190612726565b6102816102f736600461276a565b60ff1660009081526006602052604090205490565b61028161031a366004612785565b610a74565b610281606481565b6102816201518081565b6103587f000000000000000000000000000000000000000000000000000000000000000081565b6040516001600160a01b03909116815260200161028b565b6102a7610aa5565b6102a761038636600461268b565b610ab7565b6103d56103993660046126c0565b6001600160a01b0316600090815260096020908152604080832054600a835281842054600b845282852054600890945291909320549293909290565b60408051948552602085019390935291830152606082015260800161028b565b6102816305f5e10081565b6102816302faf08081565b60025460ff165b604051901515815260200161028b565b610281600e5481565b61028161043936600461276a565b610d87565b6002546103589061010090046001600160a01b031681565b610281610e17565b6102a7610ea7565b6102dc61047436600461276a565b610eb9565b6102816104873660046126c0565b60096020526000908152604090205481565b6102a76104a73660046126c0565b610f1f565b600354610358906001600160a01b031681565b6102816103e881565b6102a7610fc0565b61028161038481565b6000546001600160a01b0316610358565b6102a76104f836600461268b565b610fd0565b6102a761050b3660046127f8565b611178565b610281600d5481565b6102dc6105273660046126c0565b611479565b6105a761053a36600461268b565b6004602081905260009182526040909120805460018201546002830154600384015494840154600585015460069095015493956001600160a01b039384169592841694909360ff80841694610100850482169462010000810490921693630100000090920490921691908a565b60405161028b9a99989796959493929190612875565b6102a76114e3565b6102816105d33660046126c0565b600a6020526000908152604090205481565b6102a76105f33660046128ef565b61162d565b6102816298968081565b6102dc611aa3565b610281610618366004612957565b611afb565b6102a761062b3660046126c0565b61200f565b6102a761063e3660046126c0565b6120ba565b61028163017d784081565b61041261065c36600461268b565b600c6020526000908152604090205460ff1681565b6005818154811061068157600080fd5b600091825260209091200154905081565b61069a6120f5565b600081815260046020526040902080546106cf5760405162461bcd60e51b81526004016106c690612992565b60405180910390fd5b600060048281015462010000900460ff16908111156106f0576106f061284b565b148061071a5750600160048281015462010000900460ff16908111156107185761071861284b565b145b6107595760405162461bcd60e51b815260206004820152601060248201526f105b1c9958591e481c995cdbdb1d995960821b60448201526064016106c6565b600381015460028201546001600160a01b03161561078357600382015461078090826129d0565b90505b60048201805462ff000019166204000017905542600683015560028201546001600160a01b03166107d75760048201546107d7908490610100900460ff1660018111156107d2576107d261284b565b612122565b60018201546003830154610819916001600160a01b037f000000000000000000000000000000000000000000000000000000000000000081169291169061222a565b60028201546001600160a01b03161561086e576002820154600383015461086e916001600160a01b037f000000000000000000000000000000000000000000000000000000000000000081169291169061222a565b827f6a182286cfef80b5e55e41ffaccd303fe0a16fbd077479b243baba245c62bf97826040516108a091815260200190565b60405180910390a2505050565b60ff8216600090815260066020908152604080832080548251818502810185019093528083526060949383018282801561090657602002820191906000526020600020905b8154815260200190600101908083116108f2575b505050505090506000805b825181101561097a578460ff1660046000858481518110610934576109346129e3565b60209081029190910181015182528101919091526040016000206004015460ff16036109685781610964816129f9565b9250505b80610972816129f9565b915050610911565b5060008167ffffffffffffffff81111561099657610996612a12565b6040519080825280602002602001820160405280156109bf578160200160208202803683370190505b5090506000805b8451811015610a66578660ff16600460008784815181106109e9576109e96129e3565b60209081029190910181015182528101919091526040016000206004015460ff1603610a5457848181518110610a2157610a216129e3565b6020026020010151838380610a35906129f9565b945081518110610a4757610a476129e3565b6020026020010181815250505b80610a5e816129f9565b9150506109c6565b509093505050505b92915050565b60086020528160005260406000208181548110610a9057600080fd5b90600052602060002001600091509150505481565b610aad6120f5565b610ab561228e565b565b610abf6122e0565b610ac761230a565b60008181526004602052604090208054610af35760405162461bcd60e51b81526004016106c690612992565b600060048281015462010000900460ff1690811115610b1457610b1461284b565b14610b515760405162461bcd60e51b815260206004820152600d60248201526c2937b7b6903737ba1037b832b760991b60448201526064016106c6565b6001810154336001600160a01b0390911603610ba65760405162461bcd60e51b815260206004820152601460248201527343616e6e6f74206a6f696e206f776e20726f6f6d60601b60448201526064016106c6565b6003810154604051636eb1769f60e11b81523360048201523060248201527f00000000000000000000000000000000000000000000000000000000000000006001600160a01b03169063dd62ed3e90604401602060405180830381865afa158015610c15573d6000803e3d6000fd5b505050506040513d601f19601f82011682018060405250810190610c399190612a28565b1015610c7c5760405162461bcd60e51b8152602060048201526012602482015271105c1c1c9bdd99481554d110c8199a5c9cdd60721b60448201526064016106c6565b6003810154610cb9906001600160a01b037f000000000000000000000000000000000000000000000000000000000000000016903390309061232e565b600281810180546001600160a01b0319163390811790915560048301805462ff00001916620100001790556000908152600860209081526040822080546001810182559083529120018390556003820154610d1391612a41565b600e6000828254610d2491906129d0565b90915550506004810154610d4d908390610100900460ff1660018111156107d2576107d261284b565b604051339083907ffba1ad45cc33aed2e8c4f2c3558e076e3b43d01b218179472de7109107a65f8190600090a350610d8460018055565b50565b60008160ff16600003610d9e575062989680919050565b8160ff16600103610db4575063017d7840919050565b8160ff16600203610dca57506302faf080919050565b8160ff16600303610de057506305f5e100919050565b60405162461bcd60e51b815260206004820152600c60248201526b24b73b30b634b2103a34b2b960a11b60448201526064016106c6565b6040516370a0823160e01b81523060048201526000907f00000000000000000000000000000000000000000000000000000000000000006001600160a01b0316906370a0823190602401602060405180830381865afa158015610e7e573d6000803e3d6000fd5b505050506040513d601f19601f82011682018060405250810190610ea29190612a28565b905090565b610eaf6120f5565b610ab56000612367565b60ff8116600090815260066020908152604091829020805483518184028101840190945280845260609392830182828015610f1357602002820191906000526020600020905b815481526020019060010190808311610eff575b50505050509050919050565b610f276120f5565b6001600160a01b038116610f6e5760405162461bcd60e51b815260206004820152600e60248201526d496e76616c6964206f7261636c6560901b60448201526064016106c6565b600380546001600160a01b038381166001600160a01b0319831681179093556040519116919082907f078c3b417dadf69374a59793b829c52001247130433427049317bde56607b1b790600090a35050565b610fc86120f5565b610ab56123b7565b610fd86122e0565b600081815260046020526040902080546110045760405162461bcd60e51b81526004016106c690612992565b600060048281015462010000900460ff16908111156110255761102561284b565b146110625760405162461bcd60e51b815260206004820152600d60248201526c2937b7b6903737ba1037b832b760991b60448201526064016106c6565b60018101546001600160a01b031633146110b15760405162461bcd60e51b815260206004820152601060248201526f2737ba103937b7b69031b932b0ba37b960811b60448201526064016106c6565b60048101805462ff000019166204000017908190554260068301556110eb908390610100900460ff1660018111156107d2576107d261284b565b6003810154611126906001600160a01b037f00000000000000000000000000000000000000000000000000000000000000001690339061222a565b336001600160a01b0316827f44ad6a9e36645c633fe0758019f6292d7a324289557759164269e07847d5a9fa836003015460405161116691815260200190565b60405180910390a350610d8460018055565b6111806122e0565b600084815260046020526040902080546111ac5760405162461bcd60e51b81526004016106c690612992565b600160048281015462010000900460ff16908111156111cd576111cd61284b565b1461120c5760405162461bcd60e51b815260206004820152600f60248201526e149bdbdb481b9bdd08199a5b1b1959608a1b60448201526064016106c6565b6000848152600c602052604090205460ff16156112605760405162461bcd60e51b8152602060048201526012602482015271139bdb98d948185b1c9958591e481d5cd95960721b60448201526064016106c6565b6000858560405160200161128b929190918252634452415760e01b6020830152602482015260440190565b60405160208183030381529060405280519060200120905060006112dc827f19457468657265756d205369676e6564204d6573736167653a0a3332000000006000908152601c91909152603c902090565b600354604080516020601f89018190048102820181019092528781529293506001600160a01b039091169161132e91889088908190840183828082843760009201919091525086939250506123f49050565b6001600160a01b03161461137f5760405162461bcd60e51b8152602060048201526018602482015277496e76616c6964206f7261636c65207369676e617475726560401b60448201526064016106c6565b6000868152600c60205260409020805460ff191660011790556004830180546003919062ff0000191662010000830217905550426006840155600183015460038401546113fa916001600160a01b037f000000000000000000000000000000000000000000000000000000000000000081169291169061222a565b6002830154600384015461143c916001600160a01b037f000000000000000000000000000000000000000000000000000000000000000081169291169061222a565b60405187907f44a12f36d948a4ad5589cb1f931c36aff136ffc83aba32bc2bf2869a04e78e0b90600090a250505061147360018055565b50505050565b6001600160a01b038116600090815260086020908152604091829020805483518184028101840190945280845260609392830182828015610f135760200282019190600052602060002090815481526020019060010190808311610eff5750505050509050919050565b6114eb6120f5565b6040516370a0823160e01b81523060048201526000907f00000000000000000000000000000000000000000000000000000000000000006001600160a01b0316906370a0823190602401602060405180830381865afa158015611552573d6000803e3d6000fd5b505050506040513d601f19601f820116820180604052508101906115769190612a28565b9050600081116115b55760405162461bcd60e51b815260206004820152600a6024820152694e6f2062616c616e636560b01b60448201526064016106c6565b6002546115f4906001600160a01b037f00000000000000000000000000000000000000000000000000000000000000008116916101009004168361222a565b6040518181526000907f6a182286cfef80b5e55e41ffaccd303fe0a16fbd077479b243baba245c62bf979060200160405180910390a250565b6116356122e0565b600085815260046020526040902080546116615760405162461bcd60e51b81526004016106c690612992565b600160048281015462010000900460ff16908111156116825761168261284b565b146116c15760405162461bcd60e51b815260206004820152600f60248201526e149bdbdb481b9bdd08199a5b1b1959608a1b60448201526064016106c6565b6000848152600c602052604090205460ff16156117155760405162461bcd60e51b8152602060048201526012602482015271139bdb98d948185b1c9958591e481d5cd95960721b60448201526064016106c6565b60018101546001600160a01b0386811691161480611742575060028101546001600160a01b038681169116145b61177f5760405162461bcd60e51b815260206004820152600e60248201526d24b73b30b634b2103bb4b73732b960911b60448201526064016106c6565b604080516020808201899052606088901b6bffffffffffffffffffffffff191682840152605480830188905283518084039091018152607490920190925280519101207f19457468657265756d205369676e6564204d6573736167653a0a3332000000006000908152601c829052603c8120600354604080516020601f89018190048102820181019092528781529293506001600160a01b039091169161184391889088908190840183828082843760009201919091525086939250506123f49050565b6001600160a01b0316146118945760405162461bcd60e51b8152602060048201526018602482015277496e76616c6964206f7261636c65207369676e617475726560401b60448201526064016106c6565b6000868152600c60205260408120805460ff1916600117905560038401546118bd906002612a41565b905060006103e86118d061038484612a41565b6118da9190612a58565b905060006118e88284612a7a565b60048701805462010000600160b81b03191663010000006001600160a01b038e81169182029290921762020000179092554260068a0155600189015492935060009216146119435760018701546001600160a01b0316611952565b60028701546001600160a01b03165b6001600160a01b038c166000908152600960205260408120805492935090611979836129f9565b90915550506001600160a01b0381166000908152600a602052604081208054916119a2836129f9565b90915550506001600160a01b038b166000908152600b6020526040812080548592906119cf9084906129d0565b90915550611a0990506001600160a01b037f0000000000000000000000000000000000000000000000000000000000000000168c8561222a565b600254611a48906001600160a01b037f00000000000000000000000000000000000000000000000000000000000000008116916101009004168461222a565b8a6001600160a01b03168c7faf6e7fb990f7fac56e447048a9c4da5c4309250963f8745e32ba9586acfd895f85604051611a8491815260200190565b60405180910390a350505050505050611a9c60018055565b5050505050565b60606005805480602002602001604051908101604052809291908181526020018280548015611af157602002820191906000526020600020905b815481526020019060010190808311611add575b5050505050905090565b6000611b056122e0565b611b0d61230a565b60038360ff161115611b505760405162461bcd60e51b815260206004820152600c60248201526b24b73b30b634b2103a34b2b960a11b60448201526064016106c6565b6000611b5b84610d87565b6040516370a0823160e01b815233600482015290915081906001600160a01b037f000000000000000000000000000000000000000000000000000000000000000016906370a0823190602401602060405180830381865afa158015611bc4573d6000803e3d6000fd5b505050506040513d601f19601f82011682018060405250810190611be89190612a28565b1015611c2a5760405162461bcd60e51b8152602060048201526011602482015270496e73756666696369656e74205553444360781b60448201526064016106c6565b604051636eb1769f60e11b815233600482015230602482015281907f00000000000000000000000000000000000000000000000000000000000000006001600160a01b03169063dd62ed3e90604401602060405180830381865afa158015611c96573d6000803e3d6000fd5b505050506040513d601f19601f82011682018060405250810190611cba9190612a28565b1015611cfd5760405162461bcd60e51b8152602060048201526012602482015271105c1c1c9bdd99481554d110c8199a5c9cdd60721b60448201526064016106c6565b6005546040516bffffffffffffffffffffffff193360601b1660208201524260348201524460548201526074810191909152609401604051602081830303815290604052805190602001209150604051806101400160405280838152602001336001600160a01b0316815260200160006001600160a01b031681526020018281526020018560ff168152602001846001811115611d9c57611d9c61284b565b815260200160008152600060208083018290524260408085019190915260609384018390528683526004808352928190208551815591850151600180840180546001600160a01b039384166001600160a01b031991821617909155928701516002850180549190931693169290921790559284015160038201556080840151918101805460ff90931660ff1984168117825560a086015192949293919261ffff199092161790610100908490811115611e5757611e5761284b565b021790555060c08201518160040160026101000a81548160ff02191690836004811115611e8657611e8661284b565b021790555060e08201516004820180546001600160a01b039092166301000000026301000000600160b81b031990921691909117905561010082015160058083019190915561012090920151600690910155805460018181019092557f036b6384b5eca791c62761152d0c79bb0604c104a5fb6f4eb0703f3154bb3db00183905533600090815260086020908152604082208054938401815582528120909101839055600d805491611f37836129f9565b91905055506000836001811115611f5057611f5061284b565b60ff81166000908152600660208181526040808420805489865260078452918520829055928252600181018355918352909120018490559050611fbe6001600160a01b037f00000000000000000000000000000000000000000000000000000000000000001633308561232e565b336001600160a01b0316837f5e72612ca9f83d2eb6e23cf918890544be95a6cd5d3bcd1516473a0a2d64cf20878786604051611ffc93929190612a8d565b60405180910390a35050610a6e60018055565b6120176120f5565b6001600160a01b0381166120605760405162461bcd60e51b815260206004820152601060248201526f496e76616c696420747265617375727960801b60448201526064016106c6565b600280546001600160a01b03838116610100818102610100600160a81b031985161790945560405193909204169182907f4ab5be82436d353e61ca18726e984e561f5c1cc7c6d38b29d2553c790434705a90600090a35050565b6120c26120f5565b6001600160a01b0381166120ec57604051631e4fbdf760e01b8152600060048201526024016106c6565b610d8481612367565b6000546001600160a01b03163314610ab55760405163118cdaa760e01b81523360048201526024016106c6565b60008281526007602090815260408083205460ff85168452600690925282205490919061215190600190612a7a565b90508082146121d65760ff8316600090815260066020526040812080548390811061217e5761217e6129e3565b9060005260206000200154905080600660008660ff1660ff16815260200190815260200160002084815481106121b6576121b66129e3565b600091825260208083209091019290925591825260079052604090208290555b60ff831660009081526006602052604090208054806121f7576121f7612ab2565b60019003818190600052602060002001600090559055600760008581526020019081526020016000206000905550505050565b6040516001600160a01b0383811660248301526044820183905261228991859182169063a9059cbb906064015b604051602081830303815290604052915060e01b6020820180516001600160e01b03838183161783525050505061241e565b505050565b61229661248f565b6002805460ff191690557f5db9ee0a495bf2e6ff9c91a7834c1ba4fdd244a5e8aa4e537bd38aeae4b073aa335b6040516001600160a01b03909116815260200160405180910390a1565b60026001540361230357604051633ee5aeb560e01b815260040160405180910390fd5b6002600155565b60025460ff1615610ab55760405163d93c066560e01b815260040160405180910390fd5b6040516001600160a01b0384811660248301528381166044830152606482018390526114739186918216906323b872dd90608401612257565b600080546001600160a01b038381166001600160a01b0319831681178455604051919092169283917f8be0079c531659141344cd1fd0a4f28419497f9722a3daafe3b4186f6b6457e09190a35050565b6123bf61230a565b6002805460ff191660011790557f62e78cea01bee320cd4e420270b5ea74000d11b0c9f74754ebdbfc544b05a2586122c33390565b60008060008061240486866124b2565b92509250925061241482826124ff565b5090949350505050565b600080602060008451602086016000885af180612441576040513d6000823e3d81fd5b50506000513d91508115612459578060011415612466565b6001600160a01b0384163b155b1561147357604051635274afe760e01b81526001600160a01b03851660048201526024016106c6565b60025460ff16610ab557604051638dfc202b60e01b815260040160405180910390fd5b600080600083516041036124ec5760208401516040850151606086015160001a6124de888285856125bc565b9550955095505050506124f8565b50508151600091506002905b9250925092565b60008260038111156125135761251361284b565b0361251c575050565b60018260038111156125305761253061284b565b0361254e5760405163f645eedf60e01b815260040160405180910390fd5b60028260038111156125625761256261284b565b036125835760405163fce698f760e01b8152600481018290526024016106c6565b60038260038111156125975761259761284b565b036125b8576040516335e2f38360e21b8152600481018290526024016106c6565b5050565b600080807f7fffffffffffffffffffffffffffffff5d576e7357a4501ddfe92f46681b20a08411156125f75750600091506003905082612681565b604080516000808252602082018084528a905260ff891692820192909252606081018790526080810186905260019060a0016020604051602081039080840390855afa15801561264b573d6000803e3d6000fd5b5050604051601f1901519150506001600160a01b03811661267757506000925060019150829050612681565b9250600091508190505b9450945094915050565b60006020828403121561269d57600080fd5b5035919050565b80356001600160a01b03811681146126bb57600080fd5b919050565b6000602082840312156126d257600080fd5b6126db826126a4565b9392505050565b803560ff811681146126bb57600080fd5b6000806040838503121561270657600080fd5b61270f836126e2565b915061271d602084016126e2565b90509250929050565b6020808252825182820181905260009190848201906040850190845b8181101561275e57835183529284019291840191600101612742565b50909695505050505050565b60006020828403121561277c57600080fd5b6126db826126e2565b6000806040838503121561279857600080fd5b6127a1836126a4565b946020939093013593505050565b60008083601f8401126127c157600080fd5b50813567ffffffffffffffff8111156127d957600080fd5b6020830191508360208285010111156127f157600080fd5b9250929050565b6000806000806060858703121561280e57600080fd5b8435935060208501359250604085013567ffffffffffffffff81111561283357600080fd5b61283f878288016127af565b95989497509550505050565b634e487b7160e01b600052602160045260246000fd5b600281106128715761287161284b565b9052565b8a81526001600160a01b038a8116602083015289811660408301526060820189905260ff881660808301526101408201906128b360a0840189612861565b600587106128c3576128c361284b565b8660c084015280861660e08401525083610100830152826101208301529b9a5050505050505050505050565b60008060008060006080868803121561290757600080fd5b85359450612917602087016126a4565b935060408601359250606086013567ffffffffffffffff81111561293a57600080fd5b612946888289016127af565b969995985093965092949392505050565b6000806040838503121561296a57600080fd5b612973836126e2565b915060208301356002811061298757600080fd5b809150509250929050565b6020808252600e908201526d149bdbdb481b9bdd08199bdd5b9960921b604082015260600190565b634e487b7160e01b600052601160045260246000fd5b80820180821115610a6e57610a6e6129ba565b634e487b7160e01b600052603260045260246000fd5b600060018201612a0b57612a0b6129ba565b5060010190565b634e487b7160e01b600052604160045260246000fd5b600060208284031215612a3a57600080fd5b5051919050565b8082028115828204841417610a6e57610a6e6129ba565b600082612a7557634e487b7160e01b600052601260045260246000fd5b500490565b81810381811115610a6e57610a6e6129ba565b60ff8416815260608101612aa46020830185612861565b826040830152949350505050565b634e487b7160e01b600052603160045260246000fdfea26469706673582212202d70905d5dd1a11caa0442005f5f6377dfad42640ae453b8c79d1be7b22e8ef964736f6c63430008140033","opcodes":"PUSH1 0xA0 PUSH1 0x40 MSTORE CALLVALUE DUP1 ISZERO PUSH3 0x11 JUMPI PUSH1 0x0 DUP1 REVERT JUMPDEST POP PUSH1 0x40 MLOAD PUSH3 0x2DCA CODESIZE SUB DUP1 PUSH3 0x2DCA DUP4 CODECOPY DUP2 ADD PUSH1 0x40 DUP2 SWAP1 MSTORE PUSH3 0x34 SWAP2 PUSH3 0x1FD JUMP JUMPDEST CALLER DUP1 PUSH3 0x5C JUMPI PUSH1 0x40 MLOAD PUSH4 0x1E4FBDF7 PUSH1 0xE0 SHL DUP2 MSTORE PUSH1 0x0 PUSH1 0x4 DUP3 ADD MSTORE PUSH1 0x24 ADD JUMPDEST PUSH1 0x40 MLOAD DUP1 SWAP2 SUB SWAP1 REVERT JUMPDEST PUSH3 0x67 DUP2 PUSH3 0x190 JUMP JUMPDEST POP PUSH1 0x1 DUP1 SSTORE PUSH1 0x1 PUSH1 0x1 PUSH1 0xA0 SHL SUB DUP4 AND PUSH3 0xB3 JUMPI PUSH1 0x40 MLOAD PUSH3 0x461BCD PUSH1 0xE5 SHL DUP2 MSTORE PUSH1 0x20 PUSH1 0x4 DUP3 ADD MSTORE PUSH1 0xC PUSH1 0x24 DUP3 ADD MSTORE PUSH12 0x496E76616C69642055534443 PUSH1 0xA0 SHL PUSH1 0x44 DUP3 ADD MSTORE PUSH1 0x64 ADD PUSH3 0x53 JUMP JUMPDEST PUSH1 0x1 PUSH1 0x1 PUSH1 0xA0 SHL SUB DUP3 AND PUSH3 0xFE JUMPI PUSH1 0x40 MLOAD PUSH3 0x461BCD PUSH1 0xE5 SHL DUP2 MSTORE PUSH1 0x20 PUSH1 0x4 DUP3 ADD MSTORE PUSH1 0x10 PUSH1 0x24 DUP3 ADD MSTORE PUSH16 0x496E76616C6964207472656173757279 PUSH1 0x80 SHL PUSH1 0x44 DUP3 ADD MSTORE PUSH1 0x64 ADD PUSH3 0x53 JUMP JUMPDEST PUSH1 0x1 PUSH1 0x1 PUSH1 0xA0 SHL SUB DUP2 AND PUSH3 0x147 JUMPI PUSH1 0x40 MLOAD PUSH3 0x461BCD PUSH1 0xE5 SHL DUP2 MSTORE PUSH1 0x20 PUSH1 0x4 DUP3 ADD MSTORE PUSH1 0xE PUSH1 0x24 DUP3 ADD MSTORE PUSH14 0x496E76616C6964206F7261636C65 PUSH1 0x90 SHL PUSH1 0x44 DUP3 ADD MSTORE PUSH1 0x64 ADD PUSH3 0x53 JUMP JUMPDEST PUSH1 0x1 PUSH1 0x1 PUSH1 0xA0 SHL SUB SWAP3 DUP4 AND PUSH1 0x80 MSTORE PUSH1 0x2 DUP1 SLOAD PUSH2 0x100 PUSH1 0x1 PUSH1 0xA8 SHL SUB NOT AND PUSH2 0x100 SWAP4 DUP6 AND SWAP4 SWAP1 SWAP4 MUL SWAP3 SWAP1 SWAP3 OR SWAP1 SWAP2 SSTORE PUSH1 0x3 DUP1 SLOAD PUSH1 0x1 PUSH1 0x1 PUSH1 0xA0 SHL SUB NOT AND SWAP2 SWAP1 SWAP3 AND OR SWAP1 SSTORE PUSH3 0x247 JUMP JUMPDEST PUSH1 0x0 DUP1 SLOAD PUSH1 0x1 PUSH1 0x1 PUSH1 0xA0 SHL SUB DUP4 DUP2 AND PUSH1 0x1 PUSH1 0x1 PUSH1 0xA0 SHL SUB NOT DUP4 AND DUP2 OR DUP5 SSTORE PUSH1 0x40 MLOAD SWAP2 SWAP1 SWAP3 AND SWAP3 DUP4 SWAP2 PUSH32 0x8BE0079C531659141344CD1FD0A4F28419497F9722A3DAAFE3B4186F6B6457E0 SWAP2 SWAP1 LOG3 POP POP JUMP JUMPDEST DUP1 MLOAD PUSH1 0x1 PUSH1 0x1 PUSH1 0xA0 SHL SUB DUP2 AND DUP2 EQ PUSH3 0x1F8 JUMPI PUSH1 0x0 DUP1 REVERT JUMPDEST SWAP2 SWAP1 POP JUMP JUMPDEST PUSH1 0x0 DUP1 PUSH1 0x0 PUSH1 0x60 DUP5 DUP7 SUB SLT ISZERO PUSH3 0x213 JUMPI PUSH1 0x0 DUP1 REVERT JUMPDEST PUSH3 0x21E DUP5 PUSH3 0x1E0 JUMP JUMPDEST SWAP3 POP PUSH3 0x22E PUSH1 0x20 DUP6 ADD PUSH3 0x1E0 JUMP JUMPDEST SWAP2 POP PUSH3 0x23E PUSH1 0x40 DUP6 ADD PUSH3 0x1E0 JUMP JUMPDEST SWAP1 POP SWAP3 POP SWAP3 POP SWAP3 JUMP JUMPDEST PUSH1 0x80 MLOAD PUSH2 0x2AFE PUSH3 0x2CC PUSH1 0x0 CODECOPY PUSH1 0x0 DUP2 DUP2 PUSH2 0x336 ADD MSTORE DUP2 DUP2 PUSH2 0x7EF ADD MSTORE DUP2 DUP2 PUSH2 0x844 ADD MSTORE DUP2 DUP2 PUSH2 0xBC6 ADD MSTORE DUP2 DUP2 PUSH2 0xC8F ADD MSTORE DUP2 DUP2 PUSH2 0xE2F ADD MSTORE DUP2 DUP2 PUSH2 0x10FE ADD MSTORE DUP2 DUP2 PUSH2 0x13D0 ADD MSTORE DUP2 DUP2 PUSH2 0x1412 ADD MSTORE DUP2 DUP2 PUSH2 0x1503 ADD MSTORE DUP2 DUP2 PUSH2 0x15C6 ADD MSTORE DUP2 DUP2 PUSH2 0x19E2 ADD MSTORE DUP2 DUP2 PUSH2 0x1A1A ADD MSTORE DUP2 DUP2 PUSH2 0x1B7D ADD MSTORE DUP2 DUP2 PUSH2 0x1C47 ADD MSTORE PUSH2 0x1F96 ADD MSTORE PUSH2 0x2AFE PUSH1 0x0 RETURN INVALID PUSH1 0x80 PUSH1 0x40 MSTORE CALLVALUE DUP1 ISZERO PUSH2 0x10 JUMPI PUSH1 0x0 DUP1 REVERT JUMPDEST POP PUSH1 0x4 CALLDATASIZE LT PUSH2 0x269 JUMPI PUSH1 0x0 CALLDATALOAD PUSH1 0xE0 SHR DUP1 PUSH4 0x7651313A GT PUSH2 0x151 JUMPI DUP1 PUSH4 0xD7FBC2E4 GT PUSH2 0xC3 JUMPI DUP1 PUSH4 0xE25E9160 GT PUSH2 0x87 JUMPI DUP1 PUSH4 0xE25E9160 EQ PUSH2 0x602 JUMPI DUP1 PUSH4 0xEE192D13 EQ PUSH2 0x60A JUMPI DUP1 PUSH4 0xF0F44260 EQ PUSH2 0x61D JUMPI DUP1 PUSH4 0xF2FDE38B EQ PUSH2 0x630 JUMPI DUP1 PUSH4 0xF3D14B1E EQ PUSH2 0x643 JUMPI DUP1 PUSH4 0xFEB61724 EQ PUSH2 0x64E JUMPI PUSH1 0x0 DUP1 REVERT JUMPDEST DUP1 PUSH4 0xD7FBC2E4 EQ PUSH2 0x52C JUMPI DUP1 PUSH4 0xDD191719 EQ PUSH2 0x5BD JUMPI DUP1 PUSH4 0xE040D9F3 EQ PUSH2 0x5C5 JUMPI DUP1 PUSH4 0xE08FE1E6 EQ PUSH2 0x5E5 JUMPI DUP1 PUSH4 0xE1CA6E32 EQ PUSH2 0x5F8 JUMPI PUSH1 0x0 DUP1 REVERT JUMPDEST DUP1 PUSH4 0x857C5A91 GT PUSH2 0x115 JUMPI DUP1 PUSH4 0x857C5A91 EQ PUSH2 0x4D0 JUMPI DUP1 PUSH4 0x8DA5CB5B EQ PUSH2 0x4D9 JUMPI DUP1 PUSH4 0x92776B4F EQ PUSH2 0x4EA JUMPI DUP1 PUSH4 0xA1FBDA63 EQ PUSH2 0x4FD JUMPI DUP1 PUSH4 0xAF5537FA EQ PUSH2 0x510 JUMPI DUP1 PUSH4 0xB01E7961 EQ PUSH2 0x519 JUMPI PUSH1 0x0 DUP1 REVERT JUMPDEST DUP1 PUSH4 0x7651313A EQ PUSH2 0x479 JUMPI DUP1 PUSH4 0x7ADBF973 EQ PUSH2 0x499 JUMPI DUP1 PUSH4 0x7DC0D1D0 EQ PUSH2 0x4AC JUMPI DUP1 PUSH4 0x7EFAD8E0 EQ PUSH2 0x4BF JUMPI DUP1 PUSH4 0x8456CB59 EQ PUSH2 0x4C8 JUMPI PUSH1 0x0 DUP1 REVERT JUMPDEST DUP1 PUSH4 0x4B29B4C4 GT PUSH2 0x1EA JUMPI DUP1 PUSH4 0x5F81A57C GT PUSH2 0x1AE JUMPI DUP1 PUSH4 0x5F81A57C EQ PUSH2 0x422 JUMPI DUP1 PUSH4 0x6022879D EQ PUSH2 0x42B JUMPI DUP1 PUSH4 0x61D027B3 EQ PUSH2 0x43E JUMPI DUP1 PUSH4 0x6F9FB98A EQ PUSH2 0x456 JUMPI DUP1 PUSH4 0x715018A6 EQ PUSH2 0x45E JUMPI DUP1 PUSH4 0x756D1315 EQ PUSH2 0x466 JUMPI PUSH1 0x0 DUP1 REVERT JUMPDEST DUP1 PUSH4 0x4B29B4C4 EQ PUSH2 0x378 JUMPI DUP1 PUSH4 0x4E43603A EQ PUSH2 0x38B JUMPI DUP1 PUSH4 0x57864090 EQ PUSH2 0x3F5 JUMPI DUP1 PUSH4 0x58EA6F3B EQ PUSH2 0x400 JUMPI DUP1 PUSH4 0x5C975ABB EQ PUSH2 0x40B JUMPI PUSH1 0x0 DUP1 REVERT JUMPDEST DUP1 PUSH4 0x27B612D1 GT PUSH2 0x231 JUMPI DUP1 PUSH4 0x27B612D1 EQ PUSH2 0x30C JUMPI DUP1 PUSH4 0x2D11C58A EQ PUSH2 0x31F JUMPI DUP1 PUSH4 0x30507FD1 EQ PUSH2 0x327 JUMPI DUP1 PUSH4 0x3E413BEE EQ PUSH2 0x331 JUMPI DUP1 PUSH4 0x3F4BA83A EQ PUSH2 0x370 JUMPI PUSH1 0x0 DUP1 REVERT JUMPDEST DUP1 PUSH4 0x20885D1 EQ PUSH2 0x26E JUMPI DUP1 PUSH4 0x6F423CB EQ PUSH2 0x294 JUMPI DUP1 PUSH4 0x8857442 EQ PUSH2 0x2A9 JUMPI DUP1 PUSH4 0x116D10DD EQ PUSH2 0x2C9 JUMPI DUP1 PUSH4 0x21119FD5 EQ PUSH2 0x2E9 JUMPI JUMPDEST PUSH1 0x0 DUP1 REVERT JUMPDEST PUSH2 0x281 PUSH2 0x27C CALLDATASIZE PUSH1 0x4 PUSH2 0x268B JUMP JUMPDEST PUSH2 0x671 JUMP JUMPDEST PUSH1 0x40 MLOAD SWAP1 DUP2 MSTORE PUSH1 0x20 ADD JUMPDEST PUSH1 0x40 MLOAD DUP1 SWAP2 SUB SWAP1 RETURN JUMPDEST PUSH2 0x2A7 PUSH2 0x2A2 CALLDATASIZE PUSH1 0x4 PUSH2 0x268B JUMP JUMPDEST PUSH2 0x692 JUMP JUMPDEST STOP JUMPDEST PUSH2 0x281 PUSH2 0x2B7 CALLDATASIZE PUSH1 0x4 PUSH2 0x26C0 JUMP JUMPDEST PUSH1 0xB PUSH1 0x20 MSTORE PUSH1 0x0 SWAP1 DUP2 MSTORE PUSH1 0x40 SWAP1 KECCAK256 SLOAD DUP2 JUMP JUMPDEST PUSH2 0x2DC PUSH2 0x2D7 CALLDATASIZE PUSH1 0x4 PUSH2 0x26F3 JUMP JUMPDEST PUSH2 0x8AD JUMP JUMPDEST PUSH1 0x40 MLOAD PUSH2 0x28B SWAP2 SWAP1 PUSH2 0x2726 JUMP JUMPDEST PUSH2 0x281 PUSH2 0x2F7 CALLDATASIZE PUSH1 0x4 PUSH2 0x276A JUMP JUMPDEST PUSH1 0xFF AND PUSH1 0x0 SWAP1 DUP2 MSTORE PUSH1 0x6 PUSH1 0x20 MSTORE PUSH1 0x40 SWAP1 KECCAK256 SLOAD SWAP1 JUMP JUMPDEST PUSH2 0x281 PUSH2 0x31A CALLDATASIZE PUSH1 0x4 PUSH2 0x2785 JUMP JUMPDEST PUSH2 0xA74 JUMP JUMPDEST PUSH2 0x281 PUSH1 0x64 DUP2 JUMP JUMPDEST PUSH2 0x281 PUSH3 0x15180 DUP2 JUMP JUMPDEST PUSH2 0x358 PUSH32 0x0 DUP2 JUMP JUMPDEST PUSH1 0x40 MLOAD PUSH1 0x1 PUSH1 0x1 PUSH1 0xA0 SHL SUB SWAP1 SWAP2 AND DUP2 MSTORE PUSH1 0x20 ADD PUSH2 0x28B JUMP JUMPDEST PUSH2 0x2A7 PUSH2 0xAA5 JUMP JUMPDEST PUSH2 0x2A7 PUSH2 0x386 CALLDATASIZE PUSH1 0x4 PUSH2 0x268B JUMP JUMPDEST PUSH2 0xAB7 JUMP JUMPDEST PUSH2 0x3D5 PUSH2 0x399 CALLDATASIZE PUSH1 0x4 PUSH2 0x26C0 JUMP JUMPDEST PUSH1 0x1 PUSH1 0x1 PUSH1 0xA0 SHL SUB AND PUSH1 0x0 SWAP1 DUP2 MSTORE PUSH1 0x9 PUSH1 0x20 SWAP1 DUP2 MSTORE PUSH1 0x40 DUP1 DUP4 KECCAK256 SLOAD PUSH1 0xA DUP4 MSTORE DUP2 DUP5 KECCAK256 SLOAD PUSH1 0xB DUP5 MSTORE DUP3 DUP6 KECCAK256 SLOAD PUSH1 0x8 SWAP1 SWAP5 MSTORE SWAP2 SWAP1 SWAP4 KECCAK256 SLOAD SWAP3 SWAP4 SWAP1 SWAP3 SWAP1 JUMP JUMPDEST PUSH1 0x40 DUP1 MLOAD SWAP5 DUP6 MSTORE PUSH1 0x20 DUP6 ADD SWAP4 SWAP1 SWAP4 MSTORE SWAP2 DUP4 ADD MSTORE PUSH1 0x60 DUP3 ADD MSTORE PUSH1 0x80 ADD PUSH2 0x28B JUMP JUMPDEST PUSH2 0x281 PUSH4 0x5F5E100 DUP2 JUMP JUMPDEST PUSH2 0x281 PUSH4 0x2FAF080 DUP2 JUMP JUMPDEST PUSH1 0x2 SLOAD PUSH1 0xFF AND JUMPDEST PUSH1 0x40 MLOAD SWAP1 ISZERO ISZERO DUP2 MSTORE PUSH1 0x20 ADD PUSH2 0x28B JUMP JUMPDEST PUSH2 0x281 PUSH1 0xE SLOAD DUP2 JUMP JUMPDEST PUSH2 0x281 PUSH2 0x439 CALLDATASIZE PUSH1 0x4 PUSH2 0x276A JUMP JUMPDEST PUSH2 0xD87 JUMP JUMPDEST PUSH1 0x2 SLOAD PUSH2 0x358 SWAP1 PUSH2 0x100 SWAP1 DIV PUSH1 0x1 PUSH1 0x1 PUSH1 0xA0 SHL SUB AND DUP2 JUMP JUMPDEST PUSH2 0x281 PUSH2 0xE17 JUMP JUMPDEST PUSH2 0x2A7 PUSH2 0xEA7 JUMP JUMPDEST PUSH2 0x2DC PUSH2 0x474 CALLDATASIZE PUSH1 0x4 PUSH2 0x276A JUMP JUMPDEST PUSH2 0xEB9 JUMP JUMPDEST PUSH2 0x281 PUSH2 0x487 CALLDATASIZE PUSH1 0x4 PUSH2 0x26C0 JUMP JUMPDEST PUSH1 0x9 PUSH1 0x20 MSTORE PUSH1 0x0 SWAP1 DUP2 MSTORE PUSH1 0x40 SWAP1 KECCAK256 SLOAD DUP2 JUMP JUMPDEST PUSH2 0x2A7 PUSH2 0x4A7 CALLDATASIZE PUSH1 0x4 PUSH2 0x26C0 JUMP JUMPDEST PUSH2 0xF1F JUMP JUMPDEST PUSH1 0x3 SLOAD PUSH2 0x358 SWAP1 PUSH1 0x1 PUSH1 0x1 PUSH1 0xA0 SHL SUB AND DUP2 JUMP JUMPDEST PUSH2 0x281 PUSH2 0x3E8 DUP2 JUMP JUMPDEST PUSH2 0x2A7 PUSH2 0xFC0 JUMP JUMPDEST PUSH2 0x281 PUSH2 0x384 DUP2 JUMP JUMPDEST PUSH1 0x0 SLOAD PUSH1 0x1 PUSH1 0x1 PUSH1 0xA0 SHL SUB AND PUSH2 0x358 JUMP JUMPDEST PUSH2 0x2A7 PUSH2 0x4F8 CALLDATASIZE PUSH1 0x4 PUSH2 0x268B JUMP JUMPDEST PUSH2 0xFD0 JUMP JUMPDEST PUSH2 0x2A7 PUSH2 0x50B CALLDATASIZE PUSH1 0x4 PUSH2 0x27F8 JUMP JUMPDEST PUSH2 0x1178 JUMP JUMPDEST PUSH2 0x281 PUSH1 0xD SLOAD DUP2 JUMP JUMPDEST PUSH2 0x2DC PUSH2 0x527 CALLDATASIZE PUSH1 0x4 PUSH2 0x26C0 JUMP JUMPDEST PUSH2 0x1479 JUMP JUMPDEST PUSH2 0x5A7 PUSH2 0x53A CALLDATASIZE PUSH1 0x4 PUSH2 0x268B JUMP JUMPDEST PUSH1 0x4 PUSH1 0x20 DUP2 SWAP1 MSTORE PUSH1 0x0 SWAP2 DUP3 MSTORE PUSH1 0x40 SWAP1 SWAP2 KECCAK256 DUP1 SLOAD PUSH1 0x1 DUP3 ADD SLOAD PUSH1 0x2 DUP4 ADD SLOAD PUSH1 0x3 DUP5 ADD SLOAD SWAP5 DUP5 ADD SLOAD PUSH1 0x5 DUP6 ADD SLOAD PUSH1 0x6 SWAP1 SWAP6 ADD SLOAD SWAP4 SWAP6 PUSH1 0x1 PUSH1 0x1 PUSH1 0xA0 SHL SUB SWAP4 DUP5 AND SWAP6 SWAP3 DUP5 AND SWAP5 SWAP1 SWAP4 PUSH1 0xFF DUP1 DUP5 AND SWAP5 PUSH2 0x100 DUP6 DIV DUP3 AND SWAP5 PUSH3 0x10000 DUP2 DIV SWAP1 SWAP3 AND SWAP4 PUSH4 0x1000000 SWAP1 SWAP3 DIV SWAP1 SWAP3 AND SWAP2 SWAP1 DUP11 JUMP JUMPDEST PUSH1 0x40 MLOAD PUSH2 0x28B SWAP11 SWAP10 SWAP9 SWAP8 SWAP7 SWAP6 SWAP5 SWAP4 SWAP3 SWAP2 SWAP1 PUSH2 0x2875 JUMP JUMPDEST PUSH2 0x2A7 PUSH2 0x14E3 JUMP JUMPDEST PUSH2 0x281 PUSH2 0x5D3 CALLDATASIZE PUSH1 0x4 PUSH2 0x26C0 JUMP JUMPDEST PUSH1 0xA PUSH1 0x20 MSTORE PUSH1 0x0 SWAP1 DUP2 MSTORE PUSH1 0x40 SWAP1 KECCAK256 SLOAD DUP2 JUMP JUMPDEST PUSH2 0x2A7 PUSH2 0x5F3 CALLDATASIZE PUSH1 0x4 PUSH2 0x28EF JUMP JUMPDEST PUSH2 0x162D JUMP JUMPDEST PUSH2 0x281 PUSH3 0x989680 DUP2 JUMP JUMPDEST PUSH2 0x2DC PUSH2 0x1AA3 JUMP JUMPDEST PUSH2 0x281 PUSH2 0x618 CALLDATASIZE PUSH1 0x4 PUSH2 0x2957 JUMP JUMPDEST PUSH2 0x1AFB JUMP JUMPDEST PUSH2 0x2A7 PUSH2 0x62B CALLDATASIZE PUSH1 0x4 PUSH2 0x26C0 JUMP JUMPDEST PUSH2 0x200F JUMP JUMPDEST PUSH2 0x2A7 PUSH2 0x63E CALLDATASIZE PUSH1 0x4 PUSH2 0x26C0 JUMP JUMPDEST PUSH2 0x20BA JUMP JUMPDEST PUSH2 0x281 PUSH4 0x17D7840 DUP2 JUMP JUMPDEST PUSH2 0x412 PUSH2 0x65C CALLDATASIZE PUSH1 0x4 PUSH2 0x268B JUMP JUMPDEST PUSH1 0xC PUSH1 0x20 MSTORE PUSH1 0x0 SWAP1 DUP2 MSTORE PUSH1 0x40 SWAP1 KECCAK256 SLOAD PUSH1 0xFF AND DUP2 JUMP JUMPDEST PUSH1 0x5 DUP2 DUP2 SLOAD DUP2 LT PUSH2 0x681 JUMPI PUSH1 0x0 DUP1 REVERT JUMPDEST PUSH1 0x0 SWAP2 DUP3 MSTORE PUSH1 0x20 SWAP1 SWAP2 KECCAK256 ADD SLOAD SWAP1 POP DUP2 JUMP JUMPDEST PUSH2 0x69A PUSH2 0x20F5 JUMP JUMPDEST PUSH1 0x0 DUP2 DUP2 MSTORE PUSH1 0x4 PUSH1 0x20 MSTORE PUSH1 0x40 SWAP1 KECCAK256 DUP1 SLOAD PUSH2 0x6CF JUMPI PUSH1 0x40 MLOAD PUSH3 0x461BCD PUSH1 0xE5 SHL DUP2 MSTORE PUSH1 0x4 ADD PUSH2 0x6C6 SWAP1 PUSH2 0x2992 JUMP JUMPDEST PUSH1 0x40 MLOAD DUP1 SWAP2 SUB SWAP1 REVERT JUMPDEST PUSH1 0x0 PUSH1 0x4 DUP3 DUP2 ADD SLOAD PUSH3 0x10000 SWAP1 DIV PUSH1 0xFF AND SWAP1 DUP2 GT ISZERO PUSH2 0x6F0 JUMPI PUSH2 0x6F0 PUSH2 0x284B JUMP JUMPDEST EQ DUP1 PUSH2 0x71A JUMPI POP PUSH1 0x1 PUSH1 0x4 DUP3 DUP2 ADD SLOAD PUSH3 0x10000 SWAP1 DIV PUSH1 0xFF AND SWAP1 DUP2 GT ISZERO PUSH2 0x718 JUMPI PUSH2 0x718 PUSH2 0x284B JUMP JUMPDEST EQ JUMPDEST PUSH2 0x759 JUMPI PUSH1 0x40 MLOAD PUSH3 0x461BCD PUSH1 0xE5 SHL DUP2 MSTORE PUSH1 0x20 PUSH1 0x4 DUP3 ADD MSTORE PUSH1 0x10 PUSH1 0x24 DUP3 ADD MSTORE PUSH16 0x105B1C9958591E481C995CDBDB1D9959 PUSH1 0x82 SHL PUSH1 0x44 DUP3 ADD MSTORE PUSH1 0x64 ADD PUSH2 0x6C6 JUMP JUMPDEST PUSH1 0x3 DUP2 ADD SLOAD PUSH1 0x2 DUP3 ADD SLOAD PUSH1 0x1 PUSH1 0x1 PUSH1 0xA0 SHL SUB AND ISZERO PUSH2 0x783 JUMPI PUSH1 0x3 DUP3 ADD SLOAD PUSH2 0x780 SWAP1 DUP3 PUSH2 0x29D0 JUMP JUMPDEST SWAP1 POP JUMPDEST PUSH1 0x4 DUP3 ADD DUP1 SLOAD PUSH3 0xFF0000 NOT AND PUSH3 0x40000 OR SWAP1 SSTORE TIMESTAMP PUSH1 0x6 DUP4 ADD SSTORE PUSH1 0x2 DUP3 ADD SLOAD PUSH1 0x1 PUSH1 0x1 PUSH1 0xA0 SHL SUB AND PUSH2 0x7D7 JUMPI PUSH1 0x4 DUP3 ADD SLOAD PUSH2 0x7D7 SWAP1 DUP5 SWAP1 PUSH2 0x100 SWAP1 DIV PUSH1 0xFF AND PUSH1 0x1 DUP2 GT ISZERO PUSH2 0x7D2 JUMPI PUSH2 0x7D2 PUSH2 0x284B JUMP JUMPDEST PUSH2 0x2122 JUMP JUMPDEST PUSH1 0x1 DUP3 ADD SLOAD PUSH1 0x3 DUP4 ADD SLOAD PUSH2 0x819 SWAP2 PUSH1 0x1 PUSH1 0x1 PUSH1 0xA0 SHL SUB PUSH32 0x0 DUP2 AND SWAP3 SWAP2 AND SWAP1 PUSH2 0x222A JUMP JUMPDEST PUSH1 0x2 DUP3 ADD SLOAD PUSH1 0x1 PUSH1 0x1 PUSH1 0xA0 SHL SUB AND ISZERO PUSH2 0x86E JUMPI PUSH1 0x2 DUP3 ADD SLOAD PUSH1 0x3 DUP4 ADD SLOAD PUSH2 0x86E SWAP2 PUSH1 0x1 PUSH1 0x1 PUSH1 0xA0 SHL SUB PUSH32 0x0 DUP2 AND SWAP3 SWAP2 AND SWAP1 PUSH2 0x222A JUMP JUMPDEST DUP3 PUSH32 0x6A182286CFEF80B5E55E41FFACCD303FE0A16FBD077479B243BABA245C62BF97 DUP3 PUSH1 0x40 MLOAD PUSH2 0x8A0 SWAP2 DUP2 MSTORE PUSH1 0x20 ADD SWAP1 JUMP JUMPDEST PUSH1 0x40 MLOAD DUP1 SWAP2 SUB SWAP1 LOG2 POP POP POP JUMP JUMPDEST PUSH1 0xFF DUP3 AND PUSH1 0x0 SWAP1 DUP2 MSTORE PUSH1 0x6 PUSH1 0x20 SWAP1 DUP2 MSTORE PUSH1 0x40 DUP1 DUP4 KECCAK256 DUP1 SLOAD DUP3 MLOAD DUP2 DUP6 MUL DUP2 ADD DUP6 ADD SWAP1 SWAP4 MSTORE DUP1 DUP4 MSTORE PUSH1 0x60 SWAP5 SWAP4 DUP4 ADD DUP3 DUP3 DUP1 ISZERO PUSH2 0x906 JUMPI PUSH1 0x20 MUL DUP3 ADD SWAP2 SWAP1 PUSH1 0x0 MSTORE PUSH1 0x20 PUSH1 0x0 KECCAK256 SWAP1 JUMPDEST DUP2 SLOAD DUP2 MSTORE PUSH1 0x20 ADD SWAP1 PUSH1 0x1 ADD SWAP1 DUP1 DUP4 GT PUSH2 0x8F2 JUMPI JUMPDEST POP POP POP POP POP SWAP1 POP PUSH1 0x0 DUP1 JUMPDEST DUP3 MLOAD DUP2 LT ISZERO PUSH2 0x97A JUMPI DUP5 PUSH1 0xFF AND PUSH1 0x4 PUSH1 0x0 DUP6 DUP5 DUP2 MLOAD DUP2 LT PUSH2 0x934 JUMPI PUSH2 0x934 PUSH2 0x29E3 JUMP JUMPDEST PUSH1 0x20 SWAP1 DUP2 MUL SWAP2 SWAP1 SWAP2 ADD DUP2 ADD MLOAD DUP3 MSTORE DUP2 ADD SWAP2 SWAP1 SWAP2 MSTORE PUSH1 0x40 ADD PUSH1 0x0 KECCAK256 PUSH1 0x4 ADD SLOAD PUSH1 0xFF AND SUB PUSH2 0x968 JUMPI DUP2 PUSH2 0x964 DUP2 PUSH2 0x29F9 JUMP JUMPDEST SWAP3 POP POP JUMPDEST DUP1 PUSH2 0x972 DUP2 PUSH2 0x29F9 JUMP JUMPDEST SWAP2 POP POP PUSH2 0x911 JUMP JUMPDEST POP PUSH1 0x0 DUP2 PUSH8 0xFFFFFFFFFFFFFFFF DUP2 GT ISZERO PUSH2 0x996 JUMPI PUSH2 0x996 PUSH2 0x2A12 JUMP JUMPDEST PUSH1 0x40 MLOAD SWAP1 DUP1 DUP3 MSTORE DUP1 PUSH1 0x20 MUL PUSH1 0x20 ADD DUP3 ADD PUSH1 0x40 MSTORE DUP1 ISZERO PUSH2 0x9BF JUMPI DUP2 PUSH1 0x20 ADD PUSH1 0x20 DUP3 MUL DUP1 CALLDATASIZE DUP4 CALLDATACOPY ADD SWAP1 POP JUMPDEST POP SWAP1 POP PUSH1 0x0 DUP1 JUMPDEST DUP5 MLOAD DUP2 LT ISZERO PUSH2 0xA66 JUMPI DUP7 PUSH1 0xFF AND PUSH1 0x4 PUSH1 0x0 DUP8 DUP5 DUP2 MLOAD DUP2 LT PUSH2 0x9E9 JUMPI PUSH2 0x9E9 PUSH2 0x29E3 JUMP JUMPDEST PUSH1 0x20 SWAP1 DUP2 MUL SWAP2 SWAP1 SWAP2 ADD DUP2 ADD MLOAD DUP3 MSTORE DUP2 ADD SWAP2 SWAP1 SWAP2 MSTORE PUSH1 0x40 ADD PUSH1 0x0 KECCAK256 PUSH1 0x4 ADD SLOAD PUSH1 0xFF AND SUB PUSH2 0xA54 JUMPI DUP5 DUP2 DUP2 MLOAD DUP2 LT PUSH2 0xA21 JUMPI PUSH2 0xA21 PUSH2 0x29E3 JUMP JUMPDEST PUSH1 0x20 MUL PUSH1 0x20 ADD ADD MLOAD DUP4 DUP4 DUP1 PUSH2 0xA35 SWAP1 PUSH2 0x29F9 JUMP JUMPDEST SWAP5 POP DUP2 MLOAD DUP2 LT PUSH2 0xA47 JUMPI PUSH2 0xA47 PUSH2 0x29E3 JUMP JUMPDEST PUSH1 0x20 MUL PUSH1 0x20 ADD ADD DUP2 DUP2 MSTORE POP POP JUMPDEST DUP1 PUSH2 0xA5E DUP2 PUSH2 0x29F9 JUMP JUMPDEST SWAP2 POP POP PUSH2 0x9C6 JUMP JUMPDEST POP SWAP1 SWAP4 POP POP POP POP JUMPDEST SWAP3 SWAP2 POP POP JUMP JUMPDEST PUSH1 0x8 PUSH1 0x20 MSTORE DUP2 PUSH1 0x0 MSTORE PUSH1 0x40 PUSH1 0x0 KECCAK256 DUP2 DUP2 SLOAD DUP2 LT PUSH2 0xA90 JUMPI PUSH1 0x0 DUP1 REVERT JUMPDEST SWAP1 PUSH1 0x0 MSTORE PUSH1 0x20 PUSH1 0x0 KECCAK256 ADD PUSH1 0x0 SWAP2 POP SWAP2 POP POP SLOAD DUP2 JUMP JUMPDEST PUSH2 0xAAD PUSH2 0x20F5 JUMP JUMPDEST PUSH2 0xAB5 PUSH2 0x228E JUMP JUMPDEST JUMP JUMPDEST PUSH2 0xABF PUSH2 0x22E0 JUMP JUMPDEST PUSH2 0xAC7 PUSH2 0x230A JUMP JUMPDEST PUSH1 0x0 DUP2 DUP2 MSTORE PUSH1 0x4 PUSH1 0x20 MSTORE PUSH1 0x40 SWAP1 KECCAK256 DUP1 SLOAD PUSH2 0xAF3 JUMPI PUSH1 0x40 MLOAD PUSH3 0x461BCD PUSH1 0xE5 SHL DUP2 MSTORE PUSH1 0x4 ADD PUSH2 0x6C6 SWAP1 PUSH2 0x2992 JUMP JUMPDEST PUSH1 0x0 PUSH1 0x4 DUP3 DUP2 ADD SLOAD PUSH3 0x10000 SWAP1 DIV PUSH1 0xFF AND SWAP1 DUP2 GT ISZERO PUSH2 0xB14 JUMPI PUSH2 0xB14 PUSH2 0x284B JUMP JUMPDEST EQ PUSH2 0xB51 JUMPI PUSH1 0x40 MLOAD PUSH3 0x461BCD PUSH1 0xE5 SHL DUP2 MSTORE PUSH1 0x20 PUSH1 0x4 DUP3 ADD MSTORE PUSH1 0xD PUSH1 0x24 DUP3 ADD MSTORE PUSH13 0x2937B7B6903737BA1037B832B7 PUSH1 0x99 SHL PUSH1 0x44 DUP3 ADD MSTORE PUSH1 0x64 ADD PUSH2 0x6C6 JUMP JUMPDEST PUSH1 0x1 DUP2 ADD SLOAD CALLER PUSH1 0x1 PUSH1 0x1 PUSH1 0xA0 SHL SUB SWAP1 SWAP2 AND SUB PUSH2 0xBA6 JUMPI PUSH1 0x40 MLOAD PUSH3 0x461BCD PUSH1 0xE5 SHL DUP2 MSTORE PUSH1 0x20 PUSH1 0x4 DUP3 ADD MSTORE PUSH1 0x14 PUSH1 0x24 DUP3 ADD MSTORE PUSH20 0x43616E6E6F74206A6F696E206F776E20726F6F6D PUSH1 0x60 SHL PUSH1 0x44 DUP3 ADD MSTORE PUSH1 0x64 ADD PUSH2 0x6C6 JUMP JUMPDEST PUSH1 0x3 DUP2 ADD SLOAD PUSH1 0x40 MLOAD PUSH4 0x6EB1769F PUSH1 0xE1 SHL DUP2 MSTORE CALLER PUSH1 0x4 DUP3 ADD MSTORE ADDRESS PUSH1 0x24 DUP3 ADD MSTORE PUSH32 0x0 PUSH1 0x1 PUSH1 0x1 PUSH1 0xA0 SHL SUB AND SWAP1 PUSH4 0xDD62ED3E SWAP1 PUSH1 0x44 ADD PUSH1 0x20 PUSH1 0x40 MLOAD DUP1 DUP4 SUB DUP2 DUP7 GAS STATICCALL ISZERO DUP1 ISZERO PUSH2 0xC15 JUMPI RETURNDATASIZE PUSH1 0x0 DUP1 RETURNDATACOPY RETURNDATASIZE PUSH1 0x0 REVERT JUMPDEST POP POP POP POP PUSH1 0x40 MLOAD RETURNDATASIZE PUSH1 0x1F NOT PUSH1 0x1F DUP3 ADD AND DUP3 ADD DUP1 PUSH1 0x40 MSTORE POP DUP2 ADD SWAP1 PUSH2 0xC39 SWAP2 SWAP1 PUSH2 0x2A28 JUMP JUMPDEST LT ISZERO PUSH2 0xC7C JUMPI PUSH1 0x40 MLOAD PUSH3 0x461BCD PUSH1 0xE5 SHL DUP2 MSTORE PUSH1 0x20 PUSH1 0x4 DUP3 ADD MSTORE PUSH1 0x12 PUSH1 0x24 DUP3 ADD MSTORE PUSH18 0x105C1C1C9BDD99481554D110C8199A5C9CDD PUSH1 0x72 SHL PUSH1 0x44 DUP3 ADD MSTORE PUSH1 0x64 ADD PUSH2 0x6C6 JUMP JUMPDEST PUSH1 0x3 DUP2 ADD SLOAD PUSH2 0xCB9 SWAP1 PUSH1 0x1 PUSH1 0x1 PUSH1 0xA0 SHL SUB PUSH32 0x0 AND SWAP1 CALLER SWAP1 ADDRESS SWAP1 PUSH2 0x232E JUMP JUMPDEST PUSH1 0x2 DUP2 DUP2 ADD DUP1 SLOAD PUSH1 0x1 PUSH1 0x1 PUSH1 0xA0 SHL SUB NOT AND CALLER SWAP1 DUP2 OR SWAP1 SWAP2 SSTORE PUSH1 0x4 DUP4 ADD DUP1 SLOAD PUSH3 0xFF0000 NOT AND PUSH3 0x10000 OR SWAP1 SSTORE PUSH1 0x0 SWAP1 DUP2 MSTORE PUSH1 0x8 PUSH1 0x20 SWAP1 DUP2 MSTORE PUSH1 0x40 DUP3 KECCAK256 DUP1 SLOAD PUSH1 0x1 DUP2 ADD DUP3 SSTORE SWAP1 DUP4 MSTORE SWAP2 KECCAK256 ADD DUP4 SWAP1 SSTORE PUSH1 0x3 DUP3 ADD SLOAD PUSH2 0xD13 SWAP2 PUSH2 0x2A41 JUMP JUMPDEST PUSH1 0xE PUSH1 0x0 DUP3 DUP3 SLOAD PUSH2 0xD24 SWAP2 SWAP1 PUSH2 0x29D0 JUMP JUMPDEST SWAP1 SWAP2 SSTORE POP POP PUSH1 0x4 DUP2 ADD SLOAD PUSH2 0xD4D SWAP1 DUP4 SWAP1 PUSH2 0x100 SWAP1 DIV PUSH1 0xFF AND PUSH1 0x1 DUP2 GT ISZERO PUSH2 0x7D2 JUMPI PUSH2 0x7D2 PUSH2 0x284B JUMP JUMPDEST PUSH1 0x40 MLOAD CALLER SWAP1 DUP4 SWAP1 PUSH32 0xFBA1AD45CC33AED2E8C4F2C3558E076E3B43D01B218179472DE7109107A65F81 SWAP1 PUSH1 0x0 SWAP1 LOG3 POP PUSH2 0xD84 PUSH1 0x1 DUP1 SSTORE JUMP JUMPDEST POP JUMP JUMPDEST PUSH1 0x0 DUP2 PUSH1 0xFF AND PUSH1 0x0 SUB PUSH2 0xD9E JUMPI POP PUSH3 0x989680 SWAP2 SWAP1 POP JUMP JUMPDEST DUP2 PUSH1 0xFF AND PUSH1 0x1 SUB PUSH2 0xDB4 JUMPI POP PUSH4 0x17D7840 SWAP2 SWAP1 POP JUMP JUMPDEST DUP2 PUSH1 0xFF AND PUSH1 0x2 SUB PUSH2 0xDCA JUMPI POP PUSH4 0x2FAF080 SWAP2 SWAP1 POP JUMP JUMPDEST DUP2 PUSH1 0xFF AND PUSH1 0x3 SUB PUSH2 0xDE0 JUMPI POP PUSH4 0x5F5E100 SWAP2 SWAP1 POP JUMP JUMPDEST PUSH1 0x40 MLOAD PUSH3 0x461BCD PUSH1 0xE5 SHL DUP2 MSTORE PUSH1 0x20 PUSH1 0x4 DUP3 ADD MSTORE PUSH1 0xC PUSH1 0x24 DUP3 ADD MSTORE PUSH12 0x24B73B30B634B2103A34B2B9 PUSH1 0xA1 SHL PUSH1 0x44 DUP3 ADD MSTORE PUSH1 0x64 ADD PUSH2 0x6C6 JUMP JUMPDEST PUSH1 0x40 MLOAD PUSH4 0x70A08231 PUSH1 0xE0 SHL DUP2 MSTORE ADDRESS PUSH1 0x4 DUP3 ADD MSTORE PUSH1 0x0 SWAP1 PUSH32 0x0 PUSH1 0x1 PUSH1 0x1 PUSH1 0xA0 SHL SUB AND SWAP1 PUSH4 0x70A08231 SWAP1 PUSH1 0x24 ADD PUSH1 0x20 PUSH1 0x40 MLOAD DUP1 DUP4 SUB DUP2 DUP7 GAS STATICCALL ISZERO DUP1 ISZERO PUSH2 0xE7E JUMPI RETURNDATASIZE PUSH1 0x0 DUP1 RETURNDATACOPY RETURNDATASIZE PUSH1 0x0 REVERT JUMPDEST POP POP POP POP PUSH1 0x40 MLOAD RETURNDATASIZE PUSH1 0x1F NOT PUSH1 0x1F DUP3 ADD AND DUP3 ADD DUP1 PUSH1 0x40 MSTORE POP DUP2 ADD SWAP1 PUSH2 0xEA2 SWAP2 SWAP1 PUSH2 0x2A28 JUMP JUMPDEST SWAP1 POP SWAP1 JUMP JUMPDEST PUSH2 0xEAF PUSH2 0x20F5 JUMP JUMPDEST PUSH2 0xAB5 PUSH1 0x0 PUSH2 0x2367 JUMP JUMPDEST PUSH1 0xFF DUP2 AND PUSH1 0x0 SWAP1 DUP2 MSTORE PUSH1 0x6 PUSH1 0x20 SWAP1 DUP2 MSTORE PUSH1 0x40 SWAP2 DUP3 SWAP1 KECCAK256 DUP1 SLOAD DUP4 MLOAD DUP2 DUP5 MUL DUP2 ADD DUP5 ADD SWAP1 SWAP5 MSTORE DUP1 DUP5 MSTORE PUSH1 0x60 SWAP4 SWAP3 DUP4 ADD DUP3 DUP3 DUP1 ISZERO PUSH2 0xF13 JUMPI PUSH1 0x20 MUL DUP3 ADD SWAP2 SWAP1 PUSH1 0x0 MSTORE PUSH1 0x20 PUSH1 0x0 KECCAK256 SWAP1 JUMPDEST DUP2 SLOAD DUP2 MSTORE PUSH1 0x20 ADD SWAP1 PUSH1 0x1 ADD SWAP1 DUP1 DUP4 GT PUSH2 0xEFF JUMPI JUMPDEST POP POP POP POP POP SWAP1 POP SWAP2 SWAP1 POP JUMP JUMPDEST PUSH2 0xF27 PUSH2 0x20F5 JUMP JUMPDEST PUSH1 0x1 PUSH1 0x1 PUSH1 0xA0 SHL SUB DUP2 AND PUSH2 0xF6E JUMPI PUSH1 0x40 MLOAD PUSH3 0x461BCD PUSH1 0xE5 SHL DUP2 MSTORE PUSH1 0x20 PUSH1 0x4 DUP3 ADD MSTORE PUSH1 0xE PUSH1 0x24 DUP3 ADD MSTORE PUSH14 0x496E76616C6964206F7261636C65 PUSH1 0x90 SHL PUSH1 0x44 DUP3 ADD MSTORE PUSH1 0x64 ADD PUSH2 0x6C6 JUMP JUMPDEST PUSH1 0x3 DUP1 SLOAD PUSH1 0x1 PUSH1 0x1 PUSH1 0xA0 SHL SUB DUP4 DUP2 AND PUSH1 0x1 PUSH1 0x1 PUSH1 0xA0 SHL SUB NOT DUP4 AND DUP2 OR SWAP1 SWAP4 SSTORE PUSH1 0x40 MLOAD SWAP2 AND SWAP2 SWAP1 DUP3 SWAP1 PUSH32 0x78C3B417DADF69374A59793B829C52001247130433427049317BDE56607B1B7 SWAP1 PUSH1 0x0 SWAP1 LOG3 POP POP JUMP JUMPDEST PUSH2 0xFC8 PUSH2 0x20F5 JUMP JUMPDEST PUSH2 0xAB5 PUSH2 0x23B7 JUMP JUMPDEST PUSH2 0xFD8 PUSH2 0x22E0 JUMP JUMPDEST PUSH1 0x0 DUP2 DUP2 MSTORE PUSH1 0x4 PUSH1 0x20 MSTORE PUSH1 0x40 SWAP1 KECCAK256 DUP1 SLOAD PUSH2 0x1004 JUMPI PUSH1 0x40 MLOAD PUSH3 0x461BCD PUSH1 0xE5 SHL DUP2 MSTORE PUSH1 0x4 ADD PUSH2 0x6C6 SWAP1 PUSH2 0x2992 JUMP JUMPDEST PUSH1 0x0 PUSH1 0x4 DUP3 DUP2 ADD SLOAD PUSH3 0x10000 SWAP1 DIV PUSH1 0xFF AND SWAP1 DUP2 GT ISZERO PUSH2 0x1025 JUMPI PUSH2 0x1025 PUSH2 0x284B JUMP JUMPDEST EQ PUSH2 0x1062 JUMPI PUSH1 0x40 MLOAD PUSH3 0x461BCD PUSH1 0xE5 SHL DUP2 MSTORE PUSH1 0x20 PUSH1 0x4 DUP3 ADD MSTORE PUSH1 0xD PUSH1 0x24 DUP3 ADD MSTORE PUSH13 0x2937B7B6903737BA1037B832B7 PUSH1 0x99 SHL PUSH1 0x44 DUP3 ADD MSTORE PUSH1 0x64 ADD PUSH2 0x6C6 JUMP JUMPDEST PUSH1 0x1 DUP2 ADD SLOAD PUSH1 0x1 PUSH1 0x1 PUSH1 0xA0 SHL SUB AND CALLER EQ PUSH2 0x10B1 JUMPI PUSH1 0x40 MLOAD PUSH3 0x461BCD PUSH1 0xE5 SHL DUP2 MSTORE PUSH1 0x20 PUSH1 0x4 DUP3 ADD MSTORE PUSH1 0x10 PUSH1 0x24 DUP3 ADD MSTORE PUSH16 0x2737BA103937B7B69031B932B0BA37B9 PUSH1 0x81 SHL PUSH1 0x44 DUP3 ADD MSTORE PUSH1 0x64 ADD PUSH2 0x6C6 JUMP JUMPDEST PUSH1 0x4 DUP2 ADD DUP1 SLOAD PUSH3 0xFF0000 NOT AND PUSH3 0x40000 OR SWAP1 DUP2 SWAP1 SSTORE TIMESTAMP PUSH1 0x6 DUP4 ADD SSTORE PUSH2 0x10EB SWAP1 DUP4 SWAP1 PUSH2 0x100 SWAP1 DIV PUSH1 0xFF AND PUSH1 0x1 DUP2 GT ISZERO PUSH2 0x7D2 JUMPI PUSH2 0x7D2 PUSH2 0x284B JUMP JUMPDEST PUSH1 0x3 DUP2 ADD SLOAD PUSH2 0x1126 SWAP1 PUSH1 0x1 PUSH1 0x1 PUSH1 0xA0 SHL SUB PUSH32 0x0 AND SWAP1 CALLER SWAP1 PUSH2 0x222A JUMP JUMPDEST CALLER PUSH1 0x1 PUSH1 0x1 PUSH1 0xA0 SHL SUB AND DUP3 PUSH32 0x44AD6A9E36645C633FE0758019F6292D7A324289557759164269E07847D5A9FA DUP4 PUSH1 0x3 ADD SLOAD PUSH1 0x40 MLOAD PUSH2 0x1166 SWAP2 DUP2 MSTORE PUSH1 0x20 ADD SWAP1 JUMP JUMPDEST PUSH1 0x40 MLOAD DUP1 SWAP2 SUB SWAP1 LOG3 POP PUSH2 0xD84 PUSH1 0x1 DUP1 SSTORE JUMP JUMPDEST PUSH2 0x1180 PUSH2 0x22E0 JUMP JUMPDEST PUSH1 0x0 DUP5 DUP2 MSTORE PUSH1 0x4 PUSH1 0x20 MSTORE PUSH1 0x40 SWAP1 KECCAK256 DUP1 SLOAD PUSH2 0x11AC JUMPI PUSH1 0x40 MLOAD PUSH3 0x461BCD PUSH1 0xE5 SHL DUP2 MSTORE PUSH1 0x4 ADD PUSH2 0x6C6 SWAP1 PUSH2 0x2992 JUMP JUMPDEST PUSH1 0x1 PUSH1 0x4 DUP3 DUP2 ADD SLOAD PUSH3 0x10000 SWAP1 DIV PUSH1 0xFF AND SWAP1 DUP2 GT ISZERO PUSH2 0x11CD JUMPI PUSH2 0x11CD PUSH2 0x284B JUMP JUMPDEST EQ PUSH2 0x120C JUMPI PUSH1 0x40 MLOAD PUSH3 0x461BCD PUSH1 0xE5 SHL DUP2 MSTORE PUSH1 0x20 PUSH1 0x4 DUP3 ADD MSTORE PUSH1 0xF PUSH1 0x24 DUP3 ADD MSTORE PUSH15 0x149BDBDB481B9BDD08199A5B1B1959 PUSH1 0x8A SHL PUSH1 0x44 DUP3 ADD MSTORE PUSH1 0x64 ADD PUSH2 0x6C6 JUMP JUMPDEST PUSH1 0x0 DUP5 DUP2 MSTORE PUSH1 0xC PUSH1 0x20 MSTORE PUSH1 0x40 SWAP1 KECCAK256 SLOAD PUSH1 0xFF AND ISZERO PUSH2 0x1260 JUMPI PUSH1 0x40 MLOAD PUSH3 0x461BCD PUSH1 0xE5 SHL DUP2 MSTORE PUSH1 0x20 PUSH1 0x4 DUP3 ADD MSTORE PUSH1 0x12 PUSH1 0x24 DUP3 ADD MSTORE PUSH18 0x139BDB98D948185B1C9958591E481D5CD959 PUSH1 0x72 SHL PUSH1 0x44 DUP3 ADD MSTORE PUSH1 0x64 ADD PUSH2 0x6C6 JUMP JUMPDEST PUSH1 0x0 DUP6 DUP6 PUSH1 0x40 MLOAD PUSH1 0x20 ADD PUSH2 0x128B SWAP3 SWAP2 SWAP1 SWAP2 DUP3 MSTORE PUSH4 0x44524157 PUSH1 0xE0 SHL PUSH1 0x20 DUP4 ADD MSTORE PUSH1 0x24 DUP3 ADD MSTORE PUSH1 0x44 ADD SWAP1 JUMP JUMPDEST PUSH1 0x40 MLOAD PUSH1 0x20 DUP2 DUP4 SUB SUB DUP2 MSTORE SWAP1 PUSH1 0x40 MSTORE DUP1 MLOAD SWAP1 PUSH1 0x20 ADD KECCAK256 SWAP1 POP PUSH1 0x0 PUSH2 0x12DC DUP3 PUSH32 0x19457468657265756D205369676E6564204D6573736167653A0A333200000000 PUSH1 0x0 SWAP1 DUP2 MSTORE PUSH1 0x1C SWAP2 SWAP1 SWAP2 MSTORE PUSH1 0x3C SWAP1 KECCAK256 SWAP1 JUMP JUMPDEST PUSH1 0x3 SLOAD PUSH1 0x40 DUP1 MLOAD PUSH1 0x20 PUSH1 0x1F DUP10 ADD DUP2 SWAP1 DIV DUP2 MUL DUP3 ADD DUP2 ADD SWAP1 SWAP3 MSTORE DUP8 DUP2 MSTORE SWAP3 SWAP4 POP PUSH1 0x1 PUSH1 0x1 PUSH1 0xA0 SHL SUB SWAP1 SWAP2 AND SWAP2 PUSH2 0x132E SWAP2 DUP9 SWAP1 DUP9 SWAP1 DUP2 SWAP1 DUP5 ADD DUP4 DUP3 DUP1 DUP3 DUP5 CALLDATACOPY PUSH1 0x0 SWAP3 ADD SWAP2 SWAP1 SWAP2 MSTORE POP DUP7 SWAP4 SWAP3 POP POP PUSH2 0x23F4 SWAP1 POP JUMP JUMPDEST PUSH1 0x1 PUSH1 0x1 PUSH1 0xA0 SHL SUB AND EQ PUSH2 0x137F JUMPI PUSH1 0x40 MLOAD PUSH3 0x461BCD PUSH1 0xE5 SHL DUP2 MSTORE PUSH1 0x20 PUSH1 0x4 DUP3 ADD MSTORE PUSH1 0x18 PUSH1 0x24 DUP3 ADD MSTORE PUSH24 0x496E76616C6964206F7261636C65207369676E6174757265 PUSH1 0x40 SHL PUSH1 0x44 DUP3 ADD MSTORE PUSH1 0x64 ADD PUSH2 0x6C6 JUMP JUMPDEST PUSH1 0x0 DUP7 DUP2 MSTORE PUSH1 0xC PUSH1 0x20 MSTORE PUSH1 0x40 SWAP1 KECCAK256 DUP1 SLOAD PUSH1 0xFF NOT AND PUSH1 0x1 OR SWAP1 SSTORE PUSH1 0x4 DUP4 ADD DUP1 SLOAD PUSH1 0x3 SWAP2 SWAP1 PUSH3 0xFF0000 NOT AND PUSH3 0x10000 DUP4 MUL OR SWAP1 SSTORE POP TIMESTAMP PUSH1 0x6 DUP5 ADD SSTORE PUSH1 0x1 DUP4 ADD SLOAD PUSH1 0x3 DUP5 ADD SLOAD PUSH2 0x13FA SWAP2 PUSH1 0x1 PUSH1 0x1 PUSH1 0xA0 SHL SUB PUSH32 0x0 DUP2 AND SWAP3 SWAP2 AND SWAP1 PUSH2 0x222A JUMP JUMPDEST PUSH1 0x2 DUP4 ADD SLOAD PUSH1 0x3 DUP5 ADD SLOAD PUSH2 0x143C SWAP2 PUSH1 0x1 PUSH1 0x1 PUSH1 0xA0 SHL SUB PUSH32 0x0 DUP2 AND SWAP3 SWAP2 AND SWAP1 PUSH2 0x222A JUMP JUMPDEST PUSH1 0x40 MLOAD DUP8 SWAP1 PUSH32 0x44A12F36D948A4AD5589CB1F931C36AFF136FFC83ABA32BC2BF2869A04E78E0B SWAP1 PUSH1 0x0 SWAP1 LOG2 POP POP POP PUSH2 0x1473 PUSH1 0x1 DUP1 SSTORE JUMP JUMPDEST POP POP POP POP JUMP JUMPDEST PUSH1 0x1 PUSH1 0x1 PUSH1 0xA0 SHL SUB DUP2 AND PUSH1 0x0 SWAP1 DUP2 MSTORE PUSH1 0x8 PUSH1 0x20 SWAP1 DUP2 MSTORE PUSH1 0x40 SWAP2 DUP3 SWAP1 KECCAK256 DUP1 SLOAD DUP4 MLOAD DUP2 DUP5 MUL DUP2 ADD DUP5 ADD SWAP1 SWAP5 MSTORE DUP1 DUP5 MSTORE PUSH1 0x60 SWAP4 SWAP3 DUP4 ADD DUP3 DUP3 DUP1 ISZERO PUSH2 0xF13 JUMPI PUSH1 0x20 MUL DUP3 ADD SWAP2 SWAP1 PUSH1 0x0 MSTORE PUSH1 0x20 PUSH1 0x0 KECCAK256 SWAP1 DUP2 SLOAD DUP2 MSTORE PUSH1 0x20 ADD SWAP1 PUSH1 0x1 ADD SWAP1 DUP1 DUP4 GT PUSH2 0xEFF JUMPI POP POP POP POP POP SWAP1 POP SWAP2 SWAP1 POP JUMP JUMPDEST PUSH2 0x14EB PUSH2 0x20F5 JUMP JUMPDEST PUSH1 0x40 MLOAD PUSH4 0x70A08231 PUSH1 0xE0 SHL DUP2 MSTORE ADDRESS PUSH1 0x4 DUP3 ADD MSTORE PUSH1 0x0 SWAP1 PUSH32 0x0 PUSH1 0x1 PUSH1 0x1 PUSH1 0xA0 SHL SUB AND SWAP1 PUSH4 0x70A08231 SWAP1 PUSH1 0x24 ADD PUSH1 0x20 PUSH1 0x40 MLOAD DUP1 DUP4 SUB DUP2 DUP7 GAS STATICCALL ISZERO DUP1 ISZERO PUSH2 0x1552 JUMPI RETURNDATASIZE PUSH1 0x0 DUP1 RETURNDATACOPY RETURNDATASIZE PUSH1 0x0 REVERT JUMPDEST POP POP POP POP PUSH1 0x40 MLOAD RETURNDATASIZE PUSH1 0x1F NOT PUSH1 0x1F DUP3 ADD AND DUP3 ADD DUP1 PUSH1 0x40 MSTORE POP DUP2 ADD SWAP1 PUSH2 0x1576 SWAP2 SWAP1 PUSH2 0x2A28 JUMP JUMPDEST SWAP1 POP PUSH1 0x0 DUP2 GT PUSH2 0x15B5 JUMPI PUSH1 0x40 MLOAD PUSH3 0x461BCD PUSH1 0xE5 SHL DUP2 MSTORE PUSH1 0x20 PUSH1 0x4 DUP3 ADD MSTORE PUSH1 0xA PUSH1 0x24 DUP3 ADD MSTORE PUSH10 0x4E6F2062616C616E6365 PUSH1 0xB0 SHL PUSH1 0x44 DUP3 ADD MSTORE PUSH1 0x64 ADD PUSH2 0x6C6 JUMP JUMPDEST PUSH1 0x2 SLOAD PUSH2 0x15F4 SWAP1 PUSH1 0x1 PUSH1 0x1 PUSH1 0xA0 SHL SUB PUSH32 0x0 DUP2 AND SWAP2 PUSH2 0x100 SWAP1 DIV AND DUP4 PUSH2 0x222A JUMP JUMPDEST PUSH1 0x40 MLOAD DUP2 DUP2 MSTORE PUSH1 0x0 SWAP1 PUSH32 0x6A182286CFEF80B5E55E41FFACCD303FE0A16FBD077479B243BABA245C62BF97 SWAP1 PUSH1 0x20 ADD PUSH1 0x40 MLOAD DUP1 SWAP2 SUB SWAP1 LOG2 POP JUMP JUMPDEST PUSH2 0x1635 PUSH2 0x22E0 JUMP JUMPDEST PUSH1 0x0 DUP6 DUP2 MSTORE PUSH1 0x4 PUSH1 0x20 MSTORE PUSH1 0x40 SWAP1 KECCAK256 DUP1 SLOAD PUSH2 0x1661 JUMPI PUSH1 0x40 MLOAD PUSH3 0x461BCD PUSH1 0xE5 SHL DUP2 MSTORE PUSH1 0x4 ADD PUSH2 0x6C6 SWAP1 PUSH2 0x2992 JUMP JUMPDEST PUSH1 0x1 PUSH1 0x4 DUP3 DUP2 ADD SLOAD PUSH3 0x10000 SWAP1 DIV PUSH1 0xFF AND SWAP1 DUP2 GT ISZERO PUSH2 0x1682 JUMPI PUSH2 0x1682 PUSH2 0x284B JUMP JUMPDEST EQ PUSH2 0x16C1 JUMPI PUSH1 0x40 MLOAD PUSH3 0x461BCD PUSH1 0xE5 SHL DUP2 MSTORE PUSH1 0x20 PUSH1 0x4 DUP3 ADD MSTORE PUSH1 0xF PUSH1 0x24 DUP3 ADD MSTORE PUSH15 0x149BDBDB481B9BDD08199A5B1B1959 PUSH1 0x8A SHL PUSH1 0x44 DUP3 ADD MSTORE PUSH1 0x64 ADD PUSH2 0x6C6 JUMP JUMPDEST PUSH1 0x0 DUP5 DUP2 MSTORE PUSH1 0xC PUSH1 0x20 MSTORE PUSH1 0x40 SWAP1 KECCAK256 SLOAD PUSH1 0xFF AND ISZERO PUSH2 0x1715 JUMPI PUSH1 0x40 MLOAD PUSH3 0x461BCD PUSH1 0xE5 SHL DUP2 MSTORE PUSH1 0x20 PUSH1 0x4 DUP3 ADD MSTORE PUSH1 0x12 PUSH1 0x24 DUP3 ADD MSTORE PUSH18 0x139BDB98D948185B1C9958591E481D5CD959 PUSH1 0x72 SHL PUSH1 0x44 DUP3 ADD MSTORE PUSH1 0x64 ADD PUSH2 0x6C6 JUMP JUMPDEST PUSH1 0x1 DUP2 ADD SLOAD PUSH1 0x1 PUSH1 0x1 PUSH1 0xA0 SHL SUB DUP7 DUP2 AND SWAP2 AND EQ DUP1 PUSH2 0x1742 JUMPI POP PUSH1 0x2 DUP2 ADD SLOAD PUSH1 0x1 PUSH1 0x1 PUSH1 0xA0 SHL SUB DUP7 DUP2 AND SWAP2 AND EQ JUMPDEST PUSH2 0x177F JUMPI PUSH1 0x40 MLOAD PUSH3 0x461BCD PUSH1 0xE5 SHL DUP2 MSTORE PUSH1 0x20 PUSH1 0x4 DUP3 ADD MSTORE PUSH1 0xE PUSH1 0x24 DUP3 ADD MSTORE PUSH14 0x24B73B30B634B2103BB4B73732B9 PUSH1 0x91 SHL PUSH1 0x44 DUP3 ADD MSTORE PUSH1 0x64 ADD PUSH2 0x6C6 JUMP JUMPDEST PUSH1 0x40 DUP1 MLOAD PUSH1 0x20 DUP1 DUP3 ADD DUP10 SWAP1 MSTORE PUSH1 0x60 DUP9 SWAP1 SHL PUSH12 0xFFFFFFFFFFFFFFFFFFFFFFFF NOT AND DUP3 DUP5 ADD MSTORE PUSH1 0x54 DUP1 DUP4 ADD DUP9 SWAP1 MSTORE DUP4 MLOAD DUP1 DUP5 SUB SWAP1 SWAP2 ADD DUP2 MSTORE PUSH1 0x74 SWAP1 SWAP3 ADD SWAP1 SWAP3 MSTORE DUP1 MLOAD SWAP2 ADD KECCAK256 PUSH32 0x19457468657265756D205369676E6564204D6573736167653A0A333200000000 PUSH1 0x0 SWAP1 DUP2 MSTORE PUSH1 0x1C DUP3 SWAP1 MSTORE PUSH1 0x3C DUP2 KECCAK256 PUSH1 0x3 SLOAD PUSH1 0x40 DUP1 MLOAD PUSH1 0x20 PUSH1 0x1F DUP10 ADD DUP2 SWAP1 DIV DUP2 MUL DUP3 ADD DUP2 ADD SWAP1 SWAP3 MSTORE DUP8 DUP2 MSTORE SWAP3 SWAP4 POP PUSH1 0x1 PUSH1 0x1 PUSH1 0xA0 SHL SUB SWAP1 SWAP2 AND SWAP2 PUSH2 0x1843 SWAP2 DUP9 SWAP1 DUP9 SWAP1 DUP2 SWAP1 DUP5 ADD DUP4 DUP3 DUP1 DUP3 DUP5 CALLDATACOPY PUSH1 0x0 SWAP3 ADD SWAP2 SWAP1 SWAP2 MSTORE POP DUP7 SWAP4 SWAP3 POP POP PUSH2 0x23F4 SWAP1 POP JUMP JUMPDEST PUSH1 0x1 PUSH1 0x1 PUSH1 0xA0 SHL SUB AND EQ PUSH2 0x1894 JUMPI PUSH1 0x40 MLOAD PUSH3 0x461BCD PUSH1 0xE5 SHL DUP2 MSTORE PUSH1 0x20 PUSH1 0x4 DUP3 ADD MSTORE PUSH1 0x18 PUSH1 0x24 DUP3 ADD MSTORE PUSH24 0x496E76616C6964206F7261636C65207369676E6174757265 PUSH1 0x40 SHL PUSH1 0x44 DUP3 ADD MSTORE PUSH1 0x64 ADD PUSH2 0x6C6 JUMP JUMPDEST PUSH1 0x0 DUP7 DUP2 MSTORE PUSH1 0xC PUSH1 0x20 MSTORE PUSH1 0x40 DUP2 KECCAK256 DUP1 SLOAD PUSH1 0xFF NOT AND PUSH1 0x1 OR SWAP1 SSTORE PUSH1 0x3 DUP5 ADD SLOAD PUSH2 0x18BD SWAP1 PUSH1 0x2 PUSH2 0x2A41 JUMP JUMPDEST SWAP1 POP PUSH1 0x0 PUSH2 0x3E8 PUSH2 0x18D0 PUSH2 0x384 DUP5 PUSH2 0x2A41 JUMP JUMPDEST PUSH2 0x18DA SWAP2 SWAP1 PUSH2 0x2A58 JUMP JUMPDEST SWAP1 POP PUSH1 0x0 PUSH2 0x18E8 DUP3 DUP5 PUSH2 0x2A7A JUMP JUMPDEST PUSH1 0x4 DUP8 ADD DUP1 SLOAD PUSH3 0x10000 PUSH1 0x1 PUSH1 0xB8 SHL SUB NOT AND PUSH4 0x1000000 PUSH1 0x1 PUSH1 0x1 PUSH1 0xA0 SHL SUB DUP15 DUP2 AND SWAP2 DUP3 MUL SWAP3 SWAP1 SWAP3 OR PUSH3 0x20000 OR SWAP1 SWAP3 SSTORE TIMESTAMP PUSH1 0x6 DUP11 ADD SSTORE PUSH1 0x1 DUP10 ADD SLOAD SWAP3 SWAP4 POP PUSH1 0x0 SWAP3 AND EQ PUSH2 0x1943 JUMPI PUSH1 0x1 DUP8 ADD SLOAD PUSH1 0x1 PUSH1 0x1 PUSH1 0xA0 SHL SUB AND PUSH2 0x1952 JUMP JUMPDEST PUSH1 0x2 DUP8 ADD SLOAD PUSH1 0x1 PUSH1 0x1 PUSH1 0xA0 SHL SUB AND JUMPDEST PUSH1 0x1 PUSH1 0x1 PUSH1 0xA0 SHL SUB DUP13 AND PUSH1 0x0 SWAP1 DUP2 MSTORE PUSH1 0x9 PUSH1 0x20 MSTORE PUSH1 0x40 DUP2 KECCAK256 DUP1 SLOAD SWAP3 SWAP4 POP SWAP1 PUSH2 0x1979 DUP4 PUSH2 0x29F9 JUMP JUMPDEST SWAP1 SWAP2 SSTORE POP POP PUSH1 0x1 PUSH1 0x1 PUSH1 0xA0 SHL SUB DUP2 AND PUSH1 0x0 SWAP1 DUP2 MSTORE PUSH1 0xA PUSH1 0x20 MSTORE PUSH1 0x40 DUP2 KECCAK256 DUP1 SLOAD SWAP2 PUSH2 0x19A2 DUP4 PUSH2 0x29F9 JUMP JUMPDEST SWAP1 SWAP2 SSTORE POP POP PUSH1 0x1 PUSH1 0x1 PUSH1 0xA0 SHL SUB DUP12 AND PUSH1 0x0 SWAP1 DUP2 MSTORE PUSH1 0xB PUSH1 0x20 MSTORE PUSH1 0x40 DUP2 KECCAK256 DUP1 SLOAD DUP6 SWAP3 SWAP1 PUSH2 0x19CF SWAP1 DUP5 SWAP1 PUSH2 0x29D0 JUMP JUMPDEST SWAP1 SWAP2 SSTORE POP PUSH2 0x1A09 SWAP1 POP PUSH1 0x1 PUSH1 0x1 PUSH1 0xA0 SHL SUB PUSH32 0x0 AND DUP13 DUP6 PUSH2 0x222A JUMP JUMPDEST PUSH1 0x2 SLOAD PUSH2 0x1A48 SWAP1 PUSH1 0x1 PUSH1 0x1 PUSH1 0xA0 SHL SUB PUSH32 0x0 DUP2 AND SWAP2 PUSH2 0x100 SWAP1 DIV AND DUP5 PUSH2 0x222A JUMP JUMPDEST DUP11 PUSH1 0x1 PUSH1 0x1 PUSH1 0xA0 SHL SUB AND DUP13 PUSH32 0xAF6E7FB990F7FAC56E447048A9C4DA5C4309250963F8745E32BA9586ACFD895F DUP6 PUSH1 0x40 MLOAD PUSH2 0x1A84 SWAP2 DUP2 MSTORE PUSH1 0x20 ADD SWAP1 JUMP JUMPDEST PUSH1 0x40 MLOAD DUP1 SWAP2 SUB SWAP1 LOG3 POP POP POP POP POP POP POP PUSH2 0x1A9C PUSH1 0x1 DUP1 SSTORE JUMP JUMPDEST POP POP POP POP POP JUMP JUMPDEST PUSH1 0x60 PUSH1 0x5 DUP1 SLOAD DUP1 PUSH1 0x20 MUL PUSH1 0x20 ADD PUSH1 0x40 MLOAD SWAP1 DUP2 ADD PUSH1 0x40 MSTORE DUP1 SWAP3 SWAP2 SWAP1 DUP2 DUP2 MSTORE PUSH1 0x20 ADD DUP3 DUP1 SLOAD DUP1 ISZERO PUSH2 0x1AF1 JUMPI PUSH1 0x20 MUL DUP3 ADD SWAP2 SWAP1 PUSH1 0x0 MSTORE PUSH1 0x20 PUSH1 0x0 KECCAK256 SWAP1 JUMPDEST DUP2 SLOAD DUP2 MSTORE PUSH1 0x20 ADD SWAP1 PUSH1 0x1 ADD SWAP1 DUP1 DUP4 GT PUSH2 0x1ADD JUMPI JUMPDEST POP POP POP POP POP SWAP1 POP SWAP1 JUMP JUMPDEST PUSH1 0x0 PUSH2 0x1B05 PUSH2 0x22E0 JUMP JUMPDEST PUSH2 0x1B0D PUSH2 0x230A JUMP JUMPDEST PUSH1 0x3 DUP4 PUSH1 0xFF AND GT ISZERO PUSH2 0x1B50 JUMPI PUSH1 0x40 MLOAD PUSH3 0x461BCD PUSH1 0xE5 SHL DUP2 MSTORE PUSH1 0x20 PUSH1 0x4 DUP3 ADD MSTORE PUSH1 0xC PUSH1 0x24 DUP3 ADD MSTORE PUSH12 0x24B73B30B634B2103A34B2B9 PUSH1 0xA1 SHL PUSH1 0x44 DUP3 ADD MSTORE PUSH1 0x64 ADD PUSH2 0x6C6 JUMP JUMPDEST PUSH1 0x0 PUSH2 0x1B5B DUP5 PUSH2 0xD87 JUMP JUMPDEST PUSH1 0x40 MLOAD PUSH4 0x70A08231 PUSH1 0xE0 SHL DUP2 MSTORE CALLER PUSH1 0x4 DUP3 ADD MSTORE SWAP1 SWAP2 POP DUP2 SWAP1 PUSH1 0x1 PUSH1 0x1 PUSH1 0xA0 SHL SUB PUSH32 0x0 AND SWAP1 PUSH4 0x70A08231 SWAP1 PUSH1 0x24 ADD PUSH1 0x20 PUSH1 0x40 MLOAD DUP1 DUP4 SUB DUP2 DUP7 GAS STATICCALL ISZERO DUP1 ISZERO PUSH2 0x1BC4 JUMPI RETURNDATASIZE PUSH1 0x0 DUP1 RETURNDATACOPY RETURNDATASIZE PUSH1 0x0 REVERT JUMPDEST POP POP POP POP PUSH1 0x40 MLOAD RETURNDATASIZE PUSH1 0x1F NOT PUSH1 0x1F DUP3 ADD AND DUP3 ADD DUP1 PUSH1 0x40 MSTORE POP DUP2 ADD SWAP1 PUSH2 0x1BE8 SWAP2 SWAP1 PUSH2 0x2A28 JUMP JUMPDEST LT ISZERO PUSH2 0x1C2A JUMPI PUSH1 0x40 MLOAD PUSH3 0x461BCD PUSH1 0xE5 SHL DUP2 MSTORE PUSH1 0x20 PUSH1 0x4 DUP3 ADD MSTORE PUSH1 0x11 PUSH1 0x24 DUP3 ADD MSTORE PUSH17 0x496E73756666696369656E742055534443 PUSH1 0x78 SHL PUSH1 0x44 DUP3 ADD MSTORE PUSH1 0x64 ADD PUSH2 0x6C6 JUMP JUMPDEST PUSH1 0x40 MLOAD PUSH4 0x6EB1769F PUSH1 0xE1 SHL DUP2 MSTORE CALLER PUSH1 0x4 DUP3 ADD MSTORE ADDRESS PUSH1 0x24 DUP3 ADD MSTORE DUP2 SWAP1 PUSH32 0x0 PUSH1 0x1 PUSH1 0x1 PUSH1 0xA0 SHL SUB AND SWAP1 PUSH4 0xDD62ED3E SWAP1 PUSH1 0x44 ADD PUSH1 0x20 PUSH1 0x40 MLOAD DUP1 DUP4 SUB DUP2 DUP7 GAS STATICCALL ISZERO DUP1 ISZERO PUSH2 0x1C96 JUMPI RETURNDATASIZE PUSH1 0x0 DUP1 RETURNDATACOPY RETURNDATASIZE PUSH1 0x0 REVERT JUMPDEST POP POP POP POP PUSH1 0x40 MLOAD RETURNDATASIZE PUSH1 0x1F NOT PUSH1 0x1F DUP3 ADD AND DUP3 ADD DUP1 PUSH1 0x40 MSTORE POP DUP2 ADD SWAP1 PUSH2 0x1CBA SWAP2 SWAP1 PUSH2 0x2A28 JUMP JUMPDEST LT ISZERO PUSH2 0x1CFD JUMPI PUSH1 0x40 MLOAD PUSH3 0x461BCD PUSH1 0xE5 SHL DUP2 MSTORE PUSH1 0x20 PUSH1 0x4 DUP3 ADD MSTORE PUSH1 0x12 PUSH1 0x24 DUP3 ADD MSTORE PUSH18 0x105C1C1C9BDD99481554D110C8199A5C9CDD PUSH1 0x72 SHL PUSH1 0x44 DUP3 ADD MSTORE PUSH1 0x64 ADD PUSH2 0x6C6 JUMP JUMPDEST PUSH1 0x5 SLOAD PUSH1 0x40 MLOAD PUSH12 0xFFFFFFFFFFFFFFFFFFFFFFFF NOT CALLER PUSH1 0x60 SHL AND PUSH1 0x20 DUP3 ADD MSTORE TIMESTAMP PUSH1 0x34 DUP3 ADD MSTORE PREVRANDAO PUSH1 0x54 DUP3 ADD MSTORE PUSH1 0x74 DUP2 ADD SWAP2 SWAP1 SWAP2 MSTORE PUSH1 0x94 ADD PUSH1 0x40 MLOAD PUSH1 0x20 DUP2 DUP4 SUB SUB DUP2 MSTORE SWAP1 PUSH1 0x40 MSTORE DUP1 MLOAD SWAP1 PUSH1 0x20 ADD KECCAK256 SWAP2 POP PUSH1 0x40 MLOAD DUP1 PUSH2 0x140 ADD PUSH1 0x40 MSTORE DUP1 DUP4 DUP2 MSTORE PUSH1 0x20 ADD CALLER PUSH1 0x1 PUSH1 0x1 PUSH1 0xA0 SHL SUB AND DUP2 MSTORE PUSH1 0x20 ADD PUSH1 0x0 PUSH1 0x1 PUSH1 0x1 PUSH1 0xA0 SHL SUB AND DUP2 MSTORE PUSH1 0x20 ADD DUP3 DUP2 MSTORE PUSH1 0x20 ADD DUP6 PUSH1 0xFF AND DUP2 MSTORE PUSH1 0x20 ADD DUP5 PUSH1 0x1 DUP2 GT ISZERO PUSH2 0x1D9C JUMPI PUSH2 0x1D9C PUSH2 0x284B JUMP JUMPDEST DUP2 MSTORE PUSH1 0x20 ADD PUSH1 0x0 DUP2 MSTORE PUSH1 0x0 PUSH1 0x20 DUP1 DUP4 ADD DUP3 SWAP1 MSTORE TIMESTAMP PUSH1 0x40 DUP1 DUP6 ADD SWAP2 SWAP1 SWAP2 MSTORE PUSH1 0x60 SWAP4 DUP5 ADD DUP4 SWAP1 MSTORE DUP7 DUP4 MSTORE PUSH1 0x4 DUP1 DUP4 MSTORE SWAP3 DUP2 SWAP1 KECCAK256 DUP6 MLOAD DUP2 SSTORE SWAP2 DUP6 ADD MLOAD PUSH1 0x1 DUP1 DUP5 ADD DUP1 SLOAD PUSH1 0x1 PUSH1 0x1 PUSH1 0xA0 SHL SUB SWAP4 DUP5 AND PUSH1 0x1 PUSH1 0x1 PUSH1 0xA0 SHL SUB NOT SWAP2 DUP3 AND OR SWAP1 SWAP2 SSTORE SWAP3 DUP8 ADD MLOAD PUSH1 0x2 DUP6 ADD DUP1 SLOAD SWAP2 SWAP1 SWAP4 AND SWAP4 AND SWAP3 SWAP1 SWAP3 OR SWAP1 SSTORE SWAP3 DUP5 ADD MLOAD PUSH1 0x3 DUP3 ADD SSTORE PUSH1 0x80 DUP5 ADD MLOAD SWAP2 DUP2 ADD DUP1 SLOAD PUSH1 0xFF SWAP1 SWAP4 AND PUSH1 0xFF NOT DUP5 AND DUP2 OR DUP3 SSTORE PUSH1 0xA0 DUP7 ADD MLOAD SWAP3 SWAP5 SWAP3 SWAP4 SWAP2 SWAP3 PUSH2 0xFFFF NOT SWAP1 SWAP3 AND OR SWAP1 PUSH2 0x100 SWAP1 DUP5 SWAP1 DUP2 GT ISZERO PUSH2 0x1E57 JUMPI PUSH2 0x1E57 PUSH2 0x284B JUMP JUMPDEST MUL OR SWAP1 SSTORE POP PUSH1 0xC0 DUP3 ADD MLOAD DUP2 PUSH1 0x4 ADD PUSH1 0x2 PUSH2 0x100 EXP DUP2 SLOAD DUP2 PUSH1 0xFF MUL NOT AND SWAP1 DUP4 PUSH1 0x4 DUP2 GT ISZERO PUSH2 0x1E86 JUMPI PUSH2 0x1E86 PUSH2 0x284B JUMP JUMPDEST MUL OR SWAP1 SSTORE POP PUSH1 0xE0 DUP3 ADD MLOAD PUSH1 0x4 DUP3 ADD DUP1 SLOAD PUSH1 0x1 PUSH1 0x1 PUSH1 0xA0 SHL SUB SWAP1 SWAP3 AND PUSH4 0x1000000 MUL PUSH4 0x1000000 PUSH1 0x1 PUSH1 0xB8 SHL SUB NOT SWAP1 SWAP3 AND SWAP2 SWAP1 SWAP2 OR SWAP1 SSTORE PUSH2 0x100 DUP3 ADD MLOAD PUSH1 0x5 DUP1 DUP4 ADD SWAP2 SWAP1 SWAP2 SSTORE PUSH2 0x120 SWAP1 SWAP3 ADD MLOAD PUSH1 0x6 SWAP1 SWAP2 ADD SSTORE DUP1 SLOAD PUSH1 0x1 DUP2 DUP2 ADD SWAP1 SWAP3 SSTORE PUSH32 0x36B6384B5ECA791C62761152D0C79BB0604C104A5FB6F4EB0703F3154BB3DB0 ADD DUP4 SWAP1 SSTORE CALLER PUSH1 0x0 SWAP1 DUP2 MSTORE PUSH1 0x8 PUSH1 0x20 SWAP1 DUP2 MSTORE PUSH1 0x40 DUP3 KECCAK256 DUP1 SLOAD SWAP4 DUP5 ADD DUP2 SSTORE DUP3 MSTORE DUP2 KECCAK256 SWAP1 SWAP2 ADD DUP4 SWAP1 SSTORE PUSH1 0xD DUP1 SLOAD SWAP2 PUSH2 0x1F37 DUP4 PUSH2 0x29F9 JUMP JUMPDEST SWAP2 SWAP1 POP SSTORE POP PUSH1 0x0 DUP4 PUSH1 0x1 DUP2 GT ISZERO PUSH2 0x1F50 JUMPI PUSH2 0x1F50 PUSH2 0x284B JUMP JUMPDEST PUSH1 0xFF DUP2 AND PUSH1 0x0 SWAP1 DUP2 MSTORE PUSH1 0x6 PUSH1 0x20 DUP2 DUP2 MSTORE PUSH1 0x40 DUP1 DUP5 KECCAK256 DUP1 SLOAD DUP10 DUP7 MSTORE PUSH1 0x7 DUP5 MSTORE SWAP2 DUP6 KECCAK256 DUP3 SWAP1 SSTORE SWAP3 DUP3 MSTORE PUSH1 0x1 DUP2 ADD DUP4 SSTORE SWAP2 DUP4 MSTORE SWAP1 SWAP2 KECCAK256 ADD DUP5 SWAP1 SSTORE SWAP1 POP PUSH2 0x1FBE PUSH1 0x1 PUSH1 0x1 PUSH1 0xA0 SHL SUB PUSH32 0x0 AND CALLER ADDRESS DUP6 PUSH2 0x232E JUMP JUMPDEST CALLER PUSH1 0x1 PUSH1 0x1 PUSH1 0xA0 SHL SUB AND DUP4 PUSH32 0x5E72612CA9F83D2EB6E23CF918890544BE95A6CD5D3BCD1516473A0A2D64CF20 DUP8 DUP8 DUP7 PUSH1 0x40 MLOAD PUSH2 0x1FFC SWAP4 SWAP3 SWAP2 SWAP1 PUSH2 0x2A8D JUMP JUMPDEST PUSH1 0x40 MLOAD DUP1 SWAP2 SUB SWAP1 LOG3 POP POP PUSH2 0xA6E PUSH1 0x1 DUP1 SSTORE JUMP JUMPDEST PUSH2 0x2017 PUSH2 0x20F5 JUMP JUMPDEST PUSH1 0x1 PUSH1 0x1 PUSH1 0xA0 SHL SUB DUP2 AND PUSH2 0x2060 JUMPI PUSH1 0x40 MLOAD PUSH3 0x461BCD PUSH1 0xE5 SHL DUP2 MSTORE PUSH1 0x20 PUSH1 0x4 DUP3 ADD MSTORE PUSH1 0x10 PUSH1 0x24 DUP3 ADD MSTORE PUSH16 0x496E76616C6964207472656173757279 PUSH1 0x80 SHL PUSH1 0x44 DUP3 ADD MSTORE PUSH1 0x64 ADD PUSH2 0x6C6 JUMP JUMPDEST PUSH1 0x2 DUP1 SLOAD PUSH1 0x1 PUSH1 0x1 PUSH1 0xA0 SHL SUB DUP4 DUP2 AND PUSH2 0x100 DUP2 DUP2 MUL PUSH2 0x100 PUSH1 0x1 PUSH1 0xA8 SHL SUB NOT DUP6 AND OR SWAP1 SWAP5 SSTORE PUSH1 0x40 MLOAD SWAP4 SWAP1 SWAP3 DIV AND SWAP2 DUP3 SWAP1 PUSH32 0x4AB5BE82436D353E61CA18726E984E561F5C1CC7C6D38B29D2553C790434705A SWAP1 PUSH1 0x0 SWAP1 LOG3 POP POP JUMP JUMPDEST PUSH2 0x20C2 PUSH2 0x20F5 JUMP JUMPDEST PUSH1 0x1 PUSH1 0x1 PUSH1 0xA0 SHL SUB DUP2 AND PUSH2 0x20EC JUMPI PUSH1 0x40 MLOAD PUSH4 0x1E4FBDF7 PUSH1 0xE0 SHL DUP2 MSTORE PUSH1 0x0 PUSH1 0x4 DUP3 ADD MSTORE PUSH1 0x24 ADD PUSH2 0x6C6 JUMP JUMPDEST PUSH2 0xD84 DUP2 PUSH2 0x2367 JUMP JUMPDEST PUSH1 0x0 SLOAD PUSH1 0x1 PUSH1 0x1 PUSH1 0xA0 SHL SUB AND CALLER EQ PUSH2 0xAB5 JUMPI PUSH1 0x40 MLOAD PUSH4 0x118CDAA7 PUSH1 0xE0 SHL DUP2 MSTORE CALLER PUSH1 0x4 DUP3 ADD MSTORE PUSH1 0x24 ADD PUSH2 0x6C6 JUMP JUMPDEST PUSH1 0x0 DUP3 DUP2 MSTORE PUSH1 0x7 PUSH1 0x20 SWAP1 DUP2 MSTORE PUSH1 0x40 DUP1 DUP4 KECCAK256 SLOAD PUSH1 0xFF DUP6 AND DUP5 MSTORE PUSH1 0x6 SWAP1 SWAP3 MSTORE DUP3 KECCAK256 SLOAD SWAP1 SWAP2 SWAP1 PUSH2 0x2151 SWAP1 PUSH1 0x1 SWAP1 PUSH2 0x2A7A JUMP JUMPDEST SWAP1 POP DUP1 DUP3 EQ PUSH2 0x21D6 JUMPI PUSH1 0xFF DUP4 AND PUSH1 0x0 SWAP1 DUP2 MSTORE PUSH1 0x6 PUSH1 0x20 MSTORE PUSH1 0x40 DUP2 KECCAK256 DUP1 SLOAD DUP4 SWAP1 DUP2 LT PUSH2 0x217E JUMPI PUSH2 0x217E PUSH2 0x29E3 JUMP JUMPDEST SWAP1 PUSH1 0x0 MSTORE PUSH1 0x20 PUSH1 0x0 KECCAK256 ADD SLOAD SWAP1 POP DUP1 PUSH1 0x6 PUSH1 0x0 DUP7 PUSH1 0xFF AND PUSH1 0xFF AND DUP2 MSTORE PUSH1 0x20 ADD SWAP1 DUP2 MSTORE PUSH1 0x20 ADD PUSH1 0x0 KECCAK256 DUP5 DUP2 SLOAD DUP2 LT PUSH2 0x21B6 JUMPI PUSH2 0x21B6 PUSH2 0x29E3 JUMP JUMPDEST PUSH1 0x0 SWAP2 DUP3 MSTORE PUSH1 0x20 DUP1 DUP4 KECCAK256 SWAP1 SWAP2 ADD SWAP3 SWAP1 SWAP3 SSTORE SWAP2 DUP3 MSTORE PUSH1 0x7 SWAP1 MSTORE PUSH1 0x40 SWAP1 KECCAK256 DUP3 SWAP1 SSTORE JUMPDEST PUSH1 0xFF DUP4 AND PUSH1 0x0 SWAP1 DUP2 MSTORE PUSH1 0x6 PUSH1 0x20 MSTORE PUSH1 0x40 SWAP1 KECCAK256 DUP1 SLOAD DUP1 PUSH2 0x21F7 JUMPI PUSH2 0x21F7 PUSH2 0x2AB2 JUMP JUMPDEST PUSH1 0x1 SWAP1 SUB DUP2 DUP2 SWAP1 PUSH1 0x0 MSTORE PUSH1 0x20 PUSH1 0x0 KECCAK256 ADD PUSH1 0x0 SWAP1 SSTORE SWAP1 SSTORE PUSH1 0x7 PUSH1 0x0 DUP6 DUP2 MSTORE PUSH1 0x20 ADD SWAP1 DUP2 MSTORE PUSH1 0x20 ADD PUSH1 0x0 KECCAK256 PUSH1 0x0 SWAP1 SSTORE POP POP POP POP JUMP JUMPDEST PUSH1 0x40 MLOAD PUSH1 0x1 PUSH1 0x1 PUSH1 0xA0 SHL SUB DUP4 DUP2 AND PUSH1 0x24 DUP4 ADD MSTORE PUSH1 0x44 DUP3 ADD DUP4 SWAP1 MSTORE PUSH2 0x2289 SWAP2 DUP6 SWAP2 DUP3 AND SWAP1 PUSH4 0xA9059CBB SWAP1 PUSH1 0x64 ADD JUMPDEST PUSH1 0x40 MLOAD PUSH1 0x20 DUP2 DUP4 SUB SUB DUP2 MSTORE SWAP1 PUSH1 0x40 MSTORE SWAP2 POP PUSH1 0xE0 SHL PUSH1 0x20 DUP3 ADD DUP1 MLOAD PUSH1 0x1 PUSH1 0x1 PUSH1 0xE0 SHL SUB DUP4 DUP2 DUP4 AND OR DUP4 MSTORE POP POP POP POP PUSH2 0x241E JUMP JUMPDEST POP POP POP JUMP JUMPDEST PUSH2 0x2296 PUSH2 0x248F JUMP JUMPDEST PUSH1 0x2 DUP1 SLOAD PUSH1 0xFF NOT AND SWAP1 SSTORE PUSH32 0x5DB9EE0A495BF2E6FF9C91A7834C1BA4FDD244A5E8AA4E537BD38AEAE4B073AA CALLER JUMPDEST PUSH1 0x40 MLOAD PUSH1 0x1 PUSH1 0x1 PUSH1 0xA0 SHL SUB SWAP1 SWAP2 AND DUP2 MSTORE PUSH1 0x20 ADD PUSH1 0x40 MLOAD DUP1 SWAP2 SUB SWAP1 LOG1 JUMP JUMPDEST PUSH1 0x2 PUSH1 0x1 SLOAD SUB PUSH2 0x2303 JUMPI PUSH1 0x40 MLOAD PUSH4 0x3EE5AEB5 PUSH1 0xE0 SHL DUP2 MSTORE PUSH1 0x4 ADD PUSH1 0x40 MLOAD DUP1 SWAP2 SUB SWAP1 REVERT JUMPDEST PUSH1 0x2 PUSH1 0x1 SSTORE JUMP JUMPDEST PUSH1 0x2 SLOAD PUSH1 0xFF AND ISZERO PUSH2 0xAB5 JUMPI PUSH1 0x40 MLOAD PUSH4 0xD93C0665 PUSH1 0xE0 SHL DUP2 MSTORE PUSH1 0x4 ADD PUSH1 0x40 MLOAD DUP1 SWAP2 SUB SWAP1 REVERT JUMPDEST PUSH1 0x40 MLOAD PUSH1 0x1 PUSH1 0x1 PUSH1 0xA0 SHL SUB DUP5 DUP2 AND PUSH1 0x24 DUP4 ADD MSTORE DUP4 DUP2 AND PUSH1 0x44 DUP4 ADD MSTORE PUSH1 0x64 DUP3 ADD DUP4 SWAP1 MSTORE PUSH2 0x1473 SWAP2 DUP7 SWAP2 DUP3 AND SWAP1 PUSH4 0x23B872DD SWAP1 PUSH1 0x84 ADD PUSH2 0x2257 JUMP JUMPDEST PUSH1 0x0 DUP1 SLOAD PUSH1 0x1 PUSH1 0x1 PUSH1 0xA0 SHL SUB DUP4 DUP2 AND PUSH1 0x1 PUSH1 0x1 PUSH1 0xA0 SHL SUB NOT DUP4 AND DUP2 OR DUP5 SSTORE PUSH1 0x40 MLOAD SWAP2 SWAP1 SWAP3 AND SWAP3 DUP4 SWAP2 PUSH32 0x8BE0079C531659141344CD1FD0A4F28419497F9722A3DAAFE3B4186F6B6457E0 SWAP2 SWAP1 LOG3 POP POP JUMP JUMPDEST PUSH2 0x23BF PUSH2 0x230A JUMP JUMPDEST PUSH1 0x2 DUP1 SLOAD PUSH1 0xFF NOT AND PUSH1 0x1 OR SWAP1 SSTORE PUSH32 0x62E78CEA01BEE320CD4E420270B5EA74000D11B0C9F74754EBDBFC544B05A258 PUSH2 0x22C3 CALLER SWAP1 JUMP JUMPDEST PUSH1 0x0 DUP1 PUSH1 0x0 DUP1 PUSH2 0x2404 DUP7 DUP7 PUSH2 0x24B2 JUMP JUMPDEST SWAP3 POP SWAP3 POP SWAP3 POP PUSH2 0x2414 DUP3 DUP3 PUSH2 0x24FF JUMP JUMPDEST POP SWAP1 SWAP5 SWAP4 POP POP POP POP JUMP JUMPDEST PUSH1 0x0 DUP1 PUSH1 0x20 PUSH1 0x0 DUP5 MLOAD PUSH1 0x20 DUP7 ADD PUSH1 0x0 DUP9 GAS CALL DUP1 PUSH2 0x2441 JUMPI PUSH1 0x40 MLOAD RETURNDATASIZE PUSH1 0x0 DUP3 RETURNDATACOPY RETURNDATASIZE DUP2 REVERT JUMPDEST POP POP PUSH1 0x0 MLOAD RETURNDATASIZE SWAP2 POP DUP2 ISZERO PUSH2 0x2459 JUMPI DUP1 PUSH1 0x1 EQ ISZERO PUSH2 0x2466 JUMP JUMPDEST PUSH1 0x1 PUSH1 0x1 PUSH1 0xA0 SHL SUB DUP5 AND EXTCODESIZE ISZERO JUMPDEST ISZERO PUSH2 0x1473 JUMPI PUSH1 0x40 MLOAD PUSH4 0x5274AFE7 PUSH1 0xE0 SHL DUP2 MSTORE PUSH1 0x1 PUSH1 0x1 PUSH1 0xA0 SHL SUB DUP6 AND PUSH1 0x4 DUP3 ADD MSTORE PUSH1 0x24 ADD PUSH2 0x6C6 JUMP JUMPDEST PUSH1 0x2 SLOAD PUSH1 0xFF AND PUSH2 0xAB5 JUMPI PUSH1 0x40 MLOAD PUSH4 0x8DFC202B PUSH1 0xE0 SHL DUP2 MSTORE PUSH1 0x4 ADD PUSH1 0x40 MLOAD DUP1 SWAP2 SUB SWAP1 REVERT JUMPDEST PUSH1 0x0 DUP1 PUSH1 0x0 DUP4 MLOAD PUSH1 0x41 SUB PUSH2 0x24EC JUMPI PUSH1 0x20 DUP5 ADD MLOAD PUSH1 0x40 DUP6 ADD MLOAD PUSH1 0x60 DUP7 ADD MLOAD PUSH1 0x0 BYTE PUSH2 0x24DE DUP9 DUP3 DUP6 DUP6 PUSH2 0x25BC JUMP JUMPDEST SWAP6 POP SWAP6 POP SWAP6 POP POP POP POP PUSH2 0x24F8 JUMP JUMPDEST POP POP DUP2 MLOAD PUSH1 0x0 SWAP2 POP PUSH1 0x2 SWAP1 JUMPDEST SWAP3 POP SWAP3 POP SWAP3 JUMP JUMPDEST PUSH1 0x0 DUP3 PUSH1 0x3 DUP2 GT ISZERO PUSH2 0x2513 JUMPI PUSH2 0x2513 PUSH2 0x284B JUMP JUMPDEST SUB PUSH2 0x251C JUMPI POP POP JUMP JUMPDEST PUSH1 0x1 DUP3 PUSH1 0x3 DUP2 GT ISZERO PUSH2 0x2530 JUMPI PUSH2 0x2530 PUSH2 0x284B JUMP JUMPDEST SUB PUSH2 0x254E JUMPI PUSH1 0x40 MLOAD PUSH4 0xF645EEDF PUSH1 0xE0 SHL DUP2 MSTORE PUSH1 0x4 ADD PUSH1 0x40 MLOAD DUP1 SWAP2 SUB SWAP1 REVERT JUMPDEST PUSH1 0x2 DUP3 PUSH1 0x3 DUP2 GT ISZERO PUSH2 0x2562 JUMPI PUSH2 0x2562 PUSH2 0x284B JUMP JUMPDEST SUB PUSH2 0x2583 JUMPI PUSH1 0x40 MLOAD PUSH4 0xFCE698F7 PUSH1 0xE0 SHL DUP2 MSTORE PUSH1 0x4 DUP2 ADD DUP3 SWAP1 MSTORE PUSH1 0x24 ADD PUSH2 0x6C6 JUMP JUMPDEST PUSH1 0x3 DUP3 PUSH1 0x3 DUP2 GT ISZERO PUSH2 0x2597 JUMPI PUSH2 0x2597 PUSH2 0x284B JUMP JUMPDEST SUB PUSH2 0x25B8 JUMPI PUSH1 0x40 MLOAD PUSH4 0x35E2F383 PUSH1 0xE2 SHL DUP2 MSTORE PUSH1 0x4 DUP2 ADD DUP3 SWAP1 MSTORE PUSH1 0x24 ADD PUSH2 0x6C6 JUMP JUMPDEST POP POP JUMP JUMPDEST PUSH1 0x0 DUP1 DUP1 PUSH32 0x7FFFFFFFFFFFFFFFFFFFFFFFFFFFFFFF5D576E7357A4501DDFE92F46681B20A0 DUP5 GT ISZERO PUSH2 0x25F7 JUMPI POP PUSH1 0x0 SWAP2 POP PUSH1 0x3 SWAP1 POP DUP3 PUSH2 0x2681 JUMP JUMPDEST PUSH1 0x40 DUP1 MLOAD PUSH1 0x0 DUP1 DUP3 MSTORE PUSH1 0x20 DUP3 ADD DUP1 DUP5 MSTORE DUP11 SWAP1 MSTORE PUSH1 0xFF DUP10 AND SWAP3 DUP3 ADD SWAP3 SWAP1 SWAP3 MSTORE PUSH1 0x60 DUP2 ADD DUP8 SWAP1 MSTORE PUSH1 0x80 DUP2 ADD DUP7 SWAP1 MSTORE PUSH1 0x1 SWAP1 PUSH1 0xA0 ADD PUSH1 0x20 PUSH1 0x40 MLOAD PUSH1 0x20 DUP2 SUB SWAP1 DUP1 DUP5 SUB SWAP1 DUP6 GAS STATICCALL ISZERO DUP1 ISZERO PUSH2 0x264B JUMPI RETURNDATASIZE PUSH1 0x0 DUP1 RETURNDATACOPY RETURNDATASIZE PUSH1 0x0 REVERT JUMPDEST POP POP PUSH1 0x40 MLOAD PUSH1 0x1F NOT ADD MLOAD SWAP2 POP POP PUSH1 0x1 PUSH1 0x1 PUSH1 0xA0 SHL SUB DUP2 AND PUSH2 0x2677 JUMPI POP PUSH1 0x0 SWAP3 POP PUSH1 0x1 SWAP2 POP DUP3 SWAP1 POP PUSH2 0x2681 JUMP JUMPDEST SWAP3 POP PUSH1 0x0 SWAP2 POP DUP2 SWAP1 POP JUMPDEST SWAP5 POP SWAP5 POP SWAP5 SWAP2 POP POP JUMP JUMPDEST PUSH1 0x0 PUSH1 0x20 DUP3 DUP5 SUB SLT ISZERO PUSH2 0x269D JUMPI PUSH1 0x0 DUP1 REVERT JUMPDEST POP CALLDATALOAD SWAP2 SWAP1 POP JUMP JUMPDEST DUP1 CALLDATALOAD PUSH1 0x1 PUSH1 0x1 PUSH1 0xA0 SHL SUB DUP2 AND DUP2 EQ PUSH2 0x26BB JUMPI PUSH1 0x0 DUP1 REVERT JUMPDEST SWAP2 SWAP1 POP JUMP JUMPDEST PUSH1 0x0 PUSH1 0x20 DUP3 DUP5 SUB SLT ISZERO PUSH2 0x26D2 JUMPI PUSH1 0x0 DUP1 REVERT JUMPDEST PUSH2 0x26DB DUP3 PUSH2 0x26A4 JUMP JUMPDEST SWAP4 SWAP3 POP POP POP JUMP JUMPDEST DUP1 CALLDATALOAD PUSH1 0xFF DUP2 AND DUP2 EQ PUSH2 0x26BB JUMPI PUSH1 0x0 DUP1 REVERT JUMPDEST PUSH1 0x0 DUP1 PUSH1 0x40 DUP4 DUP6 SUB SLT ISZERO PUSH2 0x2706 JUMPI PUSH1 0x0 DUP1 REVERT JUMPDEST PUSH2 0x270F DUP4 PUSH2 0x26E2 JUMP JUMPDEST SWAP2 POP PUSH2 0x271D PUSH1 0x20 DUP5 ADD PUSH2 0x26E2 JUMP JUMPDEST SWAP1 POP SWAP3 POP SWAP3 SWAP1 POP JUMP JUMPDEST PUSH1 0x20 DUP1 DUP3 MSTORE DUP3 MLOAD DUP3 DUP3 ADD DUP2 SWAP1 MSTORE PUSH1 0x0 SWAP2 SWAP1 DUP5 DUP3 ADD SWAP1 PUSH1 0x40 DUP6 ADD SWAP1 DUP5 JUMPDEST DUP2 DUP2 LT ISZERO PUSH2 0x275E JUMPI DUP4 MLOAD DUP4 MSTORE SWAP3 DUP5 ADD SWAP3 SWAP2 DUP5 ADD SWAP2 PUSH1 0x1 ADD PUSH2 0x2742 JUMP JUMPDEST POP SWAP1 SWAP7 SWAP6 POP POP POP POP POP POP JUMP JUMPDEST PUSH1 0x0 PUSH1 0x20 DUP3 DUP5 SUB SLT ISZERO PUSH2 0x277C JUMPI PUSH1 0x0 DUP1 REVERT JUMPDEST PUSH2 0x26DB DUP3 PUSH2 0x26E2 JUMP JUMPDEST PUSH1 0x0 DUP1 PUSH1 0x40 DUP4 DUP6 SUB SLT ISZERO PUSH2 0x2798 JUMPI PUSH1 0x0 DUP1 REVERT JUMPDEST PUSH2 0x27A1 DUP4 PUSH2 0x26A4 JUMP JUMPDEST SWAP5 PUSH1 0x20 SWAP4 SWAP1 SWAP4 ADD CALLDATALOAD SWAP4 POP POP POP JUMP JUMPDEST PUSH1 0x0 DUP1 DUP4 PUSH1 0x1F DUP5 ADD SLT PUSH2 0x27C1 JUMPI PUSH1 0x0 DUP1 REVERT JUMPDEST POP DUP2 CALLDATALOAD PUSH8 0xFFFFFFFFFFFFFFFF DUP2 GT ISZERO PUSH2 0x27D9 JUMPI PUSH1 0x0 DUP1 REVERT JUMPDEST PUSH1 0x20 DUP4 ADD SWAP2 POP DUP4 PUSH1 0x20 DUP3 DUP6 ADD ADD GT ISZERO PUSH2 0x27F1 JUMPI PUSH1 0x0 DUP1 REVERT JUMPDEST SWAP3 POP SWAP3 SWAP1 POP JUMP JUMPDEST PUSH1 0x0 DUP1 PUSH1 0x0 DUP1 PUSH1 0x60 DUP6 DUP8 SUB SLT ISZERO PUSH2 0x280E JUMPI PUSH1 0x0 DUP1 REVERT JUMPDEST DUP5 CALLDATALOAD SWAP4 POP PUSH1 0x20 DUP6 ADD CALLDATALOAD SWAP3 POP PUSH1 0x40 DUP6 ADD CALLDATALOAD PUSH8 0xFFFFFFFFFFFFFFFF DUP2 GT ISZERO PUSH2 0x2833 JUMPI PUSH1 0x0 DUP1 REVERT JUMPDEST PUSH2 0x283F DUP8 DUP3 DUP9 ADD PUSH2 0x27AF JUMP JUMPDEST SWAP6 SWAP9 SWAP5 SWAP8 POP SWAP6 POP POP POP POP JUMP JUMPDEST PUSH4 0x4E487B71 PUSH1 0xE0 SHL PUSH1 0x0 MSTORE PUSH1 0x21 PUSH1 0x4 MSTORE PUSH1 0x24 PUSH1 0x0 REVERT JUMPDEST PUSH1 0x2 DUP2 LT PUSH2 0x2871 JUMPI PUSH2 0x2871 PUSH2 0x284B JUMP JUMPDEST SWAP1 MSTORE JUMP JUMPDEST DUP11 DUP2 MSTORE PUSH1 0x1 PUSH1 0x1 PUSH1 0xA0 SHL SUB DUP11 DUP2 AND PUSH1 0x20 DUP4 ADD MSTORE DUP10 DUP2 AND PUSH1 0x40 DUP4 ADD MSTORE PUSH1 0x60 DUP3 ADD DUP10 SWAP1 MSTORE PUSH1 0xFF DUP9 AND PUSH1 0x80 DUP4 ADD MSTORE PUSH2 0x140 DUP3 ADD SWAP1 PUSH2 0x28B3 PUSH1 0xA0 DUP5 ADD DUP10 PUSH2 0x2861 JUMP JUMPDEST PUSH1 0x5 DUP8 LT PUSH2 0x28C3 JUMPI PUSH2 0x28C3 PUSH2 0x284B JUMP JUMPDEST DUP7 PUSH1 0xC0 DUP5 ADD MSTORE DUP1 DUP7 AND PUSH1 0xE0 DUP5 ADD MSTORE POP DUP4 PUSH2 0x100 DUP4 ADD MSTORE DUP3 PUSH2 0x120 DUP4 ADD MSTORE SWAP12 SWAP11 POP POP POP POP POP POP POP POP POP POP POP JUMP JUMPDEST PUSH1 0x0 DUP1 PUSH1 0x0 DUP1 PUSH1 0x0 PUSH1 0x80 DUP7 DUP9 SUB SLT ISZERO PUSH2 0x2907 JUMPI PUSH1 0x0 DUP1 REVERT JUMPDEST DUP6 CALLDATALOAD SWAP5 POP PUSH2 0x2917 PUSH1 0x20 DUP8 ADD PUSH2 0x26A4 JUMP JUMPDEST SWAP4 POP PUSH1 0x40 DUP7 ADD CALLDATALOAD SWAP3 POP PUSH1 0x60 DUP7 ADD CALLDATALOAD PUSH8 0xFFFFFFFFFFFFFFFF DUP2 GT ISZERO PUSH2 0x293A JUMPI PUSH1 0x0 DUP1 REVERT JUMPDEST PUSH2 0x2946 DUP9 DUP3 DUP10 ADD PUSH2 0x27AF JUMP JUMPDEST SWAP7 SWAP10 SWAP6 SWAP9 POP SWAP4 SWAP7 POP SWAP3 SWAP5 SWAP4 SWAP3 POP POP POP JUMP JUMPDEST PUSH1 0x0 DUP1 PUSH1 0x40 DUP4 DUP6 SUB SLT ISZERO PUSH2 0x296A JUMPI PUSH1 0x0 DUP1 REVERT JUMPDEST PUSH2 0x2973 DUP4 PUSH2 0x26E2 JUMP JUMPDEST SWAP2 POP PUSH1 0x20 DUP4 ADD CALLDATALOAD PUSH1 0x2 DUP2 LT PUSH2 0x2987 JUMPI PUSH1 0x0 DUP1 REVERT JUMPDEST DUP1 SWAP2 POP POP SWAP3 POP SWAP3 SWAP1 POP JUMP JUMPDEST PUSH1 0x20 DUP1 DUP3 MSTORE PUSH1 0xE SWAP1 DUP3 ADD MSTORE PUSH14 0x149BDBDB481B9BDD08199BDD5B99 PUSH1 0x92 SHL PUSH1 0x40 DUP3 ADD MSTORE PUSH1 0x60 ADD SWAP1 JUMP JUMPDEST PUSH4 0x4E487B71 PUSH1 0xE0 SHL PUSH1 0x0 MSTORE PUSH1 0x11 PUSH1 0x4 MSTORE PUSH1 0x24 PUSH1 0x0 REVERT JUMPDEST DUP1 DUP3 ADD DUP1 DUP3 GT ISZERO PUSH2 0xA6E JUMPI PUSH2 0xA6E PUSH2 0x29BA JUMP JUMPDEST PUSH4 0x4E487B71 PUSH1 0xE0 SHL PUSH1 0x0 MSTORE PUSH1 0x32 PUSH1 0x4 MSTORE PUSH1 0x24 PUSH1 0x0 REVERT JUMPDEST PUSH1 0x0 PUSH1 0x1 DUP3 ADD PUSH2 0x2A0B JUMPI PUSH2 0x2A0B PUSH2 0x29BA JUMP JUMPDEST POP PUSH1 0x1 ADD SWAP1 JUMP JUMPDEST PUSH4 0x4E487B71 PUSH1 0xE0 SHL PUSH1 0x0 MSTORE PUSH1 0x41 PUSH1 0x4 MSTORE PUSH1 0x24 PUSH1 0x0 REVERT JUMPDEST PUSH1 0x0 PUSH1 0x20 DUP3 DUP5 SUB SLT ISZERO PUSH2 0x2A3A JUMPI PUSH1 0x0 DUP1 REVERT JUMPDEST POP MLOAD SWAP2 SWAP1 POP JUMP JUMPDEST DUP1 DUP3 MUL DUP2 ISZERO DUP3 DUP3 DIV DUP5 EQ OR PUSH2 0xA6E JUMPI PUSH2 0xA6E PUSH2 0x29BA JUMP JUMPDEST PUSH1 0x0 DUP3 PUSH2 0x2A75 JUMPI PUSH4 0x4E487B71 PUSH1 0xE0 SHL PUSH1 0x0 MSTORE PUSH1 0x12 PUSH1 0x4 MSTORE PUSH1 0x24 PUSH1 0x0 REVERT JUMPDEST POP DIV SWAP1 JUMP JUMPDEST DUP2 DUP2 SUB DUP2 DUP2 GT ISZERO PUSH2 0xA6E JUMPI PUSH2 0xA6E PUSH2 0x29BA JUMP JUMPDEST PUSH1 0xFF DUP5 AND DUP2 MSTORE PUSH1 0x60 DUP2 ADD PUSH2 0x2AA4 PUSH1 0x20 DUP4 ADD DUP6 PUSH2 0x2861 JUMP JUMPDEST DUP3 PUSH1 0x40 DUP4 ADD MSTORE SWAP5 SWAP4 POP POP POP POP JUMP JUMPDEST PUSH4 0x4E487B71 PUSH1 0xE0 SHL PUSH1 0x0 MSTORE PUSH1 0x31 PUSH1 0x4 MSTORE PUSH1 0x24 PUSH1 0x0 REVERT INVALID LOG2 PUSH5 0x6970667358 0x22 SLT KECCAK256 0x2D PUSH17 0x905D5DD1A11CAA0442005F5F6377DFAD42 PUSH5 0xAE453B8C7 SWAP14 SHL 0xE7 0xB2 0x2E DUP15 0xF9 PUSH5 0x736F6C6343 STOP ADDMOD EQ STOP CALLER "},"methodIdentifiers":{"BRONZE_STAKE()":"e1ca6e32","DIAMOND_STAKE()":"57864090","FEE_RATE()":"2d11c58a","GOLD_STAKE()":"58ea6f3b","RATE_DENOMINATOR()":"7efad8e0","ROOM_EXPIRY()":"30507fd1","SILVER_STAKE()":"f3d14b1e","WINNER_RATE()":"857c5a91","allRoomIds(uint256)":"020885d1","cancelRoom(bytes32)":"92776b4f","createRoom(uint8,uint8)":"ee192d13","emergencyWithdrawAll()":"dd191719","emergencyWithdrawRoom(bytes32)":"06f423cb","getAllRoomIds()":"e25e9160","getContractBalance()":"6f9fb98a","getOpenRoomCount(uint8)":"21119fd5","getOpenRooms(uint8,uint8)":"116d10dd","getOpenRoomsByMode(uint8)":"756d1315","getStakeForTier(uint8)":"6022879d","getUserRooms(address)":"b01e7961","getUserStats(address)":"4e43603a","joinRoom(bytes32)":"4b29b4c4","oracle()":"7dc0d1d0","owner()":"8da5cb5b","pause()":"8456cb59","paused()":"5c975abb","renounceOwnership()":"715018a6","resolveRoom(bytes32,address,bytes32,bytes)":"e08fe1e6","resolveRoomDraw(bytes32,bytes32,bytes)":"a1fbda63","rooms(bytes32)":"d7fbc2e4","setOracle(address)":"7adbf973","setTreasury(address)":"f0f44260","totalRooms()":"af5537fa","totalVolume()":"5f81a57c","transferOwnership(address)":"f2fde38b","treasury()":"61d027b3","unpause()":"3f4ba83a","usdc()":"3e413bee","usedNonces(bytes32)":"feb61724","userLosses(address)":"e040d9f3","userRooms(address,uint256)":"27b612d1","userTotalWinnings(address)":"08857442","userWins(address)":"7651313a"}}}}}