{"contracts/FlipRoyalePackShopV3.sol":{"FlipRoyalePackShopV3":{"abi":[{"inputs":[{"internalType":"address","name":"_virtualToken","type":"address"},{"internalType":"address","name":"_treasury","type":"address"}],"stateMutability":"nonpayable","type":"constructor"},{"inputs":[{"internalType":"address","name":"owner","type":"address"}],"name":"OwnableInvalidOwner","type":"error"},{"inputs":[{"internalType":"address","name":"account","type":"address"}],"name":"OwnableUnauthorizedAccount","type":"error"},{"inputs":[],"name":"ReentrancyGuardReentrantCall","type":"error"},{"inputs":[{"internalType":"address","name":"token","type":"address"}],"name":"SafeERC20FailedOperation","type":"error"},{"anonymous":false,"inputs":[{"indexed":false,"internalType":"uint256","name":"newRate","type":"uint256"}],"name":"CommissionRateUpdated","type":"event"},{"anonymous":false,"inputs":[{"indexed":true,"internalType":"address","name":"previousOwner","type":"address"},{"indexed":true,"internalType":"address","name":"newOwner","type":"address"}],"name":"OwnershipTransferred","type":"event"},{"anonymous":false,"inputs":[{"indexed":true,"internalType":"address","name":"buyer","type":"address"},{"indexed":false,"internalType":"uint8","name":"packType","type":"uint8"},{"indexed":false,"internalType":"uint256","name":"quantity","type":"uint256"},{"indexed":false,"internalType":"uint256","name":"totalPrice","type":"uint256"},{"indexed":true,"internalType":"address","name":"referrer","type":"address"},{"indexed":false,"internalType":"uint256","name":"referralCommission","type":"uint256"}],"name":"PackPurchased","type":"event"},{"anonymous":false,"inputs":[{"indexed":false,"internalType":"uint8","name":"packType","type":"uint8"},{"indexed":false,"internalType":"uint256","name":"newPrice","type":"uint256"}],"name":"PriceUpdated","type":"event"},{"anonymous":false,"inputs":[{"indexed":true,"internalType":"address","name":"user","type":"address"},{"indexed":true,"internalType":"address","name":"referrer","type":"address"}],"name":"ReferrerSet","type":"event"},{"anonymous":false,"inputs":[{"indexed":false,"internalType":"address","name":"newTreasury","type":"address"}],"name":"TreasuryUpdated","type":"event"},{"inputs":[],"name":"RATE_DENOMINATOR","outputs":[{"internalType":"uint256","name":"","type":"uint256"}],"stateMutability":"view","type":"function"},{"inputs":[{"internalType":"uint8","name":"packType","type":"uint8"},{"internalType":"uint256","name":"quantity","type":"uint256"}],"name":"buyPack","outputs":[],"stateMutability":"nonpayable","type":"function"},{"inputs":[{"internalType":"uint8","name":"packType","type":"uint8"},{"internalType":"uint256","name":"quantity","type":"uint256"},{"internalType":"address","name":"referrer","type":"address"}],"name":"buyPackWithReferrer","outputs":[],"stateMutability":"nonpayable","type":"function"},{"inputs":[],"name":"commonPackPrice","outputs":[{"internalType":"uint256","name":"","type":"uint256"}],"stateMutability":"view","type":"function"},{"inputs":[],"name":"genesisPackPrice","outputs":[{"internalType":"uint256","name":"","type":"uint256"}],"stateMutability":"view","type":"function"},{"inputs":[],"name":"getAllPackPrices","outputs":[{"internalType":"uint256","name":"common","type":"uint256"},{"internalType":"uint256","name":"rare","type":"uint256"},{"internalType":"uint256","name":"unicorn","type":"uint256"},{"internalType":"uint256","name":"genesis","type":"uint256"},{"internalType":"uint256","name":"sentient","type":"uint256"}],"stateMutability":"view","type":"function"},{"inputs":[{"internalType":"uint8","name":"packType","type":"uint8"}],"name":"getPackPrice","outputs":[{"internalType":"uint256","name":"","type":"uint256"}],"stateMutability":"view","type":"function"},{"inputs":[{"internalType":"address","name":"user","type":"address"}],"name":"getReferralInfo","outputs":[{"internalType":"address","name":"referrer","type":"address"},{"internalType":"uint256","name":"packsPurchased","type":"uint256"},{"internalType":"uint256","name":"totalEarned","type":"uint256"}],"stateMutability":"view","type":"function"},{"inputs":[],"name":"getTotalSales","outputs":[{"internalType":"uint256","name":"common","type":"uint256"},{"internalType":"uint256","name":"rare","type":"uint256"},{"internalType":"uint256","name":"unicorn","type":"uint256"},{"internalType":"uint256","name":"genesis","type":"uint256"},{"internalType":"uint256","name":"sentient","type":"uint256"}],"stateMutability":"view","type":"function"},{"inputs":[],"name":"owner","outputs":[{"internalType":"address","name":"","type":"address"}],"stateMutability":"view","type":"function"},{"inputs":[{"internalType":"address","name":"","type":"address"}],"name":"packsPurchasedBy","outputs":[{"internalType":"uint256","name":"","type":"uint256"}],"stateMutability":"view","type":"function"},{"inputs":[],"name":"rarePackPrice","outputs":[{"internalType":"uint256","name":"","type":"uint256"}],"stateMutability":"view","type":"function"},{"inputs":[],"name":"referralCommissionRate","outputs":[{"internalType":"uint256","name":"","type":"uint256"}],"stateMutability":"view","type":"function"},{"inputs":[{"internalType":"address","name":"","type":"address"}],"name":"referrerOf","outputs":[{"internalType":"address","name":"","type":"address"}],"stateMutability":"view","type":"function"},{"inputs":[],"name":"renounceOwnership","outputs":[],"stateMutability":"nonpayable","type":"function"},{"inputs":[{"internalType":"address","name":"token","type":"address"},{"internalType":"uint256","name":"amount","type":"uint256"}],"name":"rescueTokens","outputs":[],"stateMutability":"nonpayable","type":"function"},{"inputs":[],"name":"sentientPackPrice","outputs":[{"internalType":"uint256","name":"","type":"uint256"}],"stateMutability":"view","type":"function"},{"inputs":[{"internalType":"address","name":"referrer","type":"address"}],"name":"setReferrer","outputs":[],"stateMutability":"nonpayable","type":"function"},{"inputs":[{"internalType":"address","name":"","type":"address"}],"name":"totalEarnedByReferrer","outputs":[{"internalType":"uint256","name":"","type":"uint256"}],"stateMutability":"view","type":"function"},{"inputs":[{"internalType":"uint8","name":"","type":"uint8"}],"name":"totalPacksSoldByType","outputs":[{"internalType":"uint256","name":"","type":"uint256"}],"stateMutability":"view","type":"function"},{"inputs":[{"internalType":"address","name":"newOwner","type":"address"}],"name":"transferOwnership","outputs":[],"stateMutability":"nonpayable","type":"function"},{"inputs":[],"name":"treasury","outputs":[{"internalType":"address","name":"","type":"address"}],"stateMutability":"view","type":"function"},{"inputs":[],"name":"unicornPackPrice","outputs":[{"internalType":"uint256","name":"","type":"uint256"}],"stateMutability":"view","type":"function"},{"inputs":[{"internalType":"uint256","name":"_common","type":"uint256"},{"internalType":"uint256","name":"_rare","type":"uint256"},{"internalType":"uint256","name":"_unicorn","type":"uint256"},{"internalType":"uint256","name":"_genesis","type":"uint256"},{"internalType":"uint256","name":"_sentient","type":"uint256"}],"name":"updateAllPrices","outputs":[],"stateMutability":"nonpayable","type":"function"},{"inputs":[{"internalType":"uint256","name":"_rate","type":"uint256"}],"name":"updateCommissionRate","outputs":[],"stateMutability":"nonpayable","type":"function"},{"inputs":[{"internalType":"uint8","name":"packType","type":"uint8"},{"internalType":"uint256","name":"newPrice","type":"uint256"}],"name":"updatePackPrice","outputs":[],"stateMutability":"nonpayable","type":"function"},{"inputs":[{"internalType":"address","name":"_treasury","type":"address"}],"name":"updateTreasury","outputs":[],"stateMutability":"nonpayable","type":"function"},{"inputs":[],"name":"virtualToken","outputs":[{"internalType":"contract IERC20","name":"","type":"address"}],"stateMutability":"view","type":"function"}],"evm":{"bytecode":{"linkReferences":{},"object":"60a0604052690a968163f0a57b40000060025569152d02c7e14af6800000600355690a968163f0a57b400000600455690a968163f0a57b400000600555690a968163f0a57b40000060065560646007553480156200005c57600080fd5b5060405162001776380380620017768339810160408190526200007f91620001e0565b3380620000a757604051631e4fbdf760e01b8152600060048201526024015b60405180910390fd5b620000b28162000173565b50600180556001600160a01b038216620000ff5760405162461bcd60e51b815260206004820152600d60248201526c24b73b30b634b2103a37b5b2b760991b60448201526064016200009e565b6001600160a01b0381166200014a5760405162461bcd60e51b815260206004820152601060248201526f496e76616c696420747265617375727960801b60448201526064016200009e565b6001600160a01b03918216608052600880546001600160a01b0319169190921617905562000218565b600080546001600160a01b038381166001600160a01b0319831681178455604051919092169283917f8be0079c531659141344cd1fd0a4f28419497f9722a3daafe3b4186f6b6457e09190a35050565b80516001600160a01b0381168114620001db57600080fd5b919050565b60008060408385031215620001f457600080fd5b620001ff83620001c3565b91506200020f60208401620001c3565b90509250929050565b6080516115186200025e600039600081816101e2015281816109bd015281816109f501528181610a6201528181610ff20152818161102a015261109701526115186000f3fe608060405234801561001057600080fd5b50600436106101c35760003560e01c8063a2b8ed78116100f9578063d21cacdf11610097578063e9420e0311610071578063e9420e03146104d7578063f2fde38b146104e0578063fbeb5d7d146104f3578063fc7668e41461051357600080fd5b8063d21cacdf14610492578063d30ef61b146104bb578063da4bf01b146104c457600080fd5b8063b0fd07c8116100d3578063b0fd07c814610436578063b6e04d6814610456578063be76c6ad1461045f578063cf6853921461047f57600080fd5b8063a2b8ed7814610406578063a6001f621461041a578063b0fc38c41461042d57600080fd5b8063715018a611610166578063831c387911610140578063831c3879146103d05780638a873f30146103d95780638da5cb5b146103e2578063a18a7bfc146103f357600080fd5b8063715018a61461039e5780637efad8e0146103a65780637f51bb1f146103bd57600080fd5b806321874ae2116101a257806321874ae2146102fe5780633a925a3f14610365578063573761981461037857806361d027b31461038b57600080fd5b8062fa3d50146101c85780631f514c52146101dd5780632156a96c14610221575b600080fd5b6101db6101d6366004611307565b610526565b005b6102047f000000000000000000000000000000000000000000000000000000000000000081565b6040516001600160a01b0390911681526020015b60405180910390f35b600c6020527f13649b2456f1b42fef0f0040b3aaeabcd21a76a0f3f5defd4f583839455116e8547fd421a5181c571bba3f01190c922c3b2a896fc1d84e86c9f17ac10e67ebef8b5c547f5d6016397a73f5e079297ac5a36fef17b4d9c3831618e63ab105738020ddd720547fc0da782485e77ae272268ae0a3ff44c1552ecb60b3743924de17a815e0a3cfd75460046000527f5b84bb9e0f5aa9cc45a8bb66468db5d4816d1e75ff86b5e1f1dd8d144dab8097545b604080519586526020860194909452928401919091526060830152608082015260a001610218565b61034061030c36600461133c565b6001600160a01b03908116600090815260096020908152604080832054600b835281842054600a9093529220549190921692565b604080516001600160a01b039094168452602084019290925290820152606001610218565b6101db61037336600461136f565b6105b6565b6101db6103863660046113ab565b610663565b600854610204906001600160a01b031681565b6101db610695565b6103af6103e881565b604051908152602001610218565b6101db6103cb36600461133c565b6106a9565b6103af60025481565b6103af60055481565b6000546001600160a01b0316610204565b6101db61040136600461133c565b610748565b6002546003546004546005546006546102d6565b6101db6104283660046113d5565b610895565b6103af60035481565b6103af61044436600461133c565b600a6020526000908152604090205481565b6103af60045481565b6103af61046d3660046113f1565b600c6020526000908152604090205481565b6101db61048d3660046113d5565b610b3d565b6102046104a036600461133c565b6009602052600090815260409020546001600160a01b031681565b6103af60075481565b6103af6104d23660046113f1565b610c60565b6103af60065481565b6101db6104ee36600461133c565b610cfd565b6103af61050136600461133c565b600b6020526000908152604090205481565b6101db61052136600461140c565b610d3b565b61052e610e9c565b61012c81111561057a5760405162461bcd60e51b815260206004820152601260248201527126b0bc101998129031b7b6b6b4b9b9b4b7b760711b60448201526064015b60405180910390fd5b60078190556040518181527fd3e90a6443d7dbfb11d15fa44fad50afa5261f9a0c8678a0a4e8a5174e194325906020015b60405180910390a150565b336000908152600960205260409020546001600160a01b03161580156105e457506001600160a01b03811615155b80156105f957506001600160a01b0381163314155b15610653573360008181526009602052604080822080546001600160a01b0319166001600160a01b03861690811790915590519092917f5f7165288eef601591cf549e15ff19ef9060b7f71b9c115be946fa1fe7ebf68a91a35b61065e338484610ec9565b505050565b61066b610e9c565b6106916106806000546001600160a01b031690565b6001600160a01b038416908361117e565b5050565b61069d610e9c565b6106a760006111dd565b565b6106b1610e9c565b6001600160a01b0381166106fa5760405162461bcd60e51b815260206004820152601060248201526f496e76616c696420747265617375727960801b6044820152606401610571565b600880546001600160a01b0319166001600160a01b0383169081179091556040519081527f7dae230f18360d76a040c81f050aa14eb9d6dc7901b20fc5d855e2a20fe814d1906020016105ab565b336000908152600960205260409020546001600160a01b0316156107a55760405162461bcd60e51b8152602060048201526014602482015273149959995c9c995c88185b1c9958591e481cd95d60621b6044820152606401610571565b336001600160a01b038216036107f55760405162461bcd60e51b815260206004820152601560248201527421b0b73737ba103932b332b9103cb7bab939b2b63360591b6044820152606401610571565b6001600160a01b03811661083e5760405162461bcd60e51b815260206004820152601060248201526f24b73b30b634b2103932b332b93932b960811b6044820152606401610571565b3360008181526009602052604080822080546001600160a01b0319166001600160a01b03861690811790915590519092917f5f7165288eef601591cf549e15ff19ef9060b7f71b9c115be946fa1fe7ebf68a91a350565b61089d61122d565b6000811180156108ae5750600a8111155b6108f45760405162461bcd60e51b8152602060048201526017602482015276496e76616c6964207175616e746974792028312d31302960481b6044820152606401610571565b60048260ff1611156109425760405162461bcd60e51b8152602060048201526017602482015276496e76616c6964207061636b20747970652028302d342960481b6044820152606401610571565b600061094d83610c60565b9050600061095b838361145d565b336000908152600960205260408120549192506001600160a01b03909116908115610a51576103e860075484610991919061145d565b61099b919061147a565b905060006109a9828561149c565b6008549091506109e8906001600160a01b037f000000000000000000000000000000000000000000000000000000000000000081169133911684611257565b610a1d6001600160a01b037f000000000000000000000000000000000000000000000000000000000000000016338585611257565b6001600160a01b0383166000908152600a602052604081208054849290610a459084906114af565b90915550610a8d915050565b600854610a8d906001600160a01b037f000000000000000000000000000000000000000000000000000000000000000081169133911686611257565b336000908152600b602052604081208054879290610aac9084906114af565b909155505060ff86166000908152600c602052604081208054879290610ad39084906114af565b90915550506040805160ff8816815260208101879052908101849052606081018290526001600160a01b0383169033907ffda8aeaeefd53183e7ace79f304b072108e5350854a8b8e3c63e11319bb77b9c9060800160405180910390a35050505061069160018055565b610b45610e9c565b60008111610b855760405162461bcd60e51b815260206004820152600d60248201526c496e76616c696420707269636560981b6044820152606401610571565b60048260ff161115610bcd5760405162461bcd60e51b8152602060048201526011602482015270496e76616c6964207061636b207479706560781b6044820152606401610571565b8160ff16600003610be2576002819055610c32565b8160ff16600103610bf7576003819055610c32565b8160ff16600203610c0c576004819055610c32565b8160ff16600303610c21576005819055610c32565b8160ff16600403610c325760068190555b6040805160ff84168152602081018390526000805160206114c3833981519152910160405180910390a15050565b60008160ff16600003610c7557505060025490565b8160ff16600103610c8857505060035490565b8160ff16600203610c9b57505060045490565b8160ff16600303610cae57505060055490565b8160ff16600403610cc157505060065490565b60405162461bcd60e51b8152602060048201526011602482015270496e76616c6964207061636b207479706560781b6044820152606401610571565b610d05610e9c565b6001600160a01b038116610d2f57604051631e4fbdf760e01b815260006004820152602401610571565b610d38816111dd565b50565b610d43610e9c565b600085118015610d535750600084115b8015610d5f5750600083115b8015610d6b5750600082115b8015610d775750600081115b610db45760405162461bcd60e51b815260206004820152600e60248201526d496e76616c69642070726963657360901b6044820152606401610571565b600285905560038490556004839055600582905560068190556040805160008152602081018790526000805160206114c3833981519152910160405180910390a16040805160018152602081018690526000805160206114c3833981519152910160405180910390a16040805160028152602081018590526000805160206114c3833981519152910160405180910390a16040805160038152602081018490526000805160206114c3833981519152910160405180910390a16040805160048152602081018390526000805160206114c3833981519152910160405180910390a15050505050565b6000546001600160a01b031633146106a75760405163118cdaa760e01b8152336004820152602401610571565b610ed161122d565b600081118015610ee25750600a8111155b610f285760405162461bcd60e51b8152602060048201526017602482015276496e76616c6964207175616e746974792028312d31302960481b6044820152606401610571565b60048260ff161115610f765760405162461bcd60e51b8152602060048201526017602482015276496e76616c6964207061636b20747970652028302d342960481b6044820152606401610571565b6000610f8183610c60565b90506000610f8f838361145d565b6001600160a01b038087166000908152600960205260408120549293509116908115611086576103e860075484610fc6919061145d565b610fd0919061147a565b90506000610fde828561149c565b60085490915061101d906001600160a01b037f00000000000000000000000000000000000000000000000000000000000000008116918b911684611257565b6110526001600160a01b037f000000000000000000000000000000000000000000000000000000000000000016898585611257565b6001600160a01b0383166000908152600a60205260408120805484929061107a9084906114af565b909155506110c2915050565b6008546110c2906001600160a01b037f00000000000000000000000000000000000000000000000000000000000000008116918a911686611257565b6001600160a01b0387166000908152600b6020526040812080548792906110ea9084906114af565b909155505060ff86166000908152600c6020526040812080548792906111119084906114af565b90915550506040805160ff8816815260208101879052908101849052606081018290526001600160a01b0380841691908916907ffda8aeaeefd53183e7ace79f304b072108e5350854a8b8e3c63e11319bb77b9c9060800160405180910390a35050505061065e60018055565b6040516001600160a01b0383811660248301526044820183905261065e91859182169063a9059cbb906064015b604051602081830303815290604052915060e01b6020820180516001600160e01b038381831617835250505050611296565b600080546001600160a01b038381166001600160a01b0319831681178455604051919092169283917f8be0079c531659141344cd1fd0a4f28419497f9722a3daafe3b4186f6b6457e09190a35050565b60026001540361125057604051633ee5aeb560e01b815260040160405180910390fd5b6002600155565b6040516001600160a01b0384811660248301528381166044830152606482018390526112909186918216906323b872dd906084016111ab565b50505050565b600080602060008451602086016000885af1806112b9576040513d6000823e3d81fd5b50506000513d915081156112d15780600114156112de565b6001600160a01b0384163b155b1561129057604051635274afe760e01b81526001600160a01b0385166004820152602401610571565b60006020828403121561131957600080fd5b5035919050565b80356001600160a01b038116811461133757600080fd5b919050565b60006020828403121561134e57600080fd5b61135782611320565b9392505050565b803560ff8116811461133757600080fd5b60008060006060848603121561138457600080fd5b61138d8461135e565b9250602084013591506113a260408501611320565b90509250925092565b600080604083850312156113be57600080fd5b6113c783611320565b946020939093013593505050565b600080604083850312156113e857600080fd5b6113c78361135e565b60006020828403121561140357600080fd5b6113578261135e565b600080600080600060a0868803121561142457600080fd5b505083359560208501359550604085013594606081013594506080013592509050565b634e487b7160e01b600052601160045260246000fd5b808202811582820484141761147457611474611447565b92915050565b60008261149757634e487b7160e01b600052601260045260246000fd5b500490565b8181038181111561147457611474611447565b808201808211156114745761147461144756fef798c75b2db09ea1034d9be253e9974b17bbe4a06f2b0ff6695054fa5b747191a264697066735822122091679fffb96ab0abc39b0cb73462d76273db838ebb346f81118905df71cb34eb64736f6c63430008140033","opcodes":"PUSH1 0xA0 PUSH1 0x40 MSTORE PUSH10 0xA968163F0A57B400000 PUSH1 0x2 SSTORE PUSH10 0x152D02C7E14AF6800000 PUSH1 0x3 SSTORE PUSH10 0xA968163F0A57B400000 PUSH1 0x4 SSTORE PUSH10 0xA968163F0A57B400000 PUSH1 0x5 SSTORE PUSH10 0xA968163F0A57B400000 PUSH1 0x6 SSTORE PUSH1 0x64 PUSH1 0x7 SSTORE CALLVALUE DUP1 ISZERO PUSH3 0x5C JUMPI PUSH1 0x0 DUP1 REVERT JUMPDEST POP PUSH1 0x40 MLOAD PUSH3 0x1776 CODESIZE SUB DUP1 PUSH3 0x1776 DUP4 CODECOPY DUP2 ADD PUSH1 0x40 DUP2 SWAP1 MSTORE PUSH3 0x7F SWAP2 PUSH3 0x1E0 JUMP JUMPDEST CALLER DUP1 PUSH3 0xA7 JUMPI PUSH1 0x40 MLOAD PUSH4 0x1E4FBDF7 PUSH1 0xE0 SHL DUP2 MSTORE PUSH1 0x0 PUSH1 0x4 DUP3 ADD MSTORE PUSH1 0x24 ADD JUMPDEST PUSH1 0x40 MLOAD DUP1 SWAP2 SUB SWAP1 REVERT JUMPDEST PUSH3 0xB2 DUP2 PUSH3 0x173 JUMP JUMPDEST POP PUSH1 0x1 DUP1 SSTORE PUSH1 0x1 PUSH1 0x1 PUSH1 0xA0 SHL SUB DUP3 AND PUSH3 0xFF JUMPI PUSH1 0x40 MLOAD PUSH3 0x461BCD PUSH1 0xE5 SHL DUP2 MSTORE PUSH1 0x20 PUSH1 0x4 DUP3 ADD MSTORE PUSH1 0xD PUSH1 0x24 DUP3 ADD MSTORE PUSH13 0x24B73B30B634B2103A37B5B2B7 PUSH1 0x99 SHL PUSH1 0x44 DUP3 ADD MSTORE PUSH1 0x64 ADD PUSH3 0x9E JUMP JUMPDEST PUSH1 0x1 PUSH1 0x1 PUSH1 0xA0 SHL SUB DUP2 AND PUSH3 0x14A JUMPI PUSH1 0x40 MLOAD PUSH3 0x461BCD PUSH1 0xE5 SHL DUP2 MSTORE PUSH1 0x20 PUSH1 0x4 DUP3 ADD MSTORE PUSH1 0x10 PUSH1 0x24 DUP3 ADD MSTORE PUSH16 0x496E76616C6964207472656173757279 PUSH1 0x80 SHL PUSH1 0x44 DUP3 ADD MSTORE PUSH1 0x64 ADD PUSH3 0x9E JUMP JUMPDEST PUSH1 0x1 PUSH1 0x1 PUSH1 0xA0 SHL SUB SWAP2 DUP3 AND PUSH1 0x80 MSTORE PUSH1 0x8 DUP1 SLOAD PUSH1 0x1 PUSH1 0x1 PUSH1 0xA0 SHL SUB NOT AND SWAP2 SWAP1 SWAP3 AND OR SWAP1 SSTORE PUSH3 0x218 JUMP JUMPDEST PUSH1 0x0 DUP1 SLOAD PUSH1 0x1 PUSH1 0x1 PUSH1 0xA0 SHL SUB DUP4 DUP2 AND PUSH1 0x1 PUSH1 0x1 PUSH1 0xA0 SHL SUB NOT DUP4 AND DUP2 OR DUP5 SSTORE PUSH1 0x40 MLOAD SWAP2 SWAP1 SWAP3 AND SWAP3 DUP4 SWAP2 PUSH32 0x8BE0079C531659141344CD1FD0A4F28419497F9722A3DAAFE3B4186F6B6457E0 SWAP2 SWAP1 LOG3 POP POP JUMP JUMPDEST DUP1 MLOAD PUSH1 0x1 PUSH1 0x1 PUSH1 0xA0 SHL SUB DUP2 AND DUP2 EQ PUSH3 0x1DB JUMPI PUSH1 0x0 DUP1 REVERT JUMPDEST SWAP2 SWAP1 POP JUMP JUMPDEST PUSH1 0x0 DUP1 PUSH1 0x40 DUP4 DUP6 SUB SLT ISZERO PUSH3 0x1F4 JUMPI PUSH1 0x0 DUP1 REVERT JUMPDEST PUSH3 0x1FF DUP4 PUSH3 0x1C3 JUMP JUMPDEST SWAP2 POP PUSH3 0x20F PUSH1 0x20 DUP5 ADD PUSH3 0x1C3 JUMP JUMPDEST SWAP1 POP SWAP3 POP SWAP3 SWAP1 POP JUMP JUMPDEST PUSH1 0x80 MLOAD PUSH2 0x1518 PUSH3 0x25E PUSH1 0x0 CODECOPY PUSH1 0x0 DUP2 DUP2 PUSH2 0x1E2 ADD MSTORE DUP2 DUP2 PUSH2 0x9BD ADD MSTORE DUP2 DUP2 PUSH2 0x9F5 ADD MSTORE DUP2 DUP2 PUSH2 0xA62 ADD MSTORE DUP2 DUP2 PUSH2 0xFF2 ADD MSTORE DUP2 DUP2 PUSH2 0x102A ADD MSTORE PUSH2 0x1097 ADD MSTORE PUSH2 0x1518 PUSH1 0x0 RETURN INVALID PUSH1 0x80 PUSH1 0x40 MSTORE CALLVALUE DUP1 ISZERO PUSH2 0x10 JUMPI PUSH1 0x0 DUP1 REVERT JUMPDEST POP PUSH1 0x4 CALLDATASIZE LT PUSH2 0x1C3 JUMPI PUSH1 0x0 CALLDATALOAD PUSH1 0xE0 SHR DUP1 PUSH4 0xA2B8ED78 GT PUSH2 0xF9 JUMPI DUP1 PUSH4 0xD21CACDF GT PUSH2 0x97 JUMPI DUP1 PUSH4 0xE9420E03 GT PUSH2 0x71 JUMPI DUP1 PUSH4 0xE9420E03 EQ PUSH2 0x4D7 JUMPI DUP1 PUSH4 0xF2FDE38B EQ PUSH2 0x4E0 JUMPI DUP1 PUSH4 0xFBEB5D7D EQ PUSH2 0x4F3 JUMPI DUP1 PUSH4 0xFC7668E4 EQ PUSH2 0x513 JUMPI PUSH1 0x0 DUP1 REVERT JUMPDEST DUP1 PUSH4 0xD21CACDF EQ PUSH2 0x492 JUMPI DUP1 PUSH4 0xD30EF61B EQ PUSH2 0x4BB JUMPI DUP1 PUSH4 0xDA4BF01B EQ PUSH2 0x4C4 JUMPI PUSH1 0x0 DUP1 REVERT JUMPDEST DUP1 PUSH4 0xB0FD07C8 GT PUSH2 0xD3 JUMPI DUP1 PUSH4 0xB0FD07C8 EQ PUSH2 0x436 JUMPI DUP1 PUSH4 0xB6E04D68 EQ PUSH2 0x456 JUMPI DUP1 PUSH4 0xBE76C6AD EQ PUSH2 0x45F JUMPI DUP1 PUSH4 0xCF685392 EQ PUSH2 0x47F JUMPI PUSH1 0x0 DUP1 REVERT JUMPDEST DUP1 PUSH4 0xA2B8ED78 EQ PUSH2 0x406 JUMPI DUP1 PUSH4 0xA6001F62 EQ PUSH2 0x41A JUMPI DUP1 PUSH4 0xB0FC38C4 EQ PUSH2 0x42D JUMPI PUSH1 0x0 DUP1 REVERT JUMPDEST DUP1 PUSH4 0x715018A6 GT PUSH2 0x166 JUMPI DUP1 PUSH4 0x831C3879 GT PUSH2 0x140 JUMPI DUP1 PUSH4 0x831C3879 EQ PUSH2 0x3D0 JUMPI DUP1 PUSH4 0x8A873F30 EQ PUSH2 0x3D9 JUMPI DUP1 PUSH4 0x8DA5CB5B EQ PUSH2 0x3E2 JUMPI DUP1 PUSH4 0xA18A7BFC EQ PUSH2 0x3F3 JUMPI PUSH1 0x0 DUP1 REVERT JUMPDEST DUP1 PUSH4 0x715018A6 EQ PUSH2 0x39E JUMPI DUP1 PUSH4 0x7EFAD8E0 EQ PUSH2 0x3A6 JUMPI DUP1 PUSH4 0x7F51BB1F EQ PUSH2 0x3BD JUMPI PUSH1 0x0 DUP1 REVERT JUMPDEST DUP1 PUSH4 0x21874AE2 GT PUSH2 0x1A2 JUMPI DUP1 PUSH4 0x21874AE2 EQ PUSH2 0x2FE JUMPI DUP1 PUSH4 0x3A925A3F EQ PUSH2 0x365 JUMPI DUP1 PUSH4 0x57376198 EQ PUSH2 0x378 JUMPI DUP1 PUSH4 0x61D027B3 EQ PUSH2 0x38B JUMPI PUSH1 0x0 DUP1 REVERT JUMPDEST DUP1 PUSH3 0xFA3D50 EQ PUSH2 0x1C8 JUMPI DUP1 PUSH4 0x1F514C52 EQ PUSH2 0x1DD JUMPI DUP1 PUSH4 0x2156A96C EQ PUSH2 0x221 JUMPI JUMPDEST PUSH1 0x0 DUP1 REVERT JUMPDEST PUSH2 0x1DB PUSH2 0x1D6 CALLDATASIZE PUSH1 0x4 PUSH2 0x1307 JUMP JUMPDEST PUSH2 0x526 JUMP JUMPDEST STOP JUMPDEST PUSH2 0x204 PUSH32 0x0 DUP2 JUMP JUMPDEST PUSH1 0x40 MLOAD PUSH1 0x1 PUSH1 0x1 PUSH1 0xA0 SHL SUB SWAP1 SWAP2 AND DUP2 MSTORE PUSH1 0x20 ADD JUMPDEST PUSH1 0x40 MLOAD DUP1 SWAP2 SUB SWAP1 RETURN JUMPDEST PUSH1 0xC PUSH1 0x20 MSTORE PUSH32 0x13649B2456F1B42FEF0F0040B3AAEABCD21A76A0F3F5DEFD4F583839455116E8 SLOAD PUSH32 0xD421A5181C571BBA3F01190C922C3B2A896FC1D84E86C9F17AC10E67EBEF8B5C SLOAD PUSH32 0x5D6016397A73F5E079297AC5A36FEF17B4D9C3831618E63AB105738020DDD720 SLOAD PUSH32 0xC0DA782485E77AE272268AE0A3FF44C1552ECB60B3743924DE17A815E0A3CFD7 SLOAD PUSH1 0x4 PUSH1 0x0 MSTORE PUSH32 0x5B84BB9E0F5AA9CC45A8BB66468DB5D4816D1E75FF86B5E1F1DD8D144DAB8097 SLOAD JUMPDEST PUSH1 0x40 DUP1 MLOAD SWAP6 DUP7 MSTORE PUSH1 0x20 DUP7 ADD SWAP5 SWAP1 SWAP5 MSTORE SWAP3 DUP5 ADD SWAP2 SWAP1 SWAP2 MSTORE PUSH1 0x60 DUP4 ADD MSTORE PUSH1 0x80 DUP3 ADD MSTORE PUSH1 0xA0 ADD PUSH2 0x218 JUMP JUMPDEST PUSH2 0x340 PUSH2 0x30C CALLDATASIZE PUSH1 0x4 PUSH2 0x133C JUMP JUMPDEST PUSH1 0x1 PUSH1 0x1 PUSH1 0xA0 SHL SUB SWAP1 DUP2 AND PUSH1 0x0 SWAP1 DUP2 MSTORE PUSH1 0x9 PUSH1 0x20 SWAP1 DUP2 MSTORE PUSH1 0x40 DUP1 DUP4 KECCAK256 SLOAD PUSH1 0xB DUP4 MSTORE DUP2 DUP5 KECCAK256 SLOAD PUSH1 0xA SWAP1 SWAP4 MSTORE SWAP3 KECCAK256 SLOAD SWAP2 SWAP1 SWAP3 AND SWAP3 JUMP JUMPDEST PUSH1 0x40 DUP1 MLOAD PUSH1 0x1 PUSH1 0x1 PUSH1 0xA0 SHL SUB SWAP1 SWAP5 AND DUP5 MSTORE PUSH1 0x20 DUP5 ADD SWAP3 SWAP1 SWAP3 MSTORE SWAP1 DUP3 ADD MSTORE PUSH1 0x60 ADD PUSH2 0x218 JUMP JUMPDEST PUSH2 0x1DB PUSH2 0x373 CALLDATASIZE PUSH1 0x4 PUSH2 0x136F JUMP JUMPDEST PUSH2 0x5B6 JUMP JUMPDEST PUSH2 0x1DB PUSH2 0x386 CALLDATASIZE PUSH1 0x4 PUSH2 0x13AB JUMP JUMPDEST PUSH2 0x663 JUMP JUMPDEST PUSH1 0x8 SLOAD PUSH2 0x204 SWAP1 PUSH1 0x1 PUSH1 0x1 PUSH1 0xA0 SHL SUB AND DUP2 JUMP JUMPDEST PUSH2 0x1DB PUSH2 0x695 JUMP JUMPDEST PUSH2 0x3AF PUSH2 0x3E8 DUP2 JUMP JUMPDEST PUSH1 0x40 MLOAD SWAP1 DUP2 MSTORE PUSH1 0x20 ADD PUSH2 0x218 JUMP JUMPDEST PUSH2 0x1DB PUSH2 0x3CB CALLDATASIZE PUSH1 0x4 PUSH2 0x133C JUMP JUMPDEST PUSH2 0x6A9 JUMP JUMPDEST PUSH2 0x3AF PUSH1 0x2 SLOAD DUP2 JUMP JUMPDEST PUSH2 0x3AF PUSH1 0x5 SLOAD DUP2 JUMP JUMPDEST PUSH1 0x0 SLOAD PUSH1 0x1 PUSH1 0x1 PUSH1 0xA0 SHL SUB AND PUSH2 0x204 JUMP JUMPDEST PUSH2 0x1DB PUSH2 0x401 CALLDATASIZE PUSH1 0x4 PUSH2 0x133C JUMP JUMPDEST PUSH2 0x748 JUMP JUMPDEST PUSH1 0x2 SLOAD PUSH1 0x3 SLOAD PUSH1 0x4 SLOAD PUSH1 0x5 SLOAD PUSH1 0x6 SLOAD PUSH2 0x2D6 JUMP JUMPDEST PUSH2 0x1DB PUSH2 0x428 CALLDATASIZE PUSH1 0x4 PUSH2 0x13D5 JUMP JUMPDEST PUSH2 0x895 JUMP JUMPDEST PUSH2 0x3AF PUSH1 0x3 SLOAD DUP2 JUMP JUMPDEST PUSH2 0x3AF PUSH2 0x444 CALLDATASIZE PUSH1 0x4 PUSH2 0x133C JUMP JUMPDEST PUSH1 0xA PUSH1 0x20 MSTORE PUSH1 0x0 SWAP1 DUP2 MSTORE PUSH1 0x40 SWAP1 KECCAK256 SLOAD DUP2 JUMP JUMPDEST PUSH2 0x3AF PUSH1 0x4 SLOAD DUP2 JUMP JUMPDEST PUSH2 0x3AF PUSH2 0x46D CALLDATASIZE PUSH1 0x4 PUSH2 0x13F1 JUMP JUMPDEST PUSH1 0xC PUSH1 0x20 MSTORE PUSH1 0x0 SWAP1 DUP2 MSTORE PUSH1 0x40 SWAP1 KECCAK256 SLOAD DUP2 JUMP JUMPDEST PUSH2 0x1DB PUSH2 0x48D CALLDATASIZE PUSH1 0x4 PUSH2 0x13D5 JUMP JUMPDEST PUSH2 0xB3D JUMP JUMPDEST PUSH2 0x204 PUSH2 0x4A0 CALLDATASIZE PUSH1 0x4 PUSH2 0x133C JUMP JUMPDEST PUSH1 0x9 PUSH1 0x20 MSTORE PUSH1 0x0 SWAP1 DUP2 MSTORE PUSH1 0x40 SWAP1 KECCAK256 SLOAD PUSH1 0x1 PUSH1 0x1 PUSH1 0xA0 SHL SUB AND DUP2 JUMP JUMPDEST PUSH2 0x3AF PUSH1 0x7 SLOAD DUP2 JUMP JUMPDEST PUSH2 0x3AF PUSH2 0x4D2 CALLDATASIZE PUSH1 0x4 PUSH2 0x13F1 JUMP JUMPDEST PUSH2 0xC60 JUMP JUMPDEST PUSH2 0x3AF PUSH1 0x6 SLOAD DUP2 JUMP JUMPDEST PUSH2 0x1DB PUSH2 0x4EE CALLDATASIZE PUSH1 0x4 PUSH2 0x133C JUMP JUMPDEST PUSH2 0xCFD JUMP JUMPDEST PUSH2 0x3AF PUSH2 0x501 CALLDATASIZE PUSH1 0x4 PUSH2 0x133C JUMP JUMPDEST PUSH1 0xB PUSH1 0x20 MSTORE PUSH1 0x0 SWAP1 DUP2 MSTORE PUSH1 0x40 SWAP1 KECCAK256 SLOAD DUP2 JUMP JUMPDEST PUSH2 0x1DB PUSH2 0x521 CALLDATASIZE PUSH1 0x4 PUSH2 0x140C JUMP JUMPDEST PUSH2 0xD3B JUMP JUMPDEST PUSH2 0x52E PUSH2 0xE9C JUMP JUMPDEST PUSH2 0x12C DUP2 GT ISZERO PUSH2 0x57A JUMPI PUSH1 0x40 MLOAD PUSH3 0x461BCD PUSH1 0xE5 SHL DUP2 MSTORE PUSH1 0x20 PUSH1 0x4 DUP3 ADD MSTORE PUSH1 0x12 PUSH1 0x24 DUP3 ADD MSTORE PUSH18 0x26B0BC101998129031B7B6B6B4B9B9B4B7B7 PUSH1 0x71 SHL PUSH1 0x44 DUP3 ADD MSTORE PUSH1 0x64 ADD JUMPDEST PUSH1 0x40 MLOAD DUP1 SWAP2 SUB SWAP1 REVERT JUMPDEST PUSH1 0x7 DUP2 SWAP1 SSTORE PUSH1 0x40 MLOAD DUP2 DUP2 MSTORE PUSH32 0xD3E90A6443D7DBFB11D15FA44FAD50AFA5261F9A0C8678A0A4E8A5174E194325 SWAP1 PUSH1 0x20 ADD JUMPDEST PUSH1 0x40 MLOAD DUP1 SWAP2 SUB SWAP1 LOG1 POP JUMP JUMPDEST CALLER PUSH1 0x0 SWAP1 DUP2 MSTORE PUSH1 0x9 PUSH1 0x20 MSTORE PUSH1 0x40 SWAP1 KECCAK256 SLOAD PUSH1 0x1 PUSH1 0x1 PUSH1 0xA0 SHL SUB AND ISZERO DUP1 ISZERO PUSH2 0x5E4 JUMPI POP PUSH1 0x1 PUSH1 0x1 PUSH1 0xA0 SHL SUB DUP2 AND ISZERO ISZERO JUMPDEST DUP1 ISZERO PUSH2 0x5F9 JUMPI POP PUSH1 0x1 PUSH1 0x1 PUSH1 0xA0 SHL SUB DUP2 AND CALLER EQ ISZERO JUMPDEST ISZERO PUSH2 0x653 JUMPI CALLER PUSH1 0x0 DUP2 DUP2 MSTORE PUSH1 0x9 PUSH1 0x20 MSTORE PUSH1 0x40 DUP1 DUP3 KECCAK256 DUP1 SLOAD PUSH1 0x1 PUSH1 0x1 PUSH1 0xA0 SHL SUB NOT AND PUSH1 0x1 PUSH1 0x1 PUSH1 0xA0 SHL SUB DUP7 AND SWAP1 DUP2 OR SWAP1 SWAP2 SSTORE SWAP1 MLOAD SWAP1 SWAP3 SWAP2 PUSH32 0x5F7165288EEF601591CF549E15FF19EF9060B7F71B9C115BE946FA1FE7EBF68A SWAP2 LOG3 JUMPDEST PUSH2 0x65E CALLER DUP5 DUP5 PUSH2 0xEC9 JUMP JUMPDEST POP POP POP JUMP JUMPDEST PUSH2 0x66B PUSH2 0xE9C JUMP JUMPDEST PUSH2 0x691 PUSH2 0x680 PUSH1 0x0 SLOAD PUSH1 0x1 PUSH1 0x1 PUSH1 0xA0 SHL SUB AND SWAP1 JUMP JUMPDEST PUSH1 0x1 PUSH1 0x1 PUSH1 0xA0 SHL SUB DUP5 AND SWAP1 DUP4 PUSH2 0x117E JUMP JUMPDEST POP POP JUMP JUMPDEST PUSH2 0x69D PUSH2 0xE9C JUMP JUMPDEST PUSH2 0x6A7 PUSH1 0x0 PUSH2 0x11DD JUMP JUMPDEST JUMP JUMPDEST PUSH2 0x6B1 PUSH2 0xE9C JUMP JUMPDEST PUSH1 0x1 PUSH1 0x1 PUSH1 0xA0 SHL SUB DUP2 AND PUSH2 0x6FA JUMPI PUSH1 0x40 MLOAD PUSH3 0x461BCD PUSH1 0xE5 SHL DUP2 MSTORE PUSH1 0x20 PUSH1 0x4 DUP3 ADD MSTORE PUSH1 0x10 PUSH1 0x24 DUP3 ADD MSTORE PUSH16 0x496E76616C6964207472656173757279 PUSH1 0x80 SHL PUSH1 0x44 DUP3 ADD MSTORE PUSH1 0x64 ADD PUSH2 0x571 JUMP JUMPDEST PUSH1 0x8 DUP1 SLOAD PUSH1 0x1 PUSH1 0x1 PUSH1 0xA0 SHL SUB NOT AND PUSH1 0x1 PUSH1 0x1 PUSH1 0xA0 SHL SUB DUP4 AND SWAP1 DUP2 OR SWAP1 SWAP2 SSTORE PUSH1 0x40 MLOAD SWAP1 DUP2 MSTORE PUSH32 0x7DAE230F18360D76A040C81F050AA14EB9D6DC7901B20FC5D855E2A20FE814D1 SWAP1 PUSH1 0x20 ADD PUSH2 0x5AB JUMP JUMPDEST CALLER PUSH1 0x0 SWAP1 DUP2 MSTORE PUSH1 0x9 PUSH1 0x20 MSTORE PUSH1 0x40 SWAP1 KECCAK256 SLOAD PUSH1 0x1 PUSH1 0x1 PUSH1 0xA0 SHL SUB AND ISZERO PUSH2 0x7A5 JUMPI PUSH1 0x40 MLOAD PUSH3 0x461BCD PUSH1 0xE5 SHL DUP2 MSTORE PUSH1 0x20 PUSH1 0x4 DUP3 ADD MSTORE PUSH1 0x14 PUSH1 0x24 DUP3 ADD MSTORE PUSH20 0x149959995C9C995C88185B1C9958591E481CD95D PUSH1 0x62 SHL PUSH1 0x44 DUP3 ADD MSTORE PUSH1 0x64 ADD PUSH2 0x571 JUMP JUMPDEST CALLER PUSH1 0x1 PUSH1 0x1 PUSH1 0xA0 SHL SUB DUP3 AND SUB PUSH2 0x7F5 JUMPI PUSH1 0x40 MLOAD PUSH3 0x461BCD PUSH1 0xE5 SHL DUP2 MSTORE PUSH1 0x20 PUSH1 0x4 DUP3 ADD MSTORE PUSH1 0x15 PUSH1 0x24 DUP3 ADD MSTORE PUSH21 0x21B0B73737BA103932B332B9103CB7BAB939B2B633 PUSH1 0x59 SHL PUSH1 0x44 DUP3 ADD MSTORE PUSH1 0x64 ADD PUSH2 0x571 JUMP JUMPDEST PUSH1 0x1 PUSH1 0x1 PUSH1 0xA0 SHL SUB DUP2 AND PUSH2 0x83E JUMPI PUSH1 0x40 MLOAD PUSH3 0x461BCD PUSH1 0xE5 SHL DUP2 MSTORE PUSH1 0x20 PUSH1 0x4 DUP3 ADD MSTORE PUSH1 0x10 PUSH1 0x24 DUP3 ADD MSTORE PUSH16 0x24B73B30B634B2103932B332B93932B9 PUSH1 0x81 SHL PUSH1 0x44 DUP3 ADD MSTORE PUSH1 0x64 ADD PUSH2 0x571 JUMP JUMPDEST CALLER PUSH1 0x0 DUP2 DUP2 MSTORE PUSH1 0x9 PUSH1 0x20 MSTORE PUSH1 0x40 DUP1 DUP3 KECCAK256 DUP1 SLOAD PUSH1 0x1 PUSH1 0x1 PUSH1 0xA0 SHL SUB NOT AND PUSH1 0x1 PUSH1 0x1 PUSH1 0xA0 SHL SUB DUP7 AND SWAP1 DUP2 OR SWAP1 SWAP2 SSTORE SWAP1 MLOAD SWAP1 SWAP3 SWAP2 PUSH32 0x5F7165288EEF601591CF549E15FF19EF9060B7F71B9C115BE946FA1FE7EBF68A SWAP2 LOG3 POP JUMP JUMPDEST PUSH2 0x89D PUSH2 0x122D JUMP JUMPDEST PUSH1 0x0 DUP2 GT DUP1 ISZERO PUSH2 0x8AE JUMPI POP PUSH1 0xA DUP2 GT ISZERO JUMPDEST PUSH2 0x8F4 JUMPI PUSH1 0x40 MLOAD PUSH3 0x461BCD PUSH1 0xE5 SHL DUP2 MSTORE PUSH1 0x20 PUSH1 0x4 DUP3 ADD MSTORE PUSH1 0x17 PUSH1 0x24 DUP3 ADD MSTORE PUSH23 0x496E76616C6964207175616E746974792028312D313029 PUSH1 0x48 SHL PUSH1 0x44 DUP3 ADD MSTORE PUSH1 0x64 ADD PUSH2 0x571 JUMP JUMPDEST PUSH1 0x4 DUP3 PUSH1 0xFF AND GT ISZERO PUSH2 0x942 JUMPI PUSH1 0x40 MLOAD PUSH3 0x461BCD PUSH1 0xE5 SHL DUP2 MSTORE PUSH1 0x20 PUSH1 0x4 DUP3 ADD MSTORE PUSH1 0x17 PUSH1 0x24 DUP3 ADD MSTORE PUSH23 0x496E76616C6964207061636B20747970652028302D3429 PUSH1 0x48 SHL PUSH1 0x44 DUP3 ADD MSTORE PUSH1 0x64 ADD PUSH2 0x571 JUMP JUMPDEST PUSH1 0x0 PUSH2 0x94D DUP4 PUSH2 0xC60 JUMP JUMPDEST SWAP1 POP PUSH1 0x0 PUSH2 0x95B DUP4 DUP4 PUSH2 0x145D JUMP JUMPDEST CALLER PUSH1 0x0 SWAP1 DUP2 MSTORE PUSH1 0x9 PUSH1 0x20 MSTORE PUSH1 0x40 DUP2 KECCAK256 SLOAD SWAP2 SWAP3 POP PUSH1 0x1 PUSH1 0x1 PUSH1 0xA0 SHL SUB SWAP1 SWAP2 AND SWAP1 DUP2 ISZERO PUSH2 0xA51 JUMPI PUSH2 0x3E8 PUSH1 0x7 SLOAD DUP5 PUSH2 0x991 SWAP2 SWAP1 PUSH2 0x145D JUMP JUMPDEST PUSH2 0x99B SWAP2 SWAP1 PUSH2 0x147A JUMP JUMPDEST SWAP1 POP PUSH1 0x0 PUSH2 0x9A9 DUP3 DUP6 PUSH2 0x149C JUMP JUMPDEST PUSH1 0x8 SLOAD SWAP1 SWAP2 POP PUSH2 0x9E8 SWAP1 PUSH1 0x1 PUSH1 0x1 PUSH1 0xA0 SHL SUB PUSH32 0x0 DUP2 AND SWAP2 CALLER SWAP2 AND DUP5 PUSH2 0x1257 JUMP JUMPDEST PUSH2 0xA1D PUSH1 0x1 PUSH1 0x1 PUSH1 0xA0 SHL SUB PUSH32 0x0 AND CALLER DUP6 DUP6 PUSH2 0x1257 JUMP JUMPDEST PUSH1 0x1 PUSH1 0x1 PUSH1 0xA0 SHL SUB DUP4 AND PUSH1 0x0 SWAP1 DUP2 MSTORE PUSH1 0xA PUSH1 0x20 MSTORE PUSH1 0x40 DUP2 KECCAK256 DUP1 SLOAD DUP5 SWAP3 SWAP1 PUSH2 0xA45 SWAP1 DUP5 SWAP1 PUSH2 0x14AF JUMP JUMPDEST SWAP1 SWAP2 SSTORE POP PUSH2 0xA8D SWAP2 POP POP JUMP JUMPDEST PUSH1 0x8 SLOAD PUSH2 0xA8D SWAP1 PUSH1 0x1 PUSH1 0x1 PUSH1 0xA0 SHL SUB PUSH32 0x0 DUP2 AND SWAP2 CALLER SWAP2 AND DUP7 PUSH2 0x1257 JUMP JUMPDEST CALLER PUSH1 0x0 SWAP1 DUP2 MSTORE PUSH1 0xB PUSH1 0x20 MSTORE PUSH1 0x40 DUP2 KECCAK256 DUP1 SLOAD DUP8 SWAP3 SWAP1 PUSH2 0xAAC SWAP1 DUP5 SWAP1 PUSH2 0x14AF JUMP JUMPDEST SWAP1 SWAP2 SSTORE POP POP PUSH1 0xFF DUP7 AND PUSH1 0x0 SWAP1 DUP2 MSTORE PUSH1 0xC PUSH1 0x20 MSTORE PUSH1 0x40 DUP2 KECCAK256 DUP1 SLOAD DUP8 SWAP3 SWAP1 PUSH2 0xAD3 SWAP1 DUP5 SWAP1 PUSH2 0x14AF JUMP JUMPDEST SWAP1 SWAP2 SSTORE POP POP PUSH1 0x40 DUP1 MLOAD PUSH1 0xFF DUP9 AND DUP2 MSTORE PUSH1 0x20 DUP2 ADD DUP8 SWAP1 MSTORE SWAP1 DUP2 ADD DUP5 SWAP1 MSTORE PUSH1 0x60 DUP2 ADD DUP3 SWAP1 MSTORE PUSH1 0x1 PUSH1 0x1 PUSH1 0xA0 SHL SUB DUP4 AND SWAP1 CALLER SWAP1 PUSH32 0xFDA8AEAEEFD53183E7ACE79F304B072108E5350854A8B8E3C63E11319BB77B9C SWAP1 PUSH1 0x80 ADD PUSH1 0x40 MLOAD DUP1 SWAP2 SUB SWAP1 LOG3 POP POP POP POP PUSH2 0x691 PUSH1 0x1 DUP1 SSTORE JUMP JUMPDEST PUSH2 0xB45 PUSH2 0xE9C JUMP JUMPDEST PUSH1 0x0 DUP2 GT PUSH2 0xB85 JUMPI PUSH1 0x40 MLOAD PUSH3 0x461BCD PUSH1 0xE5 SHL DUP2 MSTORE PUSH1 0x20 PUSH1 0x4 DUP3 ADD MSTORE PUSH1 0xD PUSH1 0x24 DUP3 ADD MSTORE PUSH13 0x496E76616C6964207072696365 PUSH1 0x98 SHL PUSH1 0x44 DUP3 ADD MSTORE PUSH1 0x64 ADD PUSH2 0x571 JUMP JUMPDEST PUSH1 0x4 DUP3 PUSH1 0xFF AND GT ISZERO PUSH2 0xBCD JUMPI PUSH1 0x40 MLOAD PUSH3 0x461BCD PUSH1 0xE5 SHL DUP2 MSTORE PUSH1 0x20 PUSH1 0x4 DUP3 ADD MSTORE PUSH1 0x11 PUSH1 0x24 DUP3 ADD MSTORE PUSH17 0x496E76616C6964207061636B2074797065 PUSH1 0x78 SHL PUSH1 0x44 DUP3 ADD MSTORE PUSH1 0x64 ADD PUSH2 0x571 JUMP JUMPDEST DUP2 PUSH1 0xFF AND PUSH1 0x0 SUB PUSH2 0xBE2 JUMPI PUSH1 0x2 DUP2 SWAP1 SSTORE PUSH2 0xC32 JUMP JUMPDEST DUP2 PUSH1 0xFF AND PUSH1 0x1 SUB PUSH2 0xBF7 JUMPI PUSH1 0x3 DUP2 SWAP1 SSTORE PUSH2 0xC32 JUMP JUMPDEST DUP2 PUSH1 0xFF AND PUSH1 0x2 SUB PUSH2 0xC0C JUMPI PUSH1 0x4 DUP2 SWAP1 SSTORE PUSH2 0xC32 JUMP JUMPDEST DUP2 PUSH1 0xFF AND PUSH1 0x3 SUB PUSH2 0xC21 JUMPI PUSH1 0x5 DUP2 SWAP1 SSTORE PUSH2 0xC32 JUMP JUMPDEST DUP2 PUSH1 0xFF AND PUSH1 0x4 SUB PUSH2 0xC32 JUMPI PUSH1 0x6 DUP2 SWAP1 SSTORE JUMPDEST PUSH1 0x40 DUP1 MLOAD PUSH1 0xFF DUP5 AND DUP2 MSTORE PUSH1 0x20 DUP2 ADD DUP4 SWAP1 MSTORE PUSH1 0x0 DUP1 MLOAD PUSH1 0x20 PUSH2 0x14C3 DUP4 CODECOPY DUP2 MLOAD SWAP2 MSTORE SWAP2 ADD PUSH1 0x40 MLOAD DUP1 SWAP2 SUB SWAP1 LOG1 POP POP JUMP JUMPDEST PUSH1 0x0 DUP2 PUSH1 0xFF AND PUSH1 0x0 SUB PUSH2 0xC75 JUMPI POP POP PUSH1 0x2 SLOAD SWAP1 JUMP JUMPDEST DUP2 PUSH1 0xFF AND PUSH1 0x1 SUB PUSH2 0xC88 JUMPI POP POP PUSH1 0x3 SLOAD SWAP1 JUMP JUMPDEST DUP2 PUSH1 0xFF AND PUSH1 0x2 SUB PUSH2 0xC9B JUMPI POP POP PUSH1 0x4 SLOAD SWAP1 JUMP JUMPDEST DUP2 PUSH1 0xFF AND PUSH1 0x3 SUB PUSH2 0xCAE JUMPI POP POP PUSH1 0x5 SLOAD SWAP1 JUMP JUMPDEST DUP2 PUSH1 0xFF AND PUSH1 0x4 SUB PUSH2 0xCC1 JUMPI POP POP PUSH1 0x6 SLOAD SWAP1 JUMP JUMPDEST PUSH1 0x40 MLOAD PUSH3 0x461BCD PUSH1 0xE5 SHL DUP2 MSTORE PUSH1 0x20 PUSH1 0x4 DUP3 ADD MSTORE PUSH1 0x11 PUSH1 0x24 DUP3 ADD MSTORE PUSH17 0x496E76616C6964207061636B2074797065 PUSH1 0x78 SHL PUSH1 0x44 DUP3 ADD MSTORE PUSH1 0x64 ADD PUSH2 0x571 JUMP JUMPDEST PUSH2 0xD05 PUSH2 0xE9C JUMP JUMPDEST PUSH1 0x1 PUSH1 0x1 PUSH1 0xA0 SHL SUB DUP2 AND PUSH2 0xD2F JUMPI PUSH1 0x40 MLOAD PUSH4 0x1E4FBDF7 PUSH1 0xE0 SHL DUP2 MSTORE PUSH1 0x0 PUSH1 0x4 DUP3 ADD MSTORE PUSH1 0x24 ADD PUSH2 0x571 JUMP JUMPDEST PUSH2 0xD38 DUP2 PUSH2 0x11DD JUMP JUMPDEST POP JUMP JUMPDEST PUSH2 0xD43 PUSH2 0xE9C JUMP JUMPDEST PUSH1 0x0 DUP6 GT DUP1 ISZERO PUSH2 0xD53 JUMPI POP PUSH1 0x0 DUP5 GT JUMPDEST DUP1 ISZERO PUSH2 0xD5F JUMPI POP PUSH1 0x0 DUP4 GT JUMPDEST DUP1 ISZERO PUSH2 0xD6B JUMPI POP PUSH1 0x0 DUP3 GT JUMPDEST DUP1 ISZERO PUSH2 0xD77 JUMPI POP PUSH1 0x0 DUP2 GT JUMPDEST PUSH2 0xDB4 JUMPI PUSH1 0x40 MLOAD PUSH3 0x461BCD PUSH1 0xE5 SHL DUP2 MSTORE PUSH1 0x20 PUSH1 0x4 DUP3 ADD MSTORE PUSH1 0xE PUSH1 0x24 DUP3 ADD MSTORE PUSH14 0x496E76616C696420707269636573 PUSH1 0x90 SHL PUSH1 0x44 DUP3 ADD MSTORE PUSH1 0x64 ADD PUSH2 0x571 JUMP JUMPDEST PUSH1 0x2 DUP6 SWAP1 SSTORE PUSH1 0x3 DUP5 SWAP1 SSTORE PUSH1 0x4 DUP4 SWAP1 SSTORE PUSH1 0x5 DUP3 SWAP1 SSTORE PUSH1 0x6 DUP2 SWAP1 SSTORE PUSH1 0x40 DUP1 MLOAD PUSH1 0x0 DUP2 MSTORE PUSH1 0x20 DUP2 ADD DUP8 SWAP1 MSTORE PUSH1 0x0 DUP1 MLOAD PUSH1 0x20 PUSH2 0x14C3 DUP4 CODECOPY DUP2 MLOAD SWAP2 MSTORE SWAP2 ADD PUSH1 0x40 MLOAD DUP1 SWAP2 SUB SWAP1 LOG1 PUSH1 0x40 DUP1 MLOAD PUSH1 0x1 DUP2 MSTORE PUSH1 0x20 DUP2 ADD DUP7 SWAP1 MSTORE PUSH1 0x0 DUP1 MLOAD PUSH1 0x20 PUSH2 0x14C3 DUP4 CODECOPY DUP2 MLOAD SWAP2 MSTORE SWAP2 ADD PUSH1 0x40 MLOAD DUP1 SWAP2 SUB SWAP1 LOG1 PUSH1 0x40 DUP1 MLOAD PUSH1 0x2 DUP2 MSTORE PUSH1 0x20 DUP2 ADD DUP6 SWAP1 MSTORE PUSH1 0x0 DUP1 MLOAD PUSH1 0x20 PUSH2 0x14C3 DUP4 CODECOPY DUP2 MLOAD SWAP2 MSTORE SWAP2 ADD PUSH1 0x40 MLOAD DUP1 SWAP2 SUB SWAP1 LOG1 PUSH1 0x40 DUP1 MLOAD PUSH1 0x3 DUP2 MSTORE PUSH1 0x20 DUP2 ADD DUP5 SWAP1 MSTORE PUSH1 0x0 DUP1 MLOAD PUSH1 0x20 PUSH2 0x14C3 DUP4 CODECOPY DUP2 MLOAD SWAP2 MSTORE SWAP2 ADD PUSH1 0x40 MLOAD DUP1 SWAP2 SUB SWAP1 LOG1 PUSH1 0x40 DUP1 MLOAD PUSH1 0x4 DUP2 MSTORE PUSH1 0x20 DUP2 ADD DUP4 SWAP1 MSTORE PUSH1 0x0 DUP1 MLOAD PUSH1 0x20 PUSH2 0x14C3 DUP4 CODECOPY DUP2 MLOAD SWAP2 MSTORE SWAP2 ADD PUSH1 0x40 MLOAD DUP1 SWAP2 SUB SWAP1 LOG1 POP POP POP POP POP JUMP JUMPDEST PUSH1 0x0 SLOAD PUSH1 0x1 PUSH1 0x1 PUSH1 0xA0 SHL SUB AND CALLER EQ PUSH2 0x6A7 JUMPI PUSH1 0x40 MLOAD PUSH4 0x118CDAA7 PUSH1 0xE0 SHL DUP2 MSTORE CALLER PUSH1 0x4 DUP3 ADD MSTORE PUSH1 0x24 ADD PUSH2 0x571 JUMP JUMPDEST PUSH2 0xED1 PUSH2 0x122D JUMP JUMPDEST PUSH1 0x0 DUP2 GT DUP1 ISZERO PUSH2 0xEE2 JUMPI POP PUSH1 0xA DUP2 GT ISZERO JUMPDEST PUSH2 0xF28 JUMPI PUSH1 0x40 MLOAD PUSH3 0x461BCD PUSH1 0xE5 SHL DUP2 MSTORE PUSH1 0x20 PUSH1 0x4 DUP3 ADD MSTORE PUSH1 0x17 PUSH1 0x24 DUP3 ADD MSTORE PUSH23 0x496E76616C6964207175616E746974792028312D313029 PUSH1 0x48 SHL PUSH1 0x44 DUP3 ADD MSTORE PUSH1 0x64 ADD PUSH2 0x571 JUMP JUMPDEST PUSH1 0x4 DUP3 PUSH1 0xFF AND GT ISZERO PUSH2 0xF76 JUMPI PUSH1 0x40 MLOAD PUSH3 0x461BCD PUSH1 0xE5 SHL DUP2 MSTORE PUSH1 0x20 PUSH1 0x4 DUP3 ADD MSTORE PUSH1 0x17 PUSH1 0x24 DUP3 ADD MSTORE PUSH23 0x496E76616C6964207061636B20747970652028302D3429 PUSH1 0x48 SHL PUSH1 0x44 DUP3 ADD MSTORE PUSH1 0x64 ADD PUSH2 0x571 JUMP JUMPDEST PUSH1 0x0 PUSH2 0xF81 DUP4 PUSH2 0xC60 JUMP JUMPDEST SWAP1 POP PUSH1 0x0 PUSH2 0xF8F DUP4 DUP4 PUSH2 0x145D JUMP JUMPDEST PUSH1 0x1 PUSH1 0x1 PUSH1 0xA0 SHL SUB DUP1 DUP8 AND PUSH1 0x0 SWAP1 DUP2 MSTORE PUSH1 0x9 PUSH1 0x20 MSTORE PUSH1 0x40 DUP2 KECCAK256 SLOAD SWAP3 SWAP4 POP SWAP2 AND SWAP1 DUP2 ISZERO PUSH2 0x1086 JUMPI PUSH2 0x3E8 PUSH1 0x7 SLOAD DUP5 PUSH2 0xFC6 SWAP2 SWAP1 PUSH2 0x145D JUMP JUMPDEST PUSH2 0xFD0 SWAP2 SWAP1 PUSH2 0x147A JUMP JUMPDEST SWAP1 POP PUSH1 0x0 PUSH2 0xFDE DUP3 DUP6 PUSH2 0x149C JUMP JUMPDEST PUSH1 0x8 SLOAD SWAP1 SWAP2 POP PUSH2 0x101D SWAP1 PUSH1 0x1 PUSH1 0x1 PUSH1 0xA0 SHL SUB PUSH32 0x0 DUP2 AND SWAP2 DUP12 SWAP2 AND DUP5 PUSH2 0x1257 JUMP JUMPDEST PUSH2 0x1052 PUSH1 0x1 PUSH1 0x1 PUSH1 0xA0 SHL SUB PUSH32 0x0 AND DUP10 DUP6 DUP6 PUSH2 0x1257 JUMP JUMPDEST PUSH1 0x1 PUSH1 0x1 PUSH1 0xA0 SHL SUB DUP4 AND PUSH1 0x0 SWAP1 DUP2 MSTORE PUSH1 0xA PUSH1 0x20 MSTORE PUSH1 0x40 DUP2 KECCAK256 DUP1 SLOAD DUP5 SWAP3 SWAP1 PUSH2 0x107A SWAP1 DUP5 SWAP1 PUSH2 0x14AF JUMP JUMPDEST SWAP1 SWAP2 SSTORE POP PUSH2 0x10C2 SWAP2 POP POP JUMP JUMPDEST PUSH1 0x8 SLOAD PUSH2 0x10C2 SWAP1 PUSH1 0x1 PUSH1 0x1 PUSH1 0xA0 SHL SUB PUSH32 0x0 DUP2 AND SWAP2 DUP11 SWAP2 AND DUP7 PUSH2 0x1257 JUMP JUMPDEST PUSH1 0x1 PUSH1 0x1 PUSH1 0xA0 SHL SUB DUP8 AND PUSH1 0x0 SWAP1 DUP2 MSTORE PUSH1 0xB PUSH1 0x20 MSTORE PUSH1 0x40 DUP2 KECCAK256 DUP1 SLOAD DUP8 SWAP3 SWAP1 PUSH2 0x10EA SWAP1 DUP5 SWAP1 PUSH2 0x14AF JUMP JUMPDEST SWAP1 SWAP2 SSTORE POP POP PUSH1 0xFF DUP7 AND PUSH1 0x0 SWAP1 DUP2 MSTORE PUSH1 0xC PUSH1 0x20 MSTORE PUSH1 0x40 DUP2 KECCAK256 DUP1 SLOAD DUP8 SWAP3 SWAP1 PUSH2 0x1111 SWAP1 DUP5 SWAP1 PUSH2 0x14AF JUMP JUMPDEST SWAP1 SWAP2 SSTORE POP POP PUSH1 0x40 DUP1 MLOAD PUSH1 0xFF DUP9 AND DUP2 MSTORE PUSH1 0x20 DUP2 ADD DUP8 SWAP1 MSTORE SWAP1 DUP2 ADD DUP5 SWAP1 MSTORE PUSH1 0x60 DUP2 ADD DUP3 SWAP1 MSTORE PUSH1 0x1 PUSH1 0x1 PUSH1 0xA0 SHL SUB DUP1 DUP5 AND SWAP2 SWAP1 DUP10 AND SWAP1 PUSH32 0xFDA8AEAEEFD53183E7ACE79F304B072108E5350854A8B8E3C63E11319BB77B9C SWAP1 PUSH1 0x80 ADD PUSH1 0x40 MLOAD DUP1 SWAP2 SUB SWAP1 LOG3 POP POP POP POP PUSH2 0x65E PUSH1 0x1 DUP1 SSTORE JUMP JUMPDEST PUSH1 0x40 MLOAD PUSH1 0x1 PUSH1 0x1 PUSH1 0xA0 SHL SUB DUP4 DUP2 AND PUSH1 0x24 DUP4 ADD MSTORE PUSH1 0x44 DUP3 ADD DUP4 SWAP1 MSTORE PUSH2 0x65E SWAP2 DUP6 SWAP2 DUP3 AND SWAP1 PUSH4 0xA9059CBB SWAP1 PUSH1 0x64 ADD JUMPDEST PUSH1 0x40 MLOAD PUSH1 0x20 DUP2 DUP4 SUB SUB DUP2 MSTORE SWAP1 PUSH1 0x40 MSTORE SWAP2 POP PUSH1 0xE0 SHL PUSH1 0x20 DUP3 ADD DUP1 MLOAD PUSH1 0x1 PUSH1 0x1 PUSH1 0xE0 SHL SUB DUP4 DUP2 DUP4 AND OR DUP4 MSTORE POP POP POP POP PUSH2 0x1296 JUMP JUMPDEST PUSH1 0x0 DUP1 SLOAD PUSH1 0x1 PUSH1 0x1 PUSH1 0xA0 SHL SUB DUP4 DUP2 AND PUSH1 0x1 PUSH1 0x1 PUSH1 0xA0 SHL SUB NOT DUP4 AND DUP2 OR DUP5 SSTORE PUSH1 0x40 MLOAD SWAP2 SWAP1 SWAP3 AND SWAP3 DUP4 SWAP2 PUSH32 0x8BE0079C531659141344CD1FD0A4F28419497F9722A3DAAFE3B4186F6B6457E0 SWAP2 SWAP1 LOG3 POP POP JUMP JUMPDEST PUSH1 0x2 PUSH1 0x1 SLOAD SUB PUSH2 0x1250 JUMPI PUSH1 0x40 MLOAD PUSH4 0x3EE5AEB5 PUSH1 0xE0 SHL DUP2 MSTORE PUSH1 0x4 ADD PUSH1 0x40 MLOAD DUP1 SWAP2 SUB SWAP1 REVERT JUMPDEST PUSH1 0x2 PUSH1 0x1 SSTORE JUMP JUMPDEST PUSH1 0x40 MLOAD PUSH1 0x1 PUSH1 0x1 PUSH1 0xA0 SHL SUB DUP5 DUP2 AND PUSH1 0x24 DUP4 ADD MSTORE DUP4 DUP2 AND PUSH1 0x44 DUP4 ADD MSTORE PUSH1 0x64 DUP3 ADD DUP4 SWAP1 MSTORE PUSH2 0x1290 SWAP2 DUP7 SWAP2 DUP3 AND SWAP1 PUSH4 0x23B872DD SWAP1 PUSH1 0x84 ADD PUSH2 0x11AB JUMP JUMPDEST POP POP POP POP JUMP JUMPDEST PUSH1 0x0 DUP1 PUSH1 0x20 PUSH1 0x0 DUP5 MLOAD PUSH1 0x20 DUP7 ADD PUSH1 0x0 DUP9 GAS CALL DUP1 PUSH2 0x12B9 JUMPI PUSH1 0x40 MLOAD RETURNDATASIZE PUSH1 0x0 DUP3 RETURNDATACOPY RETURNDATASIZE DUP2 REVERT JUMPDEST POP POP PUSH1 0x0 MLOAD RETURNDATASIZE SWAP2 POP DUP2 ISZERO PUSH2 0x12D1 JUMPI DUP1 PUSH1 0x1 EQ ISZERO PUSH2 0x12DE JUMP JUMPDEST PUSH1 0x1 PUSH1 0x1 PUSH1 0xA0 SHL SUB DUP5 AND EXTCODESIZE ISZERO JUMPDEST ISZERO PUSH2 0x1290 JUMPI PUSH1 0x40 MLOAD PUSH4 0x5274AFE7 PUSH1 0xE0 SHL DUP2 MSTORE PUSH1 0x1 PUSH1 0x1 PUSH1 0xA0 SHL SUB DUP6 AND PUSH1 0x4 DUP3 ADD MSTORE PUSH1 0x24 ADD PUSH2 0x571 JUMP JUMPDEST PUSH1 0x0 PUSH1 0x20 DUP3 DUP5 SUB SLT ISZERO PUSH2 0x1319 JUMPI PUSH1 0x0 DUP1 REVERT JUMPDEST POP CALLDATALOAD SWAP2 SWAP1 POP JUMP JUMPDEST DUP1 CALLDATALOAD PUSH1 0x1 PUSH1 0x1 PUSH1 0xA0 SHL SUB DUP2 AND DUP2 EQ PUSH2 0x1337 JUMPI PUSH1 0x0 DUP1 REVERT JUMPDEST SWAP2 SWAP1 POP JUMP JUMPDEST PUSH1 0x0 PUSH1 0x20 DUP3 DUP5 SUB SLT ISZERO PUSH2 0x134E JUMPI PUSH1 0x0 DUP1 REVERT JUMPDEST PUSH2 0x1357 DUP3 PUSH2 0x1320 JUMP JUMPDEST SWAP4 SWAP3 POP POP POP JUMP JUMPDEST DUP1 CALLDATALOAD PUSH1 0xFF DUP2 AND DUP2 EQ PUSH2 0x1337 JUMPI PUSH1 0x0 DUP1 REVERT JUMPDEST PUSH1 0x0 DUP1 PUSH1 0x0 PUSH1 0x60 DUP5 DUP7 SUB SLT ISZERO PUSH2 0x1384 JUMPI PUSH1 0x0 DUP1 REVERT JUMPDEST PUSH2 0x138D DUP5 PUSH2 0x135E JUMP JUMPDEST SWAP3 POP PUSH1 0x20 DUP5 ADD CALLDATALOAD SWAP2 POP PUSH2 0x13A2 PUSH1 0x40 DUP6 ADD PUSH2 0x1320 JUMP JUMPDEST SWAP1 POP SWAP3 POP SWAP3 POP SWAP3 JUMP JUMPDEST PUSH1 0x0 DUP1 PUSH1 0x40 DUP4 DUP6 SUB SLT ISZERO PUSH2 0x13BE JUMPI PUSH1 0x0 DUP1 REVERT JUMPDEST PUSH2 0x13C7 DUP4 PUSH2 0x1320 JUMP JUMPDEST SWAP5 PUSH1 0x20 SWAP4 SWAP1 SWAP4 ADD CALLDATALOAD SWAP4 POP POP POP JUMP JUMPDEST PUSH1 0x0 DUP1 PUSH1 0x40 DUP4 DUP6 SUB SLT ISZERO PUSH2 0x13E8 JUMPI PUSH1 0x0 DUP1 REVERT JUMPDEST PUSH2 0x13C7 DUP4 PUSH2 0x135E JUMP JUMPDEST PUSH1 0x0 PUSH1 0x20 DUP3 DUP5 SUB SLT ISZERO PUSH2 0x1403 JUMPI PUSH1 0x0 DUP1 REVERT JUMPDEST PUSH2 0x1357 DUP3 PUSH2 0x135E JUMP JUMPDEST PUSH1 0x0 DUP1 PUSH1 0x0 DUP1 PUSH1 0x0 PUSH1 0xA0 DUP7 DUP9 SUB SLT ISZERO PUSH2 0x1424 JUMPI PUSH1 0x0 DUP1 REVERT JUMPDEST POP POP DUP4 CALLDATALOAD SWAP6 PUSH1 0x20 DUP6 ADD CALLDATALOAD SWAP6 POP PUSH1 0x40 DUP6 ADD CALLDATALOAD SWAP5 PUSH1 0x60 DUP2 ADD CALLDATALOAD SWAP5 POP PUSH1 0x80 ADD CALLDATALOAD SWAP3 POP SWAP1 POP JUMP JUMPDEST PUSH4 0x4E487B71 PUSH1 0xE0 SHL PUSH1 0x0 MSTORE PUSH1 0x11 PUSH1 0x4 MSTORE PUSH1 0x24 PUSH1 0x0 REVERT JUMPDEST DUP1 DUP3 MUL DUP2 ISZERO DUP3 DUP3 DIV DUP5 EQ OR PUSH2 0x1474 JUMPI PUSH2 0x1474 PUSH2 0x1447 JUMP JUMPDEST SWAP3 SWAP2 POP POP JUMP JUMPDEST PUSH1 0x0 DUP3 PUSH2 0x1497 JUMPI PUSH4 0x4E487B71 PUSH1 0xE0 SHL PUSH1 0x0 MSTORE PUSH1 0x12 PUSH1 0x4 MSTORE PUSH1 0x24 PUSH1 0x0 REVERT JUMPDEST POP DIV SWAP1 JUMP JUMPDEST DUP2 DUP2 SUB DUP2 DUP2 GT ISZERO PUSH2 0x1474 JUMPI PUSH2 0x1474 PUSH2 0x1447 JUMP JUMPDEST DUP1 DUP3 ADD DUP1 DUP3 GT ISZERO PUSH2 0x1474 JUMPI PUSH2 0x1474 PUSH2 0x1447 JUMP INVALID 0xF7 SWAP9 0xC7 JUMPDEST 0x2D 0xB0 SWAP15 LOG1 SUB 0x4D SWAP12 0xE2 MSTORE8 0xE9 SWAP8 0x4B OR 0xBB 0xE4 LOG0 PUSH16 0x2B0FF6695054FA5B747191A264697066 PUSH20 0x5822122091679FFFB96AB0ABC39B0CB73462D762 PUSH20 0xDB838EBB346F81118905DF71CB34EB64736F6C63 NUMBER STOP ADDMOD EQ STOP CALLER "},"methodIdentifiers":{"RATE_DENOMINATOR()":"7efad8e0","buyPack(uint8,uint256)":"a6001f62","buyPackWithReferrer(uint8,uint256,address)":"3a925a3f","commonPackPrice()":"831c3879","genesisPackPrice()":"8a873f30","getAllPackPrices()":"a2b8ed78","getPackPrice(uint8)":"da4bf01b","getReferralInfo(address)":"21874ae2","getTotalSales()":"2156a96c","owner()":"8da5cb5b","packsPurchasedBy(address)":"fbeb5d7d","rarePackPrice()":"b0fc38c4","referralCommissionRate()":"d30ef61b","referrerOf(address)":"d21cacdf","renounceOwnership()":"715018a6","rescueTokens(address,uint256)":"57376198","sentientPackPrice()":"e9420e03","setReferrer(address)":"a18a7bfc","totalEarnedByReferrer(address)":"b0fd07c8","totalPacksSoldByType(uint8)":"be76c6ad","transferOwnership(address)":"f2fde38b","treasury()":"61d027b3","unicornPackPrice()":"b6e04d68","updateAllPrices(uint256,uint256,uint256,uint256,uint256)":"fc7668e4","updateCommissionRate(uint256)":"00fa3d50","updatePackPrice(uint8,uint256)":"cf685392","updateTreasury(address)":"7f51bb1f","virtualToken()":"1f514c52"}}}}}