{
  "_format": "hh-sol-artifact-1",
  "contractName": "FlipRoyaleArenaV1_1",
  "sourceName": "contracts/FlipRoyaleArenaV1_1_Flat.sol",
  "abi": [
    {
      "inputs": [
        {
          "internalType": "address",
          "name": "_usdc",
          "type": "address"
        },
        {
          "internalType": "address",
          "name": "_treasury",
          "type": "address"
        },
        {
          "internalType": "address",
          "name": "_oracle",
          "type": "address"
        }
      ],
      "stateMutability": "nonpayable",
      "type": "constructor"
    },
    {
      "inputs": [],
      "name": "ECDSAInvalidSignature",
      "type": "error"
    },
    {
      "inputs": [
        {
          "internalType": "uint256",
          "name": "length",
          "type": "uint256"
        }
      ],
      "name": "ECDSAInvalidSignatureLength",
      "type": "error"
    },
    {
      "inputs": [
        {
          "internalType": "bytes32",
          "name": "s",
          "type": "bytes32"
        }
      ],
      "name": "ECDSAInvalidSignatureS",
      "type": "error"
    },
    {
      "inputs": [],
      "name": "EnforcedPause",
      "type": "error"
    },
    {
      "inputs": [],
      "name": "ExpectedPause",
      "type": "error"
    },
    {
      "inputs": [
        {
          "internalType": "address",
          "name": "owner",
          "type": "address"
        }
      ],
      "name": "OwnableInvalidOwner",
      "type": "error"
    },
    {
      "inputs": [
        {
          "internalType": "address",
          "name": "account",
          "type": "address"
        }
      ],
      "name": "OwnableUnauthorizedAccount",
      "type": "error"
    },
    {
      "inputs": [],
      "name": "ReentrancyGuardReentrantCall",
      "type": "error"
    },
    {
      "inputs": [
        {
          "internalType": "address",
          "name": "token",
          "type": "address"
        }
      ],
      "name": "SafeERC20FailedOperation",
      "type": "error"
    },
    {
      "anonymous": false,
      "inputs": [
        {
          "indexed": true,
          "internalType": "bytes32",
          "name": "roomId",
          "type": "bytes32"
        },
        {
          "indexed": false,
          "internalType": "uint256",
          "name": "amount",
          "type": "uint256"
        }
      ],
      "name": "EmergencyWithdraw",
      "type": "event"
    },
    {
      "anonymous": false,
      "inputs": [
        {
          "indexed": true,
          "internalType": "address",
          "name": "previousOwner",
          "type": "address"
        },
        {
          "indexed": true,
          "internalType": "address",
          "name": "newOwner",
          "type": "address"
        }
      ],
      "name": "OwnershipTransferred",
      "type": "event"
    },
    {
      "anonymous": false,
      "inputs": [
        {
          "indexed": false,
          "internalType": "address",
          "name": "account",
          "type": "address"
        }
      ],
      "name": "Paused",
      "type": "event"
    },
    {
      "anonymous": false,
      "inputs": [
        {
          "indexed": true,
          "internalType": "bytes32",
          "name": "roomId",
          "type": "bytes32"
        },
        {
          "indexed": true,
          "internalType": "address",
          "name": "player",
          "type": "address"
        },
        {
          "indexed": false,
          "internalType": "uint256",
          "name": "refund",
          "type": "uint256"
        }
      ],
      "name": "RoomCancelled",
      "type": "event"
    },
    {
      "anonymous": false,
      "inputs": [
        {
          "indexed": true,
          "internalType": "bytes32",
          "name": "roomId",
          "type": "bytes32"
        },
        {
          "indexed": true,
          "internalType": "address",
          "name": "player1",
          "type": "address"
        },
        {
          "indexed": false,
          "internalType": "uint8",
          "name": "tier",
          "type": "uint8"
        },
        {
          "indexed": false,
          "internalType": "enum FlipRoyaleArenaV1_1.GameMode",
          "name": "gameMode",
          "type": "uint8"
        },
        {
          "indexed": false,
          "internalType": "uint256",
          "name": "stake",
          "type": "uint256"
        }
      ],
      "name": "RoomCreated",
      "type": "event"
    },
    {
      "anonymous": false,
      "inputs": [
        {
          "indexed": true,
          "internalType": "bytes32",
          "name": "roomId",
          "type": "bytes32"
        },
        {
          "indexed": false,
          "internalType": "address",
          "name": "player1",
          "type": "address"
        },
        {
          "indexed": false,
          "internalType": "address",
          "name": "player2",
          "type": "address"
        },
        {
          "indexed": false,
          "internalType": "uint256",
          "name": "refundEach",
          "type": "uint256"
        }
      ],
      "name": "RoomDraw",
      "type": "event"
    },
    {
      "anonymous": false,
      "inputs": [
        {
          "indexed": true,
          "internalType": "bytes32",
          "name": "roomId",
          "type": "bytes32"
        },
        {
          "indexed": true,
          "internalType": "address",
          "name": "player2",
          "type": "address"
        },
        {
          "indexed": false,
          "internalType": "uint256",
          "name": "stake",
          "type": "uint256"
        }
      ],
      "name": "RoomJoined",
      "type": "event"
    },
    {
      "anonymous": false,
      "inputs": [
        {
          "indexed": true,
          "internalType": "bytes32",
          "name": "roomId",
          "type": "bytes32"
        },
        {
          "indexed": true,
          "internalType": "address",
          "name": "winner",
          "type": "address"
        },
        {
          "indexed": false,
          "internalType": "uint256",
          "name": "winnerPayout",
          "type": "uint256"
        },
        {
          "indexed": false,
          "internalType": "uint256",
          "name": "teamFee",
          "type": "uint256"
        },
        {
          "indexed": false,
          "internalType": "uint256",
          "name": "replyCorpFee",
          "type": "uint256"
        }
      ],
      "name": "RoomResolved",
      "type": "event"
    },
    {
      "anonymous": false,
      "inputs": [
        {
          "indexed": false,
          "internalType": "address",
          "name": "account",
          "type": "address"
        }
      ],
      "name": "Unpaused",
      "type": "event"
    },
    {
      "inputs": [],
      "name": "FEE_RATE",
      "outputs": [
        {
          "internalType": "uint256",
          "name": "",
          "type": "uint256"
        }
      ],
      "stateMutability": "view",
      "type": "function"
    },
    {
      "inputs": [],
      "name": "RATE_DENOMINATOR",
      "outputs": [
        {
          "internalType": "uint256",
          "name": "",
          "type": "uint256"
        }
      ],
      "stateMutability": "view",
      "type": "function"
    },
    {
      "inputs": [],
      "name": "WINNER_RATE",
      "outputs": [
        {
          "internalType": "uint256",
          "name": "",
          "type": "uint256"
        }
      ],
      "stateMutability": "view",
      "type": "function"
    },
    {
      "inputs": [
        {
          "internalType": "uint256",
          "name": "",
          "type": "uint256"
        }
      ],
      "name": "allRoomIds",
      "outputs": [
        {
          "internalType": "bytes32",
          "name": "",
          "type": "bytes32"
        }
      ],
      "stateMutability": "view",
      "type": "function"
    },
    {
      "inputs": [],
      "name": "bronzeStake",
      "outputs": [
        {
          "internalType": "uint256",
          "name": "",
          "type": "uint256"
        }
      ],
      "stateMutability": "view",
      "type": "function"
    },
    {
      "inputs": [
        {
          "internalType": "bytes32",
          "name": "roomId",
          "type": "bytes32"
        }
      ],
      "name": "cancelRoom",
      "outputs": [],
      "stateMutability": "nonpayable",
      "type": "function"
    },
    {
      "inputs": [
        {
          "internalType": "uint8",
          "name": "tier",
          "type": "uint8"
        },
        {
          "internalType": "enum FlipRoyaleArenaV1_1.GameMode",
          "name": "gameMode",
          "type": "uint8"
        }
      ],
      "name": "createRoom",
      "outputs": [
        {
          "internalType": "bytes32",
          "name": "roomId",
          "type": "bytes32"
        }
      ],
      "stateMutability": "nonpayable",
      "type": "function"
    },
    {
      "inputs": [],
      "name": "diamondStake",
      "outputs": [
        {
          "internalType": "uint256",
          "name": "",
          "type": "uint256"
        }
      ],
      "stateMutability": "view",
      "type": "function"
    },
    {
      "inputs": [],
      "name": "emergencyWithdrawAll",
      "outputs": [],
      "stateMutability": "nonpayable",
      "type": "function"
    },
    {
      "inputs": [
        {
          "internalType": "bytes32",
          "name": "roomId",
          "type": "bytes32"
        }
      ],
      "name": "emergencyWithdrawFilled",
      "outputs": [],
      "stateMutability": "nonpayable",
      "type": "function"
    },
    {
      "inputs": [
        {
          "internalType": "bytes32",
          "name": "roomId",
          "type": "bytes32"
        }
      ],
      "name": "emergencyWithdrawOpen",
      "outputs": [],
      "stateMutability": "nonpayable",
      "type": "function"
    },
    {
      "inputs": [],
      "name": "getAllRoomIds",
      "outputs": [
        {
          "internalType": "bytes32[]",
          "name": "",
          "type": "bytes32[]"
        }
      ],
      "stateMutability": "view",
      "type": "function"
    },
    {
      "inputs": [],
      "name": "getContractBalance",
      "outputs": [
        {
          "internalType": "uint256",
          "name": "",
          "type": "uint256"
        }
      ],
      "stateMutability": "view",
      "type": "function"
    },
    {
      "inputs": [
        {
          "internalType": "uint8",
          "name": "tier",
          "type": "uint8"
        }
      ],
      "name": "getTierStake",
      "outputs": [
        {
          "internalType": "uint256",
          "name": "",
          "type": "uint256"
        }
      ],
      "stateMutability": "view",
      "type": "function"
    },
    {
      "inputs": [
        {
          "internalType": "address",
          "name": "user",
          "type": "address"
        }
      ],
      "name": "getUserRooms",
      "outputs": [
        {
          "internalType": "bytes32[]",
          "name": "",
          "type": "bytes32[]"
        }
      ],
      "stateMutability": "view",
      "type": "function"
    },
    {
      "inputs": [
        {
          "internalType": "address",
          "name": "user",
          "type": "address"
        }
      ],
      "name": "getUserStats",
      "outputs": [
        {
          "internalType": "uint256",
          "name": "wins",
          "type": "uint256"
        },
        {
          "internalType": "uint256",
          "name": "losses",
          "type": "uint256"
        },
        {
          "internalType": "uint256",
          "name": "totalWinnings",
          "type": "uint256"
        },
        {
          "internalType": "uint256",
          "name": "roomCount",
          "type": "uint256"
        }
      ],
      "stateMutability": "view",
      "type": "function"
    },
    {
      "inputs": [],
      "name": "goldStake",
      "outputs": [
        {
          "internalType": "uint256",
          "name": "",
          "type": "uint256"
        }
      ],
      "stateMutability": "view",
      "type": "function"
    },
    {
      "inputs": [
        {
          "internalType": "bytes32",
          "name": "roomId",
          "type": "bytes32"
        }
      ],
      "name": "joinRoom",
      "outputs": [],
      "stateMutability": "nonpayable",
      "type": "function"
    },
    {
      "inputs": [],
      "name": "oracle",
      "outputs": [
        {
          "internalType": "address",
          "name": "",
          "type": "address"
        }
      ],
      "stateMutability": "view",
      "type": "function"
    },
    {
      "inputs": [],
      "name": "owner",
      "outputs": [
        {
          "internalType": "address",
          "name": "",
          "type": "address"
        }
      ],
      "stateMutability": "view",
      "type": "function"
    },
    {
      "inputs": [],
      "name": "pause",
      "outputs": [],
      "stateMutability": "nonpayable",
      "type": "function"
    },
    {
      "inputs": [],
      "name": "paused",
      "outputs": [
        {
          "internalType": "bool",
          "name": "",
          "type": "bool"
        }
      ],
      "stateMutability": "view",
      "type": "function"
    },
    {
      "inputs": [],
      "name": "renounceOwnership",
      "outputs": [],
      "stateMutability": "nonpayable",
      "type": "function"
    },
    {
      "inputs": [
        {
          "internalType": "bytes32",
          "name": "roomId",
          "type": "bytes32"
        },
        {
          "internalType": "address",
          "name": "winner",
          "type": "address"
        },
        {
          "internalType": "bytes32",
          "name": "nonce",
          "type": "bytes32"
        },
        {
          "internalType": "bytes",
          "name": "signature",
          "type": "bytes"
        }
      ],
      "name": "resolveRoom",
      "outputs": [],
      "stateMutability": "nonpayable",
      "type": "function"
    },
    {
      "inputs": [
        {
          "internalType": "bytes32",
          "name": "roomId",
          "type": "bytes32"
        },
        {
          "internalType": "bytes32",
          "name": "nonce",
          "type": "bytes32"
        },
        {
          "internalType": "bytes",
          "name": "signature",
          "type": "bytes"
        }
      ],
      "name": "resolveRoomDraw",
      "outputs": [],
      "stateMutability": "nonpayable",
      "type": "function"
    },
    {
      "inputs": [
        {
          "internalType": "bytes32",
          "name": "",
          "type": "bytes32"
        }
      ],
      "name": "rooms",
      "outputs": [
        {
          "internalType": "bytes32",
          "name": "id",
          "type": "bytes32"
        },
        {
          "internalType": "address",
          "name": "player1",
          "type": "address"
        },
        {
          "internalType": "address",
          "name": "player2",
          "type": "address"
        },
        {
          "internalType": "uint256",
          "name": "stake",
          "type": "uint256"
        },
        {
          "internalType": "uint8",
          "name": "tier",
          "type": "uint8"
        },
        {
          "internalType": "enum FlipRoyaleArenaV1_1.GameMode",
          "name": "gameMode",
          "type": "uint8"
        },
        {
          "internalType": "enum FlipRoyaleArenaV1_1.RoomStatus",
          "name": "status",
          "type": "uint8"
        },
        {
          "internalType": "address",
          "name": "winner",
          "type": "address"
        },
        {
          "internalType": "uint256",
          "name": "createdAt",
          "type": "uint256"
        },
        {
          "internalType": "uint256",
          "name": "resolvedAt",
          "type": "uint256"
        }
      ],
      "stateMutability": "view",
      "type": "function"
    },
    {
      "inputs": [
        {
          "internalType": "address",
          "name": "_oracle",
          "type": "address"
        }
      ],
      "name": "setOracle",
      "outputs": [],
      "stateMutability": "nonpayable",
      "type": "function"
    },
    {
      "inputs": [
        {
          "internalType": "address",
          "name": "_treasury",
          "type": "address"
        }
      ],
      "name": "setTreasury",
      "outputs": [],
      "stateMutability": "nonpayable",
      "type": "function"
    },
    {
      "inputs": [],
      "name": "silverStake",
      "outputs": [
        {
          "internalType": "uint256",
          "name": "",
          "type": "uint256"
        }
      ],
      "stateMutability": "view",
      "type": "function"
    },
    {
      "inputs": [
        {
          "internalType": "uint8",
          "name": "",
          "type": "uint8"
        }
      ],
      "name": "totalRoomsByTier",
      "outputs": [
        {
          "internalType": "uint256",
          "name": "",
          "type": "uint256"
        }
      ],
      "stateMutability": "view",
      "type": "function"
    },
    {
      "inputs": [
        {
          "internalType": "uint8",
          "name": "",
          "type": "uint8"
        }
      ],
      "name": "totalVolumeByTier",
      "outputs": [
        {
          "internalType": "uint256",
          "name": "",
          "type": "uint256"
        }
      ],
      "stateMutability": "view",
      "type": "function"
    },
    {
      "inputs": [
        {
          "internalType": "address",
          "name": "newOwner",
          "type": "address"
        }
      ],
      "name": "transferOwnership",
      "outputs": [],
      "stateMutability": "nonpayable",
      "type": "function"
    },
    {
      "inputs": [],
      "name": "treasury",
      "outputs": [
        {
          "internalType": "address",
          "name": "",
          "type": "address"
        }
      ],
      "stateMutability": "view",
      "type": "function"
    },
    {
      "inputs": [],
      "name": "unpause",
      "outputs": [],
      "stateMutability": "nonpayable",
      "type": "function"
    },
    {
      "inputs": [],
      "name": "usdc",
      "outputs": [
        {
          "internalType": "contract IERC20",
          "name": "",
          "type": "address"
        }
      ],
      "stateMutability": "view",
      "type": "function"
    },
    {
      "inputs": [
        {
          "internalType": "bytes32",
          "name": "",
          "type": "bytes32"
        }
      ],
      "name": "usedNonces",
      "outputs": [
        {
          "internalType": "bool",
          "name": "",
          "type": "bool"
        }
      ],
      "stateMutability": "view",
      "type": "function"
    },
    {
      "inputs": [
        {
          "internalType": "address",
          "name": "",
          "type": "address"
        }
      ],
      "name": "userLosses",
      "outputs": [
        {
          "internalType": "uint256",
          "name": "",
          "type": "uint256"
        }
      ],
      "stateMutability": "view",
      "type": "function"
    },
    {
      "inputs": [
        {
          "internalType": "address",
          "name": "",
          "type": "address"
        },
        {
          "internalType": "uint256",
          "name": "",
          "type": "uint256"
        }
      ],
      "name": "userRooms",
      "outputs": [
        {
          "internalType": "bytes32",
          "name": "",
          "type": "bytes32"
        }
      ],
      "stateMutability": "view",
      "type": "function"
    },
    {
      "inputs": [
        {
          "internalType": "address",
          "name": "",
          "type": "address"
        }
      ],
      "name": "userTotalWinnings",
      "outputs": [
        {
          "internalType": "uint256",
          "name": "",
          "type": "uint256"
        }
      ],
      "stateMutability": "view",
      "type": "function"
    },
    {
      "inputs": [
        {
          "internalType": "address",
          "name": "",
          "type": "address"
        }
      ],
      "name": "userWins",
      "outputs": [
        {
          "internalType": "uint256",
          "name": "",
          "type": "uint256"
        }
      ],
      "stateMutability": "view",
      "type": "function"
    }
  ],
  "bytecode": "0x60a06040523480156200001157600080fd5b50604051620025673803806200256783398101604081905262000034916200012e565b33806200005b57604051631e4fbdf760e01b81526000600482015260240160405180910390fd5b6200006681620000c1565b50600180556001600160a01b03928316608052600780549284166001600160a01b0319938416179055600880549190931691161790556298968060035563017d78406004556302faf0806005556305f5e10060065562000178565b600080546001600160a01b038381166001600160a01b0319831681178455604051919092169283917f8be0079c531659141344cd1fd0a4f28419497f9722a3daafe3b4186f6b6457e09190a35050565b80516001600160a01b03811681146200012957600080fd5b919050565b6000806000606084860312156200014457600080fd5b6200014f8462000111565b92506200015f6020850162000111565b91506200016f6040850162000111565b90509250925092565b608051612378620001ef600039600081816102f8015281816107de0152818161097a015281816109bc01528181610a4701528181610c3f01528181610e9c01528181610ee70152818161108e0152818161110e015281816111d1015281816115b6015281816115ee015261198301526123786000f3fe608060405234801561001057600080fd5b50600436106102485760003560e01c80637efad8e01161013b578063dd191719116100b8578063e9d2ee6a1161007c578063e9d2ee6a146105c8578063ee192d13146105d1578063f0f44260146105e4578063f2fde38b146105f7578063feb617241461060a57600080fd5b8063dd1917191461057c578063e040d9f314610584578063e08fe1e6146105a4578063e25e9160146105b7578063e7c23f40146105bf57600080fd5b8063a1fbda63116100ff578063a1fbda631461048a578063b01e79611461049d578063c6576f39146104bd578063cdaf4ad5146104d0578063d7fbc2e4146104f057600080fd5b80637efad8e01461044c5780638456cb5914610455578063857c5a911461045d5780638da5cb5b1461046657806392776b4f1461047757600080fd5b80634b29b4c4116101c95780636f9fb98a1161018d5780636f9fb98a146103f6578063715018a6146103fe5780637651313a146104065780637adbf973146104265780637dc0d1d01461043957600080fd5b80634b29b4c41461033c5780634e43603a1461034f5780635087d005146103b95780635c975abb146103cc57806361d027b3146103e357600080fd5b8063225437461161021057806322543746146102b857806327b612d1146102d85780632d11c58a146102eb5780633e413bee146102f35780633f4ba83a1461033257600080fd5b8063020885d11461024d57806308857442146102735780631144400a146102935780631abb22111461029c57806320493ab4146102af575b600080fd5b61026061025b366004611f3d565b61062d565b6040519081526020015b60405180910390f35b610260610281366004611f72565b600e6020526000908152604090205481565b61026060065481565b6102606102aa366004611fa5565b61064e565b61026060055481565b6102606102c6366004611fa5565b60106020526000908152604090205481565b6102606102e6366004611fc0565b6106d8565b610260606481565b61031a7f000000000000000000000000000000000000000000000000000000000000000081565b6040516001600160a01b03909116815260200161026a565b61033a610709565b005b61033a61034a366004611f3d565b61071b565b61039961035d366004611f72565b6001600160a01b03166000908152600c6020908152604080832054600d835281842054600e845282852054600b90945291909320549293909290565b60408051948552602085019390935291830152606082015260800161026a565b61033a6103c7366004611f3d565b6108d7565b60025460ff165b604051901515815260200161026a565b60075461031a906001600160a01b031681565b610260610a2f565b61033a610abf565b610260610414366004611f72565b600c6020526000908152604090205481565b61033a610434366004611f72565b610ad1565b60085461031a906001600160a01b031681565b6102606103e881565b61033a610b42565b61026061038481565b6000546001600160a01b031661031a565b61033a610485366004611f3d565b610b52565b61033a610498366004612033565b610ca7565b6104b06104ab366004611f72565b610f7f565b60405161026a9190612086565b61033a6104cb366004611f3d565b610feb565b6102606104de366004611fa5565b600f6020526000908152604090205481565b6105666104fe366004611f3d565b600960205260009081526040902080546001820154600283015460038401546004850154600586015460069096015494956001600160a01b039485169593851694929360ff80841694610100850482169462010000810490921693630100000090920416918a565b60405161026a9a999897969594939291906120f4565b61033a6110ee565b610260610592366004611f72565b600d6020526000908152604090205481565b61033a6105b236600461216e565b611233565b6104b061167b565b61026060035481565b61026060045481565b6102606105df3660046121d6565b6116d3565b61033a6105f2366004611f72565b611a01565b61033a610605366004611f72565b611a74565b6103d3610618366004611f3d565b60116020526000908152604090205460ff1681565b600a818154811061063d57600080fd5b600091825260209091200154905081565b60008160ff1660000361066357505060035490565b8160ff1660010361067657505060045490565b8160ff1660020361068957505060055490565b8160ff1660030361069c57505060065490565b60405162461bcd60e51b815260206004820152600c60248201526b24b73b30b634b2103a34b2b960a11b60448201526064015b60405180910390fd5b600b60205281600052604060002081815481106106f457600080fd5b90600052602060002001600091509150505481565b610711611aaf565b610719611adc565b565b610723611b2e565b61072b611b58565b60008181526009602052604081209060048281015462010000900460ff1690811115610759576107596120ca565b146107765760405162461bcd60e51b81526004016106cf90612211565b6001810154336001600160a01b03909116036107cb5760405162461bcd60e51b815260206004820152601460248201527343616e6e6f74206a6f696e206f776e20726f6f6d60601b60448201526064016106cf565b6003810154610808906001600160a01b037f0000000000000000000000000000000000000000000000000000000000000000169033903090611b7c565b600281810180546001600160a01b0319163390811790915560048301805462ff00001916620100001790556000908152600b602090815260408220805460018101825590835291200183905560038201546108629161224e565b600482015460ff1660009081526010602052604081208054909190610888908490612265565b90915550506003810154604051908152339083907f7fb92d9ef81fb1a14948efd516a9cd1343209038f191b7901ad2625166085a7c906020015b60405180910390a3506108d460018055565b50565b6108df611aaf565b6000818152600960205260409020805461090b5760405162461bcd60e51b81526004016106cf90612278565b600160048281015462010000900460ff169081111561092c5761092c6120ca565b146109495760405162461bcd60e51b81526004016106cf906122a0565b60048101805462ff0000191662040000179055426006820155600181015460038201546109a4916001600160a01b037f0000000000000000000000000000000000000000000000000000000000000000811692911690611be3565b600281015460038201546109e6916001600160a01b037f0000000000000000000000000000000000000000000000000000000000000000811692911690611be3565b817f6a182286cfef80b5e55e41ffaccd303fe0a16fbd077479b243baba245c62bf9782600301546002610a19919061224e565b6040519081526020015b60405180910390a25050565b6040516370a0823160e01b81523060048201526000907f00000000000000000000000000000000000000000000000000000000000000006001600160a01b0316906370a0823190602401602060405180830381865afa158015610a96573d6000803e3d6000fd5b505050506040513d601f19601f82011682018060405250810190610aba91906122c9565b905090565b610ac7611aaf565b6107196000611c19565b610ad9611aaf565b6001600160a01b038116610b205760405162461bcd60e51b815260206004820152600e60248201526d496e76616c6964206f7261636c6560901b60448201526064016106cf565b600880546001600160a01b0319166001600160a01b0392909216919091179055565b610b4a611aaf565b610719611c69565b610b5a611b2e565b60008181526009602052604090208054610b865760405162461bcd60e51b81526004016106cf90612278565b600060048281015462010000900460ff1690811115610ba757610ba76120ca565b14610bc45760405162461bcd60e51b81526004016106cf90612211565b60018101546001600160a01b03163314610c135760405162461bcd60e51b815260206004820152601060248201526f2737ba103937b7b69031b932b0ba37b960811b60448201526064016106cf565b60048101805462ff00001916620400001790554260068201556003810154610c67906001600160a01b037f000000000000000000000000000000000000000000000000000000000000000016903390611be3565b336001600160a01b0316827f44ad6a9e36645c633fe0758019f6292d7a324289557759164269e07847d5a9fa83600301546040516108c291815260200190565b610caf611b2e565b6000848152600960205260409020600160048281015462010000900460ff1690811115610cde57610cde6120ca565b14610cfb5760405162461bcd60e51b81526004016106cf906122a0565b60008481526011602052604090205460ff1615610d4f5760405162461bcd60e51b8152602060048201526012602482015271139bdb98d948185b1c9958591e481d5cd95960721b60448201526064016106cf565b6040805160208082018890526000828401819052605480840189905284518085039091018152607484018086528151918401919091207f19457468657265756d205369676e6564204d6573736167653a0a3332000000008352601c819052603c9092206008546094601f8a0186900490950286018501909652878252919491936001600160a01b0390921692610e0192899189918291018382808284376000920191909152508693925050611ca69050565b6001600160a01b031614610e525760405162461bcd60e51b8152602060048201526018602482015277496e76616c6964206f7261636c65207369676e617475726560401b60448201526064016106cf565b60008681526011602052604090208054600160ff19909116811790915560048401805462010000600160b81b031916620300001790554260068501558301546003840154610ecf917f00000000000000000000000000000000000000000000000000000000000000006001600160a01b0390811692911690611be3565b60028301546003840154610f11916001600160a01b037f0000000000000000000000000000000000000000000000000000000000000000811692911690611be3565b600183015460028401546003850154604080516001600160a01b0394851681529390921660208401529082015287907f6a5fa74a4a27db85d0ae7bf90b00022cd6023cfff19567aa95a2d862fbad62a29060600160405180910390a2505050610f7960018055565b50505050565b6001600160a01b0381166000908152600b6020908152604091829020805483518184028101840190945280845260609392830182828015610fdf57602002820191906000526020600020905b815481526020019060010190808311610fcb575b50505050509050919050565b610ff3611aaf565b6000818152600960205260409020805461101f5760405162461bcd60e51b81526004016106cf90612278565b600060048281015462010000900460ff1690811115611040576110406120ca565b1461105d5760405162461bcd60e51b81526004016106cf90612211565b60048101805462ff0000191662040000179055426006820155600181015460038201546110b8916001600160a01b037f0000000000000000000000000000000000000000000000000000000000000000811692911690611be3565b817f6a182286cfef80b5e55e41ffaccd303fe0a16fbd077479b243baba245c62bf978260030154604051610a2391815260200190565b6110f6611aaf565b6040516370a0823160e01b81523060048201526000907f00000000000000000000000000000000000000000000000000000000000000006001600160a01b0316906370a0823190602401602060405180830381865afa15801561115d573d6000803e3d6000fd5b505050506040513d601f19601f8201168201806040525081019061118191906122c9565b9050600081116111c05760405162461bcd60e51b815260206004820152600a6024820152694e6f2062616c616e636560b01b60448201526064016106cf565b6007546111fa906001600160a01b037f00000000000000000000000000000000000000000000000000000000000000008116911683611be3565b6040518181526000907f6a182286cfef80b5e55e41ffaccd303fe0a16fbd077479b243baba245c62bf979060200160405180910390a250565b61123b611b2e565b6000858152600960205260409020600160048281015462010000900460ff169081111561126a5761126a6120ca565b146112875760405162461bcd60e51b81526004016106cf906122a0565b60008481526011602052604090205460ff16156112db5760405162461bcd60e51b8152602060048201526012602482015271139bdb98d948185b1c9958591e481d5cd95960721b60448201526064016106cf565b60018101546001600160a01b0386811691161480611308575060028101546001600160a01b038681169116145b6113455760405162461bcd60e51b815260206004820152600e60248201526d24b73b30b634b2103bb4b73732b960911b60448201526064016106cf565b604080516020808201899052606088901b6bffffffffffffffffffffffff191682840152605480830188905283518084039091018152607490920190925280519101207f19457468657265756d205369676e6564204d6573736167653a0a3332000000006000908152601c829052603c8120600854604080516020601f89018190048102820181019092528781529293506001600160a01b03909116916114099188908890819084018382808284376000920191909152508693925050611ca69050565b6001600160a01b03161461145a5760405162461bcd60e51b8152602060048201526018602482015277496e76616c6964206f7261636c65207369676e617475726560401b60448201526064016106cf565b6000868152601160205260408120805460ff19166001179055600384015461148390600261224e565b905060006103e86114966103848461224e565b6114a091906122e2565b905060006103e86114b260648561224e565b6114bc91906122e2565b60048701805462010000600160b81b03191663010000006001600160a01b038e81169182029290921762020000179092554260068a0155600189015492935060009216146115175760018701546001600160a01b0316611526565b60028701546001600160a01b03165b6001600160a01b038c166000908152600c6020526040812080549293509061154d83612304565b90915550506001600160a01b0381166000908152600d6020526040812080549161157683612304565b90915550506001600160a01b038b166000908152600e6020526040812080548592906115a3908490612265565b909155506115dd90506001600160a01b037f0000000000000000000000000000000000000000000000000000000000000000168c85611be3565b600754611617906001600160a01b037f00000000000000000000000000000000000000000000000000000000000000008116911684611be3565b604080518481526020810184905260008183015290516001600160a01b038d16918e917f16efe5897e1b57622ae96aabfc080bfc2e11675afa8afaeb7479865ea856d52f9181900360600190a35050505050505061167460018055565b5050505050565b6060600a8054806020026020016040519081016040528092919081815260200182805480156116c957602002820191906000526020600020905b8154815260200190600101908083116116b5575b5050505050905090565b60006116dd611b2e565b6116e5611b58565b60038360ff1611156117285760405162461bcd60e51b815260206004820152600c60248201526b24b73b30b634b2103a34b2b960a11b60448201526064016106cf565b60006117338461064e565b600a546040516bffffffffffffffffffffffff193360601b1660208201524260348201526054810191909152909150607401604051602081830303815290604052805190602001209150604051806101400160405280838152602001336001600160a01b0316815260200160006001600160a01b031681526020018281526020018560ff1681526020018460018111156117cf576117cf6120ca565b8152602001600081526000602080830182905242604080850191909152606093840183905286835260098252918290208451815590840151600180830180546001600160a01b039384166001600160a01b03199182161790915593860151600284018054919093169416939093179055918301516003830155608083015160048301805460ff90921660ff1983168117825560a086015193919261ffff19161790610100908490811115611885576118856120ca565b021790555060c08201518160040160026101000a81548160ff021916908360048111156118b4576118b46120ca565b021790555060e08201516004820180546001600160a01b039092166301000000026301000000600160b81b0319909216919091179055610100820151600582015561012090910151600690910155600a805460018181019092557fc65a7bb8d6351c1cf70c95a316cc6a92839c986682d98bc35f958f4883f9d2a801839055336000908152600b6020908152604080832080549485018155835281832090930185905560ff87168252600f905290812080549161197083612304565b909155506119ab90506001600160a01b037f000000000000000000000000000000000000000000000000000000000000000016333084611b7c565b336001600160a01b0316827f5e72612ca9f83d2eb6e23cf918890544be95a6cd5d3bcd1516473a0a2d64cf208686856040516119e99392919061231d565b60405180910390a3506119fb60018055565b92915050565b611a09611aaf565b6001600160a01b038116611a525760405162461bcd60e51b815260206004820152601060248201526f496e76616c696420747265617375727960801b60448201526064016106cf565b600780546001600160a01b0319166001600160a01b0392909216919091179055565b611a7c611aaf565b6001600160a01b038116611aa657604051631e4fbdf760e01b8152600060048201526024016106cf565b6108d481611c19565b6000546001600160a01b031633146107195760405163118cdaa760e01b81523360048201526024016106cf565b611ae4611cd0565b6002805460ff191690557f5db9ee0a495bf2e6ff9c91a7834c1ba4fdd244a5e8aa4e537bd38aeae4b073aa335b6040516001600160a01b03909116815260200160405180910390a1565b600260015403611b5157604051633ee5aeb560e01b815260040160405180910390fd5b6002600155565b60025460ff16156107195760405163d93c066560e01b815260040160405180910390fd5b6040516001600160a01b038481166024830152838116604483015260648201839052610f799186918216906323b872dd906084015b604051602081830303815290604052915060e01b6020820180516001600160e01b038381831617835250505050611cf3565b6040516001600160a01b03838116602483015260448201839052611c1491859182169063a9059cbb90606401611bb1565b505050565b600080546001600160a01b038381166001600160a01b0319831681178455604051919092169283917f8be0079c531659141344cd1fd0a4f28419497f9722a3daafe3b4186f6b6457e09190a35050565b611c71611b58565b6002805460ff191660011790557f62e78cea01bee320cd4e420270b5ea74000d11b0c9f74754ebdbfc544b05a258611b113390565b600080600080611cb68686611d64565b925092509250611cc68282611db1565b5090949350505050565b60025460ff1661071957604051638dfc202b60e01b815260040160405180910390fd5b600080602060008451602086016000885af180611d16576040513d6000823e3d81fd5b50506000513d91508115611d2e578060011415611d3b565b6001600160a01b0384163b155b15610f7957604051635274afe760e01b81526001600160a01b03851660048201526024016106cf565b60008060008351604103611d9e5760208401516040850151606086015160001a611d9088828585611e6e565b955095509550505050611daa565b50508151600091506002905b9250925092565b6000826003811115611dc557611dc56120ca565b03611dce575050565b6001826003811115611de257611de26120ca565b03611e005760405163f645eedf60e01b815260040160405180910390fd5b6002826003811115611e1457611e146120ca565b03611e355760405163fce698f760e01b8152600481018290526024016106cf565b6003826003811115611e4957611e496120ca565b03611e6a576040516335e2f38360e21b8152600481018290526024016106cf565b5050565b600080807f7fffffffffffffffffffffffffffffff5d576e7357a4501ddfe92f46681b20a0841115611ea95750600091506003905082611f33565b604080516000808252602082018084528a905260ff891692820192909252606081018790526080810186905260019060a0016020604051602081039080840390855afa158015611efd573d6000803e3d6000fd5b5050604051601f1901519150506001600160a01b038116611f2957506000925060019150829050611f33565b9250600091508190505b9450945094915050565b600060208284031215611f4f57600080fd5b5035919050565b80356001600160a01b0381168114611f6d57600080fd5b919050565b600060208284031215611f8457600080fd5b611f8d82611f56565b9392505050565b803560ff81168114611f6d57600080fd5b600060208284031215611fb757600080fd5b611f8d82611f94565b60008060408385031215611fd357600080fd5b611fdc83611f56565b946020939093013593505050565b60008083601f840112611ffc57600080fd5b50813567ffffffffffffffff81111561201457600080fd5b60208301915083602082850101111561202c57600080fd5b9250929050565b6000806000806060858703121561204957600080fd5b8435935060208501359250604085013567ffffffffffffffff81111561206e57600080fd5b61207a87828801611fea565b95989497509550505050565b6020808252825182820181905260009190848201906040850190845b818110156120be578351835292840192918401916001016120a2565b50909695505050505050565b634e487b7160e01b600052602160045260246000fd5b600281106120f0576120f06120ca565b9052565b8a81526001600160a01b038a8116602083015289811660408301526060820189905260ff8816608083015261014082019061213260a08401896120e0565b60058710612142576121426120ca565b8660c084015280861660e08401525083610100830152826101208301529b9a5050505050505050505050565b60008060008060006080868803121561218657600080fd5b8535945061219660208701611f56565b935060408601359250606086013567ffffffffffffffff8111156121b957600080fd5b6121c588828901611fea565b969995985093965092949392505050565b600080604083850312156121e957600080fd5b6121f283611f94565b915060208301356002811061220657600080fd5b809150509250929050565b6020808252600d908201526c2937b7b6903737ba1037b832b760991b604082015260600190565b634e487b7160e01b600052601160045260246000fd5b80820281158282048414176119fb576119fb612238565b808201808211156119fb576119fb612238565b6020808252600e908201526d149bdbdb481b9bdd08199bdd5b9960921b604082015260600190565b6020808252600f908201526e149bdbdb481b9bdd08199a5b1b1959608a1b604082015260600190565b6000602082840312156122db57600080fd5b5051919050565b6000826122ff57634e487b7160e01b600052601260045260246000fd5b500490565b60006001820161231657612316612238565b5060010190565b60ff841681526060810161233460208301856120e0565b82604083015294935050505056fea2646970667358221220f50a1bc15814a9c03372f0294965c1a7d16517df621046fcd6420d04d09fdb1d64736f6c63430008140033",
  "linkReferences": {},
  "deployedLinkReferences": {}
}