{
  "_format": "hh-sol-artifact-1",
  "contractName": "FlipRoyalePackShop",
  "sourceName": "contracts/FlipRoyalePackShop.sol",
  "abi": [
    {
      "inputs": [
        {
          "internalType": "address",
          "name": "_virtualToken",
          "type": "address"
        },
        {
          "internalType": "address",
          "name": "_treasury",
          "type": "address"
        }
      ],
      "stateMutability": "nonpayable",
      "type": "constructor"
    },
    {
      "inputs": [
        {
          "internalType": "address",
          "name": "owner",
          "type": "address"
        }
      ],
      "name": "OwnableInvalidOwner",
      "type": "error"
    },
    {
      "inputs": [
        {
          "internalType": "address",
          "name": "account",
          "type": "address"
        }
      ],
      "name": "OwnableUnauthorizedAccount",
      "type": "error"
    },
    {
      "inputs": [],
      "name": "ReentrancyGuardReentrantCall",
      "type": "error"
    },
    {
      "inputs": [
        {
          "internalType": "address",
          "name": "token",
          "type": "address"
        }
      ],
      "name": "SafeERC20FailedOperation",
      "type": "error"
    },
    {
      "anonymous": false,
      "inputs": [
        {
          "indexed": false,
          "internalType": "uint256",
          "name": "newRate",
          "type": "uint256"
        }
      ],
      "name": "CommissionRateUpdated",
      "type": "event"
    },
    {
      "anonymous": false,
      "inputs": [
        {
          "indexed": true,
          "internalType": "address",
          "name": "previousOwner",
          "type": "address"
        },
        {
          "indexed": true,
          "internalType": "address",
          "name": "newOwner",
          "type": "address"
        }
      ],
      "name": "OwnershipTransferred",
      "type": "event"
    },
    {
      "anonymous": false,
      "inputs": [
        {
          "indexed": true,
          "internalType": "address",
          "name": "buyer",
          "type": "address"
        },
        {
          "indexed": false,
          "internalType": "uint8",
          "name": "packType",
          "type": "uint8"
        },
        {
          "indexed": false,
          "internalType": "uint256",
          "name": "quantity",
          "type": "uint256"
        },
        {
          "indexed": false,
          "internalType": "uint256",
          "name": "totalPrice",
          "type": "uint256"
        },
        {
          "indexed": true,
          "internalType": "address",
          "name": "referrer",
          "type": "address"
        },
        {
          "indexed": false,
          "internalType": "uint256",
          "name": "referralCommission",
          "type": "uint256"
        }
      ],
      "name": "PackPurchased",
      "type": "event"
    },
    {
      "anonymous": false,
      "inputs": [
        {
          "indexed": false,
          "internalType": "uint256",
          "name": "commonPrice",
          "type": "uint256"
        },
        {
          "indexed": false,
          "internalType": "uint256",
          "name": "rarePrice",
          "type": "uint256"
        }
      ],
      "name": "PricesUpdated",
      "type": "event"
    },
    {
      "anonymous": false,
      "inputs": [
        {
          "indexed": true,
          "internalType": "address",
          "name": "user",
          "type": "address"
        },
        {
          "indexed": true,
          "internalType": "address",
          "name": "referrer",
          "type": "address"
        }
      ],
      "name": "ReferrerSet",
      "type": "event"
    },
    {
      "anonymous": false,
      "inputs": [
        {
          "indexed": false,
          "internalType": "address",
          "name": "newTreasury",
          "type": "address"
        }
      ],
      "name": "TreasuryUpdated",
      "type": "event"
    },
    {
      "inputs": [],
      "name": "RATE_DENOMINATOR",
      "outputs": [
        {
          "internalType": "uint256",
          "name": "",
          "type": "uint256"
        }
      ],
      "stateMutability": "view",
      "type": "function"
    },
    {
      "inputs": [
        {
          "internalType": "uint8",
          "name": "packType",
          "type": "uint8"
        },
        {
          "internalType": "uint256",
          "name": "quantity",
          "type": "uint256"
        }
      ],
      "name": "buyPack",
      "outputs": [],
      "stateMutability": "nonpayable",
      "type": "function"
    },
    {
      "inputs": [
        {
          "internalType": "uint8",
          "name": "packType",
          "type": "uint8"
        },
        {
          "internalType": "uint256",
          "name": "quantity",
          "type": "uint256"
        },
        {
          "internalType": "address",
          "name": "referrer",
          "type": "address"
        }
      ],
      "name": "buyPackWithReferrer",
      "outputs": [],
      "stateMutability": "nonpayable",
      "type": "function"
    },
    {
      "inputs": [],
      "name": "commonPackPrice",
      "outputs": [
        {
          "internalType": "uint256",
          "name": "",
          "type": "uint256"
        }
      ],
      "stateMutability": "view",
      "type": "function"
    },
    {
      "inputs": [
        {
          "internalType": "uint8",
          "name": "packType",
          "type": "uint8"
        }
      ],
      "name": "getPackPrice",
      "outputs": [
        {
          "internalType": "uint256",
          "name": "",
          "type": "uint256"
        }
      ],
      "stateMutability": "view",
      "type": "function"
    },
    {
      "inputs": [
        {
          "internalType": "address",
          "name": "user",
          "type": "address"
        }
      ],
      "name": "getReferralInfo",
      "outputs": [
        {
          "internalType": "address",
          "name": "referrer",
          "type": "address"
        },
        {
          "internalType": "uint256",
          "name": "packsPurchased",
          "type": "uint256"
        },
        {
          "internalType": "uint256",
          "name": "totalEarned",
          "type": "uint256"
        }
      ],
      "stateMutability": "view",
      "type": "function"
    },
    {
      "inputs": [],
      "name": "owner",
      "outputs": [
        {
          "internalType": "address",
          "name": "",
          "type": "address"
        }
      ],
      "stateMutability": "view",
      "type": "function"
    },
    {
      "inputs": [
        {
          "internalType": "address",
          "name": "",
          "type": "address"
        }
      ],
      "name": "packsPurchasedBy",
      "outputs": [
        {
          "internalType": "uint256",
          "name": "",
          "type": "uint256"
        }
      ],
      "stateMutability": "view",
      "type": "function"
    },
    {
      "inputs": [],
      "name": "rarePackPrice",
      "outputs": [
        {
          "internalType": "uint256",
          "name": "",
          "type": "uint256"
        }
      ],
      "stateMutability": "view",
      "type": "function"
    },
    {
      "inputs": [],
      "name": "referralCommissionRate",
      "outputs": [
        {
          "internalType": "uint256",
          "name": "",
          "type": "uint256"
        }
      ],
      "stateMutability": "view",
      "type": "function"
    },
    {
      "inputs": [
        {
          "internalType": "address",
          "name": "",
          "type": "address"
        }
      ],
      "name": "referrerOf",
      "outputs": [
        {
          "internalType": "address",
          "name": "",
          "type": "address"
        }
      ],
      "stateMutability": "view",
      "type": "function"
    },
    {
      "inputs": [],
      "name": "renounceOwnership",
      "outputs": [],
      "stateMutability": "nonpayable",
      "type": "function"
    },
    {
      "inputs": [
        {
          "internalType": "address",
          "name": "token",
          "type": "address"
        },
        {
          "internalType": "uint256",
          "name": "amount",
          "type": "uint256"
        }
      ],
      "name": "rescueTokens",
      "outputs": [],
      "stateMutability": "nonpayable",
      "type": "function"
    },
    {
      "inputs": [
        {
          "internalType": "address",
          "name": "referrer",
          "type": "address"
        }
      ],
      "name": "setReferrer",
      "outputs": [],
      "stateMutability": "nonpayable",
      "type": "function"
    },
    {
      "inputs": [
        {
          "internalType": "address",
          "name": "",
          "type": "address"
        }
      ],
      "name": "totalEarnedByReferrer",
      "outputs": [
        {
          "internalType": "uint256",
          "name": "",
          "type": "uint256"
        }
      ],
      "stateMutability": "view",
      "type": "function"
    },
    {
      "inputs": [
        {
          "internalType": "address",
          "name": "newOwner",
          "type": "address"
        }
      ],
      "name": "transferOwnership",
      "outputs": [],
      "stateMutability": "nonpayable",
      "type": "function"
    },
    {
      "inputs": [],
      "name": "treasury",
      "outputs": [
        {
          "internalType": "address",
          "name": "",
          "type": "address"
        }
      ],
      "stateMutability": "view",
      "type": "function"
    },
    {
      "inputs": [
        {
          "internalType": "uint256",
          "name": "_rate",
          "type": "uint256"
        }
      ],
      "name": "updateCommissionRate",
      "outputs": [],
      "stateMutability": "nonpayable",
      "type": "function"
    },
    {
      "inputs": [
        {
          "internalType": "uint256",
          "name": "_commonPrice",
          "type": "uint256"
        },
        {
          "internalType": "uint256",
          "name": "_rarePrice",
          "type": "uint256"
        }
      ],
      "name": "updatePrices",
      "outputs": [],
      "stateMutability": "nonpayable",
      "type": "function"
    },
    {
      "inputs": [
        {
          "internalType": "address",
          "name": "_treasury",
          "type": "address"
        }
      ],
      "name": "updateTreasury",
      "outputs": [],
      "stateMutability": "nonpayable",
      "type": "function"
    },
    {
      "inputs": [],
      "name": "virtualToken",
      "outputs": [
        {
          "internalType": "contract IERC20",
          "name": "",
          "type": "address"
        }
      ],
      "stateMutability": "view",
      "type": "function"
    }
  ],
  "bytecode": "0x60a0604052674563918244f4000060025567d02ab486cedc0000600355606460045534801561002d57600080fd5b50604051620010263803806200102683398101604081905261004e916101a6565b338061007557604051631e4fbdf760e01b8152600060048201526024015b60405180910390fd5b61007e8161013a565b50600180556001600160a01b0382166100c95760405162461bcd60e51b815260206004820152600d60248201526c24b73b30b634b2103a37b5b2b760991b604482015260640161006c565b6001600160a01b0381166101125760405162461bcd60e51b815260206004820152601060248201526f496e76616c696420747265617375727960801b604482015260640161006c565b6001600160a01b03918216608052600580546001600160a01b031916919092161790556101d9565b600080546001600160a01b038381166001600160a01b0319831681178455604051919092169283917f8be0079c531659141344cd1fd0a4f28419497f9722a3daafe3b4186f6b6457e09190a35050565b80516001600160a01b03811681146101a157600080fd5b919050565b600080604083850312156101b957600080fd5b6101c28361018a565b91506101d06020840161018a565b90509250929050565b608051610e1c6200020a600039600081816101550152818161083f0152818161087701526108e40152610e1c6000f3fe608060405234801561001057600080fd5b50600436106101365760003560e01c80638da5cb5b116100b8578063d21cacdf1161007c578063d21cacdf146102cf578063d30ef61b146102f8578063da4bf01b14610301578063ef88d7f014610314578063f2fde38b14610327578063fbeb5d7d1461033a57600080fd5b80638da5cb5b1461026f578063a18a7bfc14610280578063a6001f6214610293578063b0fc38c4146102a6578063b0fd07c8146102af57600080fd5b806361d027b3116100ff57806361d027b314610221578063715018a6146102345780637efad8e01461023c5780637f51bb1f14610253578063831c38791461026657600080fd5b8062fa3d501461013b5780631f514c521461015057806321874ae2146101945780633a925a3f146101fb578063573761981461020e575b600080fd5b61014e610149366004610c4a565b61035a565b005b6101777f000000000000000000000000000000000000000000000000000000000000000081565b6040516001600160a01b0390911681526020015b60405180910390f35b6101d66101a2366004610c7f565b6001600160a01b03908116600090815260066020908152604080832054600883528184205460079093529220549190921692565b604080516001600160a01b03909416845260208401929092529082015260600161018b565b61014e610209366004610cb2565b6103ea565b61014e61021c366004610cee565b6104e6565b600554610177906001600160a01b031681565b61014e610518565b6102456103e881565b60405190815260200161018b565b61014e610261366004610c7f565b61052c565b61024560025481565b6000546001600160a01b0316610177565b61014e61028e366004610c7f565b6105cb565b61014e6102a1366004610d18565b610718565b61024560035481565b6102456102bd366004610c7f565b60076020526000908152604090205481565b6101776102dd366004610c7f565b6006602052600090815260409020546001600160a01b031681565b61024560045481565b61024561030f366004610d34565b610998565b61014e610322366004610d4f565b6109b5565b61014e610335366004610c7f565b610a51565b610245610348366004610c7f565b60086020526000908152604090205481565b610362610a8f565b61012c8111156103ae5760405162461bcd60e51b815260206004820152601260248201527126b0bc101998129031b7b6b6b4b9b9b4b7b760711b60448201526064015b60405180910390fd5b60048190556040518181527fd3e90a6443d7dbfb11d15fa44fad50afa5261f9a0c8678a0a4e8a5174e194325906020015b60405180910390a150565b336000908152600660205260409020546001600160a01b031615801561041857506001600160a01b03811615155b801561042d57506001600160a01b0381163314155b15610487573360008181526006602052604080822080546001600160a01b0319166001600160a01b03861690811790915590519092917f5f7165288eef601591cf549e15ff19ef9060b7f71b9c115be946fa1fe7ebf68a91a35b6040516353000fb160e11b815260ff8416600482015260248101839052309063a6001f6290604401600060405180830381600087803b1580156104c957600080fd5b505af11580156104dd573d6000803e3d6000fd5b50505050505050565b6104ee610a8f565b6105146105036000546001600160a01b031690565b6001600160a01b0384169083610abc565b5050565b610520610a8f565b61052a6000610b20565b565b610534610a8f565b6001600160a01b03811661057d5760405162461bcd60e51b815260206004820152601060248201526f496e76616c696420747265617375727960801b60448201526064016103a5565b600580546001600160a01b0319166001600160a01b0383169081179091556040519081527f7dae230f18360d76a040c81f050aa14eb9d6dc7901b20fc5d855e2a20fe814d1906020016103df565b336000908152600660205260409020546001600160a01b0316156106285760405162461bcd60e51b8152602060048201526014602482015273149959995c9c995c88185b1c9958591e481cd95d60621b60448201526064016103a5565b336001600160a01b038216036106785760405162461bcd60e51b815260206004820152601560248201527421b0b73737ba103932b332b9103cb7bab939b2b63360591b60448201526064016103a5565b6001600160a01b0381166106c15760405162461bcd60e51b815260206004820152601060248201526f24b73b30b634b2103932b332b93932b960811b60448201526064016103a5565b3360008181526006602052604080822080546001600160a01b0319166001600160a01b03861690811790915590519092917f5f7165288eef601591cf549e15ff19ef9060b7f71b9c115be946fa1fe7ebf68a91a350565b610720610b70565b6000811180156107315750600a8111155b6107705760405162461bcd60e51b815260206004820152601060248201526f496e76616c6964207175616e7469747960801b60448201526064016103a5565b60018260ff1611156107b85760405162461bcd60e51b8152602060048201526011602482015270496e76616c6964207061636b207479706560781b60448201526064016103a5565b600060ff8316156107cb576003546107cf565b6002545b905060006107dd8383610d87565b336000908152600660205260408120549192506001600160a01b039091169081156108d3576103e8600454846108139190610d87565b61081d9190610d9e565b9050600061082b8285610dc0565b60055490915061086a906001600160a01b037f000000000000000000000000000000000000000000000000000000000000000081169133911684610b9a565b61089f6001600160a01b037f000000000000000000000000000000000000000000000000000000000000000016338585610b9a565b6001600160a01b038316600090815260076020526040812080548492906108c7908490610dd3565b9091555061090f915050565b60055461090f906001600160a01b037f000000000000000000000000000000000000000000000000000000000000000081169133911686610b9a565b336000908152600860205260408120805487929061092e908490610dd3565b90915550506040805160ff8816815260208101879052908101849052606081018290526001600160a01b0383169033907ffda8aeaeefd53183e7ace79f304b072108e5350854a8b8e3c63e11319bb77b9c9060800160405180910390a35050505061051460018055565b600060ff8216156109ab576003546109af565b6002545b92915050565b6109bd610a8f565b6000821180156109cd5750600081115b610a0a5760405162461bcd60e51b815260206004820152600e60248201526d496e76616c69642070726963657360901b60448201526064016103a5565b6002829055600381905560408051838152602081018390527f6546f60f34df611fa42503098acc39d5ab88bc73febe64b3cc14e5a92e3a66a7910160405180910390a15050565b610a59610a8f565b6001600160a01b038116610a8357604051631e4fbdf760e01b8152600060048201526024016103a5565b610a8c81610b20565b50565b6000546001600160a01b0316331461052a5760405163118cdaa760e01b81523360048201526024016103a5565b6040516001600160a01b03838116602483015260448201839052610b1b91859182169063a9059cbb906064015b604051602081830303815290604052915060e01b6020820180516001600160e01b038381831617835250505050610bd9565b505050565b600080546001600160a01b038381166001600160a01b0319831681178455604051919092169283917f8be0079c531659141344cd1fd0a4f28419497f9722a3daafe3b4186f6b6457e09190a35050565b600260015403610b9357604051633ee5aeb560e01b815260040160405180910390fd5b6002600155565b6040516001600160a01b038481166024830152838116604483015260648201839052610bd39186918216906323b872dd90608401610ae9565b50505050565b600080602060008451602086016000885af180610bfc576040513d6000823e3d81fd5b50506000513d91508115610c14578060011415610c21565b6001600160a01b0384163b155b15610bd357604051635274afe760e01b81526001600160a01b03851660048201526024016103a5565b600060208284031215610c5c57600080fd5b5035919050565b80356001600160a01b0381168114610c7a57600080fd5b919050565b600060208284031215610c9157600080fd5b610c9a82610c63565b9392505050565b803560ff81168114610c7a57600080fd5b600080600060608486031215610cc757600080fd5b610cd084610ca1565b925060208401359150610ce560408501610c63565b90509250925092565b60008060408385031215610d0157600080fd5b610d0a83610c63565b946020939093013593505050565b60008060408385031215610d2b57600080fd5b610d0a83610ca1565b600060208284031215610d4657600080fd5b610c9a82610ca1565b60008060408385031215610d6257600080fd5b50508035926020909101359150565b634e487b7160e01b600052601160045260246000fd5b80820281158282048414176109af576109af610d71565b600082610dbb57634e487b7160e01b600052601260045260246000fd5b500490565b818103818111156109af576109af610d71565b808201808211156109af576109af610d7156fea2646970667358221220e6d9e22c4deeb669d4acd3e61853134afa7ebce7864403b5e0226c1a898eb9ef64736f6c63430008140033",
  "linkReferences": {},
  "deployedLinkReferences": {}
}