{
  "_format": "hh-sol-artifact-1",
  "contractName": "FlipRoyalePackShopV3",
  "sourceName": "contracts/FlipRoyalePackShopV3.sol",
  "abi": [
    {
      "inputs": [
        {
          "internalType": "address",
          "name": "_virtualToken",
          "type": "address"
        },
        {
          "internalType": "address",
          "name": "_treasury",
          "type": "address"
        }
      ],
      "stateMutability": "nonpayable",
      "type": "constructor"
    },
    {
      "inputs": [
        {
          "internalType": "address",
          "name": "owner",
          "type": "address"
        }
      ],
      "name": "OwnableInvalidOwner",
      "type": "error"
    },
    {
      "inputs": [
        {
          "internalType": "address",
          "name": "account",
          "type": "address"
        }
      ],
      "name": "OwnableUnauthorizedAccount",
      "type": "error"
    },
    {
      "inputs": [],
      "name": "ReentrancyGuardReentrantCall",
      "type": "error"
    },
    {
      "inputs": [
        {
          "internalType": "address",
          "name": "token",
          "type": "address"
        }
      ],
      "name": "SafeERC20FailedOperation",
      "type": "error"
    },
    {
      "anonymous": false,
      "inputs": [
        {
          "indexed": false,
          "internalType": "uint256",
          "name": "newRate",
          "type": "uint256"
        }
      ],
      "name": "CommissionRateUpdated",
      "type": "event"
    },
    {
      "anonymous": false,
      "inputs": [
        {
          "indexed": true,
          "internalType": "address",
          "name": "previousOwner",
          "type": "address"
        },
        {
          "indexed": true,
          "internalType": "address",
          "name": "newOwner",
          "type": "address"
        }
      ],
      "name": "OwnershipTransferred",
      "type": "event"
    },
    {
      "anonymous": false,
      "inputs": [
        {
          "indexed": true,
          "internalType": "address",
          "name": "buyer",
          "type": "address"
        },
        {
          "indexed": false,
          "internalType": "uint8",
          "name": "packType",
          "type": "uint8"
        },
        {
          "indexed": false,
          "internalType": "uint256",
          "name": "quantity",
          "type": "uint256"
        },
        {
          "indexed": false,
          "internalType": "uint256",
          "name": "totalPrice",
          "type": "uint256"
        },
        {
          "indexed": true,
          "internalType": "address",
          "name": "referrer",
          "type": "address"
        },
        {
          "indexed": false,
          "internalType": "uint256",
          "name": "referralCommission",
          "type": "uint256"
        }
      ],
      "name": "PackPurchased",
      "type": "event"
    },
    {
      "anonymous": false,
      "inputs": [
        {
          "indexed": false,
          "internalType": "uint8",
          "name": "packType",
          "type": "uint8"
        },
        {
          "indexed": false,
          "internalType": "uint256",
          "name": "newPrice",
          "type": "uint256"
        }
      ],
      "name": "PriceUpdated",
      "type": "event"
    },
    {
      "anonymous": false,
      "inputs": [
        {
          "indexed": true,
          "internalType": "address",
          "name": "user",
          "type": "address"
        },
        {
          "indexed": true,
          "internalType": "address",
          "name": "referrer",
          "type": "address"
        }
      ],
      "name": "ReferrerSet",
      "type": "event"
    },
    {
      "anonymous": false,
      "inputs": [
        {
          "indexed": false,
          "internalType": "address",
          "name": "newTreasury",
          "type": "address"
        }
      ],
      "name": "TreasuryUpdated",
      "type": "event"
    },
    {
      "inputs": [],
      "name": "RATE_DENOMINATOR",
      "outputs": [
        {
          "internalType": "uint256",
          "name": "",
          "type": "uint256"
        }
      ],
      "stateMutability": "view",
      "type": "function"
    },
    {
      "inputs": [
        {
          "internalType": "uint8",
          "name": "packType",
          "type": "uint8"
        },
        {
          "internalType": "uint256",
          "name": "quantity",
          "type": "uint256"
        }
      ],
      "name": "buyPack",
      "outputs": [],
      "stateMutability": "nonpayable",
      "type": "function"
    },
    {
      "inputs": [
        {
          "internalType": "uint8",
          "name": "packType",
          "type": "uint8"
        },
        {
          "internalType": "uint256",
          "name": "quantity",
          "type": "uint256"
        },
        {
          "internalType": "address",
          "name": "referrer",
          "type": "address"
        }
      ],
      "name": "buyPackWithReferrer",
      "outputs": [],
      "stateMutability": "nonpayable",
      "type": "function"
    },
    {
      "inputs": [],
      "name": "commonPackPrice",
      "outputs": [
        {
          "internalType": "uint256",
          "name": "",
          "type": "uint256"
        }
      ],
      "stateMutability": "view",
      "type": "function"
    },
    {
      "inputs": [],
      "name": "genesisPackPrice",
      "outputs": [
        {
          "internalType": "uint256",
          "name": "",
          "type": "uint256"
        }
      ],
      "stateMutability": "view",
      "type": "function"
    },
    {
      "inputs": [],
      "name": "getAllPackPrices",
      "outputs": [
        {
          "internalType": "uint256",
          "name": "common",
          "type": "uint256"
        },
        {
          "internalType": "uint256",
          "name": "rare",
          "type": "uint256"
        },
        {
          "internalType": "uint256",
          "name": "unicorn",
          "type": "uint256"
        },
        {
          "internalType": "uint256",
          "name": "genesis",
          "type": "uint256"
        },
        {
          "internalType": "uint256",
          "name": "sentient",
          "type": "uint256"
        }
      ],
      "stateMutability": "view",
      "type": "function"
    },
    {
      "inputs": [
        {
          "internalType": "uint8",
          "name": "packType",
          "type": "uint8"
        }
      ],
      "name": "getPackPrice",
      "outputs": [
        {
          "internalType": "uint256",
          "name": "",
          "type": "uint256"
        }
      ],
      "stateMutability": "view",
      "type": "function"
    },
    {
      "inputs": [
        {
          "internalType": "address",
          "name": "user",
          "type": "address"
        }
      ],
      "name": "getReferralInfo",
      "outputs": [
        {
          "internalType": "address",
          "name": "referrer",
          "type": "address"
        },
        {
          "internalType": "uint256",
          "name": "packsPurchased",
          "type": "uint256"
        },
        {
          "internalType": "uint256",
          "name": "totalEarned",
          "type": "uint256"
        }
      ],
      "stateMutability": "view",
      "type": "function"
    },
    {
      "inputs": [],
      "name": "getTotalSales",
      "outputs": [
        {
          "internalType": "uint256",
          "name": "common",
          "type": "uint256"
        },
        {
          "internalType": "uint256",
          "name": "rare",
          "type": "uint256"
        },
        {
          "internalType": "uint256",
          "name": "unicorn",
          "type": "uint256"
        },
        {
          "internalType": "uint256",
          "name": "genesis",
          "type": "uint256"
        },
        {
          "internalType": "uint256",
          "name": "sentient",
          "type": "uint256"
        }
      ],
      "stateMutability": "view",
      "type": "function"
    },
    {
      "inputs": [],
      "name": "owner",
      "outputs": [
        {
          "internalType": "address",
          "name": "",
          "type": "address"
        }
      ],
      "stateMutability": "view",
      "type": "function"
    },
    {
      "inputs": [
        {
          "internalType": "address",
          "name": "",
          "type": "address"
        }
      ],
      "name": "packsPurchasedBy",
      "outputs": [
        {
          "internalType": "uint256",
          "name": "",
          "type": "uint256"
        }
      ],
      "stateMutability": "view",
      "type": "function"
    },
    {
      "inputs": [],
      "name": "rarePackPrice",
      "outputs": [
        {
          "internalType": "uint256",
          "name": "",
          "type": "uint256"
        }
      ],
      "stateMutability": "view",
      "type": "function"
    },
    {
      "inputs": [],
      "name": "referralCommissionRate",
      "outputs": [
        {
          "internalType": "uint256",
          "name": "",
          "type": "uint256"
        }
      ],
      "stateMutability": "view",
      "type": "function"
    },
    {
      "inputs": [
        {
          "internalType": "address",
          "name": "",
          "type": "address"
        }
      ],
      "name": "referrerOf",
      "outputs": [
        {
          "internalType": "address",
          "name": "",
          "type": "address"
        }
      ],
      "stateMutability": "view",
      "type": "function"
    },
    {
      "inputs": [],
      "name": "renounceOwnership",
      "outputs": [],
      "stateMutability": "nonpayable",
      "type": "function"
    },
    {
      "inputs": [
        {
          "internalType": "address",
          "name": "token",
          "type": "address"
        },
        {
          "internalType": "uint256",
          "name": "amount",
          "type": "uint256"
        }
      ],
      "name": "rescueTokens",
      "outputs": [],
      "stateMutability": "nonpayable",
      "type": "function"
    },
    {
      "inputs": [],
      "name": "sentientPackPrice",
      "outputs": [
        {
          "internalType": "uint256",
          "name": "",
          "type": "uint256"
        }
      ],
      "stateMutability": "view",
      "type": "function"
    },
    {
      "inputs": [
        {
          "internalType": "address",
          "name": "referrer",
          "type": "address"
        }
      ],
      "name": "setReferrer",
      "outputs": [],
      "stateMutability": "nonpayable",
      "type": "function"
    },
    {
      "inputs": [
        {
          "internalType": "address",
          "name": "",
          "type": "address"
        }
      ],
      "name": "totalEarnedByReferrer",
      "outputs": [
        {
          "internalType": "uint256",
          "name": "",
          "type": "uint256"
        }
      ],
      "stateMutability": "view",
      "type": "function"
    },
    {
      "inputs": [
        {
          "internalType": "uint8",
          "name": "",
          "type": "uint8"
        }
      ],
      "name": "totalPacksSoldByType",
      "outputs": [
        {
          "internalType": "uint256",
          "name": "",
          "type": "uint256"
        }
      ],
      "stateMutability": "view",
      "type": "function"
    },
    {
      "inputs": [
        {
          "internalType": "address",
          "name": "newOwner",
          "type": "address"
        }
      ],
      "name": "transferOwnership",
      "outputs": [],
      "stateMutability": "nonpayable",
      "type": "function"
    },
    {
      "inputs": [],
      "name": "treasury",
      "outputs": [
        {
          "internalType": "address",
          "name": "",
          "type": "address"
        }
      ],
      "stateMutability": "view",
      "type": "function"
    },
    {
      "inputs": [],
      "name": "unicornPackPrice",
      "outputs": [
        {
          "internalType": "uint256",
          "name": "",
          "type": "uint256"
        }
      ],
      "stateMutability": "view",
      "type": "function"
    },
    {
      "inputs": [
        {
          "internalType": "uint256",
          "name": "_common",
          "type": "uint256"
        },
        {
          "internalType": "uint256",
          "name": "_rare",
          "type": "uint256"
        },
        {
          "internalType": "uint256",
          "name": "_unicorn",
          "type": "uint256"
        },
        {
          "internalType": "uint256",
          "name": "_genesis",
          "type": "uint256"
        },
        {
          "internalType": "uint256",
          "name": "_sentient",
          "type": "uint256"
        }
      ],
      "name": "updateAllPrices",
      "outputs": [],
      "stateMutability": "nonpayable",
      "type": "function"
    },
    {
      "inputs": [
        {
          "internalType": "uint256",
          "name": "_rate",
          "type": "uint256"
        }
      ],
      "name": "updateCommissionRate",
      "outputs": [],
      "stateMutability": "nonpayable",
      "type": "function"
    },
    {
      "inputs": [
        {
          "internalType": "uint8",
          "name": "packType",
          "type": "uint8"
        },
        {
          "internalType": "uint256",
          "name": "newPrice",
          "type": "uint256"
        }
      ],
      "name": "updatePackPrice",
      "outputs": [],
      "stateMutability": "nonpayable",
      "type": "function"
    },
    {
      "inputs": [
        {
          "internalType": "address",
          "name": "_treasury",
          "type": "address"
        }
      ],
      "name": "updateTreasury",
      "outputs": [],
      "stateMutability": "nonpayable",
      "type": "function"
    },
    {
      "inputs": [],
      "name": "virtualToken",
      "outputs": [
        {
          "internalType": "contract IERC20",
          "name": "",
          "type": "address"
        }
      ],
      "stateMutability": "view",
      "type": "function"
    }
  ],
  "bytecode": "0x60a0604052690a968163f0a57b40000060025569152d02c7e14af6800000600355690a968163f0a57b400000600455690a968163f0a57b400000600555690a968163f0a57b40000060065560646007553480156200005c57600080fd5b5060405162001776380380620017768339810160408190526200007f91620001e0565b3380620000a757604051631e4fbdf760e01b8152600060048201526024015b60405180910390fd5b620000b28162000173565b50600180556001600160a01b038216620000ff5760405162461bcd60e51b815260206004820152600d60248201526c24b73b30b634b2103a37b5b2b760991b60448201526064016200009e565b6001600160a01b0381166200014a5760405162461bcd60e51b815260206004820152601060248201526f496e76616c696420747265617375727960801b60448201526064016200009e565b6001600160a01b03918216608052600880546001600160a01b0319169190921617905562000218565b600080546001600160a01b038381166001600160a01b0319831681178455604051919092169283917f8be0079c531659141344cd1fd0a4f28419497f9722a3daafe3b4186f6b6457e09190a35050565b80516001600160a01b0381168114620001db57600080fd5b919050565b60008060408385031215620001f457600080fd5b620001ff83620001c3565b91506200020f60208401620001c3565b90509250929050565b6080516115186200025e600039600081816101e2015281816109bd015281816109f501528181610a6201528181610ff20152818161102a015261109701526115186000f3fe608060405234801561001057600080fd5b50600436106101c35760003560e01c8063a2b8ed78116100f9578063d21cacdf11610097578063e9420e0311610071578063e9420e03146104d7578063f2fde38b146104e0578063fbeb5d7d146104f3578063fc7668e41461051357600080fd5b8063d21cacdf14610492578063d30ef61b146104bb578063da4bf01b146104c457600080fd5b8063b0fd07c8116100d3578063b0fd07c814610436578063b6e04d6814610456578063be76c6ad1461045f578063cf6853921461047f57600080fd5b8063a2b8ed7814610406578063a6001f621461041a578063b0fc38c41461042d57600080fd5b8063715018a611610166578063831c387911610140578063831c3879146103d05780638a873f30146103d95780638da5cb5b146103e2578063a18a7bfc146103f357600080fd5b8063715018a61461039e5780637efad8e0146103a65780637f51bb1f146103bd57600080fd5b806321874ae2116101a257806321874ae2146102fe5780633a925a3f14610365578063573761981461037857806361d027b31461038b57600080fd5b8062fa3d50146101c85780631f514c52146101dd5780632156a96c14610221575b600080fd5b6101db6101d6366004611307565b610526565b005b6102047f000000000000000000000000000000000000000000000000000000000000000081565b6040516001600160a01b0390911681526020015b60405180910390f35b600c6020527f13649b2456f1b42fef0f0040b3aaeabcd21a76a0f3f5defd4f583839455116e8547fd421a5181c571bba3f01190c922c3b2a896fc1d84e86c9f17ac10e67ebef8b5c547f5d6016397a73f5e079297ac5a36fef17b4d9c3831618e63ab105738020ddd720547fc0da782485e77ae272268ae0a3ff44c1552ecb60b3743924de17a815e0a3cfd75460046000527f5b84bb9e0f5aa9cc45a8bb66468db5d4816d1e75ff86b5e1f1dd8d144dab8097545b604080519586526020860194909452928401919091526060830152608082015260a001610218565b61034061030c36600461133c565b6001600160a01b03908116600090815260096020908152604080832054600b835281842054600a9093529220549190921692565b604080516001600160a01b039094168452602084019290925290820152606001610218565b6101db61037336600461136f565b6105b6565b6101db6103863660046113ab565b610663565b600854610204906001600160a01b031681565b6101db610695565b6103af6103e881565b604051908152602001610218565b6101db6103cb36600461133c565b6106a9565b6103af60025481565b6103af60055481565b6000546001600160a01b0316610204565b6101db61040136600461133c565b610748565b6002546003546004546005546006546102d6565b6101db6104283660046113d5565b610895565b6103af60035481565b6103af61044436600461133c565b600a6020526000908152604090205481565b6103af60045481565b6103af61046d3660046113f1565b600c6020526000908152604090205481565b6101db61048d3660046113d5565b610b3d565b6102046104a036600461133c565b6009602052600090815260409020546001600160a01b031681565b6103af60075481565b6103af6104d23660046113f1565b610c60565b6103af60065481565b6101db6104ee36600461133c565b610cfd565b6103af61050136600461133c565b600b6020526000908152604090205481565b6101db61052136600461140c565b610d3b565b61052e610e9c565b61012c81111561057a5760405162461bcd60e51b815260206004820152601260248201527126b0bc101998129031b7b6b6b4b9b9b4b7b760711b60448201526064015b60405180910390fd5b60078190556040518181527fd3e90a6443d7dbfb11d15fa44fad50afa5261f9a0c8678a0a4e8a5174e194325906020015b60405180910390a150565b336000908152600960205260409020546001600160a01b03161580156105e457506001600160a01b03811615155b80156105f957506001600160a01b0381163314155b15610653573360008181526009602052604080822080546001600160a01b0319166001600160a01b03861690811790915590519092917f5f7165288eef601591cf549e15ff19ef9060b7f71b9c115be946fa1fe7ebf68a91a35b61065e338484610ec9565b505050565b61066b610e9c565b6106916106806000546001600160a01b031690565b6001600160a01b038416908361117e565b5050565b61069d610e9c565b6106a760006111dd565b565b6106b1610e9c565b6001600160a01b0381166106fa5760405162461bcd60e51b815260206004820152601060248201526f496e76616c696420747265617375727960801b6044820152606401610571565b600880546001600160a01b0319166001600160a01b0383169081179091556040519081527f7dae230f18360d76a040c81f050aa14eb9d6dc7901b20fc5d855e2a20fe814d1906020016105ab565b336000908152600960205260409020546001600160a01b0316156107a55760405162461bcd60e51b8152602060048201526014602482015273149959995c9c995c88185b1c9958591e481cd95d60621b6044820152606401610571565b336001600160a01b038216036107f55760405162461bcd60e51b815260206004820152601560248201527421b0b73737ba103932b332b9103cb7bab939b2b63360591b6044820152606401610571565b6001600160a01b03811661083e5760405162461bcd60e51b815260206004820152601060248201526f24b73b30b634b2103932b332b93932b960811b6044820152606401610571565b3360008181526009602052604080822080546001600160a01b0319166001600160a01b03861690811790915590519092917f5f7165288eef601591cf549e15ff19ef9060b7f71b9c115be946fa1fe7ebf68a91a350565b61089d61122d565b6000811180156108ae5750600a8111155b6108f45760405162461bcd60e51b8152602060048201526017602482015276496e76616c6964207175616e746974792028312d31302960481b6044820152606401610571565b60048260ff1611156109425760405162461bcd60e51b8152602060048201526017602482015276496e76616c6964207061636b20747970652028302d342960481b6044820152606401610571565b600061094d83610c60565b9050600061095b838361145d565b336000908152600960205260408120549192506001600160a01b03909116908115610a51576103e860075484610991919061145d565b61099b919061147a565b905060006109a9828561149c565b6008549091506109e8906001600160a01b037f000000000000000000000000000000000000000000000000000000000000000081169133911684611257565b610a1d6001600160a01b037f000000000000000000000000000000000000000000000000000000000000000016338585611257565b6001600160a01b0383166000908152600a602052604081208054849290610a459084906114af565b90915550610a8d915050565b600854610a8d906001600160a01b037f000000000000000000000000000000000000000000000000000000000000000081169133911686611257565b336000908152600b602052604081208054879290610aac9084906114af565b909155505060ff86166000908152600c602052604081208054879290610ad39084906114af565b90915550506040805160ff8816815260208101879052908101849052606081018290526001600160a01b0383169033907ffda8aeaeefd53183e7ace79f304b072108e5350854a8b8e3c63e11319bb77b9c9060800160405180910390a35050505061069160018055565b610b45610e9c565b60008111610b855760405162461bcd60e51b815260206004820152600d60248201526c496e76616c696420707269636560981b6044820152606401610571565b60048260ff161115610bcd5760405162461bcd60e51b8152602060048201526011602482015270496e76616c6964207061636b207479706560781b6044820152606401610571565b8160ff16600003610be2576002819055610c32565b8160ff16600103610bf7576003819055610c32565b8160ff16600203610c0c576004819055610c32565b8160ff16600303610c21576005819055610c32565b8160ff16600403610c325760068190555b6040805160ff84168152602081018390526000805160206114c3833981519152910160405180910390a15050565b60008160ff16600003610c7557505060025490565b8160ff16600103610c8857505060035490565b8160ff16600203610c9b57505060045490565b8160ff16600303610cae57505060055490565b8160ff16600403610cc157505060065490565b60405162461bcd60e51b8152602060048201526011602482015270496e76616c6964207061636b207479706560781b6044820152606401610571565b610d05610e9c565b6001600160a01b038116610d2f57604051631e4fbdf760e01b815260006004820152602401610571565b610d38816111dd565b50565b610d43610e9c565b600085118015610d535750600084115b8015610d5f5750600083115b8015610d6b5750600082115b8015610d775750600081115b610db45760405162461bcd60e51b815260206004820152600e60248201526d496e76616c69642070726963657360901b6044820152606401610571565b600285905560038490556004839055600582905560068190556040805160008152602081018790526000805160206114c3833981519152910160405180910390a16040805160018152602081018690526000805160206114c3833981519152910160405180910390a16040805160028152602081018590526000805160206114c3833981519152910160405180910390a16040805160038152602081018490526000805160206114c3833981519152910160405180910390a16040805160048152602081018390526000805160206114c3833981519152910160405180910390a15050505050565b6000546001600160a01b031633146106a75760405163118cdaa760e01b8152336004820152602401610571565b610ed161122d565b600081118015610ee25750600a8111155b610f285760405162461bcd60e51b8152602060048201526017602482015276496e76616c6964207175616e746974792028312d31302960481b6044820152606401610571565b60048260ff161115610f765760405162461bcd60e51b8152602060048201526017602482015276496e76616c6964207061636b20747970652028302d342960481b6044820152606401610571565b6000610f8183610c60565b90506000610f8f838361145d565b6001600160a01b038087166000908152600960205260408120549293509116908115611086576103e860075484610fc6919061145d565b610fd0919061147a565b90506000610fde828561149c565b60085490915061101d906001600160a01b037f00000000000000000000000000000000000000000000000000000000000000008116918b911684611257565b6110526001600160a01b037f000000000000000000000000000000000000000000000000000000000000000016898585611257565b6001600160a01b0383166000908152600a60205260408120805484929061107a9084906114af565b909155506110c2915050565b6008546110c2906001600160a01b037f00000000000000000000000000000000000000000000000000000000000000008116918a911686611257565b6001600160a01b0387166000908152600b6020526040812080548792906110ea9084906114af565b909155505060ff86166000908152600c6020526040812080548792906111119084906114af565b90915550506040805160ff8816815260208101879052908101849052606081018290526001600160a01b0380841691908916907ffda8aeaeefd53183e7ace79f304b072108e5350854a8b8e3c63e11319bb77b9c9060800160405180910390a35050505061065e60018055565b6040516001600160a01b0383811660248301526044820183905261065e91859182169063a9059cbb906064015b604051602081830303815290604052915060e01b6020820180516001600160e01b038381831617835250505050611296565b600080546001600160a01b038381166001600160a01b0319831681178455604051919092169283917f8be0079c531659141344cd1fd0a4f28419497f9722a3daafe3b4186f6b6457e09190a35050565b60026001540361125057604051633ee5aeb560e01b815260040160405180910390fd5b6002600155565b6040516001600160a01b0384811660248301528381166044830152606482018390526112909186918216906323b872dd906084016111ab565b50505050565b600080602060008451602086016000885af1806112b9576040513d6000823e3d81fd5b50506000513d915081156112d15780600114156112de565b6001600160a01b0384163b155b1561129057604051635274afe760e01b81526001600160a01b0385166004820152602401610571565b60006020828403121561131957600080fd5b5035919050565b80356001600160a01b038116811461133757600080fd5b919050565b60006020828403121561134e57600080fd5b61135782611320565b9392505050565b803560ff8116811461133757600080fd5b60008060006060848603121561138457600080fd5b61138d8461135e565b9250602084013591506113a260408501611320565b90509250925092565b600080604083850312156113be57600080fd5b6113c783611320565b946020939093013593505050565b600080604083850312156113e857600080fd5b6113c78361135e565b60006020828403121561140357600080fd5b6113578261135e565b600080600080600060a0868803121561142457600080fd5b505083359560208501359550604085013594606081013594506080013592509050565b634e487b7160e01b600052601160045260246000fd5b808202811582820484141761147457611474611447565b92915050565b60008261149757634e487b7160e01b600052601260045260246000fd5b500490565b8181038181111561147457611474611447565b808201808211156114745761147461144756fef798c75b2db09ea1034d9be253e9974b17bbe4a06f2b0ff6695054fa5b747191a264697066735822122091679fffb96ab0abc39b0cb73462d76273db838ebb346f81118905df71cb34eb64736f6c63430008140033",
  "linkReferences": {},
  "deployedLinkReferences": {}
}