{
  "_format": "hh-sol-artifact-1",
  "contractName": "FlipRoyaleArena",
  "sourceName": "contracts/FlipRoyaleArena.sol",
  "abi": [
    {
      "inputs": [
        {
          "internalType": "address",
          "name": "_usdc",
          "type": "address"
        },
        {
          "internalType": "address",
          "name": "_treasury",
          "type": "address"
        },
        {
          "internalType": "address",
          "name": "_oracle",
          "type": "address"
        }
      ],
      "stateMutability": "nonpayable",
      "type": "constructor"
    },
    {
      "inputs": [],
      "name": "ECDSAInvalidSignature",
      "type": "error"
    },
    {
      "inputs": [
        {
          "internalType": "uint256",
          "name": "length",
          "type": "uint256"
        }
      ],
      "name": "ECDSAInvalidSignatureLength",
      "type": "error"
    },
    {
      "inputs": [
        {
          "internalType": "bytes32",
          "name": "s",
          "type": "bytes32"
        }
      ],
      "name": "ECDSAInvalidSignatureS",
      "type": "error"
    },
    {
      "inputs": [],
      "name": "EnforcedPause",
      "type": "error"
    },
    {
      "inputs": [],
      "name": "ExpectedPause",
      "type": "error"
    },
    {
      "inputs": [
        {
          "internalType": "address",
          "name": "owner",
          "type": "address"
        }
      ],
      "name": "OwnableInvalidOwner",
      "type": "error"
    },
    {
      "inputs": [
        {
          "internalType": "address",
          "name": "account",
          "type": "address"
        }
      ],
      "name": "OwnableUnauthorizedAccount",
      "type": "error"
    },
    {
      "inputs": [],
      "name": "ReentrancyGuardReentrantCall",
      "type": "error"
    },
    {
      "inputs": [
        {
          "internalType": "address",
          "name": "token",
          "type": "address"
        }
      ],
      "name": "SafeERC20FailedOperation",
      "type": "error"
    },
    {
      "anonymous": false,
      "inputs": [
        {
          "indexed": true,
          "internalType": "address",
          "name": "newOracle",
          "type": "address"
        }
      ],
      "name": "OracleUpdated",
      "type": "event"
    },
    {
      "anonymous": false,
      "inputs": [
        {
          "indexed": true,
          "internalType": "address",
          "name": "previousOwner",
          "type": "address"
        },
        {
          "indexed": true,
          "internalType": "address",
          "name": "newOwner",
          "type": "address"
        }
      ],
      "name": "OwnershipTransferred",
      "type": "event"
    },
    {
      "anonymous": false,
      "inputs": [
        {
          "indexed": false,
          "internalType": "address",
          "name": "account",
          "type": "address"
        }
      ],
      "name": "Paused",
      "type": "event"
    },
    {
      "anonymous": false,
      "inputs": [
        {
          "indexed": true,
          "internalType": "bytes32",
          "name": "roomId",
          "type": "bytes32"
        },
        {
          "indexed": true,
          "internalType": "address",
          "name": "player1",
          "type": "address"
        }
      ],
      "name": "RoomCancelled",
      "type": "event"
    },
    {
      "anonymous": false,
      "inputs": [
        {
          "indexed": true,
          "internalType": "bytes32",
          "name": "roomId",
          "type": "bytes32"
        },
        {
          "indexed": true,
          "internalType": "address",
          "name": "player1",
          "type": "address"
        },
        {
          "indexed": false,
          "internalType": "uint8",
          "name": "tier",
          "type": "uint8"
        },
        {
          "indexed": false,
          "internalType": "enum FlipRoyaleArena.GameMode",
          "name": "gameMode",
          "type": "uint8"
        },
        {
          "indexed": false,
          "internalType": "uint256",
          "name": "stake",
          "type": "uint256"
        }
      ],
      "name": "RoomCreated",
      "type": "event"
    },
    {
      "anonymous": false,
      "inputs": [
        {
          "indexed": true,
          "internalType": "bytes32",
          "name": "roomId",
          "type": "bytes32"
        },
        {
          "indexed": true,
          "internalType": "address",
          "name": "player1",
          "type": "address"
        },
        {
          "indexed": true,
          "internalType": "address",
          "name": "player2",
          "type": "address"
        },
        {
          "indexed": false,
          "internalType": "uint256",
          "name": "refundAmount",
          "type": "uint256"
        }
      ],
      "name": "RoomDraw",
      "type": "event"
    },
    {
      "anonymous": false,
      "inputs": [
        {
          "indexed": true,
          "internalType": "bytes32",
          "name": "roomId",
          "type": "bytes32"
        },
        {
          "indexed": true,
          "internalType": "address",
          "name": "player2",
          "type": "address"
        }
      ],
      "name": "RoomJoined",
      "type": "event"
    },
    {
      "anonymous": false,
      "inputs": [
        {
          "indexed": true,
          "internalType": "bytes32",
          "name": "roomId",
          "type": "bytes32"
        },
        {
          "indexed": true,
          "internalType": "address",
          "name": "winner",
          "type": "address"
        },
        {
          "indexed": false,
          "internalType": "uint256",
          "name": "winnerPayout",
          "type": "uint256"
        },
        {
          "indexed": false,
          "internalType": "uint256",
          "name": "teamFee",
          "type": "uint256"
        },
        {
          "indexed": false,
          "internalType": "uint256",
          "name": "replyCorpFee",
          "type": "uint256"
        }
      ],
      "name": "RoomResolved",
      "type": "event"
    },
    {
      "anonymous": false,
      "inputs": [
        {
          "indexed": false,
          "internalType": "uint8",
          "name": "tier",
          "type": "uint8"
        },
        {
          "indexed": false,
          "internalType": "uint256",
          "name": "newStake",
          "type": "uint256"
        }
      ],
      "name": "TierStakeUpdated",
      "type": "event"
    },
    {
      "anonymous": false,
      "inputs": [
        {
          "indexed": true,
          "internalType": "address",
          "name": "newTreasury",
          "type": "address"
        }
      ],
      "name": "TreasuryUpdated",
      "type": "event"
    },
    {
      "anonymous": false,
      "inputs": [
        {
          "indexed": false,
          "internalType": "address",
          "name": "account",
          "type": "address"
        }
      ],
      "name": "Unpaused",
      "type": "event"
    },
    {
      "inputs": [],
      "name": "FEE_RATE",
      "outputs": [
        {
          "internalType": "uint256",
          "name": "",
          "type": "uint256"
        }
      ],
      "stateMutability": "view",
      "type": "function"
    },
    {
      "inputs": [],
      "name": "RATE_DENOMINATOR",
      "outputs": [
        {
          "internalType": "uint256",
          "name": "",
          "type": "uint256"
        }
      ],
      "stateMutability": "view",
      "type": "function"
    },
    {
      "inputs": [],
      "name": "WINNER_RATE",
      "outputs": [
        {
          "internalType": "uint256",
          "name": "",
          "type": "uint256"
        }
      ],
      "stateMutability": "view",
      "type": "function"
    },
    {
      "inputs": [
        {
          "internalType": "uint256",
          "name": "",
          "type": "uint256"
        }
      ],
      "name": "allRoomIds",
      "outputs": [
        {
          "internalType": "bytes32",
          "name": "",
          "type": "bytes32"
        }
      ],
      "stateMutability": "view",
      "type": "function"
    },
    {
      "inputs": [],
      "name": "bronzeStake",
      "outputs": [
        {
          "internalType": "uint256",
          "name": "",
          "type": "uint256"
        }
      ],
      "stateMutability": "view",
      "type": "function"
    },
    {
      "inputs": [
        {
          "internalType": "bytes32",
          "name": "roomId",
          "type": "bytes32"
        }
      ],
      "name": "cancelRoom",
      "outputs": [],
      "stateMutability": "nonpayable",
      "type": "function"
    },
    {
      "inputs": [
        {
          "internalType": "uint8",
          "name": "tier",
          "type": "uint8"
        },
        {
          "internalType": "enum FlipRoyaleArena.GameMode",
          "name": "gameMode",
          "type": "uint8"
        }
      ],
      "name": "createRoom",
      "outputs": [
        {
          "internalType": "bytes32",
          "name": "roomId",
          "type": "bytes32"
        }
      ],
      "stateMutability": "nonpayable",
      "type": "function"
    },
    {
      "inputs": [],
      "name": "diamondStake",
      "outputs": [
        {
          "internalType": "uint256",
          "name": "",
          "type": "uint256"
        }
      ],
      "stateMutability": "view",
      "type": "function"
    },
    {
      "inputs": [],
      "name": "getAllTierStakes",
      "outputs": [
        {
          "internalType": "uint256",
          "name": "bronze",
          "type": "uint256"
        },
        {
          "internalType": "uint256",
          "name": "silver",
          "type": "uint256"
        },
        {
          "internalType": "uint256",
          "name": "gold",
          "type": "uint256"
        },
        {
          "internalType": "uint256",
          "name": "diamond",
          "type": "uint256"
        }
      ],
      "stateMutability": "view",
      "type": "function"
    },
    {
      "inputs": [
        {
          "internalType": "uint8",
          "name": "tier",
          "type": "uint8"
        },
        {
          "internalType": "uint256",
          "name": "offset",
          "type": "uint256"
        },
        {
          "internalType": "uint256",
          "name": "limit",
          "type": "uint256"
        }
      ],
      "name": "getOpenRooms",
      "outputs": [
        {
          "internalType": "bytes32[]",
          "name": "roomIds",
          "type": "bytes32[]"
        },
        {
          "internalType": "uint256",
          "name": "total",
          "type": "uint256"
        }
      ],
      "stateMutability": "view",
      "type": "function"
    },
    {
      "inputs": [
        {
          "internalType": "bytes32",
          "name": "roomId",
          "type": "bytes32"
        }
      ],
      "name": "getRoom",
      "outputs": [
        {
          "components": [
            {
              "internalType": "bytes32",
              "name": "id",
              "type": "bytes32"
            },
            {
              "internalType": "address",
              "name": "player1",
              "type": "address"
            },
            {
              "internalType": "address",
              "name": "player2",
              "type": "address"
            },
            {
              "internalType": "uint256",
              "name": "stake",
              "type": "uint256"
            },
            {
              "internalType": "uint8",
              "name": "tier",
              "type": "uint8"
            },
            {
              "internalType": "enum FlipRoyaleArena.GameMode",
              "name": "gameMode",
              "type": "uint8"
            },
            {
              "internalType": "enum FlipRoyaleArena.RoomStatus",
              "name": "status",
              "type": "uint8"
            },
            {
              "internalType": "address",
              "name": "winner",
              "type": "address"
            },
            {
              "internalType": "uint256",
              "name": "createdAt",
              "type": "uint256"
            },
            {
              "internalType": "uint256",
              "name": "resolvedAt",
              "type": "uint256"
            }
          ],
          "internalType": "struct FlipRoyaleArena.Room",
          "name": "",
          "type": "tuple"
        }
      ],
      "stateMutability": "view",
      "type": "function"
    },
    {
      "inputs": [
        {
          "internalType": "uint8",
          "name": "tier",
          "type": "uint8"
        }
      ],
      "name": "getTierStake",
      "outputs": [
        {
          "internalType": "uint256",
          "name": "",
          "type": "uint256"
        }
      ],
      "stateMutability": "view",
      "type": "function"
    },
    {
      "inputs": [],
      "name": "getTotalRoomsCount",
      "outputs": [
        {
          "internalType": "uint256",
          "name": "",
          "type": "uint256"
        }
      ],
      "stateMutability": "view",
      "type": "function"
    },
    {
      "inputs": [
        {
          "internalType": "address",
          "name": "user",
          "type": "address"
        }
      ],
      "name": "getUserRooms",
      "outputs": [
        {
          "internalType": "bytes32[]",
          "name": "",
          "type": "bytes32[]"
        }
      ],
      "stateMutability": "view",
      "type": "function"
    },
    {
      "inputs": [
        {
          "internalType": "address",
          "name": "user",
          "type": "address"
        }
      ],
      "name": "getUserStats",
      "outputs": [
        {
          "internalType": "uint256",
          "name": "wins",
          "type": "uint256"
        },
        {
          "internalType": "uint256",
          "name": "losses",
          "type": "uint256"
        },
        {
          "internalType": "uint256",
          "name": "totalWinnings",
          "type": "uint256"
        },
        {
          "internalType": "uint256",
          "name": "roomCount",
          "type": "uint256"
        }
      ],
      "stateMutability": "view",
      "type": "function"
    },
    {
      "inputs": [],
      "name": "goldStake",
      "outputs": [
        {
          "internalType": "uint256",
          "name": "",
          "type": "uint256"
        }
      ],
      "stateMutability": "view",
      "type": "function"
    },
    {
      "inputs": [
        {
          "internalType": "bytes32",
          "name": "roomId",
          "type": "bytes32"
        }
      ],
      "name": "joinRoom",
      "outputs": [],
      "stateMutability": "nonpayable",
      "type": "function"
    },
    {
      "inputs": [],
      "name": "oracle",
      "outputs": [
        {
          "internalType": "address",
          "name": "",
          "type": "address"
        }
      ],
      "stateMutability": "view",
      "type": "function"
    },
    {
      "inputs": [],
      "name": "owner",
      "outputs": [
        {
          "internalType": "address",
          "name": "",
          "type": "address"
        }
      ],
      "stateMutability": "view",
      "type": "function"
    },
    {
      "inputs": [],
      "name": "pause",
      "outputs": [],
      "stateMutability": "nonpayable",
      "type": "function"
    },
    {
      "inputs": [],
      "name": "paused",
      "outputs": [
        {
          "internalType": "bool",
          "name": "",
          "type": "bool"
        }
      ],
      "stateMutability": "view",
      "type": "function"
    },
    {
      "inputs": [],
      "name": "renounceOwnership",
      "outputs": [],
      "stateMutability": "nonpayable",
      "type": "function"
    },
    {
      "inputs": [
        {
          "internalType": "address",
          "name": "token",
          "type": "address"
        },
        {
          "internalType": "uint256",
          "name": "amount",
          "type": "uint256"
        }
      ],
      "name": "rescueTokens",
      "outputs": [],
      "stateMutability": "nonpayable",
      "type": "function"
    },
    {
      "inputs": [
        {
          "internalType": "bytes32",
          "name": "roomId",
          "type": "bytes32"
        },
        {
          "internalType": "address",
          "name": "winner",
          "type": "address"
        },
        {
          "internalType": "bytes32",
          "name": "nonce",
          "type": "bytes32"
        },
        {
          "internalType": "bytes",
          "name": "signature",
          "type": "bytes"
        }
      ],
      "name": "resolveRoom",
      "outputs": [],
      "stateMutability": "nonpayable",
      "type": "function"
    },
    {
      "inputs": [
        {
          "internalType": "bytes32",
          "name": "roomId",
          "type": "bytes32"
        },
        {
          "internalType": "bytes32",
          "name": "nonce",
          "type": "bytes32"
        },
        {
          "internalType": "bytes",
          "name": "signature",
          "type": "bytes"
        }
      ],
      "name": "resolveRoomDraw",
      "outputs": [],
      "stateMutability": "nonpayable",
      "type": "function"
    },
    {
      "inputs": [
        {
          "internalType": "bytes32",
          "name": "",
          "type": "bytes32"
        }
      ],
      "name": "rooms",
      "outputs": [
        {
          "internalType": "bytes32",
          "name": "id",
          "type": "bytes32"
        },
        {
          "internalType": "address",
          "name": "player1",
          "type": "address"
        },
        {
          "internalType": "address",
          "name": "player2",
          "type": "address"
        },
        {
          "internalType": "uint256",
          "name": "stake",
          "type": "uint256"
        },
        {
          "internalType": "uint8",
          "name": "tier",
          "type": "uint8"
        },
        {
          "internalType": "enum FlipRoyaleArena.GameMode",
          "name": "gameMode",
          "type": "uint8"
        },
        {
          "internalType": "enum FlipRoyaleArena.RoomStatus",
          "name": "status",
          "type": "uint8"
        },
        {
          "internalType": "address",
          "name": "winner",
          "type": "address"
        },
        {
          "internalType": "uint256",
          "name": "createdAt",
          "type": "uint256"
        },
        {
          "internalType": "uint256",
          "name": "resolvedAt",
          "type": "uint256"
        }
      ],
      "stateMutability": "view",
      "type": "function"
    },
    {
      "inputs": [],
      "name": "silverStake",
      "outputs": [
        {
          "internalType": "uint256",
          "name": "",
          "type": "uint256"
        }
      ],
      "stateMutability": "view",
      "type": "function"
    },
    {
      "inputs": [
        {
          "internalType": "uint8",
          "name": "",
          "type": "uint8"
        }
      ],
      "name": "totalRoomsByTier",
      "outputs": [
        {
          "internalType": "uint256",
          "name": "",
          "type": "uint256"
        }
      ],
      "stateMutability": "view",
      "type": "function"
    },
    {
      "inputs": [
        {
          "internalType": "uint8",
          "name": "",
          "type": "uint8"
        }
      ],
      "name": "totalVolumeByTier",
      "outputs": [
        {
          "internalType": "uint256",
          "name": "",
          "type": "uint256"
        }
      ],
      "stateMutability": "view",
      "type": "function"
    },
    {
      "inputs": [
        {
          "internalType": "address",
          "name": "newOwner",
          "type": "address"
        }
      ],
      "name": "transferOwnership",
      "outputs": [],
      "stateMutability": "nonpayable",
      "type": "function"
    },
    {
      "inputs": [],
      "name": "treasury",
      "outputs": [
        {
          "internalType": "address",
          "name": "",
          "type": "address"
        }
      ],
      "stateMutability": "view",
      "type": "function"
    },
    {
      "inputs": [],
      "name": "unpause",
      "outputs": [],
      "stateMutability": "nonpayable",
      "type": "function"
    },
    {
      "inputs": [
        {
          "internalType": "address",
          "name": "_oracle",
          "type": "address"
        }
      ],
      "name": "updateOracle",
      "outputs": [],
      "stateMutability": "nonpayable",
      "type": "function"
    },
    {
      "inputs": [
        {
          "internalType": "uint8",
          "name": "tier",
          "type": "uint8"
        },
        {
          "internalType": "uint256",
          "name": "newStake",
          "type": "uint256"
        }
      ],
      "name": "updateTierStake",
      "outputs": [],
      "stateMutability": "nonpayable",
      "type": "function"
    },
    {
      "inputs": [
        {
          "internalType": "address",
          "name": "_treasury",
          "type": "address"
        }
      ],
      "name": "updateTreasury",
      "outputs": [],
      "stateMutability": "nonpayable",
      "type": "function"
    },
    {
      "inputs": [],
      "name": "usdc",
      "outputs": [
        {
          "internalType": "contract IERC20",
          "name": "",
          "type": "address"
        }
      ],
      "stateMutability": "view",
      "type": "function"
    },
    {
      "inputs": [
        {
          "internalType": "bytes32",
          "name": "",
          "type": "bytes32"
        }
      ],
      "name": "usedNonces",
      "outputs": [
        {
          "internalType": "bool",
          "name": "",
          "type": "bool"
        }
      ],
      "stateMutability": "view",
      "type": "function"
    },
    {
      "inputs": [
        {
          "internalType": "address",
          "name": "",
          "type": "address"
        }
      ],
      "name": "userLosses",
      "outputs": [
        {
          "internalType": "uint256",
          "name": "",
          "type": "uint256"
        }
      ],
      "stateMutability": "view",
      "type": "function"
    },
    {
      "inputs": [
        {
          "internalType": "address",
          "name": "",
          "type": "address"
        },
        {
          "internalType": "uint256",
          "name": "",
          "type": "uint256"
        }
      ],
      "name": "userRooms",
      "outputs": [
        {
          "internalType": "bytes32",
          "name": "",
          "type": "bytes32"
        }
      ],
      "stateMutability": "view",
      "type": "function"
    },
    {
      "inputs": [
        {
          "internalType": "address",
          "name": "",
          "type": "address"
        }
      ],
      "name": "userTotalWinnings",
      "outputs": [
        {
          "internalType": "uint256",
          "name": "",
          "type": "uint256"
        }
      ],
      "stateMutability": "view",
      "type": "function"
    },
    {
      "inputs": [
        {
          "internalType": "address",
          "name": "",
          "type": "address"
        }
      ],
      "name": "userWins",
      "outputs": [
        {
          "internalType": "uint256",
          "name": "",
          "type": "uint256"
        }
      ],
      "stateMutability": "view",
      "type": "function"
    }
  ],
  "bytecode": "0x60a06040526298968060035563017d78406004556302faf0806005556305f5e1006006553480156200003057600080fd5b50604051620028d1380380620028d183398101604081905262000053916200020a565b33806200007b57604051631e4fbdf760e01b8152600060048201526024015b60405180910390fd5b62000086816200019d565b50600180556001600160a01b038316620000d25760405162461bcd60e51b815260206004820152600c60248201526b496e76616c6964205553444360a01b604482015260640162000072565b6001600160a01b0382166200011d5760405162461bcd60e51b815260206004820152601060248201526f496e76616c696420747265617375727960801b604482015260640162000072565b6001600160a01b038116620001665760405162461bcd60e51b815260206004820152600e60248201526d496e76616c6964206f7261636c6560901b604482015260640162000072565b6001600160a01b03928316608052600780549284166001600160a01b03199384161790556008805491909316911617905562000254565b600080546001600160a01b038381166001600160a01b0319831681178455604051919092169283917f8be0079c531659141344cd1fd0a4f28419497f9722a3daafe3b4186f6b6457e09190a35050565b80516001600160a01b03811681146200020557600080fd5b919050565b6000806000606084860312156200022057600080fd5b6200022b84620001ed565b92506200023b60208501620001ed565b91506200024b60408501620001ed565b90509250925092565b608051612629620002a86000396000818161035801528181610a0901528181610afc01528181610f7d015281816111f10152818161123c0152818161183c0152818161187401526119a201526126296000f3fe608060405234801561001057600080fd5b50600436106102535760003560e01c80637651313a11610146578063b01e7961116100c3578063e08fe1e611610087578063e08fe1e614610608578063e7c23f401461061b578063e9d2ee6a14610624578063ee192d131461062d578063f2fde38b14610640578063feb617241461065357600080fd5b8063b01e796114610514578063cdaf4ad514610534578063d274798614610554578063d7fbc2e41461055c578063e040d9f3146105e857600080fd5b8063857c5a911161010a578063857c5a91146104b45780638da5cb5b146104bd57806392776b4f146104ce578063a1fbda63146104e1578063ad9a2866146104f457600080fd5b80637651313a1461045d5780637dc0d1d01461047d5780637efad8e0146104905780637f51bb1f146104995780638456cb59146104ac57600080fd5b80632faf9fb3116101d4578063573761981161019857806357376198146103f75780635c975abb1461040a57806361d027b3146104215780637135516214610434578063715018a61461045557600080fd5b80632faf9fb3146103265780633e413bee146103535780633f4ba83a146103925780634b29b4c41461039a5780634e43603a146103ad57600080fd5b80631cb44dfc1161021b5780631cb44dfc146102cf57806320493ab4146102e257806322543746146102eb57806327b612d11461030b5780632d11c58a1461031e57600080fd5b8063020885d114610258578063088574421461027e5780631144400a1461029e57806313c92920146102a75780631abb2211146102bc575b600080fd5b61026b6102663660046120dd565b610676565b6040519081526020015b60405180910390f35b61026b61028c366004612112565b600e6020526000908152604090205481565b61026b60065481565b6102ba6102b5366004612145565b610697565b005b61026b6102ca36600461216f565b610798565b6102ba6102dd366004612112565b6107fe565b61026b60055481565b61026b6102f936600461216f565b60106020526000908152604090205481565b61026b61031936600461218a565b610897565b61026b606481565b6003546004546005546006545b604080519485526020850193909352918301526060820152608001610275565b61037a7f000000000000000000000000000000000000000000000000000000000000000081565b6040516001600160a01b039091168152602001610275565b6102ba6108c8565b6102ba6103a83660046120dd565b6108da565b6103336103bb366004612112565b6001600160a01b03166000908152600c6020908152604080832054600d835281842054600e845282852054600b90945291909320549293909290565b6102ba61040536600461218a565b610af2565b60025460ff165b6040519015158152602001610275565b60075461037a906001600160a01b031681565b6104476104423660046121a6565b610b9a565b604051610275929190612214565b6102ba610dd7565b61026b61046b366004612112565b600c6020526000908152604090205481565b60085461037a906001600160a01b031681565b61026b6103e881565b6102ba6104a7366004612112565b610de9565b6102ba610e84565b61026b61038481565b6000546001600160a01b031661037a565b6102ba6104dc3660046120dd565b610e94565b6102ba6104ef36600461227f565b610fdc565b6105076105023660046120dd565b6112cd565b604051610275919061230c565b610527610522366004612112565b61142d565b60405161027591906123c9565b61026b61054236600461216f565b600f6020526000908152604090205481565b600a5461026b565b6105d261056a3660046120dd565b600960205260009081526040902080546001820154600283015460038401546004850154600586015460069096015494956001600160a01b039485169593851694929360ff80841694610100850482169462010000810490921693630100000090920416918a565b6040516102759a999897969594939291906123dc565b61026b6105f6366004612112565b600d6020526000908152604090205481565b6102ba61061636600461244b565b611499565b61026b60035481565b61026b60045481565b61026b61063b3660046124b3565b611902565b6102ba61064e366004612112565b611c18565b6104116106613660046120dd565b60116020526000908152604090205460ff1681565b600a818154811061068657600080fd5b600091825260209091200154905081565b61069f611c53565b600081116106e45760405162461bcd60e51b815260206004820152600d60248201526c496e76616c6964207374616b6560981b60448201526064015b60405180910390fd5b60038260ff1611156107085760405162461bcd60e51b81526004016106db906124ee565b8160ff1660000361071d576003819055610758565b8160ff16600103610732576004819055610758565b8160ff16600203610747576005819055610758565b8160ff166003036107585760068190555b6040805160ff84168152602081018390527fc8b1a09ccda86e58aabb19262e8e9acbd055e76acf4a202df94418079a29401c910160405180910390a15050565b60008160ff166000036107ad57505060035490565b8160ff166001036107c057505060045490565b8160ff166002036107d357505060055490565b8160ff166003036107e657505060065490565b60405162461bcd60e51b81526004016106db906124ee565b610806611c53565b6001600160a01b03811661084d5760405162461bcd60e51b815260206004820152600e60248201526d496e76616c6964206f7261636c6560901b60448201526064016106db565b600880546001600160a01b0319166001600160a01b0383169081179091556040517f3df77beb5db05fcdd70a30fc8adf3f83f9501b68579455adbd100b818094039490600090a250565b600b60205281600052604060002081815481106108b357600080fd5b90600052602060002001600091509150505481565b6108d0611c53565b6108d8611c80565b565b6108e2611cd2565b6108ea611cfc565b600081815260096020526040902060018101546001600160a01b03166109435760405162461bcd60e51b815260206004820152600e60248201526d149bdbdb481b9bdd08199bdd5b9960921b60448201526064016106db565b600060048281015462010000900460ff1690811115610964576109646122d2565b146109a15760405162461bcd60e51b815260206004820152600d60248201526c2937b7b6903737ba1037b832b760991b60448201526064016106db565b6001810154336001600160a01b03909116036109f65760405162461bcd60e51b815260206004820152601460248201527343616e6e6f74206a6f696e206f776e20726f6f6d60601b60448201526064016106db565b6003810154610a33906001600160a01b037f0000000000000000000000000000000000000000000000000000000000000000169033903090611d20565b600281810180546001600160a01b0319163390811790915560048301805462ff00001916620100001790556000908152600b60209081526040822080546001810182559083529120018390556003820154610a8d9161252a565b600482015460ff1660009081526010602052604081208054909190610ab3908490612541565b9091555050604051339083907ffba1ad45cc33aed2e8c4f2c3558e076e3b43d01b218179472de7109107a65f8190600090a350610aef60018055565b50565b610afa611c53565b7f00000000000000000000000000000000000000000000000000000000000000006001600160a01b0316826001600160a01b031603610b705760405162461bcd60e51b815260206004820152601260248201527143616e6e6f7420726573637565205553444360701b60448201526064016106db565b610b96610b856000546001600160a01b031690565b6001600160a01b0384169083611d87565b5050565b6060600080805b600a54811015610c4057600060096000600a8481548110610bc457610bc4612554565b600091825260208083209091015483528201929092526040019020600481015490915060ff908116908916148015610c1a5750600060048281015462010000900460ff1690811115610c1857610c186122d2565b145b15610c2d5782610c298161256a565b9350505b5080610c388161256a565b915050610ba1565b50809150808510610c6257506040805160008152602081019091529150610dcf565b6000610c6e8683612599565b90506000858210610c7f5785610c81565b815b90508067ffffffffffffffff811115610c9c57610c9c612583565b604051908082528060200260200182016040528015610cc5578160200160208202803683370190505b50945060008060005b600a5481108015610cde57508382105b15610dc857600060096000600a8481548110610cfc57610cfc612554565b600091825260208083209091015483528201929092526040019020600481015490915060ff908116908d16148015610d525750600060048281015462010000900460ff1690811115610d5057610d506122d2565b145b15610db5578a8410610da757600a8281548110610d7157610d71612554565b9060005260206000200154898481518110610d8e57610d8e612554565b602090810291909101015282610da38161256a565b9350505b83610db18161256a565b9450505b5080610dc08161256a565b915050610cce565b5050505050505b935093915050565b610ddf611c53565b6108d86000611dbd565b610df1611c53565b6001600160a01b038116610e3a5760405162461bcd60e51b815260206004820152601060248201526f496e76616c696420747265617375727960801b60448201526064016106db565b600780546001600160a01b0319166001600160a01b0383169081179091556040517f7dae230f18360d76a040c81f050aa14eb9d6dc7901b20fc5d855e2a20fe814d190600090a250565b610e8c611c53565b6108d8611e0d565b610e9c611cd2565b600081815260096020526040902060018101546001600160a01b03163314610ef95760405162461bcd60e51b815260206004820152601060248201526f2737ba103937b7b69031b932b0ba37b960811b60448201526064016106db565b600060048281015462010000900460ff1690811115610f1a57610f1a6122d2565b14610f575760405162461bcd60e51b815260206004820152600d60248201526c10d85b9b9bdd0818d85b98d95b609a1b60448201526064016106db565b60048101805462ff00001916620400001790556003810154610fa5906001600160a01b037f000000000000000000000000000000000000000000000000000000000000000016903390611d87565b604051339083907fcb0b396d88450068151be81530319ec9262bb40342de883160c350b166a7fa7190600090a350610aef60018055565b610fe4611cd2565b6000848152600960205260409020600160048281015462010000900460ff1690811115611013576110136122d2565b146110525760405162461bcd60e51b815260206004820152600f60248201526e149bdbdb481b9bdd08199a5b1b1959608a1b60448201526064016106db565b60008481526011602052604090205460ff16156110a65760405162461bcd60e51b8152602060048201526012602482015271139bdb98d948185b1c9958591e481d5cd95960721b60448201526064016106db565b6040805160208082018890526000828401819052605480840189905284518085039091018152607490930190935281519101207f19457468657265756d205369676e6564204d6573736167653a0a3332000000008252601c819052603c8220909150600061114c86868080601f0160208091040260200160405190810160405280939291908181526020018383808284376000920191909152508693925050611e4a9050565b6008549091506001600160a01b038083169116146111a75760405162461bcd60e51b8152602060048201526018602482015277496e76616c6964206f7261636c65207369676e617475726560401b60448201526064016106db565b60008781526011602052604090208054600160ff19909116811790915560048501805462010000600160b81b031916620300001790554260068601558401546003850154611224917f00000000000000000000000000000000000000000000000000000000000000006001600160a01b0390811692911690611d87565b60028401546003850154611266916001600160a01b037f0000000000000000000000000000000000000000000000000000000000000000811692911690611d87565b6002840154600185015460038601546040519081526001600160a01b0392831692909116908a907f6a5fa74a4a27db85d0ae7bf90b00022cd6023cfff19567aa95a2d862fbad62a29060200160405180910390a4505050506112c760018055565b50505050565b61132c604080516101408101825260008082526020820181905291810182905260608101829052608081018290529060a082019081526020016000815260200160006001600160a01b0316815260200160008152602001600081525090565b600082815260096020908152604091829020825161014081018452815481526001808301546001600160a01b039081169483019490945260028301549093169381019390935260038101546060840152600481015460ff8082166080860152919260a0850192610100909204909116908111156113ab576113ab6122d2565b60018111156113bc576113bc6122d2565b81526020016004820160029054906101000a900460ff1660048111156113e4576113e46122d2565b60048111156113f5576113f56122d2565b81526004820154630100000090046001600160a01b031660208201526005820154604082015260069091015460609091015292915050565b6001600160a01b0381166000908152600b602090815260409182902080548351818402810184019094528084526060939283018282801561148d57602002820191906000526020600020905b815481526020019060010190808311611479575b50505050509050919050565b6114a1611cd2565b6000858152600960205260409020600160048281015462010000900460ff16908111156114d0576114d06122d2565b1461150f5760405162461bcd60e51b815260206004820152600f60248201526e149bdbdb481b9bdd08199a5b1b1959608a1b60448201526064016106db565b60018101546001600160a01b038681169116148061153c575060028101546001600160a01b038681169116145b6115795760405162461bcd60e51b815260206004820152600e60248201526d24b73b30b634b2103bb4b73732b960911b60448201526064016106db565b60008481526011602052604090205460ff16156115cd5760405162461bcd60e51b8152602060048201526012602482015271139bdb98d948185b1c9958591e481d5cd95960721b60448201526064016106db565b604080516020808201899052606088901b6bffffffffffffffffffffffff191682840152605480830188905283518084039091018152607490920190925280519101207f19457468657265756d205369676e6564204d6573736167653a0a3332000000006000908152601c829052603c81209050600061168586868080601f0160208091040260200160405190810160405280939291908181526020018383808284376000920191909152508693925050611e4a9050565b6008549091506001600160a01b038083169116146116e05760405162461bcd60e51b8152602060048201526018602482015277496e76616c6964206f7261636c65207369676e617475726560401b60448201526064016106db565b6000878152601160205260408120805460ff19166001179055600385015461170990600261252a565b905060006103e861171c6103848461252a565b61172691906125ac565b905060006103e861173860648561252a565b61174291906125ac565b60048801805462010000600160b81b03191663010000006001600160a01b038f81169182029290921762020000179092554260068b015560018a0154929350600092161461179d5760018801546001600160a01b03166117ac565b60028801546001600160a01b03165b6001600160a01b038d166000908152600c602052604081208054929350906117d38361256a565b90915550506001600160a01b0381166000908152600d602052604081208054916117fc8361256a565b90915550506001600160a01b038c166000908152600e602052604081208054859290611829908490612541565b9091555061186390506001600160a01b037f0000000000000000000000000000000000000000000000000000000000000000168d85611d87565b60075461189d906001600160a01b037f00000000000000000000000000000000000000000000000000000000000000008116911684611d87565b604080518481526020810184905260008183015290516001600160a01b038e16918f917f16efe5897e1b57622ae96aabfc080bfc2e11675afa8afaeb7479865ea856d52f9181900360600190a350505050505050506118fb60018055565b5050505050565b600061190c611cd2565b611914611cfc565b60038360ff1611156119385760405162461bcd60e51b81526004016106db906124ee565b600061194384610798565b600a546040516bffffffffffffffffffffffff193360601b166020820152426034820152446054820152607481019190915290915060940160408051601f19818403018152919052805160209091012091506119ca6001600160a01b037f000000000000000000000000000000000000000000000000000000000000000016333084611d20565b604051806101400160405280838152602001336001600160a01b0316815260200160006001600160a01b031681526020018281526020018560ff168152602001846001811115611a1c57611a1c6122d2565b8152602001600081526000602080830182905242604080850191909152606093840183905286835260098252918290208451815590840151600180830180546001600160a01b039384166001600160a01b03199182161790915593860151600284018054919093169416939093179055918301516003830155608083015160048301805460ff90921660ff1983168117825560a086015193919261ffff19161790610100908490811115611ad257611ad26122d2565b021790555060c08201518160040160026101000a81548160ff02191690836004811115611b0157611b016122d2565b021790555060e08201516004820180546001600160a01b039092166301000000026301000000600160b81b0319909216919091179055610100820151600582015561012090910151600690910155600a805460018181019092557fc65a7bb8d6351c1cf70c95a316cc6a92839c986682d98bc35f958f4883f9d2a801839055336000908152600b6020908152604080832080549485018155835281832090930185905560ff87168252600f9052908120805491611bbd8361256a565b9190505550336001600160a01b0316827f5e72612ca9f83d2eb6e23cf918890544be95a6cd5d3bcd1516473a0a2d64cf20868685604051611c00939291906125ce565b60405180910390a350611c1260018055565b92915050565b611c20611c53565b6001600160a01b038116611c4a57604051631e4fbdf760e01b8152600060048201526024016106db565b610aef81611dbd565b6000546001600160a01b031633146108d85760405163118cdaa760e01b81523360048201526024016106db565b611c88611e74565b6002805460ff191690557f5db9ee0a495bf2e6ff9c91a7834c1ba4fdd244a5e8aa4e537bd38aeae4b073aa335b6040516001600160a01b03909116815260200160405180910390a1565b600260015403611cf557604051633ee5aeb560e01b815260040160405180910390fd5b6002600155565b60025460ff16156108d85760405163d93c066560e01b815260040160405180910390fd5b6040516001600160a01b0384811660248301528381166044830152606482018390526112c79186918216906323b872dd906084015b604051602081830303815290604052915060e01b6020820180516001600160e01b038381831617835250505050611e97565b6040516001600160a01b03838116602483015260448201839052611db891859182169063a9059cbb90606401611d55565b505050565b600080546001600160a01b038381166001600160a01b0319831681178455604051919092169283917f8be0079c531659141344cd1fd0a4f28419497f9722a3daafe3b4186f6b6457e09190a35050565b611e15611cfc565b6002805460ff191660011790557f62e78cea01bee320cd4e420270b5ea74000d11b0c9f74754ebdbfc544b05a258611cb53390565b600080600080611e5a8686611f08565b925092509250611e6a8282611f55565b5090949350505050565b60025460ff166108d857604051638dfc202b60e01b815260040160405180910390fd5b600080602060008451602086016000885af180611eba576040513d6000823e3d81fd5b50506000513d91508115611ed2578060011415611edf565b6001600160a01b0384163b155b156112c757604051635274afe760e01b81526001600160a01b03851660048201526024016106db565b60008060008351604103611f425760208401516040850151606086015160001a611f348882858561200e565b955095509550505050611f4e565b50508151600091506002905b9250925092565b6000826003811115611f6957611f696122d2565b03611f72575050565b6001826003811115611f8657611f866122d2565b03611fa45760405163f645eedf60e01b815260040160405180910390fd5b6002826003811115611fb857611fb86122d2565b03611fd95760405163fce698f760e01b8152600481018290526024016106db565b6003826003811115611fed57611fed6122d2565b03610b96576040516335e2f38360e21b8152600481018290526024016106db565b600080807f7fffffffffffffffffffffffffffffff5d576e7357a4501ddfe92f46681b20a084111561204957506000915060039050826120d3565b604080516000808252602082018084528a905260ff891692820192909252606081018790526080810186905260019060a0016020604051602081039080840390855afa15801561209d573d6000803e3d6000fd5b5050604051601f1901519150506001600160a01b0381166120c9575060009250600191508290506120d3565b9250600091508190505b9450945094915050565b6000602082840312156120ef57600080fd5b5035919050565b80356001600160a01b038116811461210d57600080fd5b919050565b60006020828403121561212457600080fd5b61212d826120f6565b9392505050565b803560ff8116811461210d57600080fd5b6000806040838503121561215857600080fd5b61216183612134565b946020939093013593505050565b60006020828403121561218157600080fd5b61212d82612134565b6000806040838503121561219d57600080fd5b612161836120f6565b6000806000606084860312156121bb57600080fd5b6121c484612134565b95602085013595506040909401359392505050565b600081518084526020808501945080840160005b83811015612209578151875295820195908201906001016121ed565b509495945050505050565b60408152600061222760408301856121d9565b90508260208301529392505050565b60008083601f84011261224857600080fd5b50813567ffffffffffffffff81111561226057600080fd5b60208301915083602082850101111561227857600080fd5b9250929050565b6000806000806060858703121561229557600080fd5b8435935060208501359250604085013567ffffffffffffffff8111156122ba57600080fd5b6122c687828801612236565b95989497509550505050565b634e487b7160e01b600052602160045260246000fd5b600281106122f8576122f86122d2565b9052565b600581106122f8576122f86122d2565b81518152602080830151610140830191612330908401826001600160a01b03169052565b50604083015161234b60408401826001600160a01b03169052565b5060608301516060830152608083015161236a608084018260ff169052565b5060a083015161237d60a08401826122e8565b5060c083015161239060c08401826122fc565b5060e08301516123ab60e08401826001600160a01b03169052565b50610100838101519083015261012092830151929091019190915290565b60208152600061212d60208301846121d9565b8a81526001600160a01b038a8116602083015289811660408301526060820189905260ff8816608083015261014082019061241a60a08401896122e8565b61242760c08401886122fc565b9490941660e082015261010081019290925261012090910152979650505050505050565b60008060008060006080868803121561246357600080fd5b85359450612473602087016120f6565b935060408601359250606086013567ffffffffffffffff81111561249657600080fd5b6124a288828901612236565b969995985093965092949392505050565b600080604083850312156124c657600080fd5b6124cf83612134565b91506020830135600281106124e357600080fd5b809150509250929050565b6020808252600c908201526b24b73b30b634b2103a34b2b960a11b604082015260600190565b634e487b7160e01b600052601160045260246000fd5b8082028115828204841417611c1257611c12612514565b80820180821115611c1257611c12612514565b634e487b7160e01b600052603260045260246000fd5b60006001820161257c5761257c612514565b5060010190565b634e487b7160e01b600052604160045260246000fd5b81810381811115611c1257611c12612514565b6000826125c957634e487b7160e01b600052601260045260246000fd5b500490565b60ff84168152606081016125e560208301856122e8565b82604083015294935050505056fea2646970667358221220149bffdf9451bed6899c7ef09c723ae48b40860e2ebf529a23bd9634f8eaa12e64736f6c63430008140033",
  "linkReferences": {},
  "deployedLinkReferences": {}
}