{
  "_format": "hh-sol-artifact-1",
  "contractName": "FlipRoyaleArena",
  "sourceName": "contracts/FlipRoyaleArena.sol",
  "abi": [
    {
      "inputs": [
        {
          "internalType": "address",
          "name": "_usdc",
          "type": "address"
        },
        {
          "internalType": "address",
          "name": "_treasury",
          "type": "address"
        },
        {
          "internalType": "address",
          "name": "_oracle",
          "type": "address"
        }
      ],
      "stateMutability": "nonpayable",
      "type": "constructor"
    },
    {
      "inputs": [],
      "name": "ECDSAInvalidSignature",
      "type": "error"
    },
    {
      "inputs": [
        {
          "internalType": "uint256",
          "name": "length",
          "type": "uint256"
        }
      ],
      "name": "ECDSAInvalidSignatureLength",
      "type": "error"
    },
    {
      "inputs": [
        {
          "internalType": "bytes32",
          "name": "s",
          "type": "bytes32"
        }
      ],
      "name": "ECDSAInvalidSignatureS",
      "type": "error"
    },
    {
      "inputs": [],
      "name": "EnforcedPause",
      "type": "error"
    },
    {
      "inputs": [],
      "name": "ExpectedPause",
      "type": "error"
    },
    {
      "inputs": [
        {
          "internalType": "address",
          "name": "owner",
          "type": "address"
        }
      ],
      "name": "OwnableInvalidOwner",
      "type": "error"
    },
    {
      "inputs": [
        {
          "internalType": "address",
          "name": "account",
          "type": "address"
        }
      ],
      "name": "OwnableUnauthorizedAccount",
      "type": "error"
    },
    {
      "inputs": [],
      "name": "ReentrancyGuardReentrantCall",
      "type": "error"
    },
    {
      "inputs": [
        {
          "internalType": "address",
          "name": "token",
          "type": "address"
        }
      ],
      "name": "SafeERC20FailedOperation",
      "type": "error"
    },
    {
      "anonymous": false,
      "inputs": [
        {
          "indexed": true,
          "internalType": "address",
          "name": "newOracle",
          "type": "address"
        }
      ],
      "name": "OracleUpdated",
      "type": "event"
    },
    {
      "anonymous": false,
      "inputs": [
        {
          "indexed": true,
          "internalType": "address",
          "name": "previousOwner",
          "type": "address"
        },
        {
          "indexed": true,
          "internalType": "address",
          "name": "newOwner",
          "type": "address"
        }
      ],
      "name": "OwnershipTransferred",
      "type": "event"
    },
    {
      "anonymous": false,
      "inputs": [
        {
          "indexed": false,
          "internalType": "address",
          "name": "account",
          "type": "address"
        }
      ],
      "name": "Paused",
      "type": "event"
    },
    {
      "anonymous": false,
      "inputs": [
        {
          "indexed": true,
          "internalType": "address",
          "name": "to",
          "type": "address"
        },
        {
          "indexed": false,
          "internalType": "uint256",
          "name": "amount",
          "type": "uint256"
        }
      ],
      "name": "ReplyCorpFeesWithdrawn",
      "type": "event"
    },
    {
      "anonymous": false,
      "inputs": [
        {
          "indexed": true,
          "internalType": "bytes32",
          "name": "roomId",
          "type": "bytes32"
        },
        {
          "indexed": true,
          "internalType": "address",
          "name": "player1",
          "type": "address"
        }
      ],
      "name": "RoomCancelled",
      "type": "event"
    },
    {
      "anonymous": false,
      "inputs": [
        {
          "indexed": true,
          "internalType": "bytes32",
          "name": "roomId",
          "type": "bytes32"
        },
        {
          "indexed": true,
          "internalType": "address",
          "name": "player1",
          "type": "address"
        },
        {
          "indexed": false,
          "internalType": "uint8",
          "name": "tier",
          "type": "uint8"
        },
        {
          "indexed": false,
          "internalType": "enum FlipRoyaleArena.GameMode",
          "name": "gameMode",
          "type": "uint8"
        },
        {
          "indexed": false,
          "internalType": "uint256",
          "name": "stake",
          "type": "uint256"
        }
      ],
      "name": "RoomCreated",
      "type": "event"
    },
    {
      "anonymous": false,
      "inputs": [
        {
          "indexed": true,
          "internalType": "bytes32",
          "name": "roomId",
          "type": "bytes32"
        },
        {
          "indexed": true,
          "internalType": "address",
          "name": "player1",
          "type": "address"
        }
      ],
      "name": "RoomExpiredRefund",
      "type": "event"
    },
    {
      "anonymous": false,
      "inputs": [
        {
          "indexed": true,
          "internalType": "bytes32",
          "name": "roomId",
          "type": "bytes32"
        },
        {
          "indexed": true,
          "internalType": "address",
          "name": "player2",
          "type": "address"
        }
      ],
      "name": "RoomJoined",
      "type": "event"
    },
    {
      "anonymous": false,
      "inputs": [
        {
          "indexed": true,
          "internalType": "bytes32",
          "name": "roomId",
          "type": "bytes32"
        },
        {
          "indexed": true,
          "internalType": "address",
          "name": "winner",
          "type": "address"
        },
        {
          "indexed": false,
          "internalType": "uint256",
          "name": "winnerPayout",
          "type": "uint256"
        },
        {
          "indexed": false,
          "internalType": "uint256",
          "name": "teamFee",
          "type": "uint256"
        },
        {
          "indexed": false,
          "internalType": "uint256",
          "name": "replyCorpFee",
          "type": "uint256"
        }
      ],
      "name": "RoomResolved",
      "type": "event"
    },
    {
      "anonymous": false,
      "inputs": [
        {
          "indexed": false,
          "internalType": "uint8",
          "name": "tier",
          "type": "uint8"
        },
        {
          "indexed": false,
          "internalType": "uint256",
          "name": "newStake",
          "type": "uint256"
        }
      ],
      "name": "TierStakeUpdated",
      "type": "event"
    },
    {
      "anonymous": false,
      "inputs": [
        {
          "indexed": true,
          "internalType": "address",
          "name": "newTreasury",
          "type": "address"
        }
      ],
      "name": "TreasuryUpdated",
      "type": "event"
    },
    {
      "anonymous": false,
      "inputs": [
        {
          "indexed": false,
          "internalType": "address",
          "name": "account",
          "type": "address"
        }
      ],
      "name": "Unpaused",
      "type": "event"
    },
    {
      "inputs": [],
      "name": "RATE_DENOMINATOR",
      "outputs": [
        {
          "internalType": "uint256",
          "name": "",
          "type": "uint256"
        }
      ],
      "stateMutability": "view",
      "type": "function"
    },
    {
      "inputs": [],
      "name": "REPLYCORP_RATE",
      "outputs": [
        {
          "internalType": "uint256",
          "name": "",
          "type": "uint256"
        }
      ],
      "stateMutability": "view",
      "type": "function"
    },
    {
      "inputs": [],
      "name": "ROOM_EXPIRATION",
      "outputs": [
        {
          "internalType": "uint256",
          "name": "",
          "type": "uint256"
        }
      ],
      "stateMutability": "view",
      "type": "function"
    },
    {
      "inputs": [],
      "name": "TEAM_RATE",
      "outputs": [
        {
          "internalType": "uint256",
          "name": "",
          "type": "uint256"
        }
      ],
      "stateMutability": "view",
      "type": "function"
    },
    {
      "inputs": [],
      "name": "WINNER_RATE",
      "outputs": [
        {
          "internalType": "uint256",
          "name": "",
          "type": "uint256"
        }
      ],
      "stateMutability": "view",
      "type": "function"
    },
    {
      "inputs": [
        {
          "internalType": "uint256",
          "name": "",
          "type": "uint256"
        }
      ],
      "name": "allRoomIds",
      "outputs": [
        {
          "internalType": "bytes32",
          "name": "",
          "type": "bytes32"
        }
      ],
      "stateMutability": "view",
      "type": "function"
    },
    {
      "inputs": [],
      "name": "bronzeStake",
      "outputs": [
        {
          "internalType": "uint256",
          "name": "",
          "type": "uint256"
        }
      ],
      "stateMutability": "view",
      "type": "function"
    },
    {
      "inputs": [
        {
          "internalType": "bytes32",
          "name": "roomId",
          "type": "bytes32"
        }
      ],
      "name": "cancelRoom",
      "outputs": [],
      "stateMutability": "nonpayable",
      "type": "function"
    },
    {
      "inputs": [
        {
          "internalType": "bytes32",
          "name": "roomId",
          "type": "bytes32"
        }
      ],
      "name": "claimExpiredRefund",
      "outputs": [],
      "stateMutability": "nonpayable",
      "type": "function"
    },
    {
      "inputs": [
        {
          "internalType": "uint8",
          "name": "tier",
          "type": "uint8"
        },
        {
          "internalType": "enum FlipRoyaleArena.GameMode",
          "name": "gameMode",
          "type": "uint8"
        }
      ],
      "name": "createRoom",
      "outputs": [
        {
          "internalType": "bytes32",
          "name": "roomId",
          "type": "bytes32"
        }
      ],
      "stateMutability": "nonpayable",
      "type": "function"
    },
    {
      "inputs": [],
      "name": "diamondStake",
      "outputs": [
        {
          "internalType": "uint256",
          "name": "",
          "type": "uint256"
        }
      ],
      "stateMutability": "view",
      "type": "function"
    },
    {
      "inputs": [],
      "name": "getAllTierStakes",
      "outputs": [
        {
          "internalType": "uint256",
          "name": "bronze",
          "type": "uint256"
        },
        {
          "internalType": "uint256",
          "name": "silver",
          "type": "uint256"
        },
        {
          "internalType": "uint256",
          "name": "gold",
          "type": "uint256"
        },
        {
          "internalType": "uint256",
          "name": "diamond",
          "type": "uint256"
        }
      ],
      "stateMutability": "view",
      "type": "function"
    },
    {
      "inputs": [
        {
          "internalType": "uint8",
          "name": "tier",
          "type": "uint8"
        },
        {
          "internalType": "uint256",
          "name": "offset",
          "type": "uint256"
        },
        {
          "internalType": "uint256",
          "name": "limit",
          "type": "uint256"
        }
      ],
      "name": "getOpenRooms",
      "outputs": [
        {
          "internalType": "bytes32[]",
          "name": "roomIds",
          "type": "bytes32[]"
        },
        {
          "internalType": "uint256",
          "name": "total",
          "type": "uint256"
        }
      ],
      "stateMutability": "view",
      "type": "function"
    },
    {
      "inputs": [
        {
          "internalType": "bytes32",
          "name": "roomId",
          "type": "bytes32"
        }
      ],
      "name": "getRoom",
      "outputs": [
        {
          "components": [
            {
              "internalType": "bytes32",
              "name": "id",
              "type": "bytes32"
            },
            {
              "internalType": "address",
              "name": "player1",
              "type": "address"
            },
            {
              "internalType": "address",
              "name": "player2",
              "type": "address"
            },
            {
              "internalType": "uint256",
              "name": "stake",
              "type": "uint256"
            },
            {
              "internalType": "uint8",
              "name": "tier",
              "type": "uint8"
            },
            {
              "internalType": "enum FlipRoyaleArena.GameMode",
              "name": "gameMode",
              "type": "uint8"
            },
            {
              "internalType": "enum FlipRoyaleArena.RoomStatus",
              "name": "status",
              "type": "uint8"
            },
            {
              "internalType": "address",
              "name": "winner",
              "type": "address"
            },
            {
              "internalType": "uint256",
              "name": "createdAt",
              "type": "uint256"
            },
            {
              "internalType": "uint256",
              "name": "resolvedAt",
              "type": "uint256"
            }
          ],
          "internalType": "struct FlipRoyaleArena.Room",
          "name": "",
          "type": "tuple"
        }
      ],
      "stateMutability": "view",
      "type": "function"
    },
    {
      "inputs": [
        {
          "internalType": "uint8",
          "name": "tier",
          "type": "uint8"
        }
      ],
      "name": "getTierStake",
      "outputs": [
        {
          "internalType": "uint256",
          "name": "",
          "type": "uint256"
        }
      ],
      "stateMutability": "view",
      "type": "function"
    },
    {
      "inputs": [],
      "name": "getTotalRoomsCount",
      "outputs": [
        {
          "internalType": "uint256",
          "name": "",
          "type": "uint256"
        }
      ],
      "stateMutability": "view",
      "type": "function"
    },
    {
      "inputs": [
        {
          "internalType": "address",
          "name": "user",
          "type": "address"
        }
      ],
      "name": "getUserRooms",
      "outputs": [
        {
          "internalType": "bytes32[]",
          "name": "",
          "type": "bytes32[]"
        }
      ],
      "stateMutability": "view",
      "type": "function"
    },
    {
      "inputs": [
        {
          "internalType": "address",
          "name": "user",
          "type": "address"
        }
      ],
      "name": "getUserStats",
      "outputs": [
        {
          "internalType": "uint256",
          "name": "wins",
          "type": "uint256"
        },
        {
          "internalType": "uint256",
          "name": "losses",
          "type": "uint256"
        },
        {
          "internalType": "uint256",
          "name": "totalWinnings",
          "type": "uint256"
        },
        {
          "internalType": "uint256",
          "name": "roomCount",
          "type": "uint256"
        }
      ],
      "stateMutability": "view",
      "type": "function"
    },
    {
      "inputs": [],
      "name": "goldStake",
      "outputs": [
        {
          "internalType": "uint256",
          "name": "",
          "type": "uint256"
        }
      ],
      "stateMutability": "view",
      "type": "function"
    },
    {
      "inputs": [
        {
          "internalType": "bytes32",
          "name": "roomId",
          "type": "bytes32"
        }
      ],
      "name": "joinRoom",
      "outputs": [],
      "stateMutability": "nonpayable",
      "type": "function"
    },
    {
      "inputs": [],
      "name": "oracle",
      "outputs": [
        {
          "internalType": "address",
          "name": "",
          "type": "address"
        }
      ],
      "stateMutability": "view",
      "type": "function"
    },
    {
      "inputs": [],
      "name": "owner",
      "outputs": [
        {
          "internalType": "address",
          "name": "",
          "type": "address"
        }
      ],
      "stateMutability": "view",
      "type": "function"
    },
    {
      "inputs": [],
      "name": "pause",
      "outputs": [],
      "stateMutability": "nonpayable",
      "type": "function"
    },
    {
      "inputs": [],
      "name": "paused",
      "outputs": [
        {
          "internalType": "bool",
          "name": "",
          "type": "bool"
        }
      ],
      "stateMutability": "view",
      "type": "function"
    },
    {
      "inputs": [],
      "name": "pendingReplyCorpFees",
      "outputs": [
        {
          "internalType": "uint256",
          "name": "",
          "type": "uint256"
        }
      ],
      "stateMutability": "view",
      "type": "function"
    },
    {
      "inputs": [],
      "name": "renounceOwnership",
      "outputs": [],
      "stateMutability": "nonpayable",
      "type": "function"
    },
    {
      "inputs": [
        {
          "internalType": "address",
          "name": "token",
          "type": "address"
        },
        {
          "internalType": "uint256",
          "name": "amount",
          "type": "uint256"
        }
      ],
      "name": "rescueTokens",
      "outputs": [],
      "stateMutability": "nonpayable",
      "type": "function"
    },
    {
      "inputs": [
        {
          "internalType": "bytes32",
          "name": "roomId",
          "type": "bytes32"
        },
        {
          "internalType": "address",
          "name": "winner",
          "type": "address"
        },
        {
          "internalType": "bytes32",
          "name": "nonce",
          "type": "bytes32"
        },
        {
          "internalType": "bytes",
          "name": "signature",
          "type": "bytes"
        }
      ],
      "name": "resolveRoom",
      "outputs": [],
      "stateMutability": "nonpayable",
      "type": "function"
    },
    {
      "inputs": [
        {
          "internalType": "bytes32",
          "name": "",
          "type": "bytes32"
        }
      ],
      "name": "rooms",
      "outputs": [
        {
          "internalType": "bytes32",
          "name": "id",
          "type": "bytes32"
        },
        {
          "internalType": "address",
          "name": "player1",
          "type": "address"
        },
        {
          "internalType": "address",
          "name": "player2",
          "type": "address"
        },
        {
          "internalType": "uint256",
          "name": "stake",
          "type": "uint256"
        },
        {
          "internalType": "uint8",
          "name": "tier",
          "type": "uint8"
        },
        {
          "internalType": "enum FlipRoyaleArena.GameMode",
          "name": "gameMode",
          "type": "uint8"
        },
        {
          "internalType": "enum FlipRoyaleArena.RoomStatus",
          "name": "status",
          "type": "uint8"
        },
        {
          "internalType": "address",
          "name": "winner",
          "type": "address"
        },
        {
          "internalType": "uint256",
          "name": "createdAt",
          "type": "uint256"
        },
        {
          "internalType": "uint256",
          "name": "resolvedAt",
          "type": "uint256"
        }
      ],
      "stateMutability": "view",
      "type": "function"
    },
    {
      "inputs": [],
      "name": "silverStake",
      "outputs": [
        {
          "internalType": "uint256",
          "name": "",
          "type": "uint256"
        }
      ],
      "stateMutability": "view",
      "type": "function"
    },
    {
      "inputs": [],
      "name": "totalReplyCorpPaid",
      "outputs": [
        {
          "internalType": "uint256",
          "name": "",
          "type": "uint256"
        }
      ],
      "stateMutability": "view",
      "type": "function"
    },
    {
      "inputs": [
        {
          "internalType": "uint8",
          "name": "",
          "type": "uint8"
        }
      ],
      "name": "totalRoomsByTier",
      "outputs": [
        {
          "internalType": "uint256",
          "name": "",
          "type": "uint256"
        }
      ],
      "stateMutability": "view",
      "type": "function"
    },
    {
      "inputs": [
        {
          "internalType": "uint8",
          "name": "",
          "type": "uint8"
        }
      ],
      "name": "totalVolumeByTier",
      "outputs": [
        {
          "internalType": "uint256",
          "name": "",
          "type": "uint256"
        }
      ],
      "stateMutability": "view",
      "type": "function"
    },
    {
      "inputs": [
        {
          "internalType": "address",
          "name": "newOwner",
          "type": "address"
        }
      ],
      "name": "transferOwnership",
      "outputs": [],
      "stateMutability": "nonpayable",
      "type": "function"
    },
    {
      "inputs": [],
      "name": "treasury",
      "outputs": [
        {
          "internalType": "address",
          "name": "",
          "type": "address"
        }
      ],
      "stateMutability": "view",
      "type": "function"
    },
    {
      "inputs": [],
      "name": "unpause",
      "outputs": [],
      "stateMutability": "nonpayable",
      "type": "function"
    },
    {
      "inputs": [
        {
          "internalType": "address",
          "name": "_oracle",
          "type": "address"
        }
      ],
      "name": "updateOracle",
      "outputs": [],
      "stateMutability": "nonpayable",
      "type": "function"
    },
    {
      "inputs": [
        {
          "internalType": "uint8",
          "name": "tier",
          "type": "uint8"
        },
        {
          "internalType": "uint256",
          "name": "newStake",
          "type": "uint256"
        }
      ],
      "name": "updateTierStake",
      "outputs": [],
      "stateMutability": "nonpayable",
      "type": "function"
    },
    {
      "inputs": [
        {
          "internalType": "address",
          "name": "_treasury",
          "type": "address"
        }
      ],
      "name": "updateTreasury",
      "outputs": [],
      "stateMutability": "nonpayable",
      "type": "function"
    },
    {
      "inputs": [],
      "name": "usdc",
      "outputs": [
        {
          "internalType": "contract IERC20",
          "name": "",
          "type": "address"
        }
      ],
      "stateMutability": "view",
      "type": "function"
    },
    {
      "inputs": [
        {
          "internalType": "bytes32",
          "name": "",
          "type": "bytes32"
        }
      ],
      "name": "usedNonces",
      "outputs": [
        {
          "internalType": "bool",
          "name": "",
          "type": "bool"
        }
      ],
      "stateMutability": "view",
      "type": "function"
    },
    {
      "inputs": [
        {
          "internalType": "address",
          "name": "",
          "type": "address"
        }
      ],
      "name": "userLosses",
      "outputs": [
        {
          "internalType": "uint256",
          "name": "",
          "type": "uint256"
        }
      ],
      "stateMutability": "view",
      "type": "function"
    },
    {
      "inputs": [
        {
          "internalType": "address",
          "name": "",
          "type": "address"
        },
        {
          "internalType": "uint256",
          "name": "",
          "type": "uint256"
        }
      ],
      "name": "userRooms",
      "outputs": [
        {
          "internalType": "bytes32",
          "name": "",
          "type": "bytes32"
        }
      ],
      "stateMutability": "view",
      "type": "function"
    },
    {
      "inputs": [
        {
          "internalType": "address",
          "name": "",
          "type": "address"
        }
      ],
      "name": "userTotalWinnings",
      "outputs": [
        {
          "internalType": "uint256",
          "name": "",
          "type": "uint256"
        }
      ],
      "stateMutability": "view",
      "type": "function"
    },
    {
      "inputs": [
        {
          "internalType": "address",
          "name": "",
          "type": "address"
        }
      ],
      "name": "userWins",
      "outputs": [
        {
          "internalType": "uint256",
          "name": "",
          "type": "uint256"
        }
      ],
      "stateMutability": "view",
      "type": "function"
    },
    {
      "inputs": [
        {
          "internalType": "address",
          "name": "to",
          "type": "address"
        },
        {
          "internalType": "uint256",
          "name": "amount",
          "type": "uint256"
        }
      ],
      "name": "withdrawReplyCorpFees",
      "outputs": [],
      "stateMutability": "nonpayable",
      "type": "function"
    }
  ],
  "bytecode": "0x60a06040526298968060035563017d78406004556302faf0806005556305f5e1006006553480156200003057600080fd5b50604051620029a1380380620029a183398101604081905262000053916200020a565b33806200007b57604051631e4fbdf760e01b8152600060048201526024015b60405180910390fd5b62000086816200019d565b50600180556001600160a01b038316620000d25760405162461bcd60e51b815260206004820152600c60248201526b496e76616c6964205553444360a01b604482015260640162000072565b6001600160a01b0382166200011d5760405162461bcd60e51b815260206004820152601060248201526f496e76616c696420747265617375727960801b604482015260640162000072565b6001600160a01b038116620001665760405162461bcd60e51b815260206004820152600e60248201526d496e76616c6964206f7261636c6560901b604482015260640162000072565b6001600160a01b03928316608052600780549284166001600160a01b03199384161790556008805491909316911617905562000254565b600080546001600160a01b038381166001600160a01b0319831681178455604051919092169283917f8be0079c531659141344cd1fd0a4f28419497f9722a3daafe3b4186f6b6457e09190a35050565b80516001600160a01b03811681146200020557600080fd5b919050565b6000806000606084860312156200022057600080fd5b6200022b84620001ed565b92506200023b60208501620001ed565b91506200024b60408501620001ed565b90509250925092565b6080516126f9620002a86000396000818161038701528181610abf01528181610bb20152818161106d015281816113d40152818161151301528181611974015281816119ac0152611adc01526126f96000f3fe608060405234801561001057600080fd5b506004361061028a5760003560e01c80637efad8e01161015c578063cdaf4ad5116100ce578063e08fe1e611610087578063e08fe1e61461066e578063e7c23f4014610681578063e9d2ee6a1461068a578063ee192d1314610693578063f2fde38b146106a6578063feb61724146106b957600080fd5b8063cdaf4ad51461057e578063d05bf8441461059e578063d2747986146105b1578063d7fbc2e4146105b9578063df11c42414610645578063e040d9f31461064e57600080fd5b806392776b4f1161012057806392776b4f1461050f57806395975eac14610463578063ad9a286614610522578063af76494c14610542578063b01e79611461054b578063b4f738e21461056b57600080fd5b80637efad8e0146104d15780637f51bb1f146104da5780638456cb59146104ed578063857c5a91146104f55780638da5cb5b146104fe57600080fd5b80633f4ba83a11610200578063635d2045116101b9578063635d204514610463578063713551621461046b578063715018a61461048c5780637651313a1461049457806378589bbe146104b45780637dc0d1d0146104be57600080fd5b80633f4ba83a146103c15780634b29b4c4146103c95780634e43603a146103dc57806357376198146104265780635c975abb1461043957806361d027b31461045057600080fd5b80631cb44dfc116102525780631cb44dfc1461030657806320493ab414610319578063225437461461032257806327b612d1146103425780632faf9fb3146103555780633e413bee1461038257600080fd5b8063020885d11461028f57806308857442146102b55780631144400a146102d557806313c92920146102de5780631abb2211146102f3575b600080fd5b6102a261029d36600461221d565b6106dc565b6040519081526020015b60405180910390f35b6102a26102c3366004612252565b60106020526000908152604090205481565b6102a260065481565b6102f16102ec366004612285565b6106fd565b005b6102a26103013660046122af565b6107fe565b6102f1610314366004612252565b610864565b6102a260055481565b6102a26103303660046122af565b60126020526000908152604090205481565b6102a26103503660046122ca565b6108fd565b6003546004546005546006545b6040805194855260208501939093529183015260608201526080016102ac565b6103a97f000000000000000000000000000000000000000000000000000000000000000081565b6040516001600160a01b0390911681526020016102ac565b6102f161092e565b6102f16103d736600461221d565b610940565b6103626103ea366004612252565b6001600160a01b03166000908152600e6020908152604080832054600f8352818420546010845282852054600d90945291909320549293909290565b6102f16104343660046122ca565b610ba8565b60025460ff165b60405190151581526020016102ac565b6007546103a9906001600160a01b031681565b6102a2603281565b61047e6104793660046122e6565b610c50565b6040516102ac929190612354565b6102f1610ec7565b6102a26104a2366004612252565b600e6020526000908152604090205481565b6102a26201518081565b6008546103a9906001600160a01b031681565b6102a26103e881565b6102f16104e8366004612252565b610ed9565b6102f1610f74565b6102a261038481565b6000546001600160a01b03166103a9565b6102f161051d36600461221d565b610f84565b61053561053036600461221d565b6110cc565b6040516102ac91906123b0565b6102a260095481565b61055e610559366004612252565b61122c565b6040516102ac919061246d565b6102f161057936600461221d565b611298565b6102a261058c3660046122af565b60116020526000908152604090205481565b6102f16105ac3660046122ca565b611433565b600c546102a2565b61062f6105c736600461221d565b600b60205260009081526040902080546001820154600283015460038401546004850154600586015460069096015494956001600160a01b039485169593851694929360ff80841694610100850482169462010000810490921693630100000090920416918a565b6040516102ac9a99989796959493929190612480565b6102a2600a5481565b6102a261065c366004612252565b600f6020526000908152604090205481565b6102f161067c3660046124ef565b611581565b6102a260035481565b6102a260045481565b6102a26106a1366004612583565b611a3c565b6102f16106b4366004612252565b611d52565b6104406106c736600461221d565b60136020526000908152604090205460ff1681565b600c81815481106106ec57600080fd5b600091825260209091200154905081565b610705611d8d565b6000811161074a5760405162461bcd60e51b815260206004820152600d60248201526c496e76616c6964207374616b6560981b60448201526064015b60405180910390fd5b60038260ff16111561076e5760405162461bcd60e51b8152600401610741906125be565b8160ff166000036107835760038190556107be565b8160ff166001036107985760048190556107be565b8160ff166002036107ad5760058190556107be565b8160ff166003036107be5760068190555b6040805160ff84168152602081018390527fc8b1a09ccda86e58aabb19262e8e9acbd055e76acf4a202df94418079a29401c910160405180910390a15050565b60008160ff1660000361081357505060035490565b8160ff1660010361082657505060045490565b8160ff1660020361083957505060055490565b8160ff1660030361084c57505060065490565b60405162461bcd60e51b8152600401610741906125be565b61086c611d8d565b6001600160a01b0381166108b35760405162461bcd60e51b815260206004820152600e60248201526d496e76616c6964206f7261636c6560901b6044820152606401610741565b600880546001600160a01b0319166001600160a01b0383169081179091556040517f3df77beb5db05fcdd70a30fc8adf3f83f9501b68579455adbd100b818094039490600090a250565b600d602052816000526040600020818154811061091957600080fd5b90600052602060002001600091509150505481565b610936611d8d565b61093e611dba565b565b610948611e0c565b610950611e36565b6000818152600b6020526040902060018101546001600160a01b03166109a95760405162461bcd60e51b815260206004820152600e60248201526d149bdbdb481b9bdd08199bdd5b9960921b6044820152606401610741565b600060048281015462010000900460ff16908111156109ca576109ca612376565b14610a075760405162461bcd60e51b815260206004820152600d60248201526c2937b7b6903737ba1037b832b760991b6044820152606401610741565b6001810154336001600160a01b0390911603610a5c5760405162461bcd60e51b815260206004820152601460248201527343616e6e6f74206a6f696e206f776e20726f6f6d60601b6044820152606401610741565b620151808160050154610a6f91906125fa565b4210610aac5760405162461bcd60e51b815260206004820152600c60248201526b149bdbdb48195e1c1a5c995960a21b6044820152606401610741565b6003810154610ae9906001600160a01b037f0000000000000000000000000000000000000000000000000000000000000000169033903090611e5a565b600281810180546001600160a01b0319163390811790915560048301805462ff00001916620100001790556000908152600d60209081526040822080546001810182559083529120018390556003820154610b439161260d565b600482015460ff1660009081526012602052604081208054909190610b699084906125fa565b9091555050604051339083907ffba1ad45cc33aed2e8c4f2c3558e076e3b43d01b218179472de7109107a65f8190600090a350610ba560018055565b50565b610bb0611d8d565b7f00000000000000000000000000000000000000000000000000000000000000006001600160a01b0316826001600160a01b031603610c265760405162461bcd60e51b815260206004820152601260248201527143616e6e6f7420726573637565205553444360701b6044820152606401610741565b610c4c610c3b6000546001600160a01b031690565b6001600160a01b0384169083611ec7565b5050565b6060600080805b600c54811015610d13576000600b6000600c8481548110610c7a57610c7a612624565b600091825260208083209091015483528201929092526040019020600481015490915060ff908116908916148015610cd05750600060048281015462010000900460ff1690811115610cce57610cce612376565b145b8015610ced5750620151808160050154610cea91906125fa565b42105b15610d005782610cfc8161263a565b9350505b5080610d0b8161263a565b915050610c57565b50809150808510610d3557506040805160008152602081019091529150610ebf565b6000610d418683612669565b90506000858210610d525785610d54565b815b90508067ffffffffffffffff811115610d6f57610d6f612653565b604051908082528060200260200182016040528015610d98578160200160208202803683370190505b50945060008060005b600c5481108015610db157508382105b15610eb8576000600b6000600c8481548110610dcf57610dcf612624565b600091825260208083209091015483528201929092526040019020600481015490915060ff908116908d16148015610e255750600060048281015462010000900460ff1690811115610e2357610e23612376565b145b8015610e425750620151808160050154610e3f91906125fa565b42105b15610ea5578a8410610e9757600c8281548110610e6157610e61612624565b9060005260206000200154898481518110610e7e57610e7e612624565b602090810291909101015282610e938161263a565b9350505b83610ea18161263a565b9450505b5080610eb08161263a565b915050610da1565b5050505050505b935093915050565b610ecf611d8d565b61093e6000611efd565b610ee1611d8d565b6001600160a01b038116610f2a5760405162461bcd60e51b815260206004820152601060248201526f496e76616c696420747265617375727960801b6044820152606401610741565b600780546001600160a01b0319166001600160a01b0383169081179091556040517f7dae230f18360d76a040c81f050aa14eb9d6dc7901b20fc5d855e2a20fe814d190600090a250565b610f7c611d8d565b61093e611f4d565b610f8c611e0c565b6000818152600b6020526040902060018101546001600160a01b03163314610fe95760405162461bcd60e51b815260206004820152601060248201526f2737ba103937b7b69031b932b0ba37b960811b6044820152606401610741565b600060048281015462010000900460ff169081111561100a5761100a612376565b146110475760405162461bcd60e51b815260206004820152600d60248201526c10d85b9b9bdd0818d85b98d95b609a1b6044820152606401610741565b60048101805462ff00001916620300001790556003810154611095906001600160a01b037f000000000000000000000000000000000000000000000000000000000000000016903390611ec7565b604051339083907fcb0b396d88450068151be81530319ec9262bb40342de883160c350b166a7fa7190600090a350610ba560018055565b61112b604080516101408101825260008082526020820181905291810182905260608101829052608081018290529060a082019081526020016000815260200160006001600160a01b0316815260200160008152602001600081525090565b6000828152600b6020908152604091829020825161014081018452815481526001808301546001600160a01b039081169483019490945260028301549093169381019390935260038101546060840152600481015460ff8082166080860152919260a0850192610100909204909116908111156111aa576111aa612376565b60018111156111bb576111bb612376565b81526020016004820160029054906101000a900460ff1660048111156111e3576111e3612376565b60048111156111f4576111f4612376565b81526004820154630100000090046001600160a01b031660208201526005820154604082015260069091015460609091015292915050565b6001600160a01b0381166000908152600d602090815260409182902080548351818402810184019094528084526060939283018282801561128c57602002820191906000526020600020905b815481526020019060010190808311611278575b50505050509050919050565b6112a0611e0c565b6000818152600b6020526040902060018101546001600160a01b031633146112fd5760405162461bcd60e51b815260206004820152601060248201526f2737ba103937b7b69031b932b0ba37b960811b6044820152606401610741565b600060048281015462010000900460ff169081111561131e5761131e612376565b1461135a5760405162461bcd60e51b815260206004820152600c60248201526b4e6f7420656c696769626c6560a01b6044820152606401610741565b62015180816005015461136d91906125fa565b4210156113ae5760405162461bcd60e51b815260206004820152600f60248201526e139bdd08195e1c1a5c9959081e595d608a1b6044820152606401610741565b60048101805462ff000019166204000017905560038101546113fc906001600160a01b037f000000000000000000000000000000000000000000000000000000000000000016903390611ec7565b604051339083907f03a2738273e3f4cc434cde8e9c9e04f7df5e67d80bd581eb2566679468c31f3090600090a350610ba560018055565b61143b611d8d565b6001600160a01b0382166114835760405162461bcd60e51b815260206004820152600f60248201526e496e76616c6964206164647265737360881b6044820152606401610741565b6009548111156114d55760405162461bcd60e51b815260206004820152601960248201527f496e73756666696369656e742070656e64696e672066656573000000000000006044820152606401610741565b80600960008282546114e79190612669565b9250508190555080600a600082825461150091906125fa565b9091555061153a90506001600160a01b037f0000000000000000000000000000000000000000000000000000000000000000168383611ec7565b816001600160a01b03167f5d296b0bb3bfb5379f2e92f62036ddc0eb44307b0b690a191a7533e3a31820bd8260405161157591815260200190565b60405180910390a25050565b611589611e0c565b6000858152600b60205260409020600160048281015462010000900460ff16908111156115b8576115b8612376565b146115f75760405162461bcd60e51b815260206004820152600f60248201526e149bdbdb481b9bdd08199a5b1b1959608a1b6044820152606401610741565b60018101546001600160a01b0386811691161480611624575060028101546001600160a01b038681169116145b6116615760405162461bcd60e51b815260206004820152600e60248201526d24b73b30b634b2103bb4b73732b960911b6044820152606401610741565b60008481526013602052604090205460ff16156116b55760405162461bcd60e51b8152602060048201526012602482015271139bdb98d948185b1c9958591e481d5cd95960721b6044820152606401610741565b604080516020808201899052606088901b6bffffffffffffffffffffffff191682840152605480830188905283518084039091018152607490920190925280519101207f19457468657265756d205369676e6564204d6573736167653a0a3332000000006000908152601c829052603c81209050600061176d86868080601f0160208091040260200160405190810160405280939291908181526020018383808284376000920191909152508693925050611f8a9050565b6008549091506001600160a01b038083169116146117cd5760405162461bcd60e51b815260206004820152601860248201527f496e76616c6964206f7261636c65207369676e617475726500000000000000006044820152606401610741565b6000878152601360205260408120805460ff1916600117905560038501546117f690600261260d565b905060006103e86118096103848461260d565b611813919061267c565b905060006103e861182560328561260d565b61182f919061267c565b905060006103e861184160328661260d565b61184b919061267c565b60048901805491925060029162ff00001916620100008302179055506004880180546001600160a01b03808f16630100000081026301000000600160b81b0319909316929092179092554260068b015560018a015460009216146118bc5760018901546001600160a01b03166118cb565b60028901546001600160a01b03165b6001600160a01b038e166000908152600e602052604081208054929350906118f28361263a565b90915550506001600160a01b0381166000908152600f6020526040812080549161191b8361263a565b90915550506001600160a01b038d16600090815260106020526040812080548692906119489084906125fa565b92505081905550816009600082825461196191906125fa565b9091555061199b90506001600160a01b037f0000000000000000000000000000000000000000000000000000000000000000168e86611ec7565b6007546119d5906001600160a01b037f00000000000000000000000000000000000000000000000000000000000000008116911685611ec7565b60408051858152602081018590529081018390526001600160a01b038e16908f907f16efe5897e1b57622ae96aabfc080bfc2e11675afa8afaeb7479865ea856d52f9060600160405180910390a3505050505050505050611a3560018055565b5050505050565b6000611a46611e0c565b611a4e611e36565b60038360ff161115611a725760405162461bcd60e51b8152600401610741906125be565b6000611a7d846107fe565b600c546040516bffffffffffffffffffffffff193360601b166020820152426034820152446054820152607481019190915290915060940160408051601f1981840301815291905280516020909101209150611b046001600160a01b037f000000000000000000000000000000000000000000000000000000000000000016333084611e5a565b604051806101400160405280838152602001336001600160a01b0316815260200160006001600160a01b031681526020018281526020018560ff168152602001846001811115611b5657611b56612376565b81526020016000815260006020808301829052426040808501919091526060938401839052868352600b8252918290208451815590840151600180830180546001600160a01b039384166001600160a01b03199182161790915593860151600284018054919093169416939093179055918301516003830155608083015160048301805460ff90921660ff1983168117825560a086015193919261ffff19161790610100908490811115611c0c57611c0c612376565b021790555060c08201518160040160026101000a81548160ff02191690836004811115611c3b57611c3b612376565b021790555060e08201516004820180546001600160a01b039092166301000000026301000000600160b81b0319909216919091179055610100820151600582015561012090910151600690910155600c805460018181019092557fdf6966c971051c3d54ec59162606531493a51404a002842f56009d7e5cf4a8c701839055336000908152600d6020908152604080832080549485018155835281832090930185905560ff8716825260119052908120805491611cf78361263a565b9190505550336001600160a01b0316827f5e72612ca9f83d2eb6e23cf918890544be95a6cd5d3bcd1516473a0a2d64cf20868685604051611d3a9392919061269e565b60405180910390a350611d4c60018055565b92915050565b611d5a611d8d565b6001600160a01b038116611d8457604051631e4fbdf760e01b815260006004820152602401610741565b610ba581611efd565b6000546001600160a01b0316331461093e5760405163118cdaa760e01b8152336004820152602401610741565b611dc2611fb4565b6002805460ff191690557f5db9ee0a495bf2e6ff9c91a7834c1ba4fdd244a5e8aa4e537bd38aeae4b073aa335b6040516001600160a01b03909116815260200160405180910390a1565b600260015403611e2f57604051633ee5aeb560e01b815260040160405180910390fd5b6002600155565b60025460ff161561093e5760405163d93c066560e01b815260040160405180910390fd5b6040516001600160a01b038481166024830152838116604483015260648201839052611ec19186918216906323b872dd906084015b604051602081830303815290604052915060e01b6020820180516001600160e01b038381831617835250505050611fd7565b50505050565b6040516001600160a01b03838116602483015260448201839052611ef891859182169063a9059cbb90606401611e8f565b505050565b600080546001600160a01b038381166001600160a01b0319831681178455604051919092169283917f8be0079c531659141344cd1fd0a4f28419497f9722a3daafe3b4186f6b6457e09190a35050565b611f55611e36565b6002805460ff191660011790557f62e78cea01bee320cd4e420270b5ea74000d11b0c9f74754ebdbfc544b05a258611def3390565b600080600080611f9a8686612048565b925092509250611faa8282612095565b5090949350505050565b60025460ff1661093e57604051638dfc202b60e01b815260040160405180910390fd5b600080602060008451602086016000885af180611ffa576040513d6000823e3d81fd5b50506000513d9150811561201257806001141561201f565b6001600160a01b0384163b155b15611ec157604051635274afe760e01b81526001600160a01b0385166004820152602401610741565b600080600083516041036120825760208401516040850151606086015160001a6120748882858561214e565b95509550955050505061208e565b50508151600091506002905b9250925092565b60008260038111156120a9576120a9612376565b036120b2575050565b60018260038111156120c6576120c6612376565b036120e45760405163f645eedf60e01b815260040160405180910390fd5b60028260038111156120f8576120f8612376565b036121195760405163fce698f760e01b815260048101829052602401610741565b600382600381111561212d5761212d612376565b03610c4c576040516335e2f38360e21b815260048101829052602401610741565b600080807f7fffffffffffffffffffffffffffffff5d576e7357a4501ddfe92f46681b20a08411156121895750600091506003905082612213565b604080516000808252602082018084528a905260ff891692820192909252606081018790526080810186905260019060a0016020604051602081039080840390855afa1580156121dd573d6000803e3d6000fd5b5050604051601f1901519150506001600160a01b03811661220957506000925060019150829050612213565b9250600091508190505b9450945094915050565b60006020828403121561222f57600080fd5b5035919050565b80356001600160a01b038116811461224d57600080fd5b919050565b60006020828403121561226457600080fd5b61226d82612236565b9392505050565b803560ff8116811461224d57600080fd5b6000806040838503121561229857600080fd5b6122a183612274565b946020939093013593505050565b6000602082840312156122c157600080fd5b61226d82612274565b600080604083850312156122dd57600080fd5b6122a183612236565b6000806000606084860312156122fb57600080fd5b61230484612274565b95602085013595506040909401359392505050565b600081518084526020808501945080840160005b838110156123495781518752958201959082019060010161232d565b509495945050505050565b6040815260006123676040830185612319565b90508260208301529392505050565b634e487b7160e01b600052602160045260246000fd5b6002811061239c5761239c612376565b9052565b6005811061239c5761239c612376565b815181526020808301516101408301916123d4908401826001600160a01b03169052565b5060408301516123ef60408401826001600160a01b03169052565b5060608301516060830152608083015161240e608084018260ff169052565b5060a083015161242160a084018261238c565b5060c083015161243460c08401826123a0565b5060e083015161244f60e08401826001600160a01b03169052565b50610100838101519083015261012092830151929091019190915290565b60208152600061226d6020830184612319565b8a81526001600160a01b038a8116602083015289811660408301526060820189905260ff881660808301526101408201906124be60a084018961238c565b6124cb60c08401886123a0565b9490941660e082015261010081019290925261012090910152979650505050505050565b60008060008060006080868803121561250757600080fd5b8535945061251760208701612236565b935060408601359250606086013567ffffffffffffffff8082111561253b57600080fd5b818801915088601f83011261254f57600080fd5b81358181111561255e57600080fd5b89602082850101111561257057600080fd5b9699959850939650602001949392505050565b6000806040838503121561259657600080fd5b61259f83612274565b91506020830135600281106125b357600080fd5b809150509250929050565b6020808252600c908201526b24b73b30b634b2103a34b2b960a11b604082015260600190565b634e487b7160e01b600052601160045260246000fd5b80820180821115611d4c57611d4c6125e4565b8082028115828204841417611d4c57611d4c6125e4565b634e487b7160e01b600052603260045260246000fd5b60006001820161264c5761264c6125e4565b5060010190565b634e487b7160e01b600052604160045260246000fd5b81810381811115611d4c57611d4c6125e4565b60008261269957634e487b7160e01b600052601260045260246000fd5b500490565b60ff84168152606081016126b5602083018561238c565b82604083015294935050505056fea26469706673582212203819c48d2a967cba2b5a4fecdc2a89cdb72fb1ca49d2871219a807ba5ba2a58064736f6c63430008140033",
  "linkReferences": {},
  "deployedLinkReferences": {}
}