{
  "_format": "hh-sol-artifact-1",
  "contractName": "FlipRoyaleArena",
  "sourceName": "contracts/FlipRoyaleArena.sol",
  "abi": [
    {
      "inputs": [
        {
          "internalType": "address",
          "name": "_usdc",
          "type": "address"
        },
        {
          "internalType": "address",
          "name": "_treasury",
          "type": "address"
        },
        {
          "internalType": "address",
          "name": "_oracle",
          "type": "address"
        }
      ],
      "stateMutability": "nonpayable",
      "type": "constructor"
    },
    {
      "inputs": [],
      "name": "ECDSAInvalidSignature",
      "type": "error"
    },
    {
      "inputs": [
        {
          "internalType": "uint256",
          "name": "length",
          "type": "uint256"
        }
      ],
      "name": "ECDSAInvalidSignatureLength",
      "type": "error"
    },
    {
      "inputs": [
        {
          "internalType": "bytes32",
          "name": "s",
          "type": "bytes32"
        }
      ],
      "name": "ECDSAInvalidSignatureS",
      "type": "error"
    },
    {
      "inputs": [],
      "name": "EnforcedPause",
      "type": "error"
    },
    {
      "inputs": [],
      "name": "ExpectedPause",
      "type": "error"
    },
    {
      "inputs": [
        {
          "internalType": "address",
          "name": "owner",
          "type": "address"
        }
      ],
      "name": "OwnableInvalidOwner",
      "type": "error"
    },
    {
      "inputs": [
        {
          "internalType": "address",
          "name": "account",
          "type": "address"
        }
      ],
      "name": "OwnableUnauthorizedAccount",
      "type": "error"
    },
    {
      "inputs": [],
      "name": "ReentrancyGuardReentrantCall",
      "type": "error"
    },
    {
      "inputs": [
        {
          "internalType": "address",
          "name": "token",
          "type": "address"
        }
      ],
      "name": "SafeERC20FailedOperation",
      "type": "error"
    },
    {
      "anonymous": false,
      "inputs": [
        {
          "indexed": true,
          "internalType": "address",
          "name": "newOracle",
          "type": "address"
        }
      ],
      "name": "OracleUpdated",
      "type": "event"
    },
    {
      "anonymous": false,
      "inputs": [
        {
          "indexed": true,
          "internalType": "address",
          "name": "previousOwner",
          "type": "address"
        },
        {
          "indexed": true,
          "internalType": "address",
          "name": "newOwner",
          "type": "address"
        }
      ],
      "name": "OwnershipTransferred",
      "type": "event"
    },
    {
      "anonymous": false,
      "inputs": [
        {
          "indexed": false,
          "internalType": "address",
          "name": "account",
          "type": "address"
        }
      ],
      "name": "Paused",
      "type": "event"
    },
    {
      "anonymous": false,
      "inputs": [
        {
          "indexed": true,
          "internalType": "address",
          "name": "to",
          "type": "address"
        },
        {
          "indexed": false,
          "internalType": "uint256",
          "name": "amount",
          "type": "uint256"
        }
      ],
      "name": "ReplyCorpFeesWithdrawn",
      "type": "event"
    },
    {
      "anonymous": false,
      "inputs": [
        {
          "indexed": true,
          "internalType": "bytes32",
          "name": "roomId",
          "type": "bytes32"
        },
        {
          "indexed": true,
          "internalType": "address",
          "name": "player1",
          "type": "address"
        }
      ],
      "name": "RoomCancelled",
      "type": "event"
    },
    {
      "anonymous": false,
      "inputs": [
        {
          "indexed": true,
          "internalType": "bytes32",
          "name": "roomId",
          "type": "bytes32"
        },
        {
          "indexed": true,
          "internalType": "address",
          "name": "player1",
          "type": "address"
        },
        {
          "indexed": false,
          "internalType": "uint8",
          "name": "tier",
          "type": "uint8"
        },
        {
          "indexed": false,
          "internalType": "enum FlipRoyaleArena.GameMode",
          "name": "gameMode",
          "type": "uint8"
        },
        {
          "indexed": false,
          "internalType": "uint256",
          "name": "stake",
          "type": "uint256"
        }
      ],
      "name": "RoomCreated",
      "type": "event"
    },
    {
      "anonymous": false,
      "inputs": [
        {
          "indexed": true,
          "internalType": "bytes32",
          "name": "roomId",
          "type": "bytes32"
        },
        {
          "indexed": true,
          "internalType": "address",
          "name": "player2",
          "type": "address"
        }
      ],
      "name": "RoomJoined",
      "type": "event"
    },
    {
      "anonymous": false,
      "inputs": [
        {
          "indexed": true,
          "internalType": "bytes32",
          "name": "roomId",
          "type": "bytes32"
        },
        {
          "indexed": true,
          "internalType": "address",
          "name": "winner",
          "type": "address"
        },
        {
          "indexed": false,
          "internalType": "uint256",
          "name": "winnerPayout",
          "type": "uint256"
        },
        {
          "indexed": false,
          "internalType": "uint256",
          "name": "teamFee",
          "type": "uint256"
        },
        {
          "indexed": false,
          "internalType": "uint256",
          "name": "replyCorpFee",
          "type": "uint256"
        }
      ],
      "name": "RoomResolved",
      "type": "event"
    },
    {
      "anonymous": false,
      "inputs": [
        {
          "indexed": false,
          "internalType": "uint8",
          "name": "tier",
          "type": "uint8"
        },
        {
          "indexed": false,
          "internalType": "uint256",
          "name": "newStake",
          "type": "uint256"
        }
      ],
      "name": "TierStakeUpdated",
      "type": "event"
    },
    {
      "anonymous": false,
      "inputs": [
        {
          "indexed": true,
          "internalType": "address",
          "name": "newTreasury",
          "type": "address"
        }
      ],
      "name": "TreasuryUpdated",
      "type": "event"
    },
    {
      "anonymous": false,
      "inputs": [
        {
          "indexed": false,
          "internalType": "address",
          "name": "account",
          "type": "address"
        }
      ],
      "name": "Unpaused",
      "type": "event"
    },
    {
      "inputs": [],
      "name": "RATE_DENOMINATOR",
      "outputs": [
        {
          "internalType": "uint256",
          "name": "",
          "type": "uint256"
        }
      ],
      "stateMutability": "view",
      "type": "function"
    },
    {
      "inputs": [],
      "name": "REPLYCORP_RATE",
      "outputs": [
        {
          "internalType": "uint256",
          "name": "",
          "type": "uint256"
        }
      ],
      "stateMutability": "view",
      "type": "function"
    },
    {
      "inputs": [],
      "name": "TEAM_RATE",
      "outputs": [
        {
          "internalType": "uint256",
          "name": "",
          "type": "uint256"
        }
      ],
      "stateMutability": "view",
      "type": "function"
    },
    {
      "inputs": [],
      "name": "WINNER_RATE",
      "outputs": [
        {
          "internalType": "uint256",
          "name": "",
          "type": "uint256"
        }
      ],
      "stateMutability": "view",
      "type": "function"
    },
    {
      "inputs": [
        {
          "internalType": "uint256",
          "name": "",
          "type": "uint256"
        }
      ],
      "name": "allRoomIds",
      "outputs": [
        {
          "internalType": "bytes32",
          "name": "",
          "type": "bytes32"
        }
      ],
      "stateMutability": "view",
      "type": "function"
    },
    {
      "inputs": [],
      "name": "bronzeStake",
      "outputs": [
        {
          "internalType": "uint256",
          "name": "",
          "type": "uint256"
        }
      ],
      "stateMutability": "view",
      "type": "function"
    },
    {
      "inputs": [
        {
          "internalType": "bytes32",
          "name": "roomId",
          "type": "bytes32"
        }
      ],
      "name": "cancelRoom",
      "outputs": [],
      "stateMutability": "nonpayable",
      "type": "function"
    },
    {
      "inputs": [
        {
          "internalType": "uint8",
          "name": "tier",
          "type": "uint8"
        },
        {
          "internalType": "enum FlipRoyaleArena.GameMode",
          "name": "gameMode",
          "type": "uint8"
        }
      ],
      "name": "createRoom",
      "outputs": [
        {
          "internalType": "bytes32",
          "name": "roomId",
          "type": "bytes32"
        }
      ],
      "stateMutability": "nonpayable",
      "type": "function"
    },
    {
      "inputs": [],
      "name": "diamondStake",
      "outputs": [
        {
          "internalType": "uint256",
          "name": "",
          "type": "uint256"
        }
      ],
      "stateMutability": "view",
      "type": "function"
    },
    {
      "inputs": [],
      "name": "getAllTierStakes",
      "outputs": [
        {
          "internalType": "uint256",
          "name": "bronze",
          "type": "uint256"
        },
        {
          "internalType": "uint256",
          "name": "silver",
          "type": "uint256"
        },
        {
          "internalType": "uint256",
          "name": "gold",
          "type": "uint256"
        },
        {
          "internalType": "uint256",
          "name": "diamond",
          "type": "uint256"
        }
      ],
      "stateMutability": "view",
      "type": "function"
    },
    {
      "inputs": [
        {
          "internalType": "uint8",
          "name": "tier",
          "type": "uint8"
        },
        {
          "internalType": "uint256",
          "name": "offset",
          "type": "uint256"
        },
        {
          "internalType": "uint256",
          "name": "limit",
          "type": "uint256"
        }
      ],
      "name": "getOpenRooms",
      "outputs": [
        {
          "internalType": "bytes32[]",
          "name": "roomIds",
          "type": "bytes32[]"
        },
        {
          "internalType": "uint256",
          "name": "total",
          "type": "uint256"
        }
      ],
      "stateMutability": "view",
      "type": "function"
    },
    {
      "inputs": [
        {
          "internalType": "bytes32",
          "name": "roomId",
          "type": "bytes32"
        }
      ],
      "name": "getRoom",
      "outputs": [
        {
          "components": [
            {
              "internalType": "bytes32",
              "name": "id",
              "type": "bytes32"
            },
            {
              "internalType": "address",
              "name": "player1",
              "type": "address"
            },
            {
              "internalType": "address",
              "name": "player2",
              "type": "address"
            },
            {
              "internalType": "uint256",
              "name": "stake",
              "type": "uint256"
            },
            {
              "internalType": "uint8",
              "name": "tier",
              "type": "uint8"
            },
            {
              "internalType": "enum FlipRoyaleArena.GameMode",
              "name": "gameMode",
              "type": "uint8"
            },
            {
              "internalType": "enum FlipRoyaleArena.RoomStatus",
              "name": "status",
              "type": "uint8"
            },
            {
              "internalType": "address",
              "name": "winner",
              "type": "address"
            },
            {
              "internalType": "uint256",
              "name": "createdAt",
              "type": "uint256"
            },
            {
              "internalType": "uint256",
              "name": "resolvedAt",
              "type": "uint256"
            }
          ],
          "internalType": "struct FlipRoyaleArena.Room",
          "name": "",
          "type": "tuple"
        }
      ],
      "stateMutability": "view",
      "type": "function"
    },
    {
      "inputs": [
        {
          "internalType": "uint8",
          "name": "tier",
          "type": "uint8"
        }
      ],
      "name": "getTierStake",
      "outputs": [
        {
          "internalType": "uint256",
          "name": "",
          "type": "uint256"
        }
      ],
      "stateMutability": "view",
      "type": "function"
    },
    {
      "inputs": [],
      "name": "getTotalRoomsCount",
      "outputs": [
        {
          "internalType": "uint256",
          "name": "",
          "type": "uint256"
        }
      ],
      "stateMutability": "view",
      "type": "function"
    },
    {
      "inputs": [
        {
          "internalType": "address",
          "name": "user",
          "type": "address"
        }
      ],
      "name": "getUserRooms",
      "outputs": [
        {
          "internalType": "bytes32[]",
          "name": "",
          "type": "bytes32[]"
        }
      ],
      "stateMutability": "view",
      "type": "function"
    },
    {
      "inputs": [
        {
          "internalType": "address",
          "name": "user",
          "type": "address"
        }
      ],
      "name": "getUserStats",
      "outputs": [
        {
          "internalType": "uint256",
          "name": "wins",
          "type": "uint256"
        },
        {
          "internalType": "uint256",
          "name": "losses",
          "type": "uint256"
        },
        {
          "internalType": "uint256",
          "name": "totalWinnings",
          "type": "uint256"
        },
        {
          "internalType": "uint256",
          "name": "roomCount",
          "type": "uint256"
        }
      ],
      "stateMutability": "view",
      "type": "function"
    },
    {
      "inputs": [],
      "name": "goldStake",
      "outputs": [
        {
          "internalType": "uint256",
          "name": "",
          "type": "uint256"
        }
      ],
      "stateMutability": "view",
      "type": "function"
    },
    {
      "inputs": [
        {
          "internalType": "bytes32",
          "name": "roomId",
          "type": "bytes32"
        }
      ],
      "name": "joinRoom",
      "outputs": [],
      "stateMutability": "nonpayable",
      "type": "function"
    },
    {
      "inputs": [],
      "name": "oracle",
      "outputs": [
        {
          "internalType": "address",
          "name": "",
          "type": "address"
        }
      ],
      "stateMutability": "view",
      "type": "function"
    },
    {
      "inputs": [],
      "name": "owner",
      "outputs": [
        {
          "internalType": "address",
          "name": "",
          "type": "address"
        }
      ],
      "stateMutability": "view",
      "type": "function"
    },
    {
      "inputs": [],
      "name": "pause",
      "outputs": [],
      "stateMutability": "nonpayable",
      "type": "function"
    },
    {
      "inputs": [],
      "name": "paused",
      "outputs": [
        {
          "internalType": "bool",
          "name": "",
          "type": "bool"
        }
      ],
      "stateMutability": "view",
      "type": "function"
    },
    {
      "inputs": [],
      "name": "pendingReplyCorpFees",
      "outputs": [
        {
          "internalType": "uint256",
          "name": "",
          "type": "uint256"
        }
      ],
      "stateMutability": "view",
      "type": "function"
    },
    {
      "inputs": [],
      "name": "renounceOwnership",
      "outputs": [],
      "stateMutability": "nonpayable",
      "type": "function"
    },
    {
      "inputs": [
        {
          "internalType": "address",
          "name": "token",
          "type": "address"
        },
        {
          "internalType": "uint256",
          "name": "amount",
          "type": "uint256"
        }
      ],
      "name": "rescueTokens",
      "outputs": [],
      "stateMutability": "nonpayable",
      "type": "function"
    },
    {
      "inputs": [
        {
          "internalType": "bytes32",
          "name": "roomId",
          "type": "bytes32"
        },
        {
          "internalType": "address",
          "name": "winner",
          "type": "address"
        },
        {
          "internalType": "bytes32",
          "name": "nonce",
          "type": "bytes32"
        },
        {
          "internalType": "bytes",
          "name": "signature",
          "type": "bytes"
        }
      ],
      "name": "resolveRoom",
      "outputs": [],
      "stateMutability": "nonpayable",
      "type": "function"
    },
    {
      "inputs": [
        {
          "internalType": "bytes32",
          "name": "",
          "type": "bytes32"
        }
      ],
      "name": "rooms",
      "outputs": [
        {
          "internalType": "bytes32",
          "name": "id",
          "type": "bytes32"
        },
        {
          "internalType": "address",
          "name": "player1",
          "type": "address"
        },
        {
          "internalType": "address",
          "name": "player2",
          "type": "address"
        },
        {
          "internalType": "uint256",
          "name": "stake",
          "type": "uint256"
        },
        {
          "internalType": "uint8",
          "name": "tier",
          "type": "uint8"
        },
        {
          "internalType": "enum FlipRoyaleArena.GameMode",
          "name": "gameMode",
          "type": "uint8"
        },
        {
          "internalType": "enum FlipRoyaleArena.RoomStatus",
          "name": "status",
          "type": "uint8"
        },
        {
          "internalType": "address",
          "name": "winner",
          "type": "address"
        },
        {
          "internalType": "uint256",
          "name": "createdAt",
          "type": "uint256"
        },
        {
          "internalType": "uint256",
          "name": "resolvedAt",
          "type": "uint256"
        }
      ],
      "stateMutability": "view",
      "type": "function"
    },
    {
      "inputs": [],
      "name": "silverStake",
      "outputs": [
        {
          "internalType": "uint256",
          "name": "",
          "type": "uint256"
        }
      ],
      "stateMutability": "view",
      "type": "function"
    },
    {
      "inputs": [],
      "name": "totalReplyCorpPaid",
      "outputs": [
        {
          "internalType": "uint256",
          "name": "",
          "type": "uint256"
        }
      ],
      "stateMutability": "view",
      "type": "function"
    },
    {
      "inputs": [
        {
          "internalType": "uint8",
          "name": "",
          "type": "uint8"
        }
      ],
      "name": "totalRoomsByTier",
      "outputs": [
        {
          "internalType": "uint256",
          "name": "",
          "type": "uint256"
        }
      ],
      "stateMutability": "view",
      "type": "function"
    },
    {
      "inputs": [
        {
          "internalType": "uint8",
          "name": "",
          "type": "uint8"
        }
      ],
      "name": "totalVolumeByTier",
      "outputs": [
        {
          "internalType": "uint256",
          "name": "",
          "type": "uint256"
        }
      ],
      "stateMutability": "view",
      "type": "function"
    },
    {
      "inputs": [
        {
          "internalType": "address",
          "name": "newOwner",
          "type": "address"
        }
      ],
      "name": "transferOwnership",
      "outputs": [],
      "stateMutability": "nonpayable",
      "type": "function"
    },
    {
      "inputs": [],
      "name": "treasury",
      "outputs": [
        {
          "internalType": "address",
          "name": "",
          "type": "address"
        }
      ],
      "stateMutability": "view",
      "type": "function"
    },
    {
      "inputs": [],
      "name": "unpause",
      "outputs": [],
      "stateMutability": "nonpayable",
      "type": "function"
    },
    {
      "inputs": [
        {
          "internalType": "address",
          "name": "_oracle",
          "type": "address"
        }
      ],
      "name": "updateOracle",
      "outputs": [],
      "stateMutability": "nonpayable",
      "type": "function"
    },
    {
      "inputs": [
        {
          "internalType": "uint8",
          "name": "tier",
          "type": "uint8"
        },
        {
          "internalType": "uint256",
          "name": "newStake",
          "type": "uint256"
        }
      ],
      "name": "updateTierStake",
      "outputs": [],
      "stateMutability": "nonpayable",
      "type": "function"
    },
    {
      "inputs": [
        {
          "internalType": "address",
          "name": "_treasury",
          "type": "address"
        }
      ],
      "name": "updateTreasury",
      "outputs": [],
      "stateMutability": "nonpayable",
      "type": "function"
    },
    {
      "inputs": [],
      "name": "usdc",
      "outputs": [
        {
          "internalType": "contract IERC20",
          "name": "",
          "type": "address"
        }
      ],
      "stateMutability": "view",
      "type": "function"
    },
    {
      "inputs": [
        {
          "internalType": "bytes32",
          "name": "",
          "type": "bytes32"
        }
      ],
      "name": "usedNonces",
      "outputs": [
        {
          "internalType": "bool",
          "name": "",
          "type": "bool"
        }
      ],
      "stateMutability": "view",
      "type": "function"
    },
    {
      "inputs": [
        {
          "internalType": "address",
          "name": "",
          "type": "address"
        }
      ],
      "name": "userLosses",
      "outputs": [
        {
          "internalType": "uint256",
          "name": "",
          "type": "uint256"
        }
      ],
      "stateMutability": "view",
      "type": "function"
    },
    {
      "inputs": [
        {
          "internalType": "address",
          "name": "",
          "type": "address"
        },
        {
          "internalType": "uint256",
          "name": "",
          "type": "uint256"
        }
      ],
      "name": "userRooms",
      "outputs": [
        {
          "internalType": "bytes32",
          "name": "",
          "type": "bytes32"
        }
      ],
      "stateMutability": "view",
      "type": "function"
    },
    {
      "inputs": [
        {
          "internalType": "address",
          "name": "",
          "type": "address"
        }
      ],
      "name": "userTotalWinnings",
      "outputs": [
        {
          "internalType": "uint256",
          "name": "",
          "type": "uint256"
        }
      ],
      "stateMutability": "view",
      "type": "function"
    },
    {
      "inputs": [
        {
          "internalType": "address",
          "name": "",
          "type": "address"
        }
      ],
      "name": "userWins",
      "outputs": [
        {
          "internalType": "uint256",
          "name": "",
          "type": "uint256"
        }
      ],
      "stateMutability": "view",
      "type": "function"
    },
    {
      "inputs": [
        {
          "internalType": "address",
          "name": "to",
          "type": "address"
        },
        {
          "internalType": "uint256",
          "name": "amount",
          "type": "uint256"
        }
      ],
      "name": "withdrawReplyCorpFees",
      "outputs": [],
      "stateMutability": "nonpayable",
      "type": "function"
    }
  ],
  "bytecode": "0x60a06040526298968060035563017d78406004556302faf0806005556305f5e1006006553480156200003057600080fd5b506040516200273f3803806200273f83398101604081905262000053916200020a565b33806200007b57604051631e4fbdf760e01b8152600060048201526024015b60405180910390fd5b62000086816200019d565b50600180556001600160a01b038316620000d25760405162461bcd60e51b815260206004820152600c60248201526b496e76616c6964205553444360a01b604482015260640162000072565b6001600160a01b0382166200011d5760405162461bcd60e51b815260206004820152601060248201526f496e76616c696420747265617375727960801b604482015260640162000072565b6001600160a01b038116620001665760405162461bcd60e51b815260206004820152600e60248201526d496e76616c6964206f7261636c6560901b604482015260640162000072565b6001600160a01b03928316608052600780549284166001600160a01b03199384161790556008805491909316911617905562000254565b600080546001600160a01b038381166001600160a01b0319831681178455604051919092169283917f8be0079c531659141344cd1fd0a4f28419497f9722a3daafe3b4186f6b6457e09190a35050565b80516001600160a01b03811681146200020557600080fd5b919050565b6000806000606084860312156200022057600080fd5b6200022b84620001ed565b92506200023b60208501620001ed565b91506200024b60408501620001ed565b90509250925092565b60805161249e620002a16000396000818161037101528181610a3c01528181610b2f01528181610fb0015281816112bb0152818161171c015281816117540152611884015261249e6000f3fe608060405234801561001057600080fd5b50600436106102745760003560e01c80637efad8e011610151578063d05bf844116100c3578063e08fe1e611610087578063e08fe1e61461063b578063e7c23f401461064e578063e9d2ee6a14610657578063ee192d1314610660578063f2fde38b14610673578063feb617241461068657600080fd5b8063d05bf8441461056b578063d27479861461057e578063d7fbc2e414610586578063df11c42414610612578063e040d9f31461061b57600080fd5b806392776b4f1161011557806392776b4f146104ef57806395975eac1461044d578063ad9a286614610502578063af76494c14610522578063b01e79611461052b578063cdaf4ad51461054b57600080fd5b80637efad8e0146104b15780637f51bb1f146104ba5780638456cb59146104cd578063857c5a91146104d55780638da5cb5b146104de57600080fd5b80633f4ba83a116101ea57806361d027b3116101ae57806361d027b31461043a578063635d20451461044d5780637135516214610455578063715018a6146104765780637651313a1461047e5780637dc0d1d01461049e57600080fd5b80633f4ba83a146103ab5780634b29b4c4146103b35780634e43603a146103c657806357376198146104105780635c975abb1461042357600080fd5b80631cb44dfc1161023c5780631cb44dfc146102f057806320493ab414610303578063225437461461030c57806327b612d11461032c5780632faf9fb31461033f5780633e413bee1461036c57600080fd5b8063020885d114610279578063088574421461029f5780631144400a146102bf57806313c92920146102c85780631abb2211146102dd575b600080fd5b61028c610287366004611fc2565b6106a9565b6040519081526020015b60405180910390f35b61028c6102ad366004611ff7565b60106020526000908152604090205481565b61028c60065481565b6102db6102d636600461202a565b6106ca565b005b61028c6102eb366004612054565b6107cb565b6102db6102fe366004611ff7565b610831565b61028c60055481565b61028c61031a366004612054565b60126020526000908152604090205481565b61028c61033a36600461206f565b6108ca565b6003546004546005546006545b604080519485526020850193909352918301526060820152608001610296565b6103937f000000000000000000000000000000000000000000000000000000000000000081565b6040516001600160a01b039091168152602001610296565b6102db6108fb565b6102db6103c1366004611fc2565b61090d565b61034c6103d4366004611ff7565b6001600160a01b03166000908152600e6020908152604080832054600f8352818420546010845282852054600d90945291909320549293909290565b6102db61041e36600461206f565b610b25565b60025460ff165b6040519015158152602001610296565b600754610393906001600160a01b031681565b61028c603281565b61046861046336600461208b565b610bcd565b6040516102969291906120f9565b6102db610e0a565b61028c61048c366004611ff7565b600e6020526000908152604090205481565b600854610393906001600160a01b031681565b61028c6103e881565b6102db6104c8366004611ff7565b610e1c565b6102db610eb7565b61028c61038481565b6000546001600160a01b0316610393565b6102db6104fd366004611fc2565b610ec7565b610515610510366004611fc2565b61100f565b6040516102969190612155565b61028c60095481565b61053e610539366004611ff7565b61116f565b6040516102969190612212565b61028c610559366004612054565b60116020526000908152604090205481565b6102db61057936600461206f565b6111db565b600c5461028c565b6105fc610594366004611fc2565b600b60205260009081526040902080546001820154600283015460038401546004850154600586015460069096015494956001600160a01b039485169593851694929360ff80841694610100850482169462010000810490921693630100000090920416918a565b6040516102969a99989796959493929190612225565b61028c600a5481565b61028c610629366004611ff7565b600f6020526000908152604090205481565b6102db610649366004612294565b611329565b61028c60035481565b61028c60045481565b61028c61066e366004612328565b6117e4565b6102db610681366004611ff7565b611af7565b61042a610694366004611fc2565b60136020526000908152604090205460ff1681565b600c81815481106106b957600080fd5b600091825260209091200154905081565b6106d2611b32565b600081116107175760405162461bcd60e51b815260206004820152600d60248201526c496e76616c6964207374616b6560981b60448201526064015b60405180910390fd5b60038260ff16111561073b5760405162461bcd60e51b815260040161070e90612363565b8160ff1660000361075057600381905561078b565b8160ff1660010361076557600481905561078b565b8160ff1660020361077a57600581905561078b565b8160ff1660030361078b5760068190555b6040805160ff84168152602081018390527fc8b1a09ccda86e58aabb19262e8e9acbd055e76acf4a202df94418079a29401c910160405180910390a15050565b60008160ff166000036107e057505060035490565b8160ff166001036107f357505060045490565b8160ff1660020361080657505060055490565b8160ff1660030361081957505060065490565b60405162461bcd60e51b815260040161070e90612363565b610839611b32565b6001600160a01b0381166108805760405162461bcd60e51b815260206004820152600e60248201526d496e76616c6964206f7261636c6560901b604482015260640161070e565b600880546001600160a01b0319166001600160a01b0383169081179091556040517f3df77beb5db05fcdd70a30fc8adf3f83f9501b68579455adbd100b818094039490600090a250565b600d60205281600052604060002081815481106108e657600080fd5b90600052602060002001600091509150505481565b610903611b32565b61090b611b5f565b565b610915611bb1565b61091d611bdb565b6000818152600b6020526040902060018101546001600160a01b03166109765760405162461bcd60e51b815260206004820152600e60248201526d149bdbdb481b9bdd08199bdd5b9960921b604482015260640161070e565b6000600482015462010000900460ff1660038111156109975761099761211b565b146109d45760405162461bcd60e51b815260206004820152600d60248201526c2937b7b6903737ba1037b832b760991b604482015260640161070e565b6001810154336001600160a01b0390911603610a295760405162461bcd60e51b815260206004820152601460248201527343616e6e6f74206a6f696e206f776e20726f6f6d60601b604482015260640161070e565b6003810154610a66906001600160a01b037f0000000000000000000000000000000000000000000000000000000000000000169033903090611bff565b600281810180546001600160a01b0319163390811790915560048301805462ff00001916620100001790556000908152600d60209081526040822080546001810182559083529120018390556003820154610ac09161239f565b600482015460ff1660009081526012602052604081208054909190610ae69084906123b6565b9091555050604051339083907ffba1ad45cc33aed2e8c4f2c3558e076e3b43d01b218179472de7109107a65f8190600090a350610b2260018055565b50565b610b2d611b32565b7f00000000000000000000000000000000000000000000000000000000000000006001600160a01b0316826001600160a01b031603610ba35760405162461bcd60e51b815260206004820152601260248201527143616e6e6f7420726573637565205553444360701b604482015260640161070e565b610bc9610bb86000546001600160a01b031690565b6001600160a01b0384169083611c6c565b5050565b6060600080805b600c54811015610c73576000600b6000600c8481548110610bf757610bf76123c9565b600091825260208083209091015483528201929092526040019020600481015490915060ff908116908916148015610c4d57506000600482015462010000900460ff166003811115610c4b57610c4b61211b565b145b15610c605782610c5c816123df565b9350505b5080610c6b816123df565b915050610bd4565b50809150808510610c9557506040805160008152602081019091529150610e02565b6000610ca1868361240e565b90506000858210610cb25785610cb4565b815b90508067ffffffffffffffff811115610ccf57610ccf6123f8565b604051908082528060200260200182016040528015610cf8578160200160208202803683370190505b50945060008060005b600c5481108015610d1157508382105b15610dfb576000600b6000600c8481548110610d2f57610d2f6123c9565b600091825260208083209091015483528201929092526040019020600481015490915060ff908116908d16148015610d8557506000600482015462010000900460ff166003811115610d8357610d8361211b565b145b15610de8578a8410610dda57600c8281548110610da457610da46123c9565b9060005260206000200154898481518110610dc157610dc16123c9565b602090810291909101015282610dd6816123df565b9350505b83610de4816123df565b9450505b5080610df3816123df565b915050610d01565b5050505050505b935093915050565b610e12611b32565b61090b6000611ca2565b610e24611b32565b6001600160a01b038116610e6d5760405162461bcd60e51b815260206004820152601060248201526f496e76616c696420747265617375727960801b604482015260640161070e565b600780546001600160a01b0319166001600160a01b0383169081179091556040517f7dae230f18360d76a040c81f050aa14eb9d6dc7901b20fc5d855e2a20fe814d190600090a250565b610ebf611b32565b61090b611cf2565b610ecf611bb1565b6000818152600b6020526040902060018101546001600160a01b03163314610f2c5760405162461bcd60e51b815260206004820152601060248201526f2737ba103937b7b69031b932b0ba37b960811b604482015260640161070e565b6000600482015462010000900460ff166003811115610f4d57610f4d61211b565b14610f8a5760405162461bcd60e51b815260206004820152600d60248201526c10d85b9b9bdd0818d85b98d95b609a1b604482015260640161070e565b60048101805462ff00001916620300001790556003810154610fd8906001600160a01b037f000000000000000000000000000000000000000000000000000000000000000016903390611c6c565b604051339083907fcb0b396d88450068151be81530319ec9262bb40342de883160c350b166a7fa7190600090a350610b2260018055565b61106e604080516101408101825260008082526020820181905291810182905260608101829052608081018290529060a082019081526020016000815260200160006001600160a01b0316815260200160008152602001600081525090565b6000828152600b6020908152604091829020825161014081018452815481526001808301546001600160a01b039081169483019490945260028301549093169381019390935260038101546060840152600481015460ff8082166080860152919260a0850192610100909204909116908111156110ed576110ed61211b565b60018111156110fe576110fe61211b565b81526020016004820160029054906101000a900460ff1660038111156111265761112661211b565b60038111156111375761113761211b565b81526004820154630100000090046001600160a01b031660208201526005820154604082015260069091015460609091015292915050565b6001600160a01b0381166000908152600d60209081526040918290208054835181840281018401909452808452606093928301828280156111cf57602002820191906000526020600020905b8154815260200190600101908083116111bb575b50505050509050919050565b6111e3611b32565b6001600160a01b03821661122b5760405162461bcd60e51b815260206004820152600f60248201526e496e76616c6964206164647265737360881b604482015260640161070e565b60095481111561127d5760405162461bcd60e51b815260206004820152601960248201527f496e73756666696369656e742070656e64696e67206665657300000000000000604482015260640161070e565b806009600082825461128f919061240e565b9250508190555080600a60008282546112a891906123b6565b909155506112e290506001600160a01b037f0000000000000000000000000000000000000000000000000000000000000000168383611c6c565b816001600160a01b03167f5d296b0bb3bfb5379f2e92f62036ddc0eb44307b0b690a191a7533e3a31820bd8260405161131d91815260200190565b60405180910390a25050565b611331611bb1565b6000858152600b602052604090206001600482015462010000900460ff1660038111156113605761136061211b565b1461139f5760405162461bcd60e51b815260206004820152600f60248201526e149bdbdb481b9bdd08199a5b1b1959608a1b604482015260640161070e565b60018101546001600160a01b03868116911614806113cc575060028101546001600160a01b038681169116145b6114095760405162461bcd60e51b815260206004820152600e60248201526d24b73b30b634b2103bb4b73732b960911b604482015260640161070e565b60008481526013602052604090205460ff161561145d5760405162461bcd60e51b8152602060048201526012602482015271139bdb98d948185b1c9958591e481d5cd95960721b604482015260640161070e565b604080516020808201899052606088901b6bffffffffffffffffffffffff191682840152605480830188905283518084039091018152607490920190925280519101207f19457468657265756d205369676e6564204d6573736167653a0a3332000000006000908152601c829052603c81209050600061151586868080601f0160208091040260200160405190810160405280939291908181526020018383808284376000920191909152508693925050611d2f9050565b6008549091506001600160a01b038083169116146115755760405162461bcd60e51b815260206004820152601860248201527f496e76616c6964206f7261636c65207369676e61747572650000000000000000604482015260640161070e565b6000878152601360205260408120805460ff19166001179055600385015461159e90600261239f565b905060006103e86115b16103848461239f565b6115bb9190612421565b905060006103e86115cd60328561239f565b6115d79190612421565b905060006103e86115e960328661239f565b6115f39190612421565b60048901805491925060029162ff00001916620100008302179055506004880180546001600160a01b03808f16630100000081026301000000600160b81b0319909316929092179092554260068b015560018a015460009216146116645760018901546001600160a01b0316611673565b60028901546001600160a01b03165b6001600160a01b038e166000908152600e6020526040812080549293509061169a836123df565b90915550506001600160a01b0381166000908152600f602052604081208054916116c3836123df565b90915550506001600160a01b038d16600090815260106020526040812080548692906116f09084906123b6565b92505081905550816009600082825461170991906123b6565b9091555061174390506001600160a01b037f0000000000000000000000000000000000000000000000000000000000000000168e86611c6c565b60075461177d906001600160a01b037f00000000000000000000000000000000000000000000000000000000000000008116911685611c6c565b60408051858152602081018590529081018390526001600160a01b038e16908f907f16efe5897e1b57622ae96aabfc080bfc2e11675afa8afaeb7479865ea856d52f9060600160405180910390a35050505050505050506117dd60018055565b5050505050565b60006117ee611bb1565b6117f6611bdb565b60038360ff16111561181a5760405162461bcd60e51b815260040161070e90612363565b6000611825846107cb565b600c546040516bffffffffffffffffffffffff193360601b166020820152426034820152446054820152607481019190915290915060940160408051601f19818403018152919052805160209091012091506118ac6001600160a01b037f000000000000000000000000000000000000000000000000000000000000000016333084611bff565b604051806101400160405280838152602001336001600160a01b0316815260200160006001600160a01b031681526020018281526020018560ff1681526020018460018111156118fe576118fe61211b565b81526020016000815260006020808301829052426040808501919091526060938401839052868352600b8252918290208451815590840151600180830180546001600160a01b039384166001600160a01b03199182161790915593860151600284018054919093169416939093179055918301516003830155608083015160048301805460ff90921660ff1983168117825560a086015193919261ffff191617906101009084908111156119b4576119b461211b565b021790555060c082015160048201805462ff00001916620100008360038111156119e0576119e061211b565b021790555060e08201516004820180546001600160a01b039092166301000000026301000000600160b81b0319909216919091179055610100820151600582015561012090910151600690910155600c805460018181019092557fdf6966c971051c3d54ec59162606531493a51404a002842f56009d7e5cf4a8c701839055336000908152600d6020908152604080832080549485018155835281832090930185905560ff8716825260119052908120805491611a9c836123df565b9190505550336001600160a01b0316827f5e72612ca9f83d2eb6e23cf918890544be95a6cd5d3bcd1516473a0a2d64cf20868685604051611adf93929190612443565b60405180910390a350611af160018055565b92915050565b611aff611b32565b6001600160a01b038116611b2957604051631e4fbdf760e01b81526000600482015260240161070e565b610b2281611ca2565b6000546001600160a01b0316331461090b5760405163118cdaa760e01b815233600482015260240161070e565b611b67611d59565b6002805460ff191690557f5db9ee0a495bf2e6ff9c91a7834c1ba4fdd244a5e8aa4e537bd38aeae4b073aa335b6040516001600160a01b03909116815260200160405180910390a1565b600260015403611bd457604051633ee5aeb560e01b815260040160405180910390fd5b6002600155565b60025460ff161561090b5760405163d93c066560e01b815260040160405180910390fd5b6040516001600160a01b038481166024830152838116604483015260648201839052611c669186918216906323b872dd906084015b604051602081830303815290604052915060e01b6020820180516001600160e01b038381831617835250505050611d7c565b50505050565b6040516001600160a01b03838116602483015260448201839052611c9d91859182169063a9059cbb90606401611c34565b505050565b600080546001600160a01b038381166001600160a01b0319831681178455604051919092169283917f8be0079c531659141344cd1fd0a4f28419497f9722a3daafe3b4186f6b6457e09190a35050565b611cfa611bdb565b6002805460ff191660011790557f62e78cea01bee320cd4e420270b5ea74000d11b0c9f74754ebdbfc544b05a258611b943390565b600080600080611d3f8686611ded565b925092509250611d4f8282611e3a565b5090949350505050565b60025460ff1661090b57604051638dfc202b60e01b815260040160405180910390fd5b600080602060008451602086016000885af180611d9f576040513d6000823e3d81fd5b50506000513d91508115611db7578060011415611dc4565b6001600160a01b0384163b155b15611c6657604051635274afe760e01b81526001600160a01b038516600482015260240161070e565b60008060008351604103611e275760208401516040850151606086015160001a611e1988828585611ef3565b955095509550505050611e33565b50508151600091506002905b9250925092565b6000826003811115611e4e57611e4e61211b565b03611e57575050565b6001826003811115611e6b57611e6b61211b565b03611e895760405163f645eedf60e01b815260040160405180910390fd5b6002826003811115611e9d57611e9d61211b565b03611ebe5760405163fce698f760e01b81526004810182905260240161070e565b6003826003811115611ed257611ed261211b565b03610bc9576040516335e2f38360e21b81526004810182905260240161070e565b600080807f7fffffffffffffffffffffffffffffff5d576e7357a4501ddfe92f46681b20a0841115611f2e5750600091506003905082611fb8565b604080516000808252602082018084528a905260ff891692820192909252606081018790526080810186905260019060a0016020604051602081039080840390855afa158015611f82573d6000803e3d6000fd5b5050604051601f1901519150506001600160a01b038116611fae57506000925060019150829050611fb8565b9250600091508190505b9450945094915050565b600060208284031215611fd457600080fd5b5035919050565b80356001600160a01b0381168114611ff257600080fd5b919050565b60006020828403121561200957600080fd5b61201282611fdb565b9392505050565b803560ff81168114611ff257600080fd5b6000806040838503121561203d57600080fd5b61204683612019565b946020939093013593505050565b60006020828403121561206657600080fd5b61201282612019565b6000806040838503121561208257600080fd5b61204683611fdb565b6000806000606084860312156120a057600080fd5b6120a984612019565b95602085013595506040909401359392505050565b600081518084526020808501945080840160005b838110156120ee578151875295820195908201906001016120d2565b509495945050505050565b60408152600061210c60408301856120be565b90508260208301529392505050565b634e487b7160e01b600052602160045260246000fd5b600281106121415761214161211b565b9052565b600481106121415761214161211b565b81518152602080830151610140830191612179908401826001600160a01b03169052565b50604083015161219460408401826001600160a01b03169052565b506060830151606083015260808301516121b3608084018260ff169052565b5060a08301516121c660a0840182612131565b5060c08301516121d960c0840182612145565b5060e08301516121f460e08401826001600160a01b03169052565b50610100838101519083015261012092830151929091019190915290565b60208152600061201260208301846120be565b8a81526001600160a01b038a8116602083015289811660408301526060820189905260ff8816608083015261014082019061226360a0840189612131565b61227060c0840188612145565b9490941660e082015261010081019290925261012090910152979650505050505050565b6000806000806000608086880312156122ac57600080fd5b853594506122bc60208701611fdb565b935060408601359250606086013567ffffffffffffffff808211156122e057600080fd5b818801915088601f8301126122f457600080fd5b81358181111561230357600080fd5b89602082850101111561231557600080fd5b9699959850939650602001949392505050565b6000806040838503121561233b57600080fd5b61234483612019565b915060208301356002811061235857600080fd5b809150509250929050565b6020808252600c908201526b24b73b30b634b2103a34b2b960a11b604082015260600190565b634e487b7160e01b600052601160045260246000fd5b8082028115828204841417611af157611af1612389565b80820180821115611af157611af1612389565b634e487b7160e01b600052603260045260246000fd5b6000600182016123f1576123f1612389565b5060010190565b634e487b7160e01b600052604160045260246000fd5b81810381811115611af157611af1612389565b60008261243e57634e487b7160e01b600052601260045260246000fd5b500490565b60ff841681526060810161245a6020830185612131565b82604083015294935050505056fea264697066735822122016ff66191cfc8034dc0deb6a3ad6ccceb7ea80745fe0d9395d6a1de74212e95b64736f6c63430008140033",
  "linkReferences": {},
  "deployedLinkReferences": {}
}