{
  "_format": "hh-sol-artifact-1",
  "contractName": "FlipRoyaleArena",
  "sourceName": "contracts/FlipRoyaleArena.sol",
  "abi": [
    {
      "inputs": [
        {
          "internalType": "address",
          "name": "_usdc",
          "type": "address"
        },
        {
          "internalType": "address",
          "name": "_treasury",
          "type": "address"
        },
        {
          "internalType": "address",
          "name": "_oracle",
          "type": "address"
        }
      ],
      "stateMutability": "nonpayable",
      "type": "constructor"
    },
    {
      "inputs": [],
      "name": "ECDSAInvalidSignature",
      "type": "error"
    },
    {
      "inputs": [
        {
          "internalType": "uint256",
          "name": "length",
          "type": "uint256"
        }
      ],
      "name": "ECDSAInvalidSignatureLength",
      "type": "error"
    },
    {
      "inputs": [
        {
          "internalType": "bytes32",
          "name": "s",
          "type": "bytes32"
        }
      ],
      "name": "ECDSAInvalidSignatureS",
      "type": "error"
    },
    {
      "inputs": [],
      "name": "EnforcedPause",
      "type": "error"
    },
    {
      "inputs": [],
      "name": "ExpectedPause",
      "type": "error"
    },
    {
      "inputs": [
        {
          "internalType": "address",
          "name": "owner",
          "type": "address"
        }
      ],
      "name": "OwnableInvalidOwner",
      "type": "error"
    },
    {
      "inputs": [
        {
          "internalType": "address",
          "name": "account",
          "type": "address"
        }
      ],
      "name": "OwnableUnauthorizedAccount",
      "type": "error"
    },
    {
      "inputs": [],
      "name": "ReentrancyGuardReentrantCall",
      "type": "error"
    },
    {
      "inputs": [
        {
          "internalType": "address",
          "name": "token",
          "type": "address"
        }
      ],
      "name": "SafeERC20FailedOperation",
      "type": "error"
    },
    {
      "anonymous": false,
      "inputs": [
        {
          "indexed": true,
          "internalType": "address",
          "name": "newOracle",
          "type": "address"
        }
      ],
      "name": "OracleUpdated",
      "type": "event"
    },
    {
      "anonymous": false,
      "inputs": [
        {
          "indexed": true,
          "internalType": "address",
          "name": "previousOwner",
          "type": "address"
        },
        {
          "indexed": true,
          "internalType": "address",
          "name": "newOwner",
          "type": "address"
        }
      ],
      "name": "OwnershipTransferred",
      "type": "event"
    },
    {
      "anonymous": false,
      "inputs": [
        {
          "indexed": false,
          "internalType": "address",
          "name": "account",
          "type": "address"
        }
      ],
      "name": "Paused",
      "type": "event"
    },
    {
      "anonymous": false,
      "inputs": [
        {
          "indexed": true,
          "internalType": "address",
          "name": "to",
          "type": "address"
        },
        {
          "indexed": false,
          "internalType": "uint256",
          "name": "amount",
          "type": "uint256"
        }
      ],
      "name": "ReplyCorpFeesWithdrawn",
      "type": "event"
    },
    {
      "anonymous": false,
      "inputs": [
        {
          "indexed": true,
          "internalType": "bytes32",
          "name": "roomId",
          "type": "bytes32"
        },
        {
          "indexed": true,
          "internalType": "address",
          "name": "player1",
          "type": "address"
        }
      ],
      "name": "RoomCancelled",
      "type": "event"
    },
    {
      "anonymous": false,
      "inputs": [
        {
          "indexed": true,
          "internalType": "bytes32",
          "name": "roomId",
          "type": "bytes32"
        },
        {
          "indexed": true,
          "internalType": "address",
          "name": "player1",
          "type": "address"
        },
        {
          "indexed": false,
          "internalType": "uint8",
          "name": "tier",
          "type": "uint8"
        },
        {
          "indexed": false,
          "internalType": "enum FlipRoyaleArena.GameMode",
          "name": "gameMode",
          "type": "uint8"
        },
        {
          "indexed": false,
          "internalType": "uint256",
          "name": "stake",
          "type": "uint256"
        }
      ],
      "name": "RoomCreated",
      "type": "event"
    },
    {
      "anonymous": false,
      "inputs": [
        {
          "indexed": true,
          "internalType": "bytes32",
          "name": "roomId",
          "type": "bytes32"
        },
        {
          "indexed": true,
          "internalType": "address",
          "name": "player1",
          "type": "address"
        },
        {
          "indexed": true,
          "internalType": "address",
          "name": "player2",
          "type": "address"
        },
        {
          "indexed": false,
          "internalType": "uint256",
          "name": "refundAmount",
          "type": "uint256"
        }
      ],
      "name": "RoomDraw",
      "type": "event"
    },
    {
      "anonymous": false,
      "inputs": [
        {
          "indexed": true,
          "internalType": "bytes32",
          "name": "roomId",
          "type": "bytes32"
        },
        {
          "indexed": true,
          "internalType": "address",
          "name": "player2",
          "type": "address"
        }
      ],
      "name": "RoomJoined",
      "type": "event"
    },
    {
      "anonymous": false,
      "inputs": [
        {
          "indexed": true,
          "internalType": "bytes32",
          "name": "roomId",
          "type": "bytes32"
        },
        {
          "indexed": true,
          "internalType": "address",
          "name": "winner",
          "type": "address"
        },
        {
          "indexed": false,
          "internalType": "uint256",
          "name": "winnerPayout",
          "type": "uint256"
        },
        {
          "indexed": false,
          "internalType": "uint256",
          "name": "teamFee",
          "type": "uint256"
        },
        {
          "indexed": false,
          "internalType": "uint256",
          "name": "replyCorpFee",
          "type": "uint256"
        }
      ],
      "name": "RoomResolved",
      "type": "event"
    },
    {
      "anonymous": false,
      "inputs": [
        {
          "indexed": false,
          "internalType": "uint8",
          "name": "tier",
          "type": "uint8"
        },
        {
          "indexed": false,
          "internalType": "uint256",
          "name": "newStake",
          "type": "uint256"
        }
      ],
      "name": "TierStakeUpdated",
      "type": "event"
    },
    {
      "anonymous": false,
      "inputs": [
        {
          "indexed": true,
          "internalType": "address",
          "name": "newTreasury",
          "type": "address"
        }
      ],
      "name": "TreasuryUpdated",
      "type": "event"
    },
    {
      "anonymous": false,
      "inputs": [
        {
          "indexed": false,
          "internalType": "address",
          "name": "account",
          "type": "address"
        }
      ],
      "name": "Unpaused",
      "type": "event"
    },
    {
      "inputs": [],
      "name": "RATE_DENOMINATOR",
      "outputs": [
        {
          "internalType": "uint256",
          "name": "",
          "type": "uint256"
        }
      ],
      "stateMutability": "view",
      "type": "function"
    },
    {
      "inputs": [],
      "name": "REPLYCORP_RATE",
      "outputs": [
        {
          "internalType": "uint256",
          "name": "",
          "type": "uint256"
        }
      ],
      "stateMutability": "view",
      "type": "function"
    },
    {
      "inputs": [],
      "name": "TEAM_RATE",
      "outputs": [
        {
          "internalType": "uint256",
          "name": "",
          "type": "uint256"
        }
      ],
      "stateMutability": "view",
      "type": "function"
    },
    {
      "inputs": [],
      "name": "WINNER_RATE",
      "outputs": [
        {
          "internalType": "uint256",
          "name": "",
          "type": "uint256"
        }
      ],
      "stateMutability": "view",
      "type": "function"
    },
    {
      "inputs": [
        {
          "internalType": "uint256",
          "name": "",
          "type": "uint256"
        }
      ],
      "name": "allRoomIds",
      "outputs": [
        {
          "internalType": "bytes32",
          "name": "",
          "type": "bytes32"
        }
      ],
      "stateMutability": "view",
      "type": "function"
    },
    {
      "inputs": [],
      "name": "bronzeStake",
      "outputs": [
        {
          "internalType": "uint256",
          "name": "",
          "type": "uint256"
        }
      ],
      "stateMutability": "view",
      "type": "function"
    },
    {
      "inputs": [
        {
          "internalType": "bytes32",
          "name": "roomId",
          "type": "bytes32"
        }
      ],
      "name": "cancelRoom",
      "outputs": [],
      "stateMutability": "nonpayable",
      "type": "function"
    },
    {
      "inputs": [
        {
          "internalType": "uint8",
          "name": "tier",
          "type": "uint8"
        },
        {
          "internalType": "enum FlipRoyaleArena.GameMode",
          "name": "gameMode",
          "type": "uint8"
        }
      ],
      "name": "createRoom",
      "outputs": [
        {
          "internalType": "bytes32",
          "name": "roomId",
          "type": "bytes32"
        }
      ],
      "stateMutability": "nonpayable",
      "type": "function"
    },
    {
      "inputs": [],
      "name": "diamondStake",
      "outputs": [
        {
          "internalType": "uint256",
          "name": "",
          "type": "uint256"
        }
      ],
      "stateMutability": "view",
      "type": "function"
    },
    {
      "inputs": [],
      "name": "getAllTierStakes",
      "outputs": [
        {
          "internalType": "uint256",
          "name": "bronze",
          "type": "uint256"
        },
        {
          "internalType": "uint256",
          "name": "silver",
          "type": "uint256"
        },
        {
          "internalType": "uint256",
          "name": "gold",
          "type": "uint256"
        },
        {
          "internalType": "uint256",
          "name": "diamond",
          "type": "uint256"
        }
      ],
      "stateMutability": "view",
      "type": "function"
    },
    {
      "inputs": [
        {
          "internalType": "uint8",
          "name": "tier",
          "type": "uint8"
        },
        {
          "internalType": "uint256",
          "name": "offset",
          "type": "uint256"
        },
        {
          "internalType": "uint256",
          "name": "limit",
          "type": "uint256"
        }
      ],
      "name": "getOpenRooms",
      "outputs": [
        {
          "internalType": "bytes32[]",
          "name": "roomIds",
          "type": "bytes32[]"
        },
        {
          "internalType": "uint256",
          "name": "total",
          "type": "uint256"
        }
      ],
      "stateMutability": "view",
      "type": "function"
    },
    {
      "inputs": [
        {
          "internalType": "bytes32",
          "name": "roomId",
          "type": "bytes32"
        }
      ],
      "name": "getRoom",
      "outputs": [
        {
          "components": [
            {
              "internalType": "bytes32",
              "name": "id",
              "type": "bytes32"
            },
            {
              "internalType": "address",
              "name": "player1",
              "type": "address"
            },
            {
              "internalType": "address",
              "name": "player2",
              "type": "address"
            },
            {
              "internalType": "uint256",
              "name": "stake",
              "type": "uint256"
            },
            {
              "internalType": "uint8",
              "name": "tier",
              "type": "uint8"
            },
            {
              "internalType": "enum FlipRoyaleArena.GameMode",
              "name": "gameMode",
              "type": "uint8"
            },
            {
              "internalType": "enum FlipRoyaleArena.RoomStatus",
              "name": "status",
              "type": "uint8"
            },
            {
              "internalType": "address",
              "name": "winner",
              "type": "address"
            },
            {
              "internalType": "uint256",
              "name": "createdAt",
              "type": "uint256"
            },
            {
              "internalType": "uint256",
              "name": "resolvedAt",
              "type": "uint256"
            }
          ],
          "internalType": "struct FlipRoyaleArena.Room",
          "name": "",
          "type": "tuple"
        }
      ],
      "stateMutability": "view",
      "type": "function"
    },
    {
      "inputs": [
        {
          "internalType": "uint8",
          "name": "tier",
          "type": "uint8"
        }
      ],
      "name": "getTierStake",
      "outputs": [
        {
          "internalType": "uint256",
          "name": "",
          "type": "uint256"
        }
      ],
      "stateMutability": "view",
      "type": "function"
    },
    {
      "inputs": [],
      "name": "getTotalRoomsCount",
      "outputs": [
        {
          "internalType": "uint256",
          "name": "",
          "type": "uint256"
        }
      ],
      "stateMutability": "view",
      "type": "function"
    },
    {
      "inputs": [
        {
          "internalType": "address",
          "name": "user",
          "type": "address"
        }
      ],
      "name": "getUserRooms",
      "outputs": [
        {
          "internalType": "bytes32[]",
          "name": "",
          "type": "bytes32[]"
        }
      ],
      "stateMutability": "view",
      "type": "function"
    },
    {
      "inputs": [
        {
          "internalType": "address",
          "name": "user",
          "type": "address"
        }
      ],
      "name": "getUserStats",
      "outputs": [
        {
          "internalType": "uint256",
          "name": "wins",
          "type": "uint256"
        },
        {
          "internalType": "uint256",
          "name": "losses",
          "type": "uint256"
        },
        {
          "internalType": "uint256",
          "name": "totalWinnings",
          "type": "uint256"
        },
        {
          "internalType": "uint256",
          "name": "roomCount",
          "type": "uint256"
        }
      ],
      "stateMutability": "view",
      "type": "function"
    },
    {
      "inputs": [],
      "name": "goldStake",
      "outputs": [
        {
          "internalType": "uint256",
          "name": "",
          "type": "uint256"
        }
      ],
      "stateMutability": "view",
      "type": "function"
    },
    {
      "inputs": [
        {
          "internalType": "bytes32",
          "name": "roomId",
          "type": "bytes32"
        }
      ],
      "name": "joinRoom",
      "outputs": [],
      "stateMutability": "nonpayable",
      "type": "function"
    },
    {
      "inputs": [],
      "name": "oracle",
      "outputs": [
        {
          "internalType": "address",
          "name": "",
          "type": "address"
        }
      ],
      "stateMutability": "view",
      "type": "function"
    },
    {
      "inputs": [],
      "name": "owner",
      "outputs": [
        {
          "internalType": "address",
          "name": "",
          "type": "address"
        }
      ],
      "stateMutability": "view",
      "type": "function"
    },
    {
      "inputs": [],
      "name": "pause",
      "outputs": [],
      "stateMutability": "nonpayable",
      "type": "function"
    },
    {
      "inputs": [],
      "name": "paused",
      "outputs": [
        {
          "internalType": "bool",
          "name": "",
          "type": "bool"
        }
      ],
      "stateMutability": "view",
      "type": "function"
    },
    {
      "inputs": [],
      "name": "pendingReplyCorpFees",
      "outputs": [
        {
          "internalType": "uint256",
          "name": "",
          "type": "uint256"
        }
      ],
      "stateMutability": "view",
      "type": "function"
    },
    {
      "inputs": [],
      "name": "renounceOwnership",
      "outputs": [],
      "stateMutability": "nonpayable",
      "type": "function"
    },
    {
      "inputs": [
        {
          "internalType": "address",
          "name": "token",
          "type": "address"
        },
        {
          "internalType": "uint256",
          "name": "amount",
          "type": "uint256"
        }
      ],
      "name": "rescueTokens",
      "outputs": [],
      "stateMutability": "nonpayable",
      "type": "function"
    },
    {
      "inputs": [
        {
          "internalType": "bytes32",
          "name": "roomId",
          "type": "bytes32"
        },
        {
          "internalType": "address",
          "name": "winner",
          "type": "address"
        },
        {
          "internalType": "bytes32",
          "name": "nonce",
          "type": "bytes32"
        },
        {
          "internalType": "bytes",
          "name": "signature",
          "type": "bytes"
        }
      ],
      "name": "resolveRoom",
      "outputs": [],
      "stateMutability": "nonpayable",
      "type": "function"
    },
    {
      "inputs": [
        {
          "internalType": "bytes32",
          "name": "roomId",
          "type": "bytes32"
        },
        {
          "internalType": "bytes32",
          "name": "nonce",
          "type": "bytes32"
        },
        {
          "internalType": "bytes",
          "name": "signature",
          "type": "bytes"
        }
      ],
      "name": "resolveRoomDraw",
      "outputs": [],
      "stateMutability": "nonpayable",
      "type": "function"
    },
    {
      "inputs": [
        {
          "internalType": "bytes32",
          "name": "",
          "type": "bytes32"
        }
      ],
      "name": "rooms",
      "outputs": [
        {
          "internalType": "bytes32",
          "name": "id",
          "type": "bytes32"
        },
        {
          "internalType": "address",
          "name": "player1",
          "type": "address"
        },
        {
          "internalType": "address",
          "name": "player2",
          "type": "address"
        },
        {
          "internalType": "uint256",
          "name": "stake",
          "type": "uint256"
        },
        {
          "internalType": "uint8",
          "name": "tier",
          "type": "uint8"
        },
        {
          "internalType": "enum FlipRoyaleArena.GameMode",
          "name": "gameMode",
          "type": "uint8"
        },
        {
          "internalType": "enum FlipRoyaleArena.RoomStatus",
          "name": "status",
          "type": "uint8"
        },
        {
          "internalType": "address",
          "name": "winner",
          "type": "address"
        },
        {
          "internalType": "uint256",
          "name": "createdAt",
          "type": "uint256"
        },
        {
          "internalType": "uint256",
          "name": "resolvedAt",
          "type": "uint256"
        }
      ],
      "stateMutability": "view",
      "type": "function"
    },
    {
      "inputs": [],
      "name": "silverStake",
      "outputs": [
        {
          "internalType": "uint256",
          "name": "",
          "type": "uint256"
        }
      ],
      "stateMutability": "view",
      "type": "function"
    },
    {
      "inputs": [],
      "name": "totalReplyCorpPaid",
      "outputs": [
        {
          "internalType": "uint256",
          "name": "",
          "type": "uint256"
        }
      ],
      "stateMutability": "view",
      "type": "function"
    },
    {
      "inputs": [
        {
          "internalType": "uint8",
          "name": "",
          "type": "uint8"
        }
      ],
      "name": "totalRoomsByTier",
      "outputs": [
        {
          "internalType": "uint256",
          "name": "",
          "type": "uint256"
        }
      ],
      "stateMutability": "view",
      "type": "function"
    },
    {
      "inputs": [
        {
          "internalType": "uint8",
          "name": "",
          "type": "uint8"
        }
      ],
      "name": "totalVolumeByTier",
      "outputs": [
        {
          "internalType": "uint256",
          "name": "",
          "type": "uint256"
        }
      ],
      "stateMutability": "view",
      "type": "function"
    },
    {
      "inputs": [
        {
          "internalType": "address",
          "name": "newOwner",
          "type": "address"
        }
      ],
      "name": "transferOwnership",
      "outputs": [],
      "stateMutability": "nonpayable",
      "type": "function"
    },
    {
      "inputs": [],
      "name": "treasury",
      "outputs": [
        {
          "internalType": "address",
          "name": "",
          "type": "address"
        }
      ],
      "stateMutability": "view",
      "type": "function"
    },
    {
      "inputs": [],
      "name": "unpause",
      "outputs": [],
      "stateMutability": "nonpayable",
      "type": "function"
    },
    {
      "inputs": [
        {
          "internalType": "address",
          "name": "_oracle",
          "type": "address"
        }
      ],
      "name": "updateOracle",
      "outputs": [],
      "stateMutability": "nonpayable",
      "type": "function"
    },
    {
      "inputs": [
        {
          "internalType": "uint8",
          "name": "tier",
          "type": "uint8"
        },
        {
          "internalType": "uint256",
          "name": "newStake",
          "type": "uint256"
        }
      ],
      "name": "updateTierStake",
      "outputs": [],
      "stateMutability": "nonpayable",
      "type": "function"
    },
    {
      "inputs": [
        {
          "internalType": "address",
          "name": "_treasury",
          "type": "address"
        }
      ],
      "name": "updateTreasury",
      "outputs": [],
      "stateMutability": "nonpayable",
      "type": "function"
    },
    {
      "inputs": [],
      "name": "usdc",
      "outputs": [
        {
          "internalType": "contract IERC20",
          "name": "",
          "type": "address"
        }
      ],
      "stateMutability": "view",
      "type": "function"
    },
    {
      "inputs": [
        {
          "internalType": "bytes32",
          "name": "",
          "type": "bytes32"
        }
      ],
      "name": "usedNonces",
      "outputs": [
        {
          "internalType": "bool",
          "name": "",
          "type": "bool"
        }
      ],
      "stateMutability": "view",
      "type": "function"
    },
    {
      "inputs": [
        {
          "internalType": "address",
          "name": "",
          "type": "address"
        }
      ],
      "name": "userLosses",
      "outputs": [
        {
          "internalType": "uint256",
          "name": "",
          "type": "uint256"
        }
      ],
      "stateMutability": "view",
      "type": "function"
    },
    {
      "inputs": [
        {
          "internalType": "address",
          "name": "",
          "type": "address"
        },
        {
          "internalType": "uint256",
          "name": "",
          "type": "uint256"
        }
      ],
      "name": "userRooms",
      "outputs": [
        {
          "internalType": "bytes32",
          "name": "",
          "type": "bytes32"
        }
      ],
      "stateMutability": "view",
      "type": "function"
    },
    {
      "inputs": [
        {
          "internalType": "address",
          "name": "",
          "type": "address"
        }
      ],
      "name": "userTotalWinnings",
      "outputs": [
        {
          "internalType": "uint256",
          "name": "",
          "type": "uint256"
        }
      ],
      "stateMutability": "view",
      "type": "function"
    },
    {
      "inputs": [
        {
          "internalType": "address",
          "name": "",
          "type": "address"
        }
      ],
      "name": "userWins",
      "outputs": [
        {
          "internalType": "uint256",
          "name": "",
          "type": "uint256"
        }
      ],
      "stateMutability": "view",
      "type": "function"
    },
    {
      "inputs": [
        {
          "internalType": "address",
          "name": "to",
          "type": "address"
        },
        {
          "internalType": "uint256",
          "name": "amount",
          "type": "uint256"
        }
      ],
      "name": "withdrawReplyCorpFees",
      "outputs": [],
      "stateMutability": "nonpayable",
      "type": "function"
    }
  ],
  "bytecode": "0x60a06040526298968060035563017d78406004556302faf0806005556305f5e1006006553480156200003057600080fd5b5060405162002ac438038062002ac483398101604081905262000053916200020a565b33806200007b57604051631e4fbdf760e01b8152600060048201526024015b60405180910390fd5b62000086816200019d565b50600180556001600160a01b038316620000d25760405162461bcd60e51b815260206004820152600c60248201526b496e76616c6964205553444360a01b604482015260640162000072565b6001600160a01b0382166200011d5760405162461bcd60e51b815260206004820152601060248201526f496e76616c696420747265617375727960801b604482015260640162000072565b6001600160a01b038116620001665760405162461bcd60e51b815260206004820152600e60248201526d496e76616c6964206f7261636c6560901b604482015260640162000072565b6001600160a01b03928316608052600780549284166001600160a01b03199384161790556008805491909316911617905562000254565b600080546001600160a01b038381166001600160a01b0319831681178455604051919092169283917f8be0079c531659141344cd1fd0a4f28419497f9722a3daafe3b4186f6b6457e09190a35050565b80516001600160a01b03811681146200020557600080fd5b919050565b6000806000606084860312156200022057600080fd5b6200022b84620001ed565b92506200023b60208501620001ed565b91506200024b60408501620001ed565b90509250925092565b608051612815620002af6000396000818161037c01528181610a5a01528181610b4d01528181610fce015281816112420152818161128d015281816115ca01528181611a2601528181611a5e0152611b8e01526128156000f3fe608060405234801561001057600080fd5b506004361061027f5760003560e01c80637efad8e01161015c578063cdaf4ad5116100ce578063e08fe1e611610087578063e08fe1e614610659578063e7c23f401461066c578063e9d2ee6a14610675578063ee192d131461067e578063f2fde38b14610691578063feb61724146106a457600080fd5b8063cdaf4ad514610569578063d05bf84414610589578063d27479861461059c578063d7fbc2e4146105a4578063df11c42414610630578063e040d9f31461063957600080fd5b806392776b4f1161012057806392776b4f146104fa57806395975eac14610458578063a1fbda631461050d578063ad9a286614610520578063af76494c14610540578063b01e79611461054957600080fd5b80637efad8e0146104bc5780637f51bb1f146104c55780638456cb59146104d8578063857c5a91146104e05780638da5cb5b146104e957600080fd5b80633f4ba83a116101f557806361d027b3116101b957806361d027b314610445578063635d2045146104585780637135516214610460578063715018a6146104815780637651313a146104895780637dc0d1d0146104a957600080fd5b80633f4ba83a146103b65780634b29b4c4146103be5780634e43603a146103d1578063573761981461041b5780635c975abb1461042e57600080fd5b80631cb44dfc116102475780631cb44dfc146102fb57806320493ab41461030e578063225437461461031757806327b612d1146103375780632faf9fb31461034a5780633e413bee1461037757600080fd5b8063020885d11461028457806308857442146102aa5780631144400a146102ca57806313c92920146102d35780631abb2211146102e8575b600080fd5b6102976102923660046122c9565b6106c7565b6040519081526020015b60405180910390f35b6102976102b83660046122fe565b60106020526000908152604090205481565b61029760065481565b6102e66102e1366004612331565b6106e8565b005b6102976102f636600461235b565b6107e9565b6102e66103093660046122fe565b61084f565b61029760055481565b61029761032536600461235b565b60126020526000908152604090205481565b610297610345366004612376565b6108e8565b6003546004546005546006545b6040805194855260208501939093529183015260608201526080016102a1565b61039e7f000000000000000000000000000000000000000000000000000000000000000081565b6040516001600160a01b0390911681526020016102a1565b6102e6610919565b6102e66103cc3660046122c9565b61092b565b6103576103df3660046122fe565b6001600160a01b03166000908152600e6020908152604080832054600f8352818420546010845282852054600d90945291909320549293909290565b6102e6610429366004612376565b610b43565b60025460ff165b60405190151581526020016102a1565b60075461039e906001600160a01b031681565b610297603281565b61047361046e366004612392565b610beb565b6040516102a1929190612400565b6102e6610e28565b6102976104973660046122fe565b600e6020526000908152604090205481565b60085461039e906001600160a01b031681565b6102976103e881565b6102e66104d33660046122fe565b610e3a565b6102e6610ed5565b61029761038481565b6000546001600160a01b031661039e565b6102e66105083660046122c9565b610ee5565b6102e661051b36600461246b565b61102d565b61053361052e3660046122c9565b61131e565b6040516102a191906124f8565b61029760095481565b61055c6105573660046122fe565b61147e565b6040516102a191906125b5565b61029761057736600461235b565b60116020526000908152604090205481565b6102e6610597366004612376565b6114ea565b600c54610297565b61061a6105b23660046122c9565b600b60205260009081526040902080546001820154600283015460038401546004850154600586015460069096015494956001600160a01b039485169593851694929360ff80841694610100850482169462010000810490921693630100000090920416918a565b6040516102a19a999897969594939291906125c8565b610297600a5481565b6102976106473660046122fe565b600f6020526000908152604090205481565b6102e6610667366004612637565b611638565b61029760035481565b61029760045481565b61029761068c36600461269f565b611aee565b6102e661069f3660046122fe565b611e04565b6104356106b23660046122c9565b60136020526000908152604090205460ff1681565b600c81815481106106d757600080fd5b600091825260209091200154905081565b6106f0611e3f565b600081116107355760405162461bcd60e51b815260206004820152600d60248201526c496e76616c6964207374616b6560981b60448201526064015b60405180910390fd5b60038260ff1611156107595760405162461bcd60e51b815260040161072c906126da565b8160ff1660000361076e5760038190556107a9565b8160ff166001036107835760048190556107a9565b8160ff166002036107985760058190556107a9565b8160ff166003036107a95760068190555b6040805160ff84168152602081018390527fc8b1a09ccda86e58aabb19262e8e9acbd055e76acf4a202df94418079a29401c910160405180910390a15050565b60008160ff166000036107fe57505060035490565b8160ff1660010361081157505060045490565b8160ff1660020361082457505060055490565b8160ff1660030361083757505060065490565b60405162461bcd60e51b815260040161072c906126da565b610857611e3f565b6001600160a01b03811661089e5760405162461bcd60e51b815260206004820152600e60248201526d496e76616c6964206f7261636c6560901b604482015260640161072c565b600880546001600160a01b0319166001600160a01b0383169081179091556040517f3df77beb5db05fcdd70a30fc8adf3f83f9501b68579455adbd100b818094039490600090a250565b600d602052816000526040600020818154811061090457600080fd5b90600052602060002001600091509150505481565b610921611e3f565b610929611e6c565b565b610933611ebe565b61093b611ee8565b6000818152600b6020526040902060018101546001600160a01b03166109945760405162461bcd60e51b815260206004820152600e60248201526d149bdbdb481b9bdd08199bdd5b9960921b604482015260640161072c565b600060048281015462010000900460ff16908111156109b5576109b56124be565b146109f25760405162461bcd60e51b815260206004820152600d60248201526c2937b7b6903737ba1037b832b760991b604482015260640161072c565b6001810154336001600160a01b0390911603610a475760405162461bcd60e51b815260206004820152601460248201527343616e6e6f74206a6f696e206f776e20726f6f6d60601b604482015260640161072c565b6003810154610a84906001600160a01b037f0000000000000000000000000000000000000000000000000000000000000000169033903090611f0c565b600281810180546001600160a01b0319163390811790915560048301805462ff00001916620100001790556000908152600d60209081526040822080546001810182559083529120018390556003820154610ade91612716565b600482015460ff1660009081526012602052604081208054909190610b0490849061272d565b9091555050604051339083907ffba1ad45cc33aed2e8c4f2c3558e076e3b43d01b218179472de7109107a65f8190600090a350610b4060018055565b50565b610b4b611e3f565b7f00000000000000000000000000000000000000000000000000000000000000006001600160a01b0316826001600160a01b031603610bc15760405162461bcd60e51b815260206004820152601260248201527143616e6e6f7420726573637565205553444360701b604482015260640161072c565b610be7610bd66000546001600160a01b031690565b6001600160a01b0384169083611f73565b5050565b6060600080805b600c54811015610c91576000600b6000600c8481548110610c1557610c15612740565b600091825260208083209091015483528201929092526040019020600481015490915060ff908116908916148015610c6b5750600060048281015462010000900460ff1690811115610c6957610c696124be565b145b15610c7e5782610c7a81612756565b9350505b5080610c8981612756565b915050610bf2565b50809150808510610cb357506040805160008152602081019091529150610e20565b6000610cbf8683612785565b90506000858210610cd05785610cd2565b815b90508067ffffffffffffffff811115610ced57610ced61276f565b604051908082528060200260200182016040528015610d16578160200160208202803683370190505b50945060008060005b600c5481108015610d2f57508382105b15610e19576000600b6000600c8481548110610d4d57610d4d612740565b600091825260208083209091015483528201929092526040019020600481015490915060ff908116908d16148015610da35750600060048281015462010000900460ff1690811115610da157610da16124be565b145b15610e06578a8410610df857600c8281548110610dc257610dc2612740565b9060005260206000200154898481518110610ddf57610ddf612740565b602090810291909101015282610df481612756565b9350505b83610e0281612756565b9450505b5080610e1181612756565b915050610d1f565b5050505050505b935093915050565b610e30611e3f565b6109296000611fa9565b610e42611e3f565b6001600160a01b038116610e8b5760405162461bcd60e51b815260206004820152601060248201526f496e76616c696420747265617375727960801b604482015260640161072c565b600780546001600160a01b0319166001600160a01b0383169081179091556040517f7dae230f18360d76a040c81f050aa14eb9d6dc7901b20fc5d855e2a20fe814d190600090a250565b610edd611e3f565b610929611ff9565b610eed611ebe565b6000818152600b6020526040902060018101546001600160a01b03163314610f4a5760405162461bcd60e51b815260206004820152601060248201526f2737ba103937b7b69031b932b0ba37b960811b604482015260640161072c565b600060048281015462010000900460ff1690811115610f6b57610f6b6124be565b14610fa85760405162461bcd60e51b815260206004820152600d60248201526c10d85b9b9bdd0818d85b98d95b609a1b604482015260640161072c565b60048101805462ff00001916620400001790556003810154610ff6906001600160a01b037f000000000000000000000000000000000000000000000000000000000000000016903390611f73565b604051339083907fcb0b396d88450068151be81530319ec9262bb40342de883160c350b166a7fa7190600090a350610b4060018055565b611035611ebe565b6000848152600b60205260409020600160048281015462010000900460ff1690811115611064576110646124be565b146110a35760405162461bcd60e51b815260206004820152600f60248201526e149bdbdb481b9bdd08199a5b1b1959608a1b604482015260640161072c565b60008481526013602052604090205460ff16156110f75760405162461bcd60e51b8152602060048201526012602482015271139bdb98d948185b1c9958591e481d5cd95960721b604482015260640161072c565b6040805160208082018890526000828401819052605480840189905284518085039091018152607490930190935281519101207f19457468657265756d205369676e6564204d6573736167653a0a3332000000008252601c819052603c8220909150600061119d86868080601f01602080910402602001604051908101604052809392919081815260200183838082843760009201919091525086939250506120369050565b6008549091506001600160a01b038083169116146111f85760405162461bcd60e51b8152602060048201526018602482015277496e76616c6964206f7261636c65207369676e617475726560401b604482015260640161072c565b60008781526013602052604090208054600160ff19909116811790915560048501805462010000600160b81b031916620300001790554260068601558401546003850154611275917f00000000000000000000000000000000000000000000000000000000000000006001600160a01b0390811692911690611f73565b600284015460038501546112b7916001600160a01b037f0000000000000000000000000000000000000000000000000000000000000000811692911690611f73565b6002840154600185015460038601546040519081526001600160a01b0392831692909116908a907f6a5fa74a4a27db85d0ae7bf90b00022cd6023cfff19567aa95a2d862fbad62a29060200160405180910390a45050505061131860018055565b50505050565b61137d604080516101408101825260008082526020820181905291810182905260608101829052608081018290529060a082019081526020016000815260200160006001600160a01b0316815260200160008152602001600081525090565b6000828152600b6020908152604091829020825161014081018452815481526001808301546001600160a01b039081169483019490945260028301549093169381019390935260038101546060840152600481015460ff8082166080860152919260a0850192610100909204909116908111156113fc576113fc6124be565b600181111561140d5761140d6124be565b81526020016004820160029054906101000a900460ff166004811115611435576114356124be565b6004811115611446576114466124be565b81526004820154630100000090046001600160a01b031660208201526005820154604082015260069091015460609091015292915050565b6001600160a01b0381166000908152600d60209081526040918290208054835181840281018401909452808452606093928301828280156114de57602002820191906000526020600020905b8154815260200190600101908083116114ca575b50505050509050919050565b6114f2611e3f565b6001600160a01b03821661153a5760405162461bcd60e51b815260206004820152600f60248201526e496e76616c6964206164647265737360881b604482015260640161072c565b60095481111561158c5760405162461bcd60e51b815260206004820152601960248201527f496e73756666696369656e742070656e64696e67206665657300000000000000604482015260640161072c565b806009600082825461159e9190612785565b9250508190555080600a60008282546115b7919061272d565b909155506115f190506001600160a01b037f0000000000000000000000000000000000000000000000000000000000000000168383611f73565b816001600160a01b03167f5d296b0bb3bfb5379f2e92f62036ddc0eb44307b0b690a191a7533e3a31820bd8260405161162c91815260200190565b60405180910390a25050565b611640611ebe565b6000858152600b60205260409020600160048281015462010000900460ff169081111561166f5761166f6124be565b146116ae5760405162461bcd60e51b815260206004820152600f60248201526e149bdbdb481b9bdd08199a5b1b1959608a1b604482015260640161072c565b60018101546001600160a01b03868116911614806116db575060028101546001600160a01b038681169116145b6117185760405162461bcd60e51b815260206004820152600e60248201526d24b73b30b634b2103bb4b73732b960911b604482015260640161072c565b60008481526013602052604090205460ff161561176c5760405162461bcd60e51b8152602060048201526012602482015271139bdb98d948185b1c9958591e481d5cd95960721b604482015260640161072c565b604080516020808201899052606088901b6bffffffffffffffffffffffff191682840152605480830188905283518084039091018152607490920190925280519101207f19457468657265756d205369676e6564204d6573736167653a0a3332000000006000908152601c829052603c81209050600061182486868080601f01602080910402602001604051908101604052809392919081815260200183838082843760009201919091525086939250506120369050565b6008549091506001600160a01b0380831691161461187f5760405162461bcd60e51b8152602060048201526018602482015277496e76616c6964206f7261636c65207369676e617475726560401b604482015260640161072c565b6000878152601360205260408120805460ff1916600117905560038501546118a8906002612716565b905060006103e86118bb61038484612716565b6118c59190612798565b905060006103e86118d7603285612716565b6118e19190612798565b905060006103e86118f3603286612716565b6118fd9190612798565b60048901805491925060029162ff00001916620100008302179055506004880180546001600160a01b03808f16630100000081026301000000600160b81b0319909316929092179092554260068b015560018a0154600092161461196e5760018901546001600160a01b031661197d565b60028901546001600160a01b03165b6001600160a01b038e166000908152600e602052604081208054929350906119a483612756565b90915550506001600160a01b0381166000908152600f602052604081208054916119cd83612756565b90915550506001600160a01b038d16600090815260106020526040812080548692906119fa90849061272d565b925050819055508160096000828254611a13919061272d565b90915550611a4d90506001600160a01b037f0000000000000000000000000000000000000000000000000000000000000000168e86611f73565b600754611a87906001600160a01b037f00000000000000000000000000000000000000000000000000000000000000008116911685611f73565b60408051858152602081018590529081018390526001600160a01b038e16908f907f16efe5897e1b57622ae96aabfc080bfc2e11675afa8afaeb7479865ea856d52f9060600160405180910390a3505050505050505050611ae760018055565b5050505050565b6000611af8611ebe565b611b00611ee8565b60038360ff161115611b245760405162461bcd60e51b815260040161072c906126da565b6000611b2f846107e9565b600c546040516bffffffffffffffffffffffff193360601b166020820152426034820152446054820152607481019190915290915060940160408051601f1981840301815291905280516020909101209150611bb66001600160a01b037f000000000000000000000000000000000000000000000000000000000000000016333084611f0c565b604051806101400160405280838152602001336001600160a01b0316815260200160006001600160a01b031681526020018281526020018560ff168152602001846001811115611c0857611c086124be565b81526020016000815260006020808301829052426040808501919091526060938401839052868352600b8252918290208451815590840151600180830180546001600160a01b039384166001600160a01b03199182161790915593860151600284018054919093169416939093179055918301516003830155608083015160048301805460ff90921660ff1983168117825560a086015193919261ffff19161790610100908490811115611cbe57611cbe6124be565b021790555060c08201518160040160026101000a81548160ff02191690836004811115611ced57611ced6124be565b021790555060e08201516004820180546001600160a01b039092166301000000026301000000600160b81b0319909216919091179055610100820151600582015561012090910151600690910155600c805460018181019092557fdf6966c971051c3d54ec59162606531493a51404a002842f56009d7e5cf4a8c701839055336000908152600d6020908152604080832080549485018155835281832090930185905560ff8716825260119052908120805491611da983612756565b9190505550336001600160a01b0316827f5e72612ca9f83d2eb6e23cf918890544be95a6cd5d3bcd1516473a0a2d64cf20868685604051611dec939291906127ba565b60405180910390a350611dfe60018055565b92915050565b611e0c611e3f565b6001600160a01b038116611e3657604051631e4fbdf760e01b81526000600482015260240161072c565b610b4081611fa9565b6000546001600160a01b031633146109295760405163118cdaa760e01b815233600482015260240161072c565b611e74612060565b6002805460ff191690557f5db9ee0a495bf2e6ff9c91a7834c1ba4fdd244a5e8aa4e537bd38aeae4b073aa335b6040516001600160a01b03909116815260200160405180910390a1565b600260015403611ee157604051633ee5aeb560e01b815260040160405180910390fd5b6002600155565b60025460ff16156109295760405163d93c066560e01b815260040160405180910390fd5b6040516001600160a01b0384811660248301528381166044830152606482018390526113189186918216906323b872dd906084015b604051602081830303815290604052915060e01b6020820180516001600160e01b038381831617835250505050612083565b6040516001600160a01b03838116602483015260448201839052611fa491859182169063a9059cbb90606401611f41565b505050565b600080546001600160a01b038381166001600160a01b0319831681178455604051919092169283917f8be0079c531659141344cd1fd0a4f28419497f9722a3daafe3b4186f6b6457e09190a35050565b612001611ee8565b6002805460ff191660011790557f62e78cea01bee320cd4e420270b5ea74000d11b0c9f74754ebdbfc544b05a258611ea13390565b60008060008061204686866120f4565b9250925092506120568282612141565b5090949350505050565b60025460ff1661092957604051638dfc202b60e01b815260040160405180910390fd5b600080602060008451602086016000885af1806120a6576040513d6000823e3d81fd5b50506000513d915081156120be5780600114156120cb565b6001600160a01b0384163b155b1561131857604051635274afe760e01b81526001600160a01b038516600482015260240161072c565b6000806000835160410361212e5760208401516040850151606086015160001a612120888285856121fa565b95509550955050505061213a565b50508151600091506002905b9250925092565b6000826003811115612155576121556124be565b0361215e575050565b6001826003811115612172576121726124be565b036121905760405163f645eedf60e01b815260040160405180910390fd5b60028260038111156121a4576121a46124be565b036121c55760405163fce698f760e01b81526004810182905260240161072c565b60038260038111156121d9576121d96124be565b03610be7576040516335e2f38360e21b81526004810182905260240161072c565b600080807f7fffffffffffffffffffffffffffffff5d576e7357a4501ddfe92f46681b20a084111561223557506000915060039050826122bf565b604080516000808252602082018084528a905260ff891692820192909252606081018790526080810186905260019060a0016020604051602081039080840390855afa158015612289573d6000803e3d6000fd5b5050604051601f1901519150506001600160a01b0381166122b5575060009250600191508290506122bf565b9250600091508190505b9450945094915050565b6000602082840312156122db57600080fd5b5035919050565b80356001600160a01b03811681146122f957600080fd5b919050565b60006020828403121561231057600080fd5b612319826122e2565b9392505050565b803560ff811681146122f957600080fd5b6000806040838503121561234457600080fd5b61234d83612320565b946020939093013593505050565b60006020828403121561236d57600080fd5b61231982612320565b6000806040838503121561238957600080fd5b61234d836122e2565b6000806000606084860312156123a757600080fd5b6123b084612320565b95602085013595506040909401359392505050565b600081518084526020808501945080840160005b838110156123f5578151875295820195908201906001016123d9565b509495945050505050565b60408152600061241360408301856123c5565b90508260208301529392505050565b60008083601f84011261243457600080fd5b50813567ffffffffffffffff81111561244c57600080fd5b60208301915083602082850101111561246457600080fd5b9250929050565b6000806000806060858703121561248157600080fd5b8435935060208501359250604085013567ffffffffffffffff8111156124a657600080fd5b6124b287828801612422565b95989497509550505050565b634e487b7160e01b600052602160045260246000fd5b600281106124e4576124e46124be565b9052565b600581106124e4576124e46124be565b8151815260208083015161014083019161251c908401826001600160a01b03169052565b50604083015161253760408401826001600160a01b03169052565b50606083015160608301526080830151612556608084018260ff169052565b5060a083015161256960a08401826124d4565b5060c083015161257c60c08401826124e8565b5060e083015161259760e08401826001600160a01b03169052565b50610100838101519083015261012092830151929091019190915290565b60208152600061231960208301846123c5565b8a81526001600160a01b038a8116602083015289811660408301526060820189905260ff8816608083015261014082019061260660a08401896124d4565b61261360c08401886124e8565b9490941660e082015261010081019290925261012090910152979650505050505050565b60008060008060006080868803121561264f57600080fd5b8535945061265f602087016122e2565b935060408601359250606086013567ffffffffffffffff81111561268257600080fd5b61268e88828901612422565b969995985093965092949392505050565b600080604083850312156126b257600080fd5b6126bb83612320565b91506020830135600281106126cf57600080fd5b809150509250929050565b6020808252600c908201526b24b73b30b634b2103a34b2b960a11b604082015260600190565b634e487b7160e01b600052601160045260246000fd5b8082028115828204841417611dfe57611dfe612700565b80820180821115611dfe57611dfe612700565b634e487b7160e01b600052603260045260246000fd5b60006001820161276857612768612700565b5060010190565b634e487b7160e01b600052604160045260246000fd5b81810381811115611dfe57611dfe612700565b6000826127b557634e487b7160e01b600052601260045260246000fd5b500490565b60ff84168152606081016127d160208301856124d4565b82604083015294935050505056fea26469706673582212209933fc1430d43930fdee6792f2c6a531e55be9991c1d260c1c688fcc4a65b2f164736f6c63430008140033",
  "linkReferences": {},
  "deployedLinkReferences": {}
}